:0410000007EF08F0FE
:1010080056828BED27F010EF2CF000B6105E10849E
:10101800101B1009024300020100C032090400003D
:101028000102020100052400100104240202052423
:101038000600010524010001070581030A000209D1
:10104800040100020A000000070502024000000730
:10105800058202400000260341004C004C00490074
:101068004F004E00450020004A004F00410051004B
:10107800550049004E000000000000002003540005
:1010880065007300740020005500530042002000E2
:1010980044006500760069006300650012010002E3
:1010A80002000020D8040A00000101020001040324
:1010B8000904446972656374696F6E3A20554E433A
:1010C8004C4F434B574953450A00556E7375707022
:1010D8006F7274656420436F6D6D616E642E0A00D3
:1010E800446972656374696F6E3A20434C4F434B91
:1010F800574953450A0047302D636F6D6D616E6423
:1011080020617272697665210A005820484F4D4562
:10111800204152524956452100494E46494E4954AC
:101128005900696E66696E697479004E414E0069AE
:101138006E66006E616E0020000000017B517C111C
:10114800D8B4A9EF08F0ABEF08F0B7EF08F07BC010
:10115800D9FF7CC0DAFF79C0DEFF7AC0DDFFB7EFC8
:1011680008F0794B7A2B010E936F79C0D9FF7AC0BA
:10117800DAFF200EDE18D8B4C4EF08F0C7EF08F085
:10118800010EC8EF08F0000E986F996B98519911ED
:10119800D8A4D1EF08F0D3EF08F0F5EF08F0F70E78
:1011A8007D6FFF0E7E6F79C0D9FF7AC0DAFFDF50FE
:1011B8007F6F7F51986F996B98C080F099C081F0CC
:1011C8007D5180277E518123815109E1050E805D83
:1011D800D8A0F1EF08F0F3EF08F0F5EF08F0000EF3
:1011E800936F93C083F0846B83518411D8A4FFEF6D
:1011F80008F001EF09F0B5EF08F0000E956F2D0E1D
:1012080098199911D8A40BEF09F00DEF09F013EF15
:1012180009F0010E956F794B7A2B1FEF09F02B0E11
:1012280098199911D8A41BEF09F01DEF09F01FEFC9
:1012380009F00FEF09F0000E9E6F24EF09F09E2BC6
:101248009E517925D96E000E7A21DA6EDF50D8B416
:1012580030EF09F032EF09F062EF09F09E5179257D
:10126800D96E000E7A21DA6EDF507D6F2A0E9E2528
:10127800F66EF76A110EF7220800F5507D19D8B4FA
:1012880048EF09F04AEF09F023EF09F09E5179255C
:10129800D96E000E7A21DA6EDF507D6F210E9E2501
:1012A800F66EF76A110EF7220800F5507D19D8B4CA
:1012B80060EF09F062EF09F023EF09F0020E9E6576
:1012C80068EF09F06AEF09F096EF09F0000E9A6FDF
:1012D800000E9B6F800E9C6F7F0E9D6F7B517C1163
:1012E800D8B479EF09F07BEF09F03CEF11F0080E64
:1012F8009E19D8B482EF09F084EF09F086EF09F05F
:10130800030E9E6F9E5179257D6F000E7A217E6FA8
:101318007BC0D9FF7CC0DAFF7DC0DEFF7EC0DDFF69
:101328003CEF11F0000E9E6F9BEF09F09E2B9E5133
:101338007925D96E000E7A21DA6EDF50D8B4A7EF7E
:1013480009F0A9EF09F0D9EF09F09E517925D96E76
:10135800000E7A21DA6EDF507D6F3B0E9E25F66E09
:10136800F76A110EF7220800F5507D19D8B4BFEFBF
:1013780009F0C1EF09F09AEF09F09E517925D96E6D
:10138800000E7A21DA6EDF507D6F330E9E25F66EE1
:10139800F76A110EF7220800F5507D19D8B4D7EF77
:1013A80009F0D9EF09F09AEF09F0030E9E19D8A4B5
:1013B800E0EF09F0E2EF09F051EF0AF0110E606F6B
:1013C800110E616F99EC2FF060C09AF061C09BF02C
:1013D80062C09CF063C09DF000017B517C11D8B4C1
:1013E800F8EF09F0FAEF09F03CEF11F09E51792778
:1013F800000E7A2379C0D9FF7AC0DAFF280EDE18EA
:10140800D8A409EF0AF00BEF0AF047EF0AF0000E34
:101418009E6F10EF0AF09E2B9E517925D96E000E13
:101428007A21DA6EDF50D8B41CEF0AF01EEF0AF00A
:101438002DEF0AF09E517925D96E000E7A21DA6EC9
:10144800290EDE18D8A42BEF0AF02DEF0AF00FEFC3
:101458000AF09E517925D96E000E7A21DA6E290E8E
:10146800DE18D8A43AEF0AF03CEF0AF047EF0AF08A
:101478009E517D6F7E6B010E7D27000E7E237D5170
:1014880079277E517A237BC0D9FF7CC0DAFF79C0E7
:10149800DEFF7AC0DDFF3CEF11F0000E996F000E01
:1014A800986F000E9A6F000E9B6F000E9C6F000ED7
:1014B8009D6F000E976F000E966F000E9E6F66EF81
:1014C8000AF09E2B9E517925D96E000E7A21DA6E8C
:1014D800300EDE18D8B473EF0AF075EF0AF065EF36
:1014E8000AF09E51D8B47BEF0AF07DEF0AF019EFAD
:1014F8000EF09E517925D96E000E7A21DA6E780E9B
:10150800DE18D8B48AEF0AF08CEF0AF09BEF0AF0E5
:101518009E517925D96E000E7A21DA6E580EDE18A2
:10152800D8A499EF0AF09BEF0AF019EF0EF09E513C
:101538007D6F7E6B010E7D27000E7E237D517927FE
:101548007E517A23000E9E6FABEF0AF09E2B9E51C0
:101558007925D96E000E7A21DA6E300EDE18D8B4ED
:10156800B8EF0AF0BAEF0AF0AAEF0AF0000E9E6F81
:101578009E517925D96E000E7A21DA6E700EDE182A
:10158800D8B4C9EF0AF0CBEF0AF05BEF0CF09E512C
:101598007925D96E000E7A21DA6E500EDE18D8A49D
:1015A800D8EF0AF0DAEF0AF0DCEF0AF05BEF0CF0A4
:1015B8009E517925D96E000E7A21DA6E2E0EDE182C
:1015C800D8A4E9EF0AF0EBEF0AF0EFEF0AF09589FB
:1015D8009E2B5BEF0CF09E517925D96E000E7A2177
:1015E800DA6EDF507D6F7D51606F616BA1EC2BF07F
:1015F800000160516111D8B404EF0BF006EF0BF055
:1016080082EF0BF0000E946FD00E7D6FFF0E7E6F91
:101618009E517925D96E000E7A21DA6EDF507F6FE0
:10162800806B7D517F277E51802380510AE10A0E0D
:101638007F5DD8A022EF0BF025EF0BF0010E26EF0F
:101648000BF0000E856F866B85518611D8B42FEF8D
:101658000BF031EF0BF03CEF0BF09E517925D96E72
:10166800000E7A21DA6EDF50D00F946F4DEF0BF039
:101678009E517925D96E000E7A21DA6EDF507D6F82
:101688007D51666F676BE1EC2CF000016651C90F64
:10169800946F99BF5BEF0BF0995107E1080E985DC5
:1016A800D8B059EF0BF05BEF0BF07AEF0BF09851D5
:1016B80007087D6FD8907D37D8907D3794C07EF02D
:1016C8007F6B806B816B7D2B6FEF0BF0D8907E3733
:1016D8007F37803781377D2F6AEF0BF07E519A1361
:1016E8007F519B1380519C1381519D13984B992BCB
:1016F800040E9627000E97238CEF0BF0000E796FDF
:10170800000E7A6F000E7B6F000E7C6F5DEF11F09C
:101718009E2BBCEF0AF09E517925D96E000E7A21D6
:10172800DA6E700EDE18D8B49CEF0BF09EEF0BF05B
:1017380062EF0CF09E517925D96E000E7A21DA6E8F
:10174800500EDE18D8A4ABEF0BF0ADEF0BF0AFEFF7
:101758000BF062EF0CF09E517925D96E000E7A21BC
:10176800DA6E300EDE18D8A4BCEF0BF0BEEF0BF02B
:10177800CDEF0BF098519911D8A4C5EF0BF0C7EF36
:101788000BF0CDEF0BF0FC0E9627FF0E97235AEFC8
:101798000CF09E517925D96E000E7A21DA6EDF5051
:1017A8007D6F7D51606F616BA1EC2BF00001605182
:1017B8006111D8B4E2EF0BF0E4EF0BF05AEF0CF044
:1017C800000E946FD00E7D6FFF0E7E6F9E517925AF
:1017D800D96E000E7A21DA6EDF507F6F806B7D51F3
:1017E8007F277E51802380510AE10A0E7F5DD8A0B1
:1017F80000EF0CF003EF0CF0010E04EF0CF0000EFC
:10180800876F886B87518811D8B40DEF0CF00FEFF4
:101818000CF01AEF0CF09E517925D96E000E7A2142
:10182800DA6EDF50D00F946F2BEF0CF09E517925B4
:10183800D96E000E7A21DA6EDF507D6F7D51666FAA
:10184800676BE1EC2CF000016651C90F946F99BFEA
:1018580039EF0CF0995107E1080E985DD8B037EFD1
:101868000CF039EF0CF058EF0CF0985107087D6F29
:10187800D8907D37D8907D3794C07EF07F6B806B91
:10188800816B7D2B4DEF0CF0D8907E377F378037FA
:1018980081377D2F48EF0CF07E519A137F519B13AF
:1018A80080519C1381519D13984B992B9E2B95B970
:1018B80060EF0CF062EF0CF08FEF0BF09E51792582
:1018C800D96E000E7A21DA6E700EDE18D8B46FEF7A
:1018D8000CF071EF0CF08AEF0CF09E517925D96E5F
:1018E800000E7A21DA6E500EDE18D8B47EEF0CF0B6
:1018F80080EF0CF08AEF0CF0000E796F000E7A6F13
:10190800000E7B6F000E7C6F5DEF11F09E2B9E51D9
:101918007925D96E000E7A21DA6E2B0EDE18D8A43E
:1019280098EF0CF09AEF0CF09DEF0CF09E2BAEEFB9
:101938000CF09E517925D96E000E7A21DA6E2D0EA3
:10194800DE18D8A4AAEF0CF0ACEF0CF0AEEF0CF058
:1019580095879E2B9E517927000E7A23000E9E6F45
:10196800B7EF0CF09E2B9E517925D96E000E7A2187
:10197800DA6E300EDE18D8B4C4EF0CF0C6EF0CF0F7
:10198800B6EF0CF0000E996F000E986FF9EF0CF09F
:101998009E51D8B4D2EF0CF0D4EF0CF0E2EF0CF07B
:1019A80098C060F099C061F0000E636F0A0E626F14
:1019B80085EC2FF060C098F061C099F0D00E00015E
:1019C8007D6FFF0E7E6F9E517925D96E000E7A21AC
:1019D800DA6EDF507F6F806B7D517F277E518023C9
:1019E8007F519827805199239E2BD00E7D6FFF0E33
:1019F8007E6F9E517925D96E000E7A21DA6EDF50FE
:101A08007F6F806B7D517F277E51802380510AE153
:101A18000A0E7F5DD8A013EF0DF016EF0DF0010E42
:101A280017EF0DF0000E896F8A6B89518A11D8A4BF
:101A380020EF0DF022EF0DF0CCEF0CF09E51D8A462
:101A480028EF0DF02AEF0DF034EF0DF0000E796F4E
:101A5800000E7A6F000E7B6F000E7C6F5DEF11F049
:101A680095A739EF0DF03BEF0DF03FEF0DF0986DB6
:101A7800991FD8B0992B98519627995197237B5144
:101A88007C11D8B44AEF0DF04CEF0DF05AEF0DF081
:101A98009E5179257D6F000E7A217E6F7BC0D9FF1C
:101AA8007CC0DAFF7DC0DEFF7EC0DDFF9A519B114E
:101AB8009C119D11D8A463EF0DF065EF0DF06FEF49
:101AC8000DF0000E796F000E7A6F000E7B6F000E1E
:101AD8007C6F5DEF11F0FF0E9A157D6F000E9B1560
:101AE8007E6F000E9C157F6F000E9D15806F8051D4
:101AF8007F117E1109E1810E7D5DD8A086EF0DF082
:101B080088EF0DF09AEF0DF0000E9A27010E9B2337
:101B1800000E9C23000E9D239AEF0DF0D8909A3763
:101B28009B379C379D379607D8A097079DAF9FEFA7
:101B38000DF0A1EF0DF092EF0DF097AFADEF0DF0B6
:101B4800830E965DFF0E9759D8B0ADEF0DF0AFEF4D
:101B58000DF0BBEF0DF0FF0E976F810E966F000E24
:101B68009A6F000E9B6F000E9C6F000E9D6F810E8A
:101B7800961908E19729D8B4C4EF0DF0C6EF0DF017
:101B8800CEEF0DF0D8909A379B379C379D37960744
:101B9800D8A0970797BFDAEF0DF0975109E1800EAB
:101BA800965DD8A0DAEF0DF0DCEF0DF0E8EF0DF060
:101BB800000E9A6F000E9B6F000E9C6F000E9D6FBB
:101BC800000E976F800E966F090E7D6FD8909D332B
:101BD8009C339B339A337D2FEAEF0DF0FF0E9A1753
:101BE800FF0E9B177F0E9C17000E9D177F0E9625E4
:101BF8007D6F000E97217E6FFF0E7D157F6F806BC6
:101C0800816B826B170ED8907F3780378137823788
:101C1800E82E07EF0EF07F519A1380519B138151E4
:101C28009C1382519D133CEF11F095B91EEF0EF0F5
:101C380020EF0EF032EF0EF079C0D9FF7AC0DAFF4C
:101C48002E0EDE18D8A42BEF0EF02DEF0EF032EF8B
:101C58000EF09589794B7A2B19EF0EF0D00E7D6F27
:101C6800FF0E7E6F79C0D9FF7AC0DAFFDF507F6F31
:101C7800806B7D517F277E51802380510AE10A0EB7
:101C88007F5DD8A04AEF0EF04DEF0EF0010E4EEF3B
:101C98000EF0000E8B6F8C6B8B518C11D8A457EF04
:101CA8000EF059EF0EF05BEF0EF0AAEF0EF09583F1
:101CB800090E98199911D8B464EF0EF066EF0EF07A
:101CC8009DEF0EF095A96BEF0EF06DEF0EF070EF33
:101CD8000EF09607D8A09707984B992B9AC060F0FA
:101CE8009BC061F09CC062F09DC063F00A0E646FF7
:101CF800000E656F000E666F000E676FDAEC2BF052
:101D080060C09AF061C09BF062C09CF063C09DF017
:101D180079C0D9FF7AC0DAFFDF5000017D6FD00E9D
:101D28007D277D519A27000E9B239C239D23A6EF98
:101D38000EF095B9A2EF0EF0A4EF0EF0A6EF0EF09C
:101D4800964B972B794B7A2B19EF0EF0000E996F63
:101D5800000E986F79C0D9FF7AC0DAFF650EDE18D9
:101D6800D8B4B9EF0EF0BBEF0EF0C8EF0EF079C0A3
:101D7800D9FF7AC0DAFF450EDE18D8A4C6EF0EF0F8
:101D8800C8EF0EF0B9EF0FF0794B7A2B79C0D9FF75
:101D98007AC0DAFF2D0EDE18D8A4D5EF0EF0D7EFF3
:101DA8000EF0DCEF0EF09587794B7A2BEBEF0EF007
:101DB80079C0D9FF7AC0DAFF2B0EDE18D8A4E7EF76
:101DC8000EF0E9EF0EF0EBEF0EF0794B7A2B79C0BD
:101DD800D9FF7AC0DAFF300EDE18D8B4F6EF0EF06D
:101DE800F8EF0EF0E9EF0EF0D00E7D6FFF0E7E6F6C
:101DF80079C0D9FF7AC0DAFFDF507F6F806B7D51E1
:101E08007F277E51802380510AE10A0E7F5DD8A08A
:101E180010EF0FF013EF0FF0010E14EF0FF0000E9C
:101E28008D6F8E6B8D518E11D8B41DEF0FF01FEF93
:101E38000FF0AEEF0FF079C0D9FF7AC0DAFFDF50AC
:101E48007D6FD00E7D277D51986F996B794B7A2BDA
:101E5800D00E7D6FFF0E7E6F79C0D9FF7AC0DAFF92
:101E6800DF507F6F806B7D517F277E5180238051AB
:101E78000AE10A0E7F5DD8A044EF0FF047EF0FF09C
:101E8800010E48EF0FF0000E8F6F906B8F5190117D
:101E9800D8B451EF0FF053EF0FF0AEEF0FF079C059
:101EA800D9FF7AC0DAFFDF507D6FD00E7D2798C04A
:101EB80060F099C061F0000E636F0A0E626F85ECE6
:101EC8002FF000017D516025986F000E6121996FF8
:101ED800794B7A2BD00E7D6FFF0E7E6F79C0D9FFBC
:101EE8007AC0DAFFDF507F6F806B7D517F277E518C
:101EF800802380510AE10A0E7F5DD8A086EF0FF09B
:101F080089EF0FF0010E8AEF0FF0000E916F926BC0
:101F180091519211D8B493EF0FF095EF0FF0AEEF07
:101F28000FF079C0D9FF7AC0DAFFDF507D6FD00E8D
:101F38007D2798C060F099C061F0000E636F0A0EAB
:101F4800626F85EC2FF000017D516025986F000EBF
:101F58006121996F95A7B3EF0FF0B5EF0FF0B9EFC7
:101F68000FF0986D991FD8B0992B985196279951D1
:101F780097237B517C11D8B4C4EF0FF0C6EF0FF054
:101F8800D5EF0FF095A3CBEF0FF0CDEF0FF0D5EF16
:101F98000FF07BC0D9FF7CC0DAFF79C0DEFF7AC0C2
:101FA800DDFF9AC060F09BC061F09CC062F09DC0EC
:101FB80063F0000EAAEC19F060C09AF061C09BF0C3
:101FC80062C09CF063C09DF09AC060F09BC061F055
:101FD8009CC062F09DC063F0000E0001646F000EAB
:101FE800656F000E666F000E676F57EC29F00001F1
:101FF800D8A001EF10F003EF10F00DEF10F0000E75
:10200800796F000E7A6F000E7B6F000E7C6F5DEFAC
:1020180011F097BF14EF10F012EF10F0A5EF10F0C9
:10202800966D971FD8B0972B39EF10F09AC060F0D3
:102038009BC061F09CC062F09DC063F0F90E646FB4
:10204800020E656F150E666F500E676F74EC13F015
:1020580060C09AF061C09BF062C09CF063C09DF0C4
:102068000001F60E9627FF0E972397BF47EF10F053
:10207800975107E10A0E965DD8B045EF10F047EF8B
:1020880010F01AEF10F067EF10F09AC060F09BC0E4
:1020980061F09CC062F09DC063F0000E646F000E9A
:1020A800656F200E666F410E676F74EC13F060C0A9
:1020B8009AF061C09BF062C09CF063C09DF0000183
:1020C8009607D8A0970796519711D8A46EEF10F0ED
:1020D80070EF10F049EF10F09AC060F09BC061F00B
:1020E8009CC062F09DC063F0000E646F000E656FC7
:1020F800800E666F000E676F29EC25F00001D8B0DE
:1021080088EF10F08AEF10F03CEF11F095A18FEFF7
:1021180010F091EF10F09BEF10F0000E796F000EA9
:102128007A6F800E7B6F800E7C6F5DEF11F0000E72
:10213800796F000E7A6F800E7B6F000E7C6F5DEFFB
:1021480011F097BFB0EF10F0975108E19605D8A0AD
:10215800B0EF10F0B2EF10F03CEF11F0D3EF10F049
:102168009AC060F09BC061F09CC062F09DC063F0B3
:10217800F90E646F020E656F150E666F500E676F6D
:102188005EEC11F060C09AF061C09BF062C09CF0F8
:1021980063C09DF00001F60E9627FF0E9723975116
:1021A80007E10A0E965DD8B0DCEF10F0DEEF10F014
:1021B800B4EF10F0FEEF10F09AC060F09BC061F031
:1021C8009CC062F09DC063F0000E646F000E656FE6
:1021D800200E666F410E676F5EEC11F060C09AF0DA
:1021E80061C09BF062C09CF063C09DF0000196073F
:1021F800D8A0970796519711D8A405EF11F007EFCB
:1022080011F0E0EF10F0FF0E606FFF0E616F7F0EB0
:10221800626F7F0E636F9AC064F09BC065F09CC0CC
:1022280066F09DC067F029EC25F00001D8B01FEFDB
:1022380011F021EF11F03CEF11F095A126EF11F00C
:1022480028EF11F032EF11F0000E796F000E7A6F5F
:10225800800E7B6F800E7C6F5DEF11F0000E796F42
:10226800000E7A6F800E7B6F000E7C6F5DEF11F0B1
:1022780095A141EF11F043EF11F055EF11F09AC01D
:1022880060F09BC061F09CC062F09DC063F0A0EC60
:102298002EF060C09AF061C09BF062C09CF063C0F1
:1022A8009DF09AC079F09BC07AF09CC07BF09DC0ED
:1022B8007CF0120000016351800B6C6F6351632541
:1022C800726F62AF6AEF11F06CEF11F06DEF11F001
:1022D80072817251D8B473EF11F075EF11F088EF75
:1022E80011F07229D8A47BEF11F07DEF11F085EF82
:1022F80011F0000E606F000E616F000E626F000E2D
:10230800636F628F90EF11F0000E606F000E616FC7
:10231800000E626F000E636F6751800B6C1B675174
:1023280067256D6F66AF9BEF11F09DEF11F09EEF83
:1023380011F06D816D51D8B4A4EF11F0A6EF11F032
:10234800B9EF11F06D29D8A4ACEF11F0AEEF11F090
:10235800B6EF11F0000E646F000E656F000E666F29
:10236800000E676F668FC1EF11F0000E646F000EEC
:10237800656F000E666F000E676F6D51D8B4C7EFBA
:1023880011F0C9EF11F0D1EF11F07251D8A4CFEFCD
:1023980011F0D1EF11F0DBEF11F0000E606F000EBD
:1023A800616F000E626F000E636F73EF13F066517A
:1023B8006003F3CF77F0F4CF78F077516E6F6F6BDF
:1023C800706B716B7851736F746B756B766B65514D
:1023D8006103F3CF77F0F4CF78F077516E27000ED2
:1023E8006F237023712378517327000E742375238C
:1023F800762364516203F3CF77F0F4CF78F0775106
:102408006E27000E6F237023712378517327000EF7
:1024180074237523762370C071F06FC070F06EC09E
:102428006FF06E6B64516103F3CF77F0F4CF78F0FF
:1024380077516E2778516F23000E7023000E712399
:1024480065516003F3CF77F0F4CF78F077516E27BA
:1024580078516F23000E7023000E712370C071F045
:102468006FC070F06EC06FF06E6B64516003F3CF95
:1024780077F0F4CF78F077516E2778516F23000EFC
:102488007023000E712366516103F3CF77F0F4CF08
:1024980078F07751732778517423000E7523000E56
:1024A800762365516203F3CF77F0F4CF78F0775154
:1024B800732778517423000E7523000E7623665116
:1024C8006203F3CF77F0F4CF78F07751686F7851E3
:1024D800696F6A6B6B6B6AC06BF069C06AF068C041
:1024E80069F0686B68517327695174236A517523C1
:1024F8006B5176236EC068F06FC069F070C06AF0E7
:1025080071C06BF0190E8EEF12F0D8906B336A33EE
:1025180069336833E82E89EF12F0685173276951DF
:1025280074236A5175236B51762370C071F06FC0A4
:1025380070F06EC06FF06E6B6D5172C068F0696BB1
:102548006827000E6923820E6825776FFF0E6921C0
:10255800786FC4EF12F0D8907337743775377637C1
:1025680071AFB9EF12F0BBEF12F0BCEF12F073814C
:10257800D8906E376F37703771377707D8A07807DC
:1025880075AFC9EF12F0CBEF12F0AFEF12F0000EFB
:102598006D6F71AFD2EF12F0D4EF12F0F8EF12F0C6
:1025A800FF0E6E15686FFF0E6F15696FFF0E7015C1
:1025B8006A6F7F0E71156B6F685169116A116B1123
:1025C800D8B4E9EF12F0EBEF12F0EFEF12F0010ED2
:1025D8006D6FF8EF12F073A1F4EF12F0F6EF12F04E
:1025E800F8EF12F0EBEF12F06D51D8B4FEEF12F0E5
:1025F80000EF13F024EF13F0010E7327000E74237D
:102608007523762376A10BEF13F00DEF13F024EF6B
:1026180013F073C068F074C069F075C06AF076C0D2
:102628006BF06B356B336A336933683368C073F0AA
:1026380069C074F06AC075F06BC076F0774B782B80
:1026480078BF2FEF13F0785108E17729D8A02FEF42
:1026580013F031EF13F03BEF13F0000E736F000E21
:10266800746F800E756F7F0E766F69EF13F078BF09
:1026780048EF13F0785106E17705D8B046EF13F02C
:1026880048EF13F054EF13F0000E736F000E746FE1
:10269800000E756F000E766F000E6C6F69EF13F009
:1026A80077C072F0FF0E7317FF0E74177F0E751741
:1026B800000E761772A163EF13F065EF13F066EF63
:1026C80013F0758FD8907231766F6C51761373C092
:1026D80060F074C061F075C062F076C063F01200FB
:1026E80000016351800B706F63516325776F62AF90
:1026F80080EF13F082EF13F083EF13F077817751B7
:10270800D8B489EF13F08BEF13F0A0EF13F077290B
:10271800D8A491EF13F093EF13F09BEF13F0000E92
:10272800606F000E616F000E626F000E636F628F44
:10273800000E636FA8EF13F0000E606F000E616F5C
:10274800000E626F000E636F6751800B701B67513C
:102758006725786F66AFB3EF13F0B5EF13F0B6EFF8
:1027680013F078817851D8B4BCEF13F0BEEF13F0B2
:10277800D3EF13F07829D8A4C4EF13F0C6EF13F001
:10278800CEEF13F0000E646F000E656F000E666FDB
:10279800000E676F668F000E676FDBEF13F0000E99
:1027A800646F000E656F000E666F000E676F6451F0
:1027B800651166116711D8A4E4EF13F0E6EF13F082
:1027C800FEEF13F0000E606F000E616F000E626F77
:1027D800000E636F800E62137F0E631370516313D4
:1027E80060C060F061C061F062C062F063C063F015
:1027F80041EF15F07751D8A404EF14F006EF14F068
:1028080010EF14F0000E606F000E616F000E626F23
:10281800000E636F41EF15F0785177C068F0696B6F
:10282800685F000E695B7F0E6825716F000E692175
:10283800726F60C06CF061C06DF062C06EF063C012
:102848006FF0000E606F000E616F000E626F000E79
:10285800636F000E736F000E746F000E756F000EBD
:10286800766F000E786F71EF14F07851D8B43FEF9F
:1028780014F041EF14F058EF14F0D8906C376D371E
:102888006E376F37D890603761376237633776AF06
:1028980050EF14F052EF14F053EF14F06081D89019
:1028A800733774377537763764516C5D65516D5978
:1028B80066516E5967516F59D8A065EF14F067EFEC
:1028C80014F070EF14F0768D64516C5F65516D5B98
:1028D80066516E5B67516F5B782B190E786577EFE1
:1028E80014F079EF14F039EF14F06C516D116E118A
:1028F8006F11D8B482EF14F084EF14F09CEF14F049
:1029080073819CEF14F0D890603761376237633772
:1029180076AF91EF14F093EF14F094EF14F0608118
:10292800D89073377437753776377107D8A0720720
:1029380062AFA1EF14F0A3EF14F087EF14F0000ECC
:10294800786F76AFAAEF14F0ACEF14F0D0EF14F074
:10295800FF0E7315686FFF0E7415696FFF0E7515FE
:102968006A6F7F0E76156B6F685169116A116B116A
:10297800D8B4C1EF14F0C3EF14F0C7EF14F0010E90
:10298800786FD0EF14F060A1CCEF14F0CEEF14F014
:10299800D0EF14F0C3EF14F07851D8B4D6EF14F098
:1029A800D8EF14F0FCEF14F0010E6027000E61233D
:1029B8006223632363A1E3EF14F0E5EF14F0FCEF67
:1029C80014F060C068F061C069F062C06AF063C06A
:1029D8006BF06B356B336A336933683368C060F00A
:1029E80069C061F06AC062F06BC063F0714B722B12
:1029F80072BF07EF15F0725108E17129D8A007EFEF
:102A080015F009EF15F014EF15F0000E726F7169EB
:102A1800000E606F000E616F000E626F000E636F34
:102A280072BF21EF15F0725106E17105D8B01FEFA2
:102A380015F021EF15F02FEF15F0000E726F000E54
:102A4800716F000E606F000E616F000E626F000EF6
:102A5800636F000E706F71C077F077A136EF15F0D5
:102A680038EF15F03BEF15F0628F3CEF15F0629FE1
:102A7800D8907731636FF2EF13F01200040132053A
:102A8800D8A449EF15F04BEF15F067EF15F030516A
:102A98001F0B0009D8A453EF15F055EF15F067EF99
:102AA80015F00001CC8F030E04013119D8A45FEF93
:102AB80015F061EF15F065EF15F0010E456E67EF43
:102AC80015F0000E456E3251D8A46DEF15F06FEF7A
:102AD80015F0EFEF16F030511F0B020AD8A477EF6C
:102AE80015F079EF15F0EFEF16F034510F0B0009E0
:102AF800D8B481EF15F083EF15F0EFEF16F03451ED
:102B08000F0B156E030E15608CEF15F08EEF15F098
:102B1800EFEF16F0200E4818D8A495EF15F097EFB0
:102B280015F0EFEF16F00001CC8F040134BF9FEFD2
:102B380015F0A1EF15F0BEEF15F034510F0B156E1F
:102B48001550020DD50EF324D96E000EF420DA6E5E
:102B5800DECF1AF0DDCF1BF034510F0B156E166A5D
:102B6800E50E1524D96E000E1620DA6EDF50196EA8
:102B7800D9EF15F034510F0B156E1550020DCF0E0D
:102B8800F324D96E000EF420DA6EDECF1AF0DDCF12
:102B98001BF034510F0B156E166AE80E1524D96E0A
:102BA800000E1620DA6EDF50196E19B0DEEF15F040
:102BB800E0EF15F0E8EF15F0FB0E1A141A6EFF0E91
:102BC8001B141B6EEDEF15F0040E1A101A6E1B5035
:102BD8001B6E34BFF2EF15F0F4EF15F005EF16F0A9
:102BE80034510F0B156E1550020DD50EF324D96E06
:102BF800000EF420DA6E1AC0DEFF1BC0DDFF14EFF2
:102C080016F034510F0B156E1550020DCF0EF3242C
:102C1800D96E000EF420DA6E1AC0DEFF1BC0DDFF8D
:102C2800030E3119D8A41BEF16F01DEF16F057EF5D
:102C380016F01AC0D9FF1BC0DAFFDFAE26EF16F078
:102C480028EF16F049EF16F034BF2DEF16F02FEFEE
:102C580016F03DEF16F034510F0B156E166AE50E9F
:102C68001524D96E000E1620DA6E0001DF8249EFB6
:102C780016F034510F0B156E166AE80E1524D96E2E
:102C8800000E1620DA6E0001DF821AC0D9FF1BC0C1
:102C9800DAFF000EDB841AC0D9FF1BC0DAFF000E72
:102CA800DB8EEFEF16F0040E1A181A6E1B501B6E0F
:102CB8001AC0D9FF1BC0DAFFDFAE65EF16F067EF69
:102CC80016F083EF16F01AC0D9FF1BC0DAFF7F0E8B
:102CD800DF161AC0D9FF1BC0DAFF000EDB8C000E0E
:102CE8000E6E050E0D6E1AC00FF01BC010F0000E10
:102CF800126E020E116EA1EC2AF089EF16F01AC0BE
:102D0800D9FF1BC0DAFF000EDB8C040E1A181A6EEE
:102D18001B501B6E19B293EF16F095EF16F0A0EF4B
:102D280016F01AC0D9FF1BC0DAFFDFAE9EEF16F00F
:102D3800A0EF16F0D8EF16F0040134BFA6EF16F096
:102D4800A8EF16F0B6EF16F034510F0B156E166A91
:102D5800E50E1524D96E000E1620DA6E0001DF92FA
:102D6800C2EF16F034510F0B156E166AE80E1524D3
:102D7800D96E000E1620DA6E0001DF921AC0D9FF54
:102D88001BC0DAFF3B0EDF16000E0E6E050E0D6E31
:102D98001AC00FF01BC010F0000E126E020E116E5A
:102DA800A1EC2AF0DEEF16F01AC0D9FF1BC0DAFF3B
:102DB8003B0EDF16040134510F0B156E166A700EA8
:102DC8001524176E0F0E1620186E17C0D9FF18C0DD
:102DD800DAFFFE0EDF161200BDC06BF0BEC06CF04D
:102DE8003F0E00016D6F110E6E6F19EC27F06BC06E
:102DF8006BF16CC06CF1000E0101666F6D696E6954
:102E080073EF18F06BC1D9FF6CC1DAFFDF50656F43
:102E18006BC1D9FF6CC1DAFF300EDF6E3EEF18F0E0
:102E2800690E7B6F010E7C6F6BC179F06CC17AF013
:102E3800A1EC08F079C09FF07AC0A0F07BC0A1F0A7
:102E48007CC0A2F085EC1DF09FC0B3F0A0C0B4F028
:102E5800A1C0B5F0A2C0B6F0A5EC24F0B3C067F1EC
:102E6800B4C068F189EF17F0000E01016E6F000E13
:102E78006D6FFE0E0001606F100E616F140E626FB1
:102E880059EC2FF064EF18F0000E01016E6F010E7F
:102E98006D6F64EF18F0000E01016E6F020E6D6F1A
:102EA80064EF18F0000E01016E6F030E6D6F64EF92
:102EB80018F0000E01016E6F040E6D6F64EF18F0CC
:102EC800000E01016E6F050E6D6F64EF18F0000EB5
:102ED80001016E6F060E6D6F64EF18F0000E0101B0
:102EE8006E6F070E6D6F64EF18F0D20E606F100EE4
:102EF800616F160E626F59EC2FF0010E0101666FBB
:102F080001016D696E6964EF18F067C1BFF068C1AF
:102F1800C0F00001C051000AD8B495EF17F079EF5E
:102F280017F0BF51000AD8B438EF17F0010AD8B427
:102F380048EF17F0050AD8B44FEF17F0110AD8B4C4
:102F480056EF17F0090AD8B45DEF17F0460AD8B45F
:102F580064EF17F0010AD8B46BEF17F0070AD8B47A
:102F680072EF17F079EF17F0690E7B6F010E7C6F27
:102F78006BC179F06CC17AF0A1EC08F079C09FF0D0
:102F88007AC0A0F07BC0A1F07CC0A2F085EC1DF057
:102F98009FC0B3F0A0C0B4F0A1C0B5F0A2C0B6F015
:102FA800A5EC24F0B3C067F1B4C068F102EF18F0E3
:102FB800000E01016E6F090E6D6F64EF18F0000EC0
:102FC80001016E6F0A0E6D6F64EF18F0000E0101BB
:102FD8006E6F0B0E6D6F64EF18F0000E01016E6FCF
:102FE8000C0E6D6F64EF18F0D20E606F100E616FEB
:102FF800160E626F59EC2FF081EF17F067C1BFF022
:1030080068C1C0F00001C051000AD8B40EEF18F032
:10301800F8EF17F0BF51000AD8B4DCEF17F0010A37
:10302800D8B4E3EF17F0030AD8B4EAEF17F0560A5A
:10303800D8B4F1EF17F0F8EF17F0000E01016E6F3A
:103048000E0E6D6F64EF18F0520E636F010E646F11
:10305800E3EC2DF064EF18F0010E0101666FD20E5B
:103068000001606F100E616F160E626F59EC2FF041
:1030780084EF17F065510001BF6FC06BC051000AA3
:10308800D8B449EF18F030EF18F0BF51460AD8B459
:1030980064EF18F0010AD8B414EF17F00A0AD8B48C
:1030A800B8EF17F0150AD8B464EF18F0010AD8B4CD
:1030B80021EF18F0030AD8B428EF18F030EF18F011
:1030C800000E00016B6F000E6C6F3F0E6D6F110EDE
:1030D8006E6F19EC27F06BC06BF16CC06CF10101DD
:1030E8006B516C11D8B47BEF18F07DEF18F085EFB9
:1030F80018F06651D8B483EF18F085EF18F006EF92
:1031080017F0040E6D196E11D8A48DEF18F08FEF1B
:1031180018F091EF18F0ADEC29F06DC1BDF06EC15B
:10312800BEF012004804D8A49CEF18F09EEF18F0E7
:10313800ABEF18F06DBAA3EF18F0A5EF18F0ABEFEE
:1031480018F0000E686E69806988020E486E68A4DF
:10315800B0EF18F0B2EF18F0BCEF18F069A4B7EFB1
:1031680018F0B9EF18F0BCEF18F0689447EC2EF09F
:103178006DA2C1EF18F0C3EF18F0C6EF18F0A19ACE
:10318800A9EF19F068A0CBEF18F0CDEF18F0DAEF3F
:1031980018F069A0D2EF18F0D4EF18F0DAEF18F0B1
:1031A800D0EC1EF0A08A040E486E689068A8DFEF85
:1031B80018F0E1EF18F0EAEF18F069A8E6EF18F058
:1031C800E8EF18F0EAEF18F06FEC2FF068ACEFEFCB
:1031D80018F0F1EF18F01CEF19F069ACF6EF18F0E1
:1031E800F8EF18F006EF19F0000E0E6E730E0D6E64
:1031F800000E0F6E000E106E000E126E010E116E94
:10320800A1EC2AF0689C10EC2FF04150D8B40FEFD5
:1032180019F011EF19F012EF19F041064150D8A436
:1032280018EF19F01AEF19F01CEF19F02BEC26F033
:1032380068AA21EF19F023EF19F02CEF19F069AA09
:1032480028EF19F02AEF19F02CEF19F011EC2DF0F6
:1032580068A231EF19F033EF19F049EF19F069A2BC
:1032680038EF19F03AEF19F049EF19F07F0E0E6EAA
:103278000D68000E0F6E000E106E000E126E010E1D
:10328800116EA1EC2AF0000E6A6E040E48604FEF32
:1032980019F051EF19F054EF19F0A19AA9EF19F0AC
:1032A80069A659EF19F05BEF19F0A8EF19F0000EB5
:1032B8001F6E68A662EF19F064EF19F0A8EF19F015
:1032C8006CCF52F05230E832E8320F0B436E6896FA
:1032D80052B471EF19F073EF19F07DEF19F0E50EA4
:1032E8004324D96EDA6A000EDA220001DF7085EF16
:1032F80019F0E80E4324D96EDA6A000EDA220001CA
:10330800DF704350D8A48BEF19F08DEF19F091EFCF
:1033180019F048EC28F09FEF19F0000E0E6E720EAF
:103328000D6E520E0F6E000E106E000E126E000E15
:10333800116EA1EC2AF01F2A030E1F64A6EF19F0E4
:10334800A8EF19F05DEF19F0A19A12000001686F5B
:1033580000016851D8B4B3EF19F0B5EF19F0D7EF01
:1033680019F063BFBCEF19F0BAEF19F0D7EF19F0F5
:1033780060C064F061C065F062C066F063C067F069
:10338800641F651F661F671F642B000E6523662375
:10339800672364C06AF065C06BF066C06CF067C0F4
:1033A8006DF0DFEF19F060C06AF061C06BF062C0C9
:1033B8006CF063C06DF06051611162116311D8A4A3
:1033C800E8EF19F0EAEF19F0F4EF19F0000E606F6A
:1033D800000E616F000E626F000E636F85EF1AF0CA
:1033E800960E696FFEEF19F0692BD8906D336C3328
:1033F8006B336A33000E6A15646F000E6B15656FC8
:10340800000E6C15666FFE0E6D15676F64516511C1
:1034180066116711D8A413EF1AF015EF1AF0F8EF38
:1034280019F023EF1AF0692B010E6A27000E6B239F
:103438006C236D23D8906D336C336B336A33000E75
:103448006A15646F000E6B15656F000E6C15666F5C
:10345800FF0E6D15676F6451651166116711D8A469
:1034680038EF1AF03AEF1AF017EF1AF042EF1AF0A5
:103478006907D8906A376B376C376D376CBF47EF81
:103488001AF049EF1AF051EF1AF0020E69614FEF86
:103498001AF051EF1AF03CEF1AF069B156EF1AF032
:1034A80058EF1AF059EF1AF06C9FD890693369C039
:1034B80064F0656B666B676B64C067F0666B656B21
:1034C800646B64516A1365516B1366516C136751D1
:1034D8006D136851D8B473EF1AF075EF1AF07DEFD9
:1034E8001AF063BF7CEF1AF07AEF1AF07DEF1AF04A
:1034F8006D8F6AC060F06BC061F06CC062F06DC027
:1035080063F01200A09A0001ED51EE11D8B48FEFCC
:103518001AF091EF1AF09FEF1AF0EDC0D9FFEEC044
:10352800DAFFDFAE9AEF1AF09CEF1AF09FEF1AF06D
:10353800A08A53EF1BF0030E3A18D8A4A6EF1AF08E
:10354800A8EF1AF0AAEF1AF0000E3A6E3A50D8A473
:10355800B0EF1AF0B2EF1AF0B5EF1AF0A08A53EFF5
:103568001BF0020E3A18D8A4BCEF1AF0BEEF1AF0FE
:10357800D1EF1AF0010E606F000E616F000E626FDE
:10358800000E636F020E17EC20F060C0EDF061C012
:10359800EEF0030E3A6E52EF1BF03A04D8A4D7EFC0
:1035A8001AF0D9EF1AF052EF1BF0400EF465DFEF76
:1035B8001AF0E1EF1AF0E5EF1AF0400E6C6FE7EF42
:1035C8001AF0F4C06CF06C51F45DF46F000EDF6F0C
:1035D800050EE06F6CC06BF0F351D8A4F6EF1AF04B
:1035E800F8EF1AF024EF1BF00AEF1BF0E2C0F6FF29
:1035F800E3C0F7FFDFC0D9FFE0C0DAFF0800F5CF6E
:10360800DFFFDF4BE02BE24BE32B6B076B51D8A4BA
:1036180010EF1BF012EF1BF0FAEF1AF02CEF1BF073
:10362800E2C0F6FFE3C0F7FFDFC0D9FFE0C0DAFF72
:103638000800F5CFDFFFDF4BE02BE24BE32B6B07F6
:103648006B51D8A42AEF1BF02CEF1BF014EF1BF0E2
:10365800F451D8A432EF1BF034EF1BF043EF1BF00A
:10366800400E6C19D8A43BEF1BF03DEF1BF041EF67
:103678001BF0020E3A6E43EF1BF0030E3A6E010E7A
:10368800606F000E616F050E626F6CC063F0020E12
:1036980017EC20F060C0EDF061C0EEF0A08A1200D7
:1036A80060C06AF061C06BF0000164516511D8A474
:1036B80060EF1BF062EF1BF064EF1BF00FEF1CF0E4
:1036C8006AC0D9FF6BC0DAFF62C0DFFF64516A25A8
:1036D800666F65516B21676FFF0E6625D96EFF0E09
:1036E8006721DA6E62C0DFFF655107E1030E645D92
:1036F800D8B081EF1BF083EF1BF085EF1BF00FEFC5
:103708001CF020EE01F06A51D9266B51DA2262C012
:10371800DFFF20EE02F06A51D9266B51DA2262C02F
:10372800DFFF64516A25666F65516B21676FFE0E76
:103738006625D96EFF0E6721DA6E62C0DFFF64511D
:103748006A25666F65516B21676FFD0E6625D96E18
:10375800FF0E6721DA6E62C0DFFF655107E1070ED1
:10376800645DD8B0BAEF1BF0BCEF1BF0BEEF1BF0E6
:103778000FEF1CF020EE03F06A51D9266B51DA22C4
:1037880062C0DFFF64516A25666F65516B21676F00
:10379800FC0E6625D96EFF0E6721DA6E62C0DFFF68
:1037A800655107E1090E645DD8B0DDEF1BF0DFEF6E
:1037B8001BF0E1EF1BF00FEF1CF06AC066F06BC066
:1037C80067F0661F671F664B672B030E6615686FE9
:1037D800696B68516A2769516B236851645F695145
:1037E800655BFC0E6417FF0E651706EF1CF06AC0D8
:1037F800D9FF6BC0DAFF62C0DFFF6407D8A0650796
:103808006A4B6B2B64516511D8A40DEF1CF00FEFB8
:103818001CF0FBEF1BF0120001C00BF002C00CF013
:1038280005500610D8A41BEF1CF01DEF1CF01FEF6D
:103838001CF0CAEF1CF00BC0D9FF0CC0DAFF03C0A4
:10384800DFFF05500B24076E06500C20086EFF0E94
:103858000724D96EFF0E0820DA6E03C0DFFF06507A
:1038680007E1030E055CD8B03CEF1CF03EEF1CF0FE
:1038780040EF1CF0CAEF1CF020EE01F00B50D926E7
:103888000C50DA2203C0DFFF20EE02F00B50D926DD
:103898000C50DA2203C0DFFF05500B24076E0650D8
:1038A8000C20086EFE0E0724D96EFF0E0820DA6E73
:1038B80003C0DFFF05500B24076E06500C20086E6E
:1038C800FD0E0724D96EFF0E0820DA6E03C0DFFF55
:1038D800065007E1070E055CD8B075EF1CF077EFCE
:1038E8001CF079EF1CF0CAEF1CF020EE03F00B502F
:1038F800D9260C50DA2203C0DFFF05500B24076ECF
:1039080006500C20086EFC0E0724D96EFF0E082006
:10391800DA6E03C0DFFF065007E1090E055CD8B078
:1039280098EF1CF09AEF1CF09CEF1CF0CAEF1CF00B
:103938000BC007F00CC008F0071E081E074A082A2B
:10394800030E0714096E0A6A09500B260A500C2246
:103958000950055E0A50065AFC0E0516FF0E06169B
:10396800C1EF1CF00BC0D9FF0CC0DAFF03C0DFFFAA
:103978000506D8A006060B4A0C2A05500610D8A43E
:10398800C8EF1CF0CAEF1CF0B6EF1CF01200800E56
:1039980004013019D8A4D3EF1CF0D5EF1CF084EF44
:1039A8001DF0C00E0001CC6F6AEF1DF0A40E0001DF
:1039B800C96F100ECA6F000ECE6F120ECD6F84EF56
:1039C8001DF03251D8A4EBEF1CF0EDEF1CF02EEFF8
:1039D8001DF03251020D190EF324F66E100EF4206C
:1039E800F76E0900F5CFC9F00A00F5CFCAF0020E4C
:1039F8000001C925016E000ECA21026E01C0F6FF42
:103A080002C0F7FFF86A070EF76403D00800F55004
:103A180005D0F6CFE1FFF7CFE2FFE7500001CD6F09
:103A2800030EC925016E000ECA21026E01C0F6FF01
:103A380002C0F7FFF86A070EF76403D00800F550D4
:103A480005D0F6CFE1FFF7CFE2FFE7500001CE6FD8
:103A580084EF1DF0000E0001CC6F84EF1DF0030E03
:103A6800326139EF1DF03BEF1DF060EF1DF0325170
:103A7800020D130EF324F66E100EF420F76E0900F3
:103A8800F5CFC9F00A00F5CFCAF0C9C0F6FFCAC021
:103A9800F7FFF86A070EF76403D00800F55005D061
:103AA800F6CFE1FFF7CFE2FFE750016E01500001CA
:103AB800CD6FCE6B84EF1DF0000E0001CC6F84EF4C
:103AC8001DF0000E0001CC6F84EF1DF0040133518E
:103AD800016E026A0250000AD8B475EF1DF065EF56
:103AE8001DF00150010AD8B4DAEF1CF0030AD8B46B
:103AF800E5EF1CF0010AD8B433EF1DF065EF1DF0B7
:103B08001200DBC0AFF0DCC0B0F0DDC0B1F0DEC049
:103B1800B2F09FC0AFF0A0C0B0F0A1C0B1F0A2C099
:103B2800B2F08A0E0001A36FFF0EA46FAFC0A5F01C
:103B3800B0C0A6F0B1C0A7F0B2C0A8F0180EAAEFA6
:103B48001DF0D890A833A733A633A533E82EA5EFE8
:103B58001DF0A551A325AD6F000EA421AE6FAEBF19
:103B6800BFEF1DF0AE5109E1200EAD5DD8A0BFEF4B
:103B78001DF0C1EF1DF0CBEF1DF09FC09FF0A0C05E
:103B8800A0F0A1C0A1F0A2C0A2F02AEF1EF0AEBF23
:103B9800D9EF1DF0AE5107E1090EAD5DD8B0D7EFF2
:103BA8001DF0D9EF1DF0DDEF1DF0000EAE6F010E18
:103BB800AD6FFF0EA36FFF0EA46FFF0EA56FFF0E74
:103BC800A66FAD51E82AEEEF1DF0D890A633A533C5
:103BD800A433A333E82EE9EF1DF0A3C0A9F0A4C0D5
:103BE800AAF0A5C0ABF0A6C0ACF0A951AF15A36F61
:103BF800AA51B015A46FAB51B115A56FAC51B21550
:103C0800A66FA351A411A511A611D8A40EEF1EF0FA
:103C180010EF1EF012EF1EF0C1EF1DF0A91DA36FEB
:103C2800AA1DA46FAB1DA56FAC1DA66FA351AF173E
:103C3800A451B017A551B117A651B217AFC09FF044
:103C4800B0C0A0F0B1C0A1F0B2C0A2F01200A09A1A
:103C5800000E6A6E000E686E000E706E710E000126
:103C6800606F0F0E616F000E636F000E626F000EC3
:103C7800656F020E646F54EC1BF0060E6F6E9F0E9C
:103C88006B6E7B0E696E000E00016C6F6C51040D3B
:103C9800000EF324D96E040EF420DA6EDE6ADE6AB2
:103CA800DE6ADD6A6C2B0B0E6C655DEF1EF05FEF54
:103CB8001EF04AEF1EF06D8C000E6E6E6D986D9CB6
:103CC8006896000ECC6F000EC46F000EC66F000E13
:103CD800C56F68B672EF1EF074EF1EF064EF1EF049
:103CE800010E3F6E010E3E6E000E3D6E000E3C6EE4
:103CF800000E446E000E6C6F6C51020DCF0EF32453
:103D0800D96E000EF420DA6E000EDE6E000EDD6E47
:103D18006C51020DD50EF324D96E000EF420DA6E24
:103D2800000EDE6E000EDD6EE80E6C25D96EDA6AC6
:103D3800000EDA22000EDF6EE50E6C25D96EDA6A07
:103D4800000EDA22000EDF6E6C2B020E6C65AFEFF0
:103D58001EF0B1EF1EF080EF1EF0080ECF6F040EBC
:103D6800D06F160E706E040E0401036F300E026FD2
:103D7800200E016F040E006F008F000E536E000EB0
:103D88002F6E000E306E000E316E000E326E000E79
:103D98003B6E000E486E1200A09A000E6A6E000E6E
:103DA800686E000E706E710E016E0F0E026E000EC0
:103DB800046E000E036E000E066E020E056E10EC09
:103DC8001CF0060E6F6E9F0E6B6E7B0E696E000EFA
:103DD8000D6E0D50040D000EF324D96E040EF42060
:103DE800DA6EDE6ADE6ADE6ADD6A0D2A0B0E0D64A3
:103DF80000EF1FF002EF1FF0EDEF1EF06D8C000ECC
:103E08006E6E6D986D9C6896000E0001CC6F000E6A
:103E1800C46F000EC66F000EC56F68B616EF1FF0B0
:103E280018EF1FF007EF1FF0010E3F6E010E3E6EF8
:103E3800000E3D6E000E3C6E000E446E000E0D6EC0
:103E48000D50020DCF0EF324D96E000EF420DA6E59
:103E5800000EDE6E000EDD6E0D50020DD50EF32441
:103E6800D96E000EF420DA6E000EDE6E000EDD6EE6
:103E7800E80E0D24D96EDA6A000EDA22000EDF6E23
:103E8800E50E0D24D96EDA6A000EDA22000EDF6E16
:103E98000D2A020E0D6453EF1FF055EF1FF024EFAB
:103EA8001FF0080E0001CF6F040ED06F160E706E53
:103EB800040E0401036F300E026F200E016F040E12
:103EC800006F008F000E536E000E2F6E000E306EC6
:103ED800000E316E000E326E000E3B6E000E486E04
:103EE800120020EE01F03750D9263850DA22DF5080
:103EF800026E02500001C55D000EC659D8B087EFAA
:103F08001FF089EF1FF08BEF1FF0C5C002F00250C1
:103F1800C55F000EC65B000E016EA2EF1FF0500ECB
:103F28000124D96EDA6A040EDA22C1C0E1FFC2C0E8
:103F3800E2FFDFCFE7FFC14BC22B012A0250015C31
:103F4800D8A0A9EF1FF0ABEF1FF093EF1FF0C551FA
:103F5800C611D8B4B2EF1FF0B4EF1FF0EDEF1FF0A9
:103F680020EE01F03550D9263650DA22200EDF6EC9
:103F780020EE02F03550D9263650DA22500EDE6E89
:103F8800040EDD6E37C0D9FF38C0DAFFDFBCCFEFD3
:103F98001FF0D1EF1FF0DFEF1FF035C0D9FF36C09B
:103FA800DAFF480EDF6E35C0D9FF36C0DAFF000EE3
:103FB800DB8E16EF20F035C0D9FF36C0DAFF080EC9
:103FC800DF6E35C0D9FF36C0DAFF000EDB8E16EF84
:103FD80020F020EE01F03550D9263650DA22200E96
:103FE800DF6E20EE02F03550D9263650DA22300E38
:103FF800DE6E040EDD6E35C0D9FF36C0DAFF040E62
:10400800DF6E35C0D9FF36C0DAFF000EDB8EC49FE5
:104018004050D8A412EF20F014EF20F016EF20F053
:104028002BEC26F012000001686F00016051D8B433
:1040380020EF20F022EF20F030EF20F06851020D41
:10404800CF0EF324D96E000EF420DA6EDECF69F0BD
:10405800DDCF6AF03CEF20F06851020DD50EF32455
:10406800D96E000EF420DA6EDECF69F0DDCF6AF08B
:1040780069516A11D8A443EF20F045EF20F04BEFC7
:1040880020F0000E606F000E616FB7EF20F020EE99
:1040980002F06951D9266A51DA2261C0DEFF62C096
:1040A800DDFF20EE01F06951D9266A51DA2263C09A
:1040B800DFFF69C0D9FF6AC0DAFF400EDF1669C0AA
:1040C800D9FF6AC0DAFF000EDB8669C0D9FF6AC073
:1040D800DAFF000EDB8E6051D8B475EF20F077EF71
:1040E80020F096EF20F06851020DCF0EF324D96E20
:1040F800000EF420DA6EDECF64F0DDCF65F0040E3A
:104108006419666F6551676F6851020DCF0EF3240D
:10411800D96E000EF420DA6E66C0DEFF67C0DDFFE0
:10412800B3EF20F06851020DD50EF324D96E000EBE
:10413800F420DA6EDECF64F0DDCF65F0040E64198A
:10414800666F6551676F6851020DD50EF324D96EFD
:10415800000EF420DA6E66C0DEFF67C0DDFF69C0BE
:1041680060F06AC061F012006D980001CCBFBFEF2B
:1041780020F0C1EF20F006EF21F0C4AFC6EF20F029
:10418800C8EF20F0DAEF20F0020E466E3C50D8A4BB
:10419800D0EF20F0D2EF20F0D4EF20F0A4EC28F0FC
:1041A800000E3E6E000E3F6E58EF21F020EE01F03B
:1041B8003550D9263650DA22200EDF6E20EE02F076
:1041C8003550D9263650DA22300EDE6E040EDD6EFA
:1041D80035C0D9FF36C0DAFF0C0EDF6E35C0D9FF07
:1041E80036C0DAFF000EDB8ECFC0D9FFD0C0DAFFB1
:1041F800040EDF6ECFC0D9FFD0C0DAFF000EDB8E11
:1042080058EF21F0040130AF0CEF21F00EEF21F050
:104218002AEF21F0010E466E3D50D8A416EF21F08A
:1042280018EF21F01AEF21F0A4EC28F0000E3E6EF2
:10423800000E3F6E4050D8A424EF21F026EF21F065
:1042480058EF21F02BEC26F058EF21F0020E466EC5
:1042580020EE01F03550D9263650DA22200EDF6ED6
:1042680020EE02F03550D9263650DA22300EDE6EB6
:10427800040EDD6E35C0D9FF36C0DAFF040EDF6EDE
:1042880035C0D9FF36C0DAFF000EDB8E000E3E6E59
:10429800000E3F6E4050D8A454EF21F056EF21F0A5
:1042A80058EF21F026EF21F01200096E0150D8B422
:1042B80060EF21F062EF21F070EF21F00950020D5C
:1042C800CF0EF324D96E000EF420DA6EDECF0AF09A
:1042D800DDCF0BF07CEF21F00950020DD50EF32451
:1042E800D96E000EF420DA6EDECF0AF0DDCF0BF0C7
:1042F8000A500B10D8A483EF21F085EF21F08BEF43
:1043080021F0000E016E000E026EF7EF21F020EE94
:1043180002F00A50D9260B50DA2202C0DEFF03C091
:10432800DDFF20EE01F00A50D9260B50DA2204C036
:10433800DFFF0AC0D9FF0BC0DAFF400EDF160AC044
:10434800D9FF0BC0DAFF000EDB860AC0D9FF0BC00D
:10435800DAFF000EDB8E0150D8B4B5EF21F0B7EFCD
:1043680021F0D6EF21F00950020DCF0EF324D96EBB
:10437800000EF420DA6EDECF05F0DDCF06F0040E75
:104388000518076E0650086E0950020DCF0EF3246B
:10439800D96E000EF420DA6E07C0DEFF08C0DDFF1C
:1043A800F3EF21F00950020DD50EF324D96E000E5B
:1043B800F420DA6EDECF05F0DDCF06F0040E051826
:1043C800076E0650086E0950020DD50EF324D96EFB
:1043D800000EF420DA6E07C0DEFF08C0DDFF0AC059
:1043E80001F00BC002F0120004013039E832030B6F
:1043F8000009D8B402EF22F004EF22F051EF22F0C6
:104408008AEF22F00001CC8F080E486E8AEF22F066
:10441800CBEC1CF08AEF22F0A4EC26F08AEF22F015
:10442800530E0001C96F000ECA6FCC81010ECD6F0B
:10443800CC8F8AEF22F013EC23F08AEF22F042ECC3
:1044480015F08AEF22F0500E34250001C96FCA6BAF
:10445800000ECA23CC81010ECD6FCC8F8AEF22F0DB
:104468000001CC8F500E04013425D96EDA6A000E93
:10447800DA2232C4DFFF8AEF22F0000E0E6E020E3F
:104488000D6E000E0F6E000E106E000E126E000EF6
:10449800116EA1EC2AF08AEF22F031511C6E1D6AD0
:1044A8001D50000AD8B45BEF22F08AEF22F01C50AE
:1044B800000AD8B41FEF22F0010AD8B423EF22F083
:1044C800020AD8B423EF22F0060AD8B406EF22F085
:1044D800030AD8B40CEF22F0010AD8B441EF22F055
:1044E8000F0AD8B414EF22F0010AD8B410EF22F062
:1044F800030AD8B427EF22F0010AD8B434EF22F027
:10450800070AD8B48AEF22F08AEF22F01200200EB0
:10451800016E0001CE5107E1200ECD5DD8B097EFB6
:1045280022F099EF22F0B1EF22F0CDC001F0475010
:10453800D8A4A1EF22F0A3EF22F0A7EF22F0010EFA
:10454800476EB1EF22F04704D8A4ADEF22F0AFEFE9
:1045580022F0B1EF22F0020E476E0150CD5F000E3F
:10456800CE5B20EE01F0CF51D926D051DA2201C01E
:10457800DFFF500E336E040E346ECCB1C6EF22F05E
:10458800C8EF22F00AEF23F0E5EF22F0C9C0F6FFEA
:10459800CAC0F7FFF86A33C0D9FF34C0DAFF070E84
:1045A800F76403D00800F55005D0F6CFE1FFF7CF48
:1045B800E2FFE750DF6E0001C94BCA2B334A342AA9
:1045C80001060150D8A4EBEF22F0EDEF22F0CAEF7C
:1045D80022F012EF23F0C9C0F6FFCAC0F7FFF86A4D
:1045E80033C0D9FF34C0DAFF070EF76403D00800E0
:1045F800F55005D0F6CFE1FFF7CFE2FFE750DF6EC9
:104608000001C94BCA2B334A342A01060150D8A4E9
:1046180010EF23F012EF23F0EFEF22F01200000E5C
:104628000401506F000E516F70EF23F00001CC8F22
:104638004504D8A422EF23F024EF23F08AEF23F0D7
:10464800040150838AEF23F00001CC8F8AEF23F016
:104658000001CC8F040134BF34EF23F036EF23F090
:1046680047EF23F034510F0B016E0150020DD50EA8
:10467800F324D96E000EF420DA6EDECF03F0DDCF1E
:1046880004F056EF23F034510F0B016E0150020D68
:10469800CF0EF324D96E000EF420DA6EDECF03F0CD
:1046A800DDCF04F003C0D9FF04C0DAFFDFAE5FEF4F
:1046B80023F061EF23F08AEF23F003C0D9FF04C091
:1046C800DAFFDFA46AEF23F06CEF23F08AEF23F020
:1046D800010E506F8AEF23F030511F0B016E026AF2
:1046E8000250000AD8B47BEF23F08AEF23F0015080
:1046F800000AD8B41AEF23F0010AD8B428EF23F03F
:10470800030AD8B42CEF23F08AEF23F00001CCAFD2
:1047180090EF23F092EF23F099EF23F0500EC96F3A
:10472800040ECA6FCC81020ECD6F12000401305105
:104738001F0BE806D8B4A3EF23F0A5EF23F0A7EFEB
:1047480023F01FEF24F03039E832030BE806D8B421
:10475800B0EF23F0B2EF23F0B4EF23F01FEF24F013
:104768003451D8B4BAEF23F0BCEF23F0FEEF23F0B6
:104778003405D8B4C2EF23F0C4EF23F0FEEF23F0E2
:104788001FEF24F04A0E0001C96F010ECA6F000E18
:10479800CE6F080ECD6FCC81CC8F1FEF24F04A0E60
:1047A8000001C96F010ECA6FCC8F1FEF24F036C409
:1047B800C5F037C4C6F0490E0001C16F000EC26FC4
:1047C800000EC76F000EC86FC48F1FEF24F0490E8C
:1047D8000001C96F000ECA6F000ECE6F070ECD6FB5
:1047E800C10ECC6F1FEF24F032C439F00001CC8F1A
:1047F8001FEF24F03151016E026A0250000AD8B44A
:1048080008EF24F01FEF24F00150000AD8B4C6EFD7
:1048180023F0010AD8B4D3EF23F0210AD8B4DBEF90
:1048280023F0010AD8B4EBEF23F0030AD8B4F8EF69
:1048380023F01FEF24F01200CFC0D9FFD0C0DAFF59
:104848000001000EDFBC010E026E040ECF19CF6FFF
:10485800D051D06F080E4818D8A435EF24F037EFA0
:1048680024F049EF24F0040132517F0B6E6E6E5034
:10487800D8B441EF24F043EF24F047EF24F0100EB2
:10488800486E49EF24F0040E486E4604D8A44FEF52
:1048980024F051EF24F099EF24F0000120EE02F00B
:1048A800CF51D926D051DA22500EDE6E040EDD6EBD
:1048B8008BEC22F0020E4718D8A465EF24F067EFBE
:1048C80024F075EF24F0CFC0D9FFD0C0DAFF040E72
:1048D800DF6ECFC0D9FFD0C0DAFF000EDB8EA4EFA9
:1048E80024F00250D8A47BEF24F07DEF24F08BEF66
:1048F80024F0CFC0D9FFD0C0DAFF480EDF6ECFC09A
:10490800D9FFD0C0DAFF000EDB8EA4EF24F0CFC0B1
:10491800D9FFD0C0DAFF080EDF6ECFC0D9FFD0C0F4
:10492800DAFF000EDB8EA4EF24F00001C4AF9FEF86
:1049380024F0A1EF24F0A2EF24F0C49F000E466EED
:1049480012000001B535B635BC6FBC51D8A4AFEF25
:1049580024F0B1EF24F0BBEF24F0000EB36F000E8B
:10496800B46F000EB56F000EB66F28EF25F0B3C018
:10497800B7F0B4C0B8F0B5C0B9F0B6C0BAF0200E00
:10498800CBEF24F0D890BA33B933B833B733E82E25
:10499800C6EF24F0B751BB6FB58FFF0EB317FF0EEC
:1049A800B417FF0EB517000EB617960EBC5FBCBF46
:1049B800E2EF24F0E0EF24F0F8EF24F0BC51800A95
:1049C800970FD8B0EAEF24F0ECEF24F0EEEF24F0E4
:1049D800B1EF24F0D890B633B533B433B333BC3F1A
:1049E800EEEF24F010EF25F01F0EBC65FEEF24F06B
:1049F80000EF25F008EF25F0B1EF24F0D890B33799
:104A0800B437B537B637BC07BC51D8A40EEF25F07C
:104A180010EF25F002EF25F0BB51D8B416EF25F0C2
:104A280018EF25F020EF25F0B61FB51FB41FB36DA2
:104A3800000EB423B523B623B3C0B3F0B4C0B4F0AA
:104A4800B5C0B5F0B6C0B6F01200000E0001601592
:104A5800686F000E6115696F800E62156A6F7F0EB0
:104A680063156B6F685169116A116B11D8A43FEF18
:104A780025F041EF25F049EF25F0000E606F000E9C
:104A8800616F000E626F000E636F000E6415686F31
:104A9800000E6515696F800E66156A6F7F0E6715C3
:104AA8006B6F685169116A116B11D8A45EEF25F01C
:104AB80060EF25F068EF25F0000E646F000E656F5B
:104AC800000E666F000E676F63AF6DEF25F06FEF36
:104AD80025F078EF25F0606D611FD8B0612B621F5B
:104AE800D8B0622B800E635767AF7DEF25F07FEF5C
:104AF80025F088EF25F0646D651FD8B0652B661F1B
:104B0800D8B0662B800E6757000E601B000E611B25
:104B1800000E621B800E631B000E641B000E651BDB
:104B2800000E661B800E671B6451605D65516159FC
:104B38006651625967516359D8B0A5EF25F0A7EFC0
:104B480025F0AAEF25F0D890ABEF25F0D880120019
:104B58008C968C988C9A08EF26F020EE0FF0605116
:104B6800D9266151DA22000EDE6E000EDE6EC80E06
:104B7800DE6E420EDD6E2AEF26F020EE0FF0605159
:104B8800D9266151DA22000EDE6E000EDE6E480E66
:104B9800DE6E430EDD6E8C862AEF26F020EE0FF0D7
:104BA8006051D9266151DA22000EDE6E000EDE6EEB
:104BB800C80EDE6E430EDD6E8C882AEF26F020EEDE
:104BC8000FF06051D9266151DA22000EDE6E000E18
:104BD800DE6E480EDE6E440EDD6E8C868C882AEF03
:104BE80026F020EE0FF06051D9266151DA22000E2E
:104BF800DE6E000EDE6EC80EDE6E440EDD6E8C8636
:104C08008C888C8A2AEF26F000016251636F646BEE
:104C18006451000AD8B413EF26F02AEF26F0635146
:104C2800000AD8B4B1EF25F0010AD8B4C1EF25F0D5
:104C3800030AD8B4D2EF25F0010AD8B4E3EF25F07F
:104C4800070AD8B4F5EF25F02AEF26F012003F50F6
:104C5800D8A431EF26F033EF26F0A3EF26F0010EAB
:104C68003F6E3E50D8A43BEF26F03DEF26F0A3EF71
:104C780026F0010E3E6E020E4618D8A446EF26F026
:104C880048EF26F05FEF26F0000120EE01F0CF514B
:104C9800D926D051DA22000EDF6ECFC0D9FFD0C09E
:104CA800DAFF480EDF6ECFC0D9FFD0C0DAFF000EA2
:104CB800DB8EA3EF26F04604D8A465EF26F067EF55
:104CC80026F0A3EF26F0000E426E20EE01F03750DA
:104CD800D9263850DA22200EDF6E20EE02F0375047
:104CE800D9263850DA22300EDE6E040EDD6E37C05B
:104CF800D9FF38C0DAFF040EDF6E37C0D9FF38C0DD
:104D0800DAFF000EDB8E010E426E20EE01F0355008
:104D1800D9263650DA22200EDF6E20EE02F035500A
:104D2800D9263650DA22300EDE6E040EDD6E35C01E
:104D3800D9FF36C0DAFF800EDF6EA3EF26F012002F
:104D48000001CC8F710E016E0F0E026E000E046E04
:104D5800000E036E000E066E020E056E10EC1CF0BF
:104D6800000E016E040E026E000E046E000E036E3D
:104D7800000E066E300E056E10EC1CF06D8C000EE9
:104D8800156EE80E1524D96EDA6A000EDA22000EC6
:104D9800DF6EE50E1524D96EDA6A000EDA22000EEF
:104DA800DF6E152A020E1564DCEF26F0DEEF26F022
:104DB800C5EF26F0500E016E000E026E000E046E56
:104DC800000E036E000E066E020E056E10EC1CF04F
:104DD8006D9C080E0001CF6F040ED06F000E376E69
:104DE800040E386E37C035F038C036F032C453F090
:104DF8005350D8A402EF27F004EF27F008EF27F06C
:104E0800100E486E18EF27F0000E0E6E010E0D6E94
:104E1800530E0F6E000E106E000E126E010E116E04
:104E2800A1EC2AF0200E486E120000016B516C11A3
:104E3800D8A421EF27F023EF27F036EF27F0EBC0B7
:104E48006BF0ECC06CF06B516C11D8A42EEF27F00E
:104E580030EF27F036EF27F0000E6B6F000E6C6F07
:104E68008AEF27F06BC064F06CC065F06DC066F027
:104E78006EC067F045EC2CF0000164516B2765515A
:104E88006C236BC0D9FF6CC0DAFFDF50D8A44FEF9A
:104E980027F051EF27F05BEF27F0000EEB6F000EC5
:104EA800EC6FEBC06BF0ECC06CF08AEF27F06BC0D6
:104EB80064F06CC065F06DC066F06EC067F07AECA7
:104EC8002CF0000164516B25EB6F65516C21EC6F80
:104ED800EBC0D9FFECC0DAFFDF50D8B476EF27F08B
:104EE80078EF27F082EF27F0EBC0D9FFECC0DAFFAC
:104EF800000EDF6EEB4BEC2B86EF27F0000EEB6F0E
:104F0800000EEC6F6BC06BF06CC06CF0120006000A
:104F1800E1CF21F0E2CF22F0D9CF23F0DACF24F08D
:104F2800F3CF25F0F4CF26F0F6CF27F0F7CF28F00F
:104F3800F8CF29F0F5CF2AF0F2A4A5EF27F0A7EFD4
:104F480027F0D4EF27F0F29483BCADEF27F0B0EF51
:104F580027F0010EB1EF27F0000E01015F6F81B25B
:104F6800B8EF27F0BBEF27F0010EBCEF27F0000EDB
:104F7800606F5451D8A4C3EF27F0C5EF27F0D4EFE2
:104F880027F08DA0CAEF27F0CEEF27F0206A202A5D
:104F9800CFEF27F0206A8D502018FE0B20188D6E59
:104FA80041EC2FF02AC0F5FF29C0F8FF28C0F7FF11
:104FB80027C0F6FF26C0F4FF25C0F3FF24C0DAFFA0
:104FC80023C0D9FF22C0E2FF21C0E1FF56921100A1
:104FD800000E0001F56FEF51F011D8B4F6EF27F08D
:104FE800F8EF27F003EF28F0EFC0D9FFF0C0DAFFA1
:104FF800DFBE01EF28F003EF28F045EF28F020EEA0
:1050080001F0EF51D926F051DA226D51DE5CD8B0AB
:1050180010EF28F012EF28F01AEF28F020EE01F038
:10502800EF51D926F051DA22DF506D6F000EF56F7F
:105038002DEF28F0400EF525D96EDA6A050EDA2232
:10504800F5516B25E16E000E6C21E26EDFCFE7FFB4
:10505800F52B6D51F55DD8A034EF28F036EF28F028
:105068001EEF28F0000E606F400E616F050E626F34
:10507800400E636F020E17EC20F060C0EFF061C0C5
:10508800F0F00001F55112002D0E416E52C01EF0D5
:10509800FD0E1E16D8A453EF28F055EF28F097EF11
:1050A80028F052C01EF0D8901E323F0E1E161E5019
:1050B800040D000EF324376E040EF420386E37C04A
:1050C80035F038C036F0040E3518356E3650366E69
:1050D80037C0D9FF38C0DAFFDF30E8320F0B0D0ACE
:1050E800D8A479EF28F07BEF28F093EF28F0300E62
:1050F800016E040E026E20EE02F03750D9263850A9
:10510800DA22DECF03F0DDCF04F0000E066E080EC3
:10511800056E95EC2DF059EC2AF0A3EF28F067EC1A
:105128002BF0A3EF28F05250FD0B040AD8A49FEFF0
:1051380028F0A1EF28F0A3EF28F020EC24F01200CB
:10514800000E3D6E000E3C6E020E4618D8A4AFEF5E
:1051580028F0B1EF28F0D1EF28F020EE01F035501B
:10516800D9263650DA22200EDF6E20EE02F03550B6
:10517800D9263650DA22500EDE6E040EDD6E35C0AA
:10518800D9FF36C0DAFF480EDF6E35C0D9FF36C00A
:10519800DAFF000EDB8EFDEF28F00001CD5104018F
:1051A800365D0001CE5104013759D8B0DEEF28F042
:1051B800E0EF28F0E4EF28F036C4CDF037C4CEF0A5
:1051C8008BEC22F0000120EE02F0CF51D926D0510D
:1051D800DA22500EDE6E040EDD6ECFC0D9FFD0C0CD
:1051E800DAFF480EDF6ECFC0D9FFD0C0DAFF000E5D
:1051F800DB8E120040EF29F0000EF76F2A0E6B6F5E
:10520800010E6C6F200E6D6FECEC27F00001F86F4B
:10521800F851D8B412EF29F014EF29F056EF29F01D
:10522800010EF66F56EF29F0290EF825D96EDA6AC5
:10523800010EDA220A0EDE18D8B425EF29F027EF7E
:1052480029F036EF29F0290EF825D96EDA6A010E11
:10525800DA220D0EDE18D8A434EF29F036EF29F043
:105268003CEF29F0000EF66F010EF76F56EF29F0AC
:10527800000EF66F56EF29F00001F6516F6F706B54
:105288007051000AD8B44BEF29F03CEF29F06F5168
:10529800000AD8B400EF29F0010AD8B418EF29F0B1
:1052A8003CEF29F01200000E00016015686F000E37
:1052B8006115696F800E62156A6F7F0E63156B6FDB
:1052C800685169116A116B11D8A46DEF29F06FEF5D
:1052D80029F077EF29F0000E606F000E616F000E65
:1052E800626F000E636F000E6415686F000E65151F
:1052F800696F800E66156A6F7F0E67156B6F685150
:1053080069116A116B11D8A48CEF29F08EEF29F07E
:1053180096EF29F0000E646F000E656F000E666F41
:10532800000E676F645160190FE1655161190CE156
:105338006651621909E167516319D8B4A6EF29F0DB
:10534800A8EF29F0ABEF29F0D890ACEF29F0D8807E
:105358001200520E0001606F010E616F000E626F45
:1053680026EC2BF0000E0101536F000E526F520E07
:105378000001606F010E616F000E626FE5EC2AF0AC
:1053880001015F51D8A4CBEF29F0CDEF29F0C4EF8C
:1053980029F0520E0001606F010E616F010E626FFD
:1053A80026EC2BF001015F51D8B4DDEF29F0DFEFD7
:1053B80029F0D6EF29F0520E0001606F010E616FDF
:1053C800010E626FE5EC2AF0000E0101566F000E27
:1053D800576F000E586F000E596F000E5A6F000E6F
:1053E8005B6F000E5C6F000E5D6F120E0001606F48
:1053F800110E616F0F0E626F59EC2FF01200066EDE
:10540800000E076E040E086E0150026E036AD890F3
:10541800023603360650046E056AD89004360536FF
:10542800D890043605360250042603500522D89039
:1054380004360536D890043605360450072605503C
:10544800082207C0D9FF08C0DAFFDF9E0150D8A4A0
:1054580030EF2AF032EF2AF040EF2AF00650020D22
:10546800D50EF324D96E000EF420DA6E07C0DEFFE5
:1054780008C0DDFF4CEF2AF00650020DCF0EF324D2
:10548800D96E000EF420DA6E07C0DEFF08C0DDFF1B
:1054980007C0D9FF08C0DAFFDF9C20EE04F00750F0
:1054A800D9260850DA22DF8C1200000E476E000E53
:1054B800406E000E3D6E000E3C6E000E426E000EF9
:1054C800466ECFC0D9FFD0C0DAFF7F0EDF16040EBC
:1054D8000001CF19CF6FD051D06FCFC0D9FFD0C046
:1054E800DAFF7F0EDF16040ECF19CF6FD051D06FC1
:1054F80035C0D9FF36C0DAFF7F0EDF16000ECC6F3D
:10550800000ECE6F000ECD6F000EC46F000EC66F7A
:10551800000EC56FF8EC21F0000E0E6E030E0D6E36
:10552800000E0F6E000E106E000E126E000E116E41
:10553800A1EC2AF0B8EC20F01200ABEF2AF0AFECA7
:105548002CF0E4EF2AF09AEC23F0E4EF2AF00DC0F7
:1055580013F00EC014F01450000AD8B4BAEF2AF0B1
:105568007F0AD8B4DDEF2AF0E4EF2AF01350010ADD
:10557800D8B4A3EF2AF0030AD8B4E4EF2AF0010A5A
:10558800D8B4A7EF2AF0060AD8B4E4EF2AF0770ACD
:10559800D8B4E4EF2AF0010AD8B4E4EF2AF0070AF5
:1055A800D8B4E4EF2AF0010AD8B4E4EF2AF0E4EF23
:1055B8002AF01350FF0AD8B4E4EF2AF0E4EF2AF0F7
:1055C8001200FCEF2AF062B102D08C9001D08C80DE
:1055D8001CEF2BF062B102D08C9201D08C821CEFB0
:1055E8002BF062B102D08C9401D08C841CEF2BF08C
:1055F800000120EE0CF06051D9266151DA22DF500B
:10560800636F646B6451000AD8B40DEF2BF01CEF84
:105618002BF06351000AD8B4E7EF2AF0010AD8B496
:10562800EEEF2AF0030AD8B4F5EF2AF01CEF2BF0BE
:10563800000120EE02F06051D9266151DA2262C0E1
:10564800DFFF12003DEF2BF062B102D08B9001D04A
:105658008B805DEF2BF062B102D08B9201D08B82F0
:105668005DEF2BF062B102D0899001D089805DEFA7
:105678002BF0000120EE0CF06051D9266151DA229E
:10568800DF50636F646B6451000AD8B44EEF2BF09F
:105698005DEF2BF06351000AD8B428EF2BF0010A14
:1056A800D8B42FEF2BF0030AD8B436EF2BF05DEF08
:1056B8002BF0000120EE03F06051D9266151DA2267
:1056C80062C0DFFF1200020E4618D8A46EEF2BF05E
:1056D80070EF2BF074EF2BF075EC1FF0A0EF2BF0B0
:1056E800000E466E4250D8A47CEF2BF07EEF2BF0D4
:1056F8009EEF2BF020EE01F03550D9263650DA22F5
:10570800200EDF6E20EE02F03550D9263650DA2210
:10571800300EDE6E040EDD6E35C0D9FF36C0DAFFFE
:105728000C0EDF6E35C0D9FF36C0DAFF000EDB8EF7
:10573800A0EF2BF0000E426E1200010E0001666F02
:10574800D00E626FFF0E636F60C064F061C065F0D9
:105758006251642763516523655109E10A0E645D4E
:10576800D8A0B9EF2BF0BBEF2BF0D6EF2BF09F0EA4
:10577800626FFF0E636F200E6011646F000E61117F
:10578800656F6251642763516523655109E1060E0F
:10579800645DD8A0D2EF2BF0D4EF2BF0D6EF2BF02E
:1057A800000E666F66C060F0616B1200000E0001AB
:1057B800686F000E696F000E6A6F000E6B6F60A154
:1057C800E8EF2BF0EAEF2BF0F2EF2BF064516827AB
:1057D8006551692366516A2367516B23D8906437F2
:1057E800653766376737D890633362336133603320
:1057F8006051611162116311D8A405EF2CF007EF15
:105808002CF0E3EF2BF068C060F069C061F06AC06B
:1058180062F06BC063F01200760EF66E5F0EF76EE4
:10582800000EF86E01EE52F010EE13F00900F5CFFD
:10583800EEFFE550E150FAE1A20EF66E5F0EF76E4C
:10584800000EF86E0900F5CF54F00900F5CF55F0B9
:1058580001EE00F0520EEE6AE806FDE100EEC1F03E
:10586800380EEE6AE806FDE100EE2BF0290EEE6A2E
:10587800E806FDE156905692000EF86E0001F5EF2D
:105888002EF0000E00016A6F000E696F50EF2CF0C9
:10589800644B652B694B6A2B64C0D9FF65C0DAFF7E
:1058A800DF50D8B45AEF2CF05CEF2CF075EF2CF0E9
:1058B80066C060F067C061F064C0D9FF65C0DAFFF8
:1058C800DF50686F6851626F636B41EC2DF0000127
:1058D80060516111D8A473EF2CF075EF2CF04CEFE8
:1058E8002CF069C064F06AC065F01200000E000177
:1058F8006A6F000E696F85EF2CF0644B652B694B5E
:105908006A2B64C0D9FF65C0DAFFDF50D8B48FEFC7
:105918002CF091EF2CF0AAEF2CF066C060F067C075
:1059280061F064C0D9FF65C0DAFFDF50686F685165
:10593800626F636B41EC2DF0000160516111D8B4C6
:10594800A8EF2CF0AAEF2CF081EF2CF069C064F0DE
:105958006AC065F01200000E496E4B0E4A6E000ECA
:105968004B6E000E4C6E000E4D6E000E4E6E080E05
:105978004F6E000E0001F56F1A0E096E010EBDEC98
:105988002DF01E0E096E020EBDEC2DF0000E016EFC
:10599800400E026E050E036E400E046E020E59ECA8
:1059A80021F001C0EFF002C0F0F0000E0001ED6F31
:1059B800000EEE6F000E3A6E12009F0E0001686F27
:1059C800FF0E696F66C06AF067C06BF068516A279E
:1059D80069516B236B510AE11A0E6A5DD8A0F7EF83
:1059E8002CF0FAEF2CF0010EFBEF2CF0000E6C6F90
:1059F8006D6B6C516D11D8B404EF2DF006EF2DF0DE
:105A08000CEF2DF05F0E6615666F676B10EF2DF0CB
:105A180066C066F067C067F0120070A016EF2DF040
:105A280018EF2DF03FEF2DF037C0D9FF38C0DAFF5F
:105A3800800EDE18D8A423EF2DF025EF2DF03EEFD1
:105A48002DF0CFC0D9FFD0C0DAFF840EDE18D8A45D
:105A580030EF2DF032EF2DF03EEF2DF037C0D9FFAB
:105A680038C0DAFF0C0EDF6E37C0D9FF38C0DAFF56
:105A7800000EDB8E7090689A120060C0F6FF61C05D
:105A8800F7FF0800F55000016219D8A44EEF2DF079
:105A980050EF2DF056EF2DF060C060F061C061F05E
:105AA8006AEF2DF060C0F6FF61C0F7FF604B612B15
:105AB8000800F5500009D8A464EF2DF066EF2DF02A
:105AC80041EF2DF0000E606F000E616F1200010EA5
:105AD8000001666F200E60196111D8B476EF2DF0C1
:105AE80078EF2DF091EF2DF0F70E626FFF0E636FD8
:105AF80060C064F061C065F062516427635165233A
:105B0800655109E1050E645DD8A08DEF2DF08FEF8A
:105B18002DF091EF2DF0000E666F66C060F0616B9E
:105B2800120003C009F004C00AF001C007F002C067
:105B380008F0AFEF2DF009C0D9FF0AC0DAFFDF5037
:105B48000B6E094A0A2A07C0D9FF08C0DAFF0BC042
:105B5800DFFF074A082A0506D8A00606052806E139
:105B68000628D8A4BAEF2DF0BCEF2DF09FEF2DF04A
:105B780012000C6E09A4C3EF2DF0C5EF2DF0CAEF8B
:105B88002DF0000E016E0C5003EC2AF009A2CFEFA5
:105B98002DF0D1EF2DF0D6EF2DF0010E016E0C5047
:105BA80003EC2AF0700E0C240A6E0B6A0F0E0B22FF
:105BB8000AC0D9FF0BC0DAFF09C0DFFF12000001DD
:105BC80020EE03F06351D9266451DA22DF50D8A4BD
:105BD800F0EF2DF0F2EF2DF0FCEF2DF0E80E606FF6
:105BE800100E616F160E626F59EC2FF004EF2EF055
:105BF800BA0E606F100E616F180E626F59EC2FF0BD
:105C080012004850D8A40BEF2EF00DEF2EF025EF20
:105C18002EF0000E6D6E000E696E060E6F6E9F0EF2
:105C28006B6E7B0E696EA28AA08A1CEF2EF06D86C1
:105C38006DA621EF2EF023EF2EF01BEF2EF0010EB4
:105C4800486E120095968C9695988C98959A8C9A91
:105C580095908C9095928C9295948C9494908B902E
:105C680094928B929290899096908D9096928D9224
:105C780096948D9494948B94958C9382938493802A
:105C88009388938A1200000E446E000E0E6E740EF6
:105C98000D6E000E0F6E000E106E000E126E000ECE
:105CA800116EA1EC2AF06D9269945CEF2EF0689465
:105CB80068B461EF2EF063EF2EF05BEF2EF0000E6C
:105CC8003B6E12009F0E0001626FFF0E636F60C093
:105CD80064F061C065F062516427635165236551C2
:105CE8000AE11A0E645DD8A07CEF2EF07FEF2EF04B
:105CF800010E80EF2EF0000E606F616B1200D00E67
:105D08000001626FFF0E636F60C064F061C065F0F0
:105D1800625164276351652365510AE10A0E645D87
:105D2800D8A099EF2EF09CEF2EF0010E9DEF2EF0EB
:105D3800000E606F616B1200000160516111621109
:105D48006311D8B4AAEF2EF0ACEF2EF0B4EF2EF01A
:105D5800000E601B000E611B000E621B800E631B91
:105D680060C060F061C061F062C062F063C063F05F
:105D780012001F0E4864C3EF2EF0C5EF2EF0D2EFCD
:105D88002EF06DB2CAEF2EF0CCEF2EF0D2EF2EF03F
:105D9800000E0001616F6069D7EF2EF0000E000160
:105DA800616F000E606F60511200520E0001606F4B
:105DB800010E616F010E626F26EC2BF0520E00018E
:105DC800606F010E616F000E626FACEC25F0520E31
:105DD8000001606F010E616F010E626FE5EC2AF041
:105DE800120026EC2EF0D9EC2EF0C5EC2FF0ABEC1F
:105DF8002FF0D00ECCEC2FF0BDEC2EF00009D8B46B
:105E080008EF2FF00AEF2FF000EF2FF029EC2FF01A
:105E180000EF2FF007EF08F0010E2F26000E3022BA
:105E2800312232224450D8A41CEF2FF01EEF2FF05D
:105E380028EF2FF03B2A3B50D8A425EF2FF027EF6F
:105E48002FF028EF2FF03B681200FEEC28F0000935
:105E5800D8B431EF2FF033EF2FF03EEF2FF02A0EAA
:105E68000001BD6F010EBE6FF0EC16F0BDC0F1F081
:105E7800BEC0F2F086EC1AF01200F2AC46EF2FF03A
:105E880048EF2FF058EF2FF0A0AA4DEF2FF04FEF6B
:105E98002FF058EF2FF0A1AA54EF2FF056EF2FF064
:105EA80058EF2FF096EC18F01200A09A3A50D8A4A8
:105EB80060EF2FF062EF2FF06DEF2FF060C0E2F08F
:105EC80061C0E3F062C0F4F0010E0001F36F010E4F
:105ED8003A6EA08A1200698468986D82010E446E39
:105EE800000E3B6E000E0E6E750E0D6E000E0F6EE0
:105EF800000E106E000E126E000E116EA1EC2AF04C
:105F08001200000160516203F3CF64F0F4CF65F032
:105F180060516303F350652761516203F3506527AD
:105F280064C060F065C061F01200FF0E0001646F8C
:105F3800FF0E656FFF0E666F7F0E676F64C060F0BF
:105F480065C061F066C062F067C063F01200D09E61
:105F5800F29EF28CF28AF294D59ED58CD59AD5967B
:105F6800070ED512D00ED66ED58EF28E1200000016
:105F7800010000000000000000000000000000C850
:015F880042D6
:105F8A00F28EF28C2BEC1EF005EC2EF012000001C2
:0A5F9A00606F60C0D6FF1200D0D087
:020000040020DA
:08000000FFFFFFFFFFFFFFFF00
:020000040030CA
:0E000000230E391EFF8381FF0FC00FE00F405B
:00000001FF
