:0410000007EF08F0FE
:10100800548244ED2AF059EF2EF000B6105E108499
:10101800101B1009024300020100C032090400003D
:101028000102020100052400100104240202052423
:101038000600010524010001070581030A000209D1
:10104800040100020A000000070502024000000730
:10105800058202400000260341004C004C00490074
:101068004F004E00450020004A004F00410051004B
:10107800550049004E000000000000002003540005
:1010880065007300740020005500530042002000E2
:1010980044006500760069006300650012010002E3
:1010A80002000020D8040A00000101020001040324
:1010B8000904446972656374696F6E3A20554E433A
:1010C8004C4F434B574953450A00556E7375707022
:1010D8006F7274656420436F6D6D616E642E0A00D3
:1010E800446972656374696F6E3A20434C4F434B91
:1010F800574953450A004739302D636F6D6D616E4E
:101108006420617272697665210A004732312D6365
:101118006F6D6D616E6420617272697665210A0077
:101128004739312D636F6D6D616E6420617272692C
:101138007665210A004739322D636F6D6D616E64E3
:1011480020617272697665210A004D38342D636F0B
:101158006D6D616E6420617272697665210A00475F
:1011680032382D636F6D6D616E64206172726976BD
:1011780065210A00544F47474C45204F5554505558
:10118800542052454C41590A0047302D636F6D6D0C
:10119800616E6420617272697665210A004D302D96
:1011A800636F6D6D616E6420617272697665210A84
:1011B8000047312D636F6D6D616E642061727269D5
:1011C8007665210A004D312D636F6D6D616E642067
:1011D800617272697665210A004D322D636F6D6DFB
:1011E800616E6420617272697665210A0047342D48
:1011F800636F6D6D616E6420617272697665210A34
:1012080000494E46494E49545900696E66696E69EF
:101218007479004E414E00696E66006E616E002062
:10122800000000017B517C11D8B41DEF09F01FEFBD
:1012380009F02BEF09F07BC0D9FF7CC0DAFF79C039
:10124800DEFF7AC0DDFF2BEF09F0794B7A2B010E18
:10125800936F79C0D9FF7AC0DAFF200EDE18D8B4B0
:1012680038EF09F03BEF09F0010E3CEF09F0000EF2
:10127800986F996B98519911D8A445EF09F047EFE9
:1012880009F069EF09F0F70E7D6FFF0E7E6F79C0E8
:10129800D9FF7AC0DAFFDF507F6F7F51986F996B63
:1012A80098C080F099C081F07D5180277E518123BC
:1012B800815109E1050E805DD8A065EF09F067EF5F
:1012C80009F069EF09F0000E936F93C083F0846B07
:1012D80083518411D8A473EF09F075EF09F029EF51
:1012E80009F0000E956F2D0E98199911D8A47FEF6B
:1012F80009F081EF09F087EF09F0010E956F794B3E
:101308007A2B93EF09F02B0E98199911D8A48FEF27
:1013180009F091EF09F093EF09F083EF09F0000E5F
:101328009E6F98EF09F09E2B9E517925D96E000E7D
:101338007A21DA6EDF50D8B4A4EF09F0A6EF09F0ED
:10134800D6EF09F09E517925D96E000E7A21DA6E12
:10135800DF507D6F120E9E25F66EF76A120EF72289
:101368000800F5507D19D8B4BCEF09F0BEEF09F0BC
:1013780097EF09F09E517925D96E000E7A21DA6E21
:10138800DF507D6F090E9E25F66EF76A120EF72262
:101398000800F5507D19D8B4D4EF09F0D6EF09F05C
:1013A80097EF09F0020E9E65DCEF09F0DEEF09F019
:1013B8000AEF0AF0000E9A6F000E9B6F800E9C6F6A
:1013C8007F0E9D6F7B517C11D8B4EDEF09F0EFEFE4
:1013D80009F0B0EF11F0080E9E19D8B4F6EF09F035
:1013E800F8EF09F0FAEF09F0030E9E6F9E51792588
:1013F8007D6F000E7A217E6F7BC0D9FF7CC0DAFF3B
:101408007DC0DEFF7EC0DDFFB0EF11F0000E9E6FE5
:101418000FEF0AF09E2B9E517925D96E000E7A2186
:10142800DA6EDF50D8B41BEF0AF01DEF0AF04DEF6B
:101438000AF09E517925D96E000E7A21DA6EDF50B6
:101448007D6F230E9E25F66EF76A120EF7220800AE
:10145800F5507D19D8B433EF0AF035EF0AF00EEFE6
:101468000AF09E517925D96E000E7A21DA6EDF5086
:101478007D6F1B0E9E25F66EF76A120EF722080086
:10148800F5507D19D8B44BEF0AF04DEF0AF00EEF86
:101498000AF0030E9E19D8A454EF0AF056EF0AF08A
:1014A800C5EF0AF0120E606F110E616F6AEC30F032
:1014B80060C09AF061C09BF062C09CF063C09DF070
:1014C80000017B517C11D8B46CEF0AF06EEF0AF082
:1014D800B0EF11F09E517927000E7A2379C0D9FF19
:1014E8007AC0DAFF280EDE18D8A47DEF0AF07FEF65
:1014F8000AF0BBEF0AF0000E9E6F84EF0AF09E2BF5
:101508009E517925D96E000E7A21DA6EDF50D8B453
:1015180090EF0AF092EF0AF0A1EF0AF09E517925B8
:10152800D96E000E7A21DA6E290EDE18D8A49FEF44
:101538000AF0A1EF0AF083EF0AF09E517925D96EDF
:10154800000E7A21DA6E290EDE18D8A4AEEF0AF062
:10155800B0EF0AF0BBEF0AF09E517D6F7E6B010E73
:101568007D27000E7E237D5179277E517A237BC00B
:10157800D9FF7CC0DAFF79C0DEFF7AC0DDFFB0EFAB
:1015880011F0000E996F000E986F000E9A6F000E02
:101598009B6F000E9C6F000E9D6F000E976F000EE4
:1015A800966F000E9E6FDAEF0AF09E2B9E517925FA
:1015B800D96E000E7A21DA6E300EDE18D8B4E7EF55
:1015C8000AF0E9EF0AF0D9EF0AF09E51D8B4EFEF2C
:1015D8000AF0F1EF0AF08DEF0EF09E517925D96EE1
:1015E800000E7A21DA6E780EDE18D8B4FEEF0AF013
:1015F80000EF0BF00FEF0BF09E517925D96E000E1E
:101608007A21DA6E580EDE18D8A40DEF0BF00FEF22
:101618000BF08DEF0EF09E517D6F7E6B010E7D27D6
:10162800000E7E237D5179277E517A23000E9E6F0E
:101638001FEF0BF09E2B9E517925D96E000E7A2153
:10164800DA6E300EDE18D8B42CEF0BF02EEF0BF05C
:101658001EEF0BF0000E9E6F9E517925D96E000E7D
:101668007A21DA6E700EDE18D8B43DEF0BF03FEF3A
:101678000BF0CFEF0CF09E517925D96E000E7A2130
:10168800DA6E500EDE18D8A44CEF0BF04EEF0BF0CC
:1016980050EF0BF0CFEF0CF09E517925D96E000E6C
:1016A8007A21DA6E2E0EDE18D8A45DEF0BF05FEF0C
:1016B8000BF063EF0BF095899E2BCFEF0CF09E514A
:1016C8007925D96E000E7A21DA6EDF507D6F7D5153
:1016D800606F616BD5EC2BF0000160516111D8B4DB
:1016E80078EF0BF07AEF0BF0F6EF0BF0000E946F3B
:1016F800D00E7D6FFF0E7E6F9E517925D96E000E3C
:101708007A21DA6EDF507F6F806B7D517F277E51A3
:10171800802380510AE10A0E7F5DD8A096EF0BF076
:1017280099EF0BF0010E9AEF0BF0000E856F866BA8
:1017380085518611D8B4A3EF0BF0A5EF0BF0B0EFED
:101748000BF09E517925D96E000E7A21DA6EDF50A2
:10175800D00F946FC1EF0BF09E517925D96E000E12
:101768007A21DA6EDF507D6F7D51666F676B7BEC97
:101778002DF000016651C90F946F99BFCFEF0BF0A0
:10178800995107E1080E985DD8B0CDEF0BF0CFEF77
:101798000BF0EEEF0BF0985107087D6FD8907D376E
:1017A800D8907D3794C07EF07F6B806B816B7D2BEA
:1017B800E3EF0BF0D8907E377F37803781377D2F66
:1017C800DEEF0BF07E519A137F519B1380519C13CF
:1017D80081519D13984B992B040E9627000E972341
:1017E80000EF0CF0000E796F000E7A6F000E7B6F21
:1017F800000E7C6FD1EF11F09E2B30EF0BF09E5155
:101808007925D96E000E7A21DA6E700EDE18D8B4FA
:1018180010EF0CF012EF0CF0D6EF0CF09E5179257A
:10182800D96E000E7A21DA6E500EDE18D8A41FEF9A
:101838000CF021EF0CF023EF0CF0D6EF0CF09E51DA
:101848007925D96E000E7A21DA6E300EDE18D8A40A
:1018580030EF0CF032EF0CF041EF0CF09851991189
:10186800D8A439EF0CF03BEF0CF041EF0CF0FC0E74
:101878009627FF0E9723CEEF0CF09E517925D96E4F
:10188800000E7A21DA6EDF507D6F7D51606F616BDB
:10189800D5EC2BF0000160516111D8B456EF0CF073
:1018A80058EF0CF0CEEF0CF0000E946FD00E7D6F59
:1018B800FF0E7E6F9E517925D96E000E7A21DA6E61
:1018C800DF507F6F806B7D517F277E518023805151
:1018D8000AE10A0E7F5DD8A074EF0CF077EF0CF0E8
:1018E800010E78EF0CF0000E876F886B8751881116
:1018F800D8B481EF0CF083EF0CF08EEF0CF09E5112
:101908007925D96E000E7A21DA6EDF50D00F946FE8
:101918009FEF0CF09E517925D96E000E7A21DA6E70
:10192800DF507D6F7D51666F676B7BEC2DF000019A
:101938006651C90F946F99BFADEF0CF0995107E14B
:10194800080E985DD8B0ABEF0CF0ADEF0CF0CCEF13
:101958000CF0985107087D6FD8907D37D8907D3767
:1019680094C07EF07F6B806B816B7D2BC1EF0CF098
:10197800D8907E377F37803781377D2FBCEF0CF0CA
:101988007E519A137F519B1380519C1381519D1353
:10199800984B992B9E2B95B9D4EF0CF0D6EF0CF001
:1019A80003EF0CF09E517925D96E000E7A21DA6E7C
:1019B800700EDE18D8B4E3EF0CF0E5EF0CF0FEEF94
:1019C8000CF09E517925D96E000E7A21DA6E500EF0
:1019D800DE18D8B4F2EF0CF0F4EF0CF0FEEF0CF0D8
:1019E800000E796F000E7A6F000E7B6F000E7C6F11
:1019F800D1EF11F09E2B9E517925D96E000E7A21D8
:101A0800DA6E2B0EDE18D8A40CEF0DF00EEF0DF0E9
:101A180011EF0DF09E2B22EF0DF09E517925D96E16
:101A2800000E7A21DA6E2D0EDE18D8A41EEF0DF006
:101A380020EF0DF022EF0DF095879E2B9E51792710
:101A4800000E7A23000E9E6F2BEF0DF09E2B9E51F9
:101A58007925D96E000E7A21DA6E300EDE18D8B4E8
:101A680038EF0DF03AEF0DF02AEF0DF0000E996FF8
:101A7800000E986F6DEF0DF09E51D8B446EF0DF043
:101A880048EF0DF056EF0DF098C060F099C061F086
:101A9800000E636F0A0E626F56EC30F060C098F06B
:101AA80061C099F0D00E00017D6FFF0E7E6F9E51D0
:101AB8007925D96E000E7A21DA6EDF507F6F806B40
:101AC8007D517F277E5180237F519827805199230C
:101AD8009E2BD00E7D6FFF0E7E6F9E517925D96E9D
:101AE800000E7A21DA6EDF507F6F806B7D517F2781
:101AF8007E51802380510AE10A0E7F5DD8A087EFCE
:101B08000DF08AEF0DF0010E8BEF0DF0000E896FCE
:101B18008A6B89518A11D8A494EF0DF096EF0DF0D5
:101B280040EF0DF09E51D8A49CEF0DF09EEF0DF004
:101B3800A8EF0DF0000E796F000E7A6F000E7B6F24
:101B4800000E7C6FD1EF11F095A7ADEF0DF0AFEF60
:101B58000DF0B3EF0DF0986D991FD8B0992B9851EF
:101B68009627995197237B517C11D8B4BEEF0DF07D
:101B7800C0EF0DF0CEEF0DF09E5179257D6F000E70
:101B88007A217E6F7BC0D9FF7CC0DAFF7DC0DEFF83
:101B98007EC0DDFF9A519B119C119D11D8A4D7EFEF
:101BA8000DF0D9EF0DF0E3EF0DF0000E796F000E98
:101BB8007A6F000E7B6F000E7C6FD1EF11F0FF0E75
:101BC8009A157D6F000E9B157E6F000E9C157F6F1A
:101BD800000E9D15806F80517F117E1109E1810EE5
:101BE8007D5DD8A0FAEF0DF0FCEF0DF00EEF0EF0D2
:101BF800000E9A27010E9B23000E9C23000E9D23A6
:101C08000EEF0EF0D8909A379B379C379D37960782
:101C1800D8A097079DAF13EF0EF015EF0EF006EF63
:101C28000EF097AF21EF0EF0830E965DFF0E9759D9
:101C3800D8B021EF0EF023EF0EF02FEF0EF0FF0ECD
:101C4800976F810E966F000E9A6F000E9B6F000EB5
:101C58009C6F000E9D6F810E961908E19729D8B4E4
:101C680038EF0EF03AEF0EF042EF0EF0D8909A37B8
:101C78009B379C379D379607D8A0970797BF4EEF9D
:101C88000EF0975109E1800E965DD8A04EEF0EF048
:101C980050EF0EF05CEF0EF0000E9A6F000E9B6F87
:101CA800000E9C6F000E9D6F000E976F800E966F52
:101CB800090E7D6FD8909D339C339B339A337D2FCB
:101CC8005EEF0EF0FF0E9A17FF0E9B177F0E9C1704
:101CD800000E9D177F0E96257D6F000E97217E6F53
:101CE800FF0E7D157F6F806B816B826B170ED8900E
:101CF8007F37803781378237E82E7BEF0EF07F51B0
:101D08009A1380519B1381519C1382519D13B0EFFC
:101D180011F095B992EF0EF094EF0EF0A6EF0EF0D9
:101D280079C0D9FF7AC0DAFF2E0EDE18D8A49FEF4B
:101D38000EF0A1EF0EF0A6EF0EF09589794B7A2BF5
:101D48008DEF0EF0D00E7D6FFF0E7E6F79C0D9FF3C
:101D58007AC0DAFFDF507F6F806B7D517F277E511D
:101D6800802380510AE10A0E7F5DD8A0BEEF0EF0F5
:101D7800C1EF0EF0010EC2EF0EF0000E8B6F8C6BF0
:101D88008B518C11D8A4CBEF0EF0CDEF0EF0CFEF26
:101D98000EF01EEF0FF09583090E98199911D8B41B
:101DA800D8EF0EF0DAEF0EF011EF0FF095A9DFEF94
:101DB8000EF0E1EF0EF0E4EF0EF09607D8A09707CB
:101DC800984B992B9AC060F09BC061F09CC062F060
:101DD8009DC063F00A0E646F000E656F000E666F9B
:101DE800000E676F45EC2CF060C09AF061C09BF064
:101DF80062C09CF063C09DF079C0D9FF7AC0DAFF59
:101E0800DF5000017D6FD00E7D277D519A27000E8F
:101E18009B239C239D231AEF0FF095B916EF0FF023
:101E280018EF0FF01AEF0FF0964B972B794B7A2B90
:101E38008DEF0EF0000E996F000E986F79C0D9FFE4
:101E48007AC0DAFF650EDE18D8B42DEF0FF02FEF49
:101E58000FF03CEF0FF079C0D9FF7AC0DAFF450EDA
:101E6800DE18D8A43AEF0FF03CEF0FF02DEF10F08A
:101E7800794B7A2B79C0D9FF7AC0DAFF2D0EDE189C
:101E8800D8A449EF0FF04BEF0FF050EF0FF0958704
:101E9800794B7A2B5FEF0FF079C0D9FF7AC0DAFF60
:101EA8002B0EDE18D8A45BEF0FF05DEF0FF05FEF9D
:101EB8000FF0794B7A2B79C0D9FF7AC0DAFF300E50
:101EC800DE18D8B46AEF0FF06CEF0FF05DEF0FF08B
:101ED800D00E7D6FFF0E7E6F79C0D9FF7AC0DAFF12
:101EE800DF507F6F806B7D517F277E51802380512B
:101EF8000AE10A0E7F5DD8A084EF0FF087EF0FF09C
:101F0800010E88EF0FF0000E8D6F8E6B8D518E11C4
:101F1800D8B491EF0FF093EF0FF022EF10F079C0E3
:101F2800D9FF7AC0DAFFDF507D6FD00E7D277D5153
:101F3800986F996B794B7A2BD00E7D6FFF0E7E6F61
:101F480079C0D9FF7AC0DAFFDF507F6F806B7D518F
:101F58007F277E51802380510AE10A0E7F5DD8A039
:101F6800B8EF0FF0BBEF0FF0010EBCEF0FF0000E53
:101F78008F6F906B8F519011D8B4C5EF0FF0C7EFEA
:101F88000FF022EF10F079C0D9FF7AC0DAFFDF50E6
:101F98007D6FD00E7D2798C060F099C061F0000E6B
:101FA800636F0A0E626F56EC30F000017D516025B8
:101FB800986F000E6121996F794B7A2BD00E7D6F47
:101FC800FF0E7E6F79C0D9FF7AC0DAFFDF507F6FCE
:101FD800806B7D517F277E51802380510AE10A0E54
:101FE8007F5DD8A0FAEF0FF0FDEF0FF0010EFEEFC6
:101FF8000FF0000E916F926B91519211D8B407EFC8
:1020080010F009EF10F022EF10F079C0D9FF7AC074
:10201800DAFFDF507D6FD00E7D2798C060F099C041
:1020280061F0000E636F0A0E626F56EC30F000012B
:102038007D516025986F000E6121996F95A727EF54
:1020480010F029EF10F02DEF10F0986D991FD8B00F
:10205800992B98519627995197237B517C11D8B485
:1020680038EF10F03AEF10F049EF10F095A33FEF7A
:1020780010F041EF10F049EF10F07BC0D9FF7CC0A1
:10208800DAFF79C0DEFF7AC0DDFF9AC060F09BC03E
:1020980061F09CC062F09DC063F0000E71EC1AF014
:1020A80060C09AF061C09BF062C09CF063C09DF074
:1020B8009AC060F09BC061F09CC062F09DC063F064
:1020C800000E0001646F000E656F000E666F000E53
:1020D800676F42EC29F00001D8A075EF10F077EF98
:1020E80010F081EF10F0000E796F000E7A6F000E7D
:1020F8007B6F000E7C6FD1EF11F097BF88EF10F067
:1021080086EF10F019EF11F0966D971FD8B0972B46
:10211800ADEF10F09AC060F09BC061F09CC062F017
:102128009DC063F0F90E646F020E656F150E666F41
:10213800500E676FE5EC15F060C09AF061C09BF037
:1021480062C09CF063C09DF00001F60E9627FF0E5A
:10215800972397BFBBEF10F0975107E10A0E965DE2
:10216800D8B0B9EF10F0BBEF10F08EEF10F0DBEF46
:1021780010F09AC060F09BC061F09CC062F09DC0F6
:1021880063F0000E646F000E656F200E666F410EDF
:10219800676FE5EC15F060C09AF061C09BF062C013
:1021A8009CF063C09DF000019607D8A09707965150
:1021B8009711D8A4E2EF10F0E4EF10F0BDEF10F0A3
:1021C8009AC060F09BC061F09CC062F09DC063F053
:1021D800000E646F000E656F800E666F000E676FED
:1021E8004EEC24F00001D8B0FCEF10F0FEEF10F038
:1021F800B0EF11F095A103EF11F005EF11F00FEF1B
:1022080011F0000E796F000E7A6F800E7B6F800ED2
:102218007C6FD1EF11F0000E796F000E7A6F800E8F
:102228007B6F000E7C6FD1EF11F097BF24EF11F098
:10223800975108E19605D8A024EF11F026EF11F088
:10224800B0EF11F047EF11F09AC060F09BC061F059
:102258009CC062F09DC063F0F90E646F020E656F5A
:10226800150E666F500E676FD2EC11F060C09AF0D1
:1022780061C09BF062C09CF063C09DF00001F60E47
:102288009627FF0E9723975107E10A0E965DD8B05F
:1022980050EF11F052EF11F028EF11F072EF11F03A
:1022A8009AC060F09BC061F09CC062F09DC063F072
:1022B800000E646F000E656F200E666F410E676F2B
:1022C800D2EC11F060C09AF061C09BF062C09CF043
:1022D80063C09DF000019607D8A097079651971103
:1022E800D8A479EF11F07BEF11F054EF11F0FF0E45
:1022F800606FFF0E616F7F0E626F7F0E636F9AC013
:1023080064F09BC065F09CC066F09DC067F04EEC21
:1023180024F00001D8B093EF11F095EF11F0B0EF71
:1023280011F095A19AEF11F09CEF11F0A6EF11F0C2
:10233800000E796F000E7A6F800E7B6F800E7C6FB7
:10234800D1EF11F0000E796F000E7A6F800E7B6F5F
:10235800000E7C6FD1EF11F095A1B5EF11F0B7EF3A
:1023680011F0C9EF11F09AC060F09BC061F09CC0F9
:1023780062F09DC063F08DEC2FF060C09AF061C0F0
:102388009BF062C09CF063C09DF09AC079F09BC03E
:102398007AF09CC07BF09DC07CF012000001635174
:1023A800800B6C6F63516325726F62AFDEEF11F0C3
:1023B800E0EF11F0E1EF11F072817251D8B4E7EF5C
:1023C80011F0E9EF11F0FCEF11F07229D8A4EFEF4A
:1023D80011F0F1EF11F0F9EF11F0000E606F000E3F
:1023E800616F000E626F000E636F628F04EF12F070
:1023F800000E606F000E616F000E626F000E636F5B
:102408006751800B6C1B675167256D6F66AF0FEFC7
:1024180012F011EF12F012EF12F06D816D51D8B475
:1024280018EF12F01AEF12F02DEF12F06D29D8A460
:1024380020EF12F022EF12F02AEF12F0000E646F74
:10244800000E656F000E666F000E676F668F35EFC2
:1024580012F0000E646F000E656F000E666F000EBE
:10246800676F6D51D8B43BEF12F03DEF12F045EFB6
:1024780012F07251D8A443EF12F045EF12F04FEF6B
:1024880012F0000E606F000E616F000E626F000E9A
:10249800636FE7EF13F066516003F3CF77F0F4CF83
:1024A80078F077516E6F6F6B706B716B7851736FDB
:1024B800746B756B766B65516103F3CF77F0F4CF6E
:1024C80078F077516E27000E6F23702371237851AF
:1024D8007327000E74237523762364516203F3CFA8
:1024E80077F0F4CF78F077516E27000E6F237023C2
:1024F800712378517327000E74237523762370C0D7
:1025080071F06FC070F06EC06FF06E6B6451610354
:10251800F3CF77F0F4CF78F077516E2778516F23A7
:10252800000E7023000E712365516003F3CF77F01E
:10253800F4CF78F077516E2778516F23000E70230F
:10254800000E712370C071F06FC070F06EC06FF034
:102558006E6B64516003F3CF77F0F4CF78F0775166
:102568006E2778516F23000E7023000E7123665179
:102578006103F3CF77F0F4CF78F077517327785170
:102588007423000E7523000E762365516203F3CF82
:1025980077F0F4CF78F07751732778517423000ED1
:1025A8007523000E762366516203F3CF77F0F4CFDC
:1025B80078F07751686F7851696F6A6B6B6B6AC096
:1025C8006BF069C06AF068C069F0686B685173277E
:1025D800695174236A5175236B5176236EC068F074
:1025E8006FC069F070C06AF071C06BF0190E02EF2D
:1025F80013F0D8906B336A3369336833E82EFDEFF4
:1026080012F068517327695174236A5175236B510D
:10261800762370C071F06FC070F06EC06FF06E6B93
:102628006D5172C068F0696B6827000E6923820ECD
:102638006825776FFF0E6921786F38EF13F0D8900F
:10264800733774377537763771AF2DEF13F02FEF77
:1026580013F030EF13F07381D8906E376F377037FF
:1026680071377707D8A0780775AF3DEF13F03FEFC4
:1026780013F023EF13F0000E6D6F71AF46EF13F0F8
:1026880048EF13F06CEF13F0FF0E6E15686FFF0E36
:102698006F15696FFF0E70156A6F7F0E71156B6F7E
:1026A800685169116A116B11D8B45DEF13F05FEFCF
:1026B80013F063EF13F0010E6D6F6CEF13F073A15D
:1026C80068EF13F06AEF13F06CEF13F05FEF13F09D
:1026D8006D51D8B472EF13F074EF13F098EF13F054
:1026E800010E7327000E74237523762376A17FEFDE
:1026F80013F081EF13F098EF13F073C068F074C013
:1027080069F075C06AF076C06BF06B356B336A336D
:102718006933683368C073F069C074F06AC075F0D3
:102728006BC076F0774B782B78BFA3EF13F0785116
:1027380008E17729D8A0A3EF13F0A5EF13F0AFEFC6
:1027480013F0000E736F000E746F800E756F7F0E9E
:10275800766FDDEF13F078BFBCEF13F0785106E128
:102768007705D8B0BAEF13F0BCEF13F0C8EF13F049
:10277800000E736F000E746F000E756F000E766F8B
:10278800000E6C6FDDEF13F077C072F0FF0E731759
:10279800FF0E74177F0E7517000E761772A1D7EF0C
:1027A80013F0D9EF13F0DAEF13F0758FD890723178
:1027B800766F6C51761373C060F074C061F075C0A9
:1027C80062F076C063F01200BDC06BF0BEC06CF062
:1027D800270E00016D6F120E6E6FBFEC27F06BC0F5
:1027E8006BF16CC06CF1000E0101666F6D696E696A
:1027F800CEEF15F06BC1D9FF6CC1DAFFDF50656F02
:102808006BC1D9FF6CC1DAFF300EDF6E99EF15F09E
:10281800690E7B6F010E7C6F6BC179F06CC17AF029
:1028280015EC09F079C09FF07AC0A0F07BC0A1F048
:102838007CC0A2F0E9EC1EF09FC0B3F0A0C0B4F0D9
:10284800A1C0B5F0A2C0B6F0CAEC23F0B3C067F1DE
:10285800B4C068F1C0EF14F0000E01016E6F000EF5
:102868006D6F910E0001606F110E616F140E626F33
:102878002AEC30F0BFEF15F0000E01016E6F010E6B
:102888006D6FB90E0001606F110E616F140E626FEB
:102898002AEC30F0BFEF15F0000E01016E6F020E4A
:1028A8006D6FF50E0001606F110E616F140E626F8F
:1028B8002AEC30F0BFEF15F0000E01016E6F030E29
:1028C8006D6F130E0001606F110E616F150E626F50
:1028D8002AEC30F0BFEF15F0000E01016E6F040E08
:1028E8006D6F670E0001606F110E616F150E626FDC
:1028F8002AEC30F0BFEF15F0000E01016E6F050EE7
:102908006D6FFE0E0001606F100E616F150E626F25
:102918002AEC30F0BFEF15F0000E01016E6F060EC5
:102928006D6F280E0001606F110E616F150E626FDA
:102938002AEC30F0BFEF15F0000E01016E6F070EA4
:102948006D6F3D0E0001606F110E616F150E626FA5
:102958002AEC30F0BFEF15F0D20E606F100E616FE9
:10296800160E626F2AEC30F0010E0101666F01014C
:102978006D696E69BFEF15F067C1BFF068C1C0F03F
:102988000001C051000AD8B4CCEF14F0B0EF14F035
:10299800BF51000AD8B430EF14F0010AD8B440EFA0
:1029A80014F0050AD8B450EF14F0110AD8B460EF47
:1029B80014F0090AD8B470EF14F0460AD8B480EFBE
:1029C80014F0010AD8B490EF14F0070AD8B4A0EFB5
:1029D80014F0B0EF14F0690E7B6F010E7C6F6BC1C1
:1029E80079F06CC17AF015EC09F079C09FF07AC0E3
:1029F800A0F07BC0A1F07CC0A2F0E9EC1EF09FC063
:102A0800B3F0A0C0B4F0A1C0B5F0A2C0B6F0CAEC53
:102A180023F0B3C067F1B4C068F15DEF15F0000EA4
:102A280001016E6F090E6D6FA50E0001606F110E2A
:102A3800616F140E626F2AEC30F0BFEF15F0000ED4
:102A480001016E6F0A0E6D6FCD0E0001606F110EE1
:102A5800616F140E626F2AEC30F0BFEF15F0000EB4
:102A680001016E6F0B0E6D6FE10E0001606F110EAC
:102A7800616F140E626F2AEC30F0BFEF15F0000E94
:102A880001016E6F0C0E6D6F520E0001606F110E1A
:102A9800616F150E626F2AEC30F0BFEF15F0D20EA1
:102AA800606F100E616F160E626F2AEC30F0B8EF8F
:102AB80014F067C1BFF068C1C0F00001C051000A3E
:102AC800D8B469EF15F053EF15F0BF51000AD8B428
:102AD80013EF15F0010AD8B423EF15F0030AD8B4A0
:102AE80033EF15F0560AD8B443EF15F053EF15F04D
:102AF800000E01016E6F0E0E6D6FBFEF15F0520ED6
:102B0800636F010E646FD0EC2EF0BFEF15F0010E6D
:102B18000101666FD20E0001606F100E616F160E14
:102B2800626F2AEC30F0BBEF14F065510001BF6F03
:102B3800C06BC051000AD8B4A4EF15F08BEF15F0A4
:102B4800BF51460AD8B4BFEF15F0010AD8B40CEF4C
:102B580014F00A0AD8B4EFEF14F0150AD8B4BFEF8E
:102B680015F0010AD8B47CEF15F0030AD8B483EF46
:102B780015F08BEF15F0000E00016B6F000E6C6FF7
:102B8800270E6D6F120E6E6FBFEC27F06BC06BF1E6
:102B98006CC06CF101016B516C11D8B4D6EF15F013
:102BA800D8EF15F0E0EF15F06651D8B4DEEF15F068
:102BB800E0EF15F0FEEF13F06DC1BDF06EC1BEF091
:102BC800120000016351800B706F63516325776FAA
:102BD80062AFF1EF15F0F3EF15F0F4EF15F0778130
:102BE8007751D8B4FAEF15F0FCEF15F011EF16F0A5
:102BF8007729D8A402EF16F004EF16F00CEF16F0C0
:102C0800000E606F000E616F000E626F000E636F42
:102C1800628F000E636F19EF16F0000E606F000EE2
:102C2800616F000E626F000E636F6751800B701B3F
:102C380067516725786F66AF24EF16F026EF16F018
:102C480027EF16F078817851D8B42DEF16F02FEFD2
:102C580016F044EF16F07829D8A435EF16F037EFC0
:102C680016F03FEF16F0000E646F000E656F000E51
:102C7800666F000E676F668F000E676F4CEF16F079
:102C8800000E646F000E656F000E666F000E676FB2
:102C98006451651166116711D8A455EF16F057EF06
:102CA80016F06FEF16F0000E606F000E616F000EE9
:102CB800626F000E636F800E62137F0E6313705194
:102CC800631360C060F061C061F062C062F063C00D
:102CD80063F0B2EF17F07751D8A475EF16F077EFDD
:102CE80016F081EF16F0000E606F000E616F000E97
:102CF800626F000E636FB2EF17F0785177C068F01B
:102D0800696B685F000E695B7F0E6825716F000E46
:102D18006921726F60C06CF061C06DF062C06EF0C6
:102D280063C06FF0000E606F000E616F000E626F7F
:102D3800000E636F000E736F000E746F000E756FD8
:102D4800000E766F000E786FE2EF16F07851D8B467
:102D5800B0EF16F0B2EF16F0C9EF16F0D8906C3756
:102D68006D376E376F37D8906037613762376337A2
:102D780076AFC1EF16F0C3EF16F0C4EF16F060811E
:102D8800D890733774377537763764516C5D6551F1
:102D98006D5966516E5967516F59D8A0D6EF16F024
:102DA800D8EF16F0E1EF16F0768D64516C5F65513F
:102DB8006D5B66516E5B67516F5B782B190E78659A
:102DC800E8EF16F0EAEF16F0AAEF16F06C516D1165
:102DD8006E116F11D8B4F3EF16F0F5EF16F00DEF92
:102DE80017F073810DEF17F0D890603761376237AD
:102DF800633776AF02EF17F004EF17F005EF17F01F
:102E08006081D89073377437753776377107D8A0D3
:102E1800720762AF12EF17F014EF17F0F8EF16F021
:102E2800000E786F76AF1BEF17F01DEF17F041EF2C
:102E380017F0FF0E7315686FFF0E7415696FFF0E9C
:102E480075156A6F7F0E76156B6F685169116A1177
:102E58006B11D8B432EF17F034EF17F038EF17F0E2
:102E6800010E786F41EF17F060A13DEF17F03FEFCB
:102E780017F041EF17F034EF17F07851D8B447EF57
:102E880017F049EF17F06DEF17F0010E6027000EED
:102E980061236223632363A154EF17F056EF17F001
:102EA8006DEF17F060C068F061C069F062C06AF049
:102EB80063C06BF06B356B336A336933683368C052
:102EC80060F069C061F06AC062F06BC063F0714B7A
:102ED800722B72BF78EF17F0725108E17129D8A0F0
:102EE80078EF17F07AEF17F085EF17F0000E726F92
:102EF8007169000E606F000E616F000E626F000E48
:102F0800636F72BF92EF17F0725106E17105D8B086
:102F180090EF17F092EF17F0A0EF17F0000E726F16
:102F2800000E716F000E606F000E616F000E626F11
:102F3800000E636F000E706F71C077F077A1A7EF76
:102F480017F0A9EF17F0ACEF17F0628FADEF17F09D
:102F5800629FD8907731636F63EF16F01200040117
:102F68003205D8A4BAEF17F0BCEF17F0D6EF17F078
:102F780030511F0B0009D8A4C4EF17F0C6EF17F0A3
:102F8800D6EF17F00C8E030E3119D8A4CEEF17F038
:102F9800D0EF17F0D4EF17F0010E256ED6EF17F02B
:102FA800000E256E3251D8A4DCEF17F0DEEF17F0D3
:102FB8005CEF19F030511F0B020AD8A4E6EF17F0A6
:102FC800E8EF17F05CEF19F034510F0B0009D8B493
:102FD800F0EF17F0F2EF17F05CEF19F034510F0B28
:102FE8003F6E030E3F60FBEF17F0FDEF17F05CEF4D
:102FF80019F0200E2818D8A404EF18F006EF18F0DE
:103008005CEF19F00C8E34BF0CEF18F00EEF18F0CF
:103018002BEF18F034510F0B3F6E3F50020DC10ECD
:10302800F324D96E000EF420DA6EDECF44F0DDCF43
:1030380045F034510F0B3F6E406AD90E3F24D96ECC
:10304800000E4020DA6EDF50436E46EF18F0345120
:103058000F0B3F6E3F50020D0F0EF324D96E000E7A
:10306800F420DA6EDECF44F0DDCF45F034510F0B9B
:103078003F6E406ADC0E3F24D96E000E4020DA6EA7
:10308800DF50436E43B04BEF18F04DEF18F055EF9B
:1030980018F0FB0E4414446EFF0E4514456E5AEFAB
:1030A80018F0040E4410446E4550456E34BF5FEF6F
:1030B80018F061EF18F072EF18F034510F0B3F6EF3
:1030C8003F50020DC10EF324D96E000EF420DA6EC3
:1030D80044C0DEFF45C0DDFF81EF18F034510F0B0F
:1030E8003F6E3F50020D0F0EF324D96E000EF420F0
:1030F800DA6E44C0DEFF45C0DDFF030E3119D8A4E7
:1031080088EF18F08AEF18F0C4EF18F044C0D9FF20
:1031180045C0DAFFDFAE93EF18F095EF18F0B6EF81
:1031280018F034BF9AEF18F09CEF18F0AAEF18F0D7
:1031380034510F0B3F6E406AD90E3F24D96E000EF2
:103148004020DA6E0001DF82B6EF18F034510F0B21
:103158003F6E406ADC0E3F24D96E000E4020DA6EC6
:103168000001DF8244C0D9FF45C0DAFF000EDB84CE
:1031780044C0D9FF45C0DAFF000EDB8E5CEF19F0C2
:10318800040E4418446E4550456E44C0D9FF45C0EE
:10319800DAFFDFAED2EF18F0D4EF18F0F0EF18F046
:1031A80044C0D9FF45C0DAFF7F0EDF1644C0D9FFFF
:1031B80045C0DAFF000EDB8C000E386E050E376E48
:1031C80044C039F045C03AF0000E3C6E020E3B6E2A
:1031D800D5EC2AF0F6EF18F044C0D9FF45C0DAFF65
:1031E800000EDB8C040E4418446E4550456E43B205
:1031F80000EF19F002EF19F00DEF19F044C0D9FFF4
:1032080045C0DAFFDFAE0BEF19F00DEF19F045EF0F
:1032180019F0040134BF13EF19F015EF19F023EF7B
:1032280019F034510F0B3F6E406AD90E3F24D96E06
:10323800000E4020DA6E0001DF922FEF19F03451B2
:103248000F0B3F6E406ADC0E3F24D96E000E402003
:10325800DA6E0001DF9244C0D9FF45C0DAFF3B0EA9
:10326800DF16000E386E050E376E44C039F045C0C3
:103278003AF0000E3C6E020E3B6ED5EC2AF04BEF96
:1032880019F044C0D9FF45C0DAFF3B0EDF16040130
:1032980034510F0B3F6E406A700E3F24416E0F0E83
:1032A8004020426E41C0D9FF42C0DAFFFE0EDF1651
:1032B80012002804D8A463EF19F065EF19F072EF33
:1032C80019F06DBA6AEF19F06CEF19F072EF19F096
:1032D800000E686E69806988020E286E68A477EF10
:1032E80019F079EF19F083EF19F069A47EEF19F05E
:1032F80080EF19F083EF19F0689434EC2FF06DA289
:1033080088EF19F08AEF19F08DEF19F0A19A70EF94
:103318001AF068A092EF19F094EF19F0A1EF19F0E4
:1033280069A099EF19F09BEF19F0A1EF19F08FEC54
:103338001FF0A08A040E286E689068A8A6EF19F0FE
:10334800A8EF19F0B1EF19F069A8ADEF19F0AFEFD8
:1033580019F0B1EF19F040EC30F068ACB6EF19F0A5
:10336800B8EF19F0E3EF19F069ACBDEF19F0BFEF52
:1033780019F0CDEF19F0000E386E730E376E000E8F
:10338800396E000E3A6E000E3C6E010E3B6ED5ECA7
:103398002AF0689CE2EC2FF02150D8B4D6EF19F04F
:1033A800D8EF19F0D9EF19F021062150D8A4DFEF92
:1033B80019F0E1EF19F0E3EF19F0D4EC26F068AA60
:1033C800E8EF19F0EAEF19F0F3EF19F069AAEFEF57
:1033D80019F0F1EF19F0F3EF19F0ABEC2DF068A24A
:1033E800F8EF19F0FAEF19F010EF1AF069A2FFEFF1
:1033F80019F001EF1AF010EF1AF07F0E386E3768E7
:10340800000E396E000E3A6E000E3C6E010E3B6ED9
:10341800D5EC2AF0000E6A6E040E286016EF1AF03A
:1034280018EF1AF01BEF1AF0A19A70EF1AF069A6BC
:1034380020EF1AF022EF1AF06FEF1AF0000E496E23
:1034480068A629EF1AF02BEF1AF06FEF1AF06CCF7D
:1034580029F02930E832E8320F0B236E689629B438
:1034680038EF1AF03AEF1AF044EF1AF0D90E232485
:10347800D96EDA6A000EDA220001DF704CEF1AF01A
:10348800DC0E2324D96EDA6A000EDA220001DF701E
:103498002350D8A452EF1AF054EF1AF058EF1AF04C
:1034A8008DEC28F066EF1AF0000E386E720E376E4B
:1034B800290E396E000E3A6E000E3C6E000E3B6E01
:1034C800D5EC2AF0492A030E49646DEF1AF06FEF24
:1034D8001AF024EF1AF0A19A12000001686F000197
:1034E8006851D8B47AEF1AF07CEF1AF09EEF1AF010
:1034F80063BF83EF1AF081EF1AF09EEF1AF060C0F5
:1035080064F061C065F062C066F063C067F0641F74
:10351800651F661F671F642B000E652366236723DC
:1035280064C06AF065C06BF066C06CF067C06DF08F
:10353800A6EF1AF060C06AF061C06BF062C06CF070
:1035480063C06DF06051611162116311D8A4AFEFCF
:103558001AF0B1EF1AF0BBEF1AF0000E606F000E10
:10356800616F000E626F000E636F4CEF1BF0960EDA
:10357800696FC5EF1AF0692BD8906D336C336B33D4
:103588006A33000E6A15646F000E6B15656F000EC6
:103598006C15666FFE0E6D15676F645165116611C7
:1035A8006711D8A4DAEF1AF0DCEF1AF0BFEF1AF0BF
:1035B800EAEF1AF0692B010E6A27000E6B236C23C1
:1035C8006D23D8906D336C336B336A33000E6A15F4
:1035D800646F000E6B15656F000E6C15666FFF0E3D
:1035E8006D15676F6451651166116711D8A4FFEFF7
:1035F8001AF001EF1BF0DEEF1AF009EF1BF0690774
:10360800D8906A376B376C376D376CBF0EEF1BF08D
:1036180010EF1BF018EF1BF0020E696116EF1BF09C
:1036280018EF1BF003EF1BF069B11DEF1BF01FEF44
:103638001BF020EF1BF06C9FD890693369C064F0D1
:10364800656B666B676B64C067F0666B656B646B14
:1036580064516A1365516B1366516C1367516D138E
:103668006851D8B43AEF1BF03CEF1BF044EF1BF065
:1036780063BF43EF1BF041EF1BF044EF1BF06D8F6E
:103688006AC060F06BC061F06CC062F06DC063F03E
:103698001200A09A0001E151E211D8B456EF1BF0D4
:1036A80058EF1BF066EF1BF0E1C0D9FFE2C0DAFF6C
:1036B800DFAE61EF1BF063EF1BF066EF1BF0A08A33
:1036C8001AEF1CF0030E1A18D8A46DEF1BF06FEF59
:1036D8001BF071EF1BF0000E1A6E1A50D8A477EF8A
:1036E8001BF079EF1BF07CEF1BF0A08A1AEF1CF09F
:1036F800020E1A18D8A483EF1BF085EF1BF098EF81
:103708001BF0010E606F000E616F000E626F000EFD
:10371800636F020E33EC20F060C0E1F061C0E2F0AC
:10372800030E1A6E19EF1CF01A04D8A49EEF1BF0B2
:10373800A0EF1BF019EF1CF0400E1964A6EF1BF068
:10374800A8EF1BF0ACEF1BF0400E6C6FAEEF1BF058
:1037580019C06CF06C51195C196E000ED36F050E10
:10376800D46F6CC06BF0EA51D8A4BDEF1BF0BFEF6B
:103778001BF0EBEF1BF0D1EF1BF0D6C0F6FFD7C064
:10378800F7FFD3C0D9FFD4C0DAFF0800F5CFDFFFB9
:10379800D34BD42BD64BD72B6B076B51D8A4D7EF71
:1037A8001BF0D9EF1BF0C1EF1BF0F3EF1BF0D6C0F5
:1037B800F6FFD7C0F7FFD3C0D9FFD4C0DAFF08009F
:1037C800F5CFDFFFD34BD42BD64BD72B6B076B51E1
:1037D800D8A4F1EF1BF0F3EF1BF0DBEF1BF019504F
:1037E800D8A4F9EF1BF0FBEF1BF00AEF1CF0400E1A
:1037F8006C19D8A402EF1CF004EF1CF008EF1CF0C1
:10380800020E1A6E0AEF1CF0030E1A6E010E606F9C
:10381800000E616F050E626F6CC063F0020E33EC30
:1038280020F060C0E1F061C0E2F0A08A120060C040
:103838006AF061C06BF0000164516511D8A427EFEC
:103848001CF029EF1CF02BEF1CF0D6EF1CF06AC01F
:10385800D9FF6BC0DAFF62C0DFFF64516A25666F6B
:1038680065516B21676FFF0E6625D96EFF0E6721C4
:10387800DA6E62C0DFFF655107E1030E645DD8B000
:1038880048EF1CF04AEF1CF04CEF1CF0D6EF1CF090
:1038980020EE01F06A51D9266B51DA2262C0DFFFAF
:1038A80020EE02F06A51D9266B51DA2262C0DFFF9E
:1038B80064516A25666F65516B21676FFE0E662538
:1038C800D96EFF0E6721DA6E62C0DFFF64516A2588
:1038D800666F65516B21676FFD0E6625D96EFF0E09
:1038E8006721DA6E62C0DFFF655107E1070E645D8C
:1038F800D8B081EF1CF083EF1CF085EF1CF0D6EFF9
:103908001CF020EE03F06A51D9266B51DA2262C00E
:10391800DFFF64516A25666F65516B21676FFC0E86
:103928006625D96EFF0E6721DA6E62C0DFFF65512A
:1039380007E1090E645DD8B0A4EF1CF0A6EF1CF0F7
:10394800A8EF1CF0D6EF1CF06AC066F06BC067F0F9
:10395800661F671F664B672B030E6615686F696BDA
:1039680068516A2769516B236851645F6951655BC7
:10397800FC0E6417FF0E6517CDEF1CF06AC0D9FF67
:103988006BC0DAFF62C0DFFF6407D8A065076A4B27
:103998006B2B64516511D8A4D4EF1CF0D6EF1CF042
:1039A800C2EF1CF012002BC035F02CC036F02F509F
:1039B8003010D8A4E2EF1CF0E4EF1CF0E6EF1CF0A6
:1039C80091EF1DF035C0D9FF36C0DAFF2DC0DFFFFB
:1039D8002F503524316E30503620326EFF0E312490
:1039E800D96EFF0E3220DA6E2DC0DFFF305007E1AE
:1039F800030E2F5CD8B003EF1DF005EF1DF007EFA5
:103A08001DF091EF1DF020EE01F03550D92636500B
:103A1800DA222DC0DFFF20EE02F03550D9263650CD
:103A2800DA222DC0DFFF2F503524316E305036207A
:103A3800326EFE0E3124D96EFF0E3220DA6E2DC0A2
:103A4800DFFF2F503524316E30503620326EFD0E98
:103A58003124D96EFF0E3220DA6E2DC0DFFF3050D0
:103A680007E1070E2F5CD8B03CEF1DF03EEF1DF0CC
:103A780040EF1DF091EF1DF020EE03F03550D926F0
:103A88003650DA222DC0DFFF2F503524316E3050EA
:103A98003620326EFC0E3124D96EFF0E3220DA6EDB
:103AA8002DC0DFFF305007E1090E2F5CD8B05FEF63
:103AB8001DF061EF1DF063EF1DF091EF1DF035C0B3
:103AC80031F036C032F0311E321E314A322A030E2E
:103AD8003114336E346A335035263450362233501D
:103AE8002F5E3450305AFC0E2F16FF0E301688EF1A
:103AF8001DF035C0D9FF36C0DAFF2DC0DFFF2F0615
:103B0800D8A03006354A362A2F503010D8A48FEF67
:103B18001DF091EF1DF07DEF1DF01200800E0401E5
:103B28003019D8A49AEF1DF09CEF1DF041EF1EF05C
:103B3800C00E0C6E28EF1EF0A40E096E100E0A6E51
:103B4800000E0E6E120E0D6E41EF1EF03251D8A40B
:103B5800B0EF1DF0B2EF1DF0F0EF1DF03251020D85
:103B6800190EF324F66E100EF420F76E0900F5CF47
:103B780009F00A00F5CF0AF0020E09242B6E000E98
:103B88000A202C6E2BC0F6FF2CC0F7FFF86A070E30
:103B9800F76403D00800F55005D0F6CFE1FFF7CF62
:103BA800E2FFE7500D6E030E09242B6E000E0A206B
:103BB8002C6E2BC0F6FF2CC0F7FFF86A070EF764CF
:103BC80003D00800F55005D0F6CFE1FFF7CFE2FFAC
:103BD800E7500E6E41EF1EF0000E0C6E41EF1EF026
:103BE800030E3261FAEF1DF0FCEF1DF020EF1EF01E
:103BF8003251020D130EF324F66E100EF420F76EF8
:103C08000900F5CF09F00A00F5CF0AF009C0F6FF60
:103C18000AC0F7FFF86A070EF76403D00800F550EA
:103C280005D0F6CFE1FFF7CFE2FFE7502B6E2B5020
:103C38000D6E0E6A41EF1EF0000E0C6E41EF1EF085
:103C4800000E0C6E41EF1EF033512B6E2C6A2C5077
:103C5800000AD8B432EF1EF024EF1EF02B50010AF0
:103C6800D8B4A0EF1DF0030AD8B4AAEF1DF0010ADA
:103C7800D8B4F4EF1DF024EF1EF01200A09A000E45
:103C88006A6E000E686E000E706E710E0001606F35
:103C98000F0E616F000E636F000E626F000E656F8E
:103CA800020E646F1BEC1CF0060E6F6E9F0E6B6E9F
:103CB8007B0E696E000E00016C6F6C51040D000ED6
:103CC800F324D96E040EF420DA6EDE6ADE6ADE6A48
:103CD800DD6A6C2B0B0E6C6574EF1EF076EF1EF030
:103CE80061EF1EF06D8C000E6E6E6D986D9C68967F
:103CF800000E0C6E000E046E000E066E000E056EB1
:103D080068B689EF1EF08BEF1EF07BEF1EF0010EF8
:103D18001F6E010E1E6E000E1D6E000E1C6E000E34
:103D2800246E000E00016C6F6C51020D0F0EF3240F
:103D3800D96E000EF420DA6E000EDE6E000EDD6E17
:103D48006C51020DC10EF324D96E000EF420DA6E08
:103D5800000EDE6E000EDD6EDC0E6C25D96EDA6AA2
:103D6800000EDA22000EDF6ED90E6C25D96EDA6AE3
:103D7800000EDA22000EDF6E6C2B020E6C65C7EFA8
:103D88001EF0C9EF1EF098EF1EF0080E0F6E040E1D
:103D9800106E160E706E040E0401036F300E026F63
:103DA800200E016F040E006F008F000E2A6E000EA9
:103DB8000001CF6F000ED06F000ED16F000ED26FD2
:103DC800000E1B6E000E286E1200C7C0AFF0C8C0F0
:103DD800B0F0C9C0B1F0CAC0B2F09FC0AFF0A0C087
:103DE800B0F0A1C0B1F0A2C0B2F08A0E0001A36F7A
:103DF800FF0EA46FAFC0A5F0B0C0A6F0B1C0A7F089
:103E0800B2C0A8F0180E0EEF1FF0D890A833A73351
:103E1800A633A533E82E09EF1FF0A551A325AD6FF2
:103E2800000EA421AE6FAEBF23EF1FF0AE5109E123
:103E3800200EAD5DD8A023EF1FF025EF1FF02FEF68
:103E48001FF09FC09FF0A0C0A0F0A1C0A1F0A2C029
:103E5800A2F08EEF1FF0AEBF3DEF1FF0AE5107E1AD
:103E6800090EAD5DD8B03BEF1FF03DEF1FF041EFFD
:103E78001FF0000EAE6F010EAD6FFF0EA36FFF0EA9
:103E8800A46FFF0EA56FFF0EA66FAD51E82A52EF83
:103E98001FF0D890A633A533A433A333E82E4DEFF3
:103EA8001FF0A3C0A9F0A4C0AAF0A5C0ABF0A6C09B
:103EB800ACF0A951AF15A36FAA51B015A46FAB51BF
:103EC800B115A56FAC51B215A66FA351A411A511D8
:103ED800A611D8A472EF1FF074EF1FF076EF1FF051
:103EE80025EF1FF0A91DA36FAA1DA46FAB1DA56F19
:103EF800AC1DA66FA351AF17A451B017A551B117A8
:103F0800A651B217AFC09FF0B0C0A0F0B1C0A1F0E9
:103F1800B2C0A2F01200A09A000E6A6E000E686E7F
:103F2800000E706E710E2B6E0F0E2C6E000E2E6E24
:103F3800000E2D6E000E306E020E2F6ED7EC1CF0A8
:103F4800060E6F6E9F0E6B6E7B0E696E000E376EDF
:103F58003750040D000EF324D96E040EF420DA6EE7
:103F6800DE6ADE6ADE6ADD6A372A0B0E3764BFEF67
:103F78001FF0C1EF1FF0ACEF1FF06D8C000E6E6EDE
:103F88006D986D9C6896000E0C6E000E046E000E07
:103F9800066E000E056E68B6D4EF1FF0D6EF1FF060
:103FA800C6EF1FF0010E1F6E010E1E6E000E1D6E75
:103FB800000E1C6E000E246E000E376E3750020D78
:103FC8000F0EF324D96E000EF420DA6E000EDE6EAA
:103FD800000EDD6E3750020DC10EF324D96E000EAF
:103FE800F420DA6E000EDE6E000EDD6EDC0E372475
:103FF800D96EDA6A000EDA22000EDF6ED90E372487
:10400800D96EDA6A000EDA22000EDF6E372A020E47
:10401800376411EF20F013EF20F0E2EF1FF0080EE5
:104028000F6E040E106E160E706E040E0401036FF0
:10403800300E026F200E016F040E006F008F000E0D
:104048002A6E000E0001CF6F000ED06F000ED16FE8
:10405800000ED26F000E1B6E000E286E12000001BB
:10406800686F00016051D8B43CEF20F03EEF20F0BB
:104078004CEF20F06851020D0F0EF324D96E000E9C
:10408800F420DA6EDECF69F0DDCF6AF058EF20F069
:104098006851020DC10EF324D96E000EF420DA6EB9
:1040A800DECF69F0DDCF6AF069516A11D8A45FEFFD
:1040B80020F061EF20F067EF20F0000E606F000E37
:1040C800616FD3EF20F020EE02F06951D9266A51D2
:1040D800DA2261C0DEFF62C0DDFF20EE01F0695127
:1040E800D9266A51DA2263C0DFFF69C0D9FF6AC0E6
:1040F800DAFF400EDF1669C0D9FF6AC0DAFF000E8A
:10410800DB8669C0D9FF6AC0DAFF000EDB8E60511A
:10411800D8B491EF20F093EF20F0B2EF20F068517F
:10412800020D0F0EF324D96E000EF420DA6EDECFE6
:1041380064F0DDCF65F0040E6419666F6551676F32
:104148006851020D0F0EF324D96E000EF420DA6EBA
:1041580066C0DEFF67C0DDFFCFEF20F06851020DBB
:10416800C10EF324D96E000EF420DA6EDECF64F0AF
:10417800DDCF65F0040E6419666F6551676F68518D
:10418800020DC10EF324D96E000EF420DA6E66C05B
:10419800DEFF67C0DDFF69C060F06AC061F0120031
:1041A80020EE01F01750D9261850DA22DF502C6E75
:1041B8002C50055C000E0658D8B0E5EF20F0E7EF6C
:1041C80020F0E9EF20F005C02CF02C50055E000E21
:1041D800065A000E2B6E00EF21F0500E2B24D96EDC
:1041E800DA6A040EDA2201C0E1FF02C0E2FFDFCF83
:1041F800E7FF014A022A2B2A2C502B5CD8A007EF94
:1042080021F009EF21F0F1EF20F005500610D8B4A5
:1042180010EF21F012EF21F04BEF21F020EE01F02A
:104228001550D9261650DA22200EDF6E20EE02F045
:104238001550D9261650DA22500EDE6E040EDD6EA9
:1042480017C0D9FF18C0DAFFDFBC2DEF21F02FEF20
:1042580021F03DEF21F015C0D9FF16C0DAFF480E56
:10426800DF6E15C0D9FF16C0DAFF000EDB8E74EFC3
:1042780021F015C0D9FF16C0DAFF080EDF6E15C091
:10428800D9FF16C0DAFF000EDB8E74EF21F020EEA6
:1042980001F01550D9261650DA22200EDF6E20EED6
:1042A80002F01550D9261650DA22300EDE6E040EB2
:1042B800DD6E15C0D9FF16C0DAFF040EDF6E15C01B
:1042C800D9FF16C0DAFF000EDB8E049E2050D8A45A
:1042D80070EF21F072EF21F074EF21F0D4EC26F0AA
:1042E80012006D980CBE7BEF21F07DEF21F0C2EF3C
:1042F80021F004AE82EF21F084EF21F096EF21F057
:10430800020E266E1C50D8A48CEF21F08EEF21F0FF
:1043180090EF21F098EC29F0000E1E6E000E1F6E33
:1043280014EF22F020EE01F01550D9261650DA22AB
:10433800200EDF6E20EE02F01550D9261650DA2234
:10434800300EDE6E040EDD6E15C0D9FF16C0DAFF22
:104358000C0EDF6E15C0D9FF16C0DAFF000EDB8E1B
:104368000FC0D9FF10C0DAFF040EDF6E0FC0D9FFEF
:1043780010C0DAFF000EDB8E14EF22F0040130AF1C
:10438800C8EF21F0CAEF21F0E6EF21F0010E266E0A
:104398001D50D8A4D2EF21F0D4EF21F0D6EF21F0B0
:1043A80098EC29F0000E1E6E000E1F6E2050D8A447
:1043B800E0EF21F0E2EF21F014EF22F0D4EC26F048
:1043C80014EF22F0020E266E20EE01F01550D926C9
:1043D8001650DA22200EDF6E20EE02F01550D92694
:1043E8001650DA22300EDE6E040EDD6E15C0D9FFCF
:1043F80016C0DAFF040EDF6E15C0D9FF16C0DAFF4B
:10440800000EDB8E000E1E6E000E1F6E2050D8A40C
:1044180010EF22F012EF22F014EF22F0E2EF21F079
:104428001200336E2B50D8B41CEF22F01EEF22F08E
:104438002CEF22F03350020D0F0EF324D96E000E2C
:10444800F420DA6EDECF34F0DDCF35F038EF22F02D
:104458003350020DC10EF324D96E000EF420DA6E2B
:10446800DECF34F0DDCF35F034503510D8A43FEF2F
:1044780022F041EF22F047EF22F0000E2B6E000EE3
:104488002C6EB3EF22F020EE02F03450D9263550CE
:10449800DA222CC0DEFF2DC0DDFF20EE01F0345003
:1044A800D9263550DA222EC0DFFF34C0D9FF35C0F7
:1044B800DAFF400EDF1634C0D9FF35C0DAFF000E30
:1044C800DB8634C0D9FF35C0DAFF000EDB8E2B50F7
:1044D800D8B471EF22F073EF22F092EF22F033504C
:1044E800020D0F0EF324D96E000EF420DA6EDECF23
:1044F8002FF0DDCF30F0040E2F18316E3050326EB1
:104508003350020D0F0EF324D96E000EF420DA6E2C
:1045180031C0DEFF32C0DDFFAFEF22F03350020DB5
:10452800C10EF324D96E000EF420DA6EDECF2FF020
:10453800DDCF30F0040E2F18316E3050326E33500C
:10454800020DC10EF324D96E000EF420DA6E31C0CC
:10455800DEFF32C0DDFF34C02BF035C02CF0120076
:1045680004013039E832030B0009D8B4BEEF22F059
:10457800C0EF22F008EF23F041EF23F00C8E080E75
:10458800286E41EF23F092EC1DF041EF23F04CEC44
:1045980027F041EF23F02A0E096E000E0A6E0C80F8
:1045A800010E0D6E0C8E41EF23F053EC25F041EF18
:1045B80023F0B3EC17F041EF23F0F60E3425096E23
:1045C8000A6A000E0A220C80010E0D6E0C8E41EF55
:1045D80023F00C8EF60E3425D96EDA6A000EDA2234
:1045E80032C4DFFF41EF23F0000E386E020E376E43
:1045F800000E396E000E3A6E000E3C6E000E3B6ED9
:10460800D5EC2AF041EF23F03151466E476A475006
:10461800000AD8B412EF23F041EF23F04650000A05
:10462800D8B4D9EF22F0010AD8B4DDEF22F0020A9B
:10463800D8B4DDEF22F0060AD8B4C2EF22F0030A9C
:10464800D8B4C7EF22F0010AD8B4F8EF22F00F0A65
:10465800D8B4CFEF22F0010AD8B4CBEF22F0030A86
:10466800D8B4E1EF22F0010AD8B4EDEF22F0070A3E
:10467800D8B441EF23F041EF23F01200200E2B6E47
:104688000E5007E1200E0D5CD8B04DEF23F04FEF30
:1046980023F067EF23F00DC02BF02750D8A457EF75
:1046A80023F059EF23F05DEF23F0010E276E67EF3B
:1046B80023F02704D8A463EF23F065EF23F067EF16
:1046C80023F0020E276E2B500D5E000E0E5A20EEC0
:1046D80001F00F50D9261050DA222BC0DFFF500E00
:1046E8000001E56F040EE66F0CB07DEF23F07FEF5D
:1046F80023F0C1EF23F09CEF23F009C0F6FF0AC0B6
:10470800F7FFF86AE5C0D9FFE6C0DAFF070EF764DD
:1047180003D00800F55005D0F6CFE1FFF7CFE2FF50
:10472800E750DF6E094A0A2A0001E54BE62B2B0603
:104738002B50D8A4A2EF23F0A4EF23F081EF23F0AD
:10474800C9EF23F009C0F6FF0AC0F7FFF86AE5C011
:10475800D9FFE6C0DAFF070EF76403D00800F5506A
:1047680005D0F6CFE1FFF7CFE2FFE750DF6E094A49
:104778000A2A0001E54BE62B2B062B50D8A4C7EFDD
:1047880023F0C9EF23F0A6EF23F012000001B5359E
:10479800B635BC6FBC51D8A4D4EF23F0D6EF23F0C4
:1047A800E0EF23F0000EB36F000EB46F000EB56F8C
:1047B800000EB66F4DEF24F0B3C0B7F0B4C0B8F038
:1047C800B5C0B9F0B6C0BAF0200EF0EF23F0D8901B
:1047D800BA33B933B833B733E82EEBEF23F0B75118
:1047E800BB6FB58FFF0EB317FF0EB417FF0EB517CB
:1047F800000EB617960EBC5FBCBF07EF24F005EF9E
:1048080024F01DEF24F0BC51800A970FD8B00FEFA9
:1048180024F011EF24F013EF24F0D6EF23F0D89012
:10482800B633B533B433B333BC3F13EF24F035EFAD
:1048380024F01F0EBC6523EF24F025EF24F02DEFA4
:1048480024F0D6EF23F0D890B337B437B537B6375E
:10485800BC07BC51D8A433EF24F035EF24F027EF80
:1048680024F0BB51D8B43BEF24F03DEF24F045EFE2
:1048780024F0B61FB51FB41FB36D000EB423B523C3
:10488800B623B3C0B3F0B4C0B4F0B5C0B5F0B6C089
:10489800B6F01200000E00016015686F000E611579
:1048A800696F800E62156A6F7F0E63156B6F6851B2
:1048B80069116A116B11D8A464EF24F066EF24F033
:1048C8006EEF24F0000E606F000E616F000E626FD5
:1048D800000E636F000E6415686F000E6515696F32
:1048E800800E66156A6F7F0E67156B6F68516911C8
:1048F8006A116B11D8A483EF24F085EF24F08DEFB3
:1049080024F0000E646F000E656F000E666F000ED7
:10491800676F63AF92EF24F094EF24F09DEF24F0DB
:10492800606D611FD8B0612B621FD8B0622B800EFA
:10493800635767AFA2EF24F0A4EF24F0ADEF24F0A3
:10494800646D651FD8B0652B661FD8B0662B800EC6
:104958006757000E601B000E611B000E621B800E65
:10496800631B000E641B000E651B000E661B800E89
:10497800671B6451605D65516159665162596751A1
:104988006359D8B0CAEF24F0CCEF24F0CFEF24F06D
:10499800D890D0EF24F0D88012000FC0D9FF10C0F3
:1049A800DAFF000EDFBC010E2C6E040E0F180F6E1E
:1049B8001050106E080E2818D8A4E5EF24F0E7EF81
:1049C80024F0F9EF24F0040132517F0B6E6E6E5023
:1049D800D8B4F1EF24F0F3EF24F0F7EF24F0100E41
:1049E800286EF9EF24F0040E286E2604D8A4FFEFF1
:1049F80024F001EF25F048EF25F020EE02F00F50EB
:104A0800D9261050DA22500EDE6E040EDD6E42EC0E
:104A180023F0020E2718D8A414EF25F016EF25F07E
:104A280024EF25F00FC0D9FF10C0DAFF040EDF6EA7
:104A38000FC0D9FF10C0DAFF000EDB8E52EF25F051
:104A48002C50D8A42AEF25F02CEF25F03AEF25F0CA
:104A58000FC0D9FF10C0DAFF480EDF6E0FC0D9FFB4
:104A680010C0DAFF000EDB8E52EF25F00FC0D9FF21
:104A780010C0DAFF080EDF6E0FC0D9FF10C0DAFFD2
:104A8800000EDB8E52EF25F004AE4DEF25F04FEF10
:104A980025F050EF25F0049E000E266E1200000E41
:104AA8000401506F000E516FABEF25F00C8E2504FA
:104AB800D8A461EF25F063EF25F0C5EF25F050830A
:104AC800C5EF25F00C8EC5EF25F00C8E34BF6FEFC7
:104AD80025F071EF25F082EF25F034510F0B2B6E86
:104AE8002B50020DC10EF324D96E000EF420DA6E9D
:104AF800DECF2DF0DDCF2EF091EF25F034510F0BE6
:104B08002B6E2B50020D0F0EF324D96E000EF420DD
:104B1800DA6EDECF2DF0DDCF2EF02DC0D9FF2EC0FE
:104B2800DAFFDFAE9AEF25F09CEF25F0C5EF25F010
:104B38002DC0D9FF2EC0DAFFDFA4A5EF25F0A7EF1F
:104B480025F0C5EF25F0010E506FC5EF25F0305167
:104B58001F0B2B6E2C6A2C50000AD8B4B6EF25F028
:104B6800C5EF25F02B50000AD8B45AEF25F0010AFA
:104B7800D8B466EF25F0030AD8B469EF25F0C5EF7D
:104B880025F00CAECAEF25F0CCEF25F0D3EF25F0D9
:104B9800500E096E040E0A6E0C80020E0D6E120085
:104BA800040130511F0BE806D8B4DDEF25F0DFEF24
:104BB80025F0E1EF25F054EF26F03039E832030B09
:104BC800E806D8B4EAEF25F0ECEF25F0EEEF25F093
:104BD80054EF26F03451D8B4F4EF25F0F6EF25F071
:104BE80033EF26F03405D8B4FCEF25F0FEEF25F0BE
:104BF80033EF26F054EF26F04A0E096E010E0A6EC6
:104C0800000E0E6E080E0D6E0C800C8E54EF26F002
:104C18004A0E096E010E0A6E0C8E54EF26F036C449
:104C280005F037C406F0EF0E016E000E026E000E9E
:104C3800076E000E086E048E54EF26F0EF0E096E14
:104C4800000E0A6E000E0E6E070E0D6EC10E0C6E73
:104C580054EF26F032C4E9F00C8E54EF26F03151AF
:104C68002B6E2C6A2C50000AD8B43DEF26F054EF76
:104C780026F02B50000AD8B400EF26F0010AD8B469
:104C88000CEF26F0210AD8B413EF26F0010AD8B4A5
:104C980022EF26F0030AD8B42EEF26F054EF26F0C0
:104CA80012008C968C988C9AB1EF26F020EE0FF0BB
:104CB8006051D9266151DA22000EDE6E000EDE6EDA
:104CC800C80EDE6E420EDD6ED3EF26F020EE0FF03A
:104CD8006051D9266151DA22000EDE6E000EDE6EBA
:104CE800480EDE6E430EDD6E8C86D3EF26F020EE86
:104CF8000FF06051D9266151DA22000EDE6E000EE7
:104D0800DE6EC80EDE6E430EDD6E8C88D3EF26F0A5
:104D180020EE0FF06051D9266151DA22000EDE6EC6
:104D2800000EDE6E480EDE6E440EDD6E8C868C88BC
:104D3800D3EF26F020EE0FF06051D9266151DA2228
:104D4800000EDE6E000EDE6EC80EDE6E440EDD6EE8
:104D58008C868C888C8AD3EF26F000016251636FB1
:104D6800646B6451000AD8B4BCEF26F0D3EF26F088
:104D78006351000AD8B45AEF26F0010AD8B46AEF92
:104D880026F0030AD8B47BEF26F0010AD8B48CEFDA
:104D980026F0070AD8B49EEF26F0D3EF26F01200CB
:104DA8001F50D8A4DAEF26F0DCEF26F04BEF27F0FF
:104DB800010E1F6E1E50D8A4E4EF26F0E6EF26F091
:104DC8004BEF27F0010E1E6E020E2618D8A4EFEF47
:104DD80026F0F1EF26F007EF27F020EE01F00F5054
:104DE800D9261050DA22000EDF6E0FC0D9FF10C08E
:104DF800DAFF480EDF6E0FC0D9FF10C0DAFF000ED1
:104E0800DB8E4BEF27F02604D8A40DEF27F00FEF29
:104E180027F04BEF27F0000E226E20EE01F017501E
:104E2800D9261850DA22200EDF6E20EE02F0175035
:104E3800D9261850DA22300EDE6E040EDD6E17C049
:104E4800D9FF18C0DAFF040EDF6E17C0D9FF18C0EB
:104E5800DAFF000EDB8E010E226E20EE01F01550F7
:104E6800D9261650DA22200EDF6E20EE02F01550F9
:104E7800D9261650DA22300EDE6E040EDD6E15C00D
:104E8800D9FF16C0DAFF800EDF6E4BEF27F0120055
:104E98000C8E710E2B6E0F0E2C6E000E2E6E000EE9
:104EA8002D6E000E306E020E2F6ED7EC1CF0000E29
:104EB8002B6E040E2C6E000E2E6E000E2D6E000E44
:104EC800306E300E2F6ED7EC1CF06D8C000E3F6EDE
:104ED800DC0E3F24D96EDA6A000EDA22000EDF6E8D
:104EE800D90E3F24D96EDA6A000EDA22000EDF6E80
:104EF8003F2A020E3F6483EF27F085EF27F06CEF1F
:104F080027F0F60E2B6E000E2C6E000E2E6E000E85
:104F18002D6E000E306E020E2F6ED7EC1CF06D9CBD
:104F2800080E0F6E040E106E000E176E040E186E2B
:104F380017C015F018C016F032C42AF02A50D8A4A9
:104F4800A8EF27F0AAEF27F0AEEF27F0100E286E93
:104F5800BEEF27F0000E386E010E376E2A0E396E3E
:104F6800000E3A6E000E3C6E010E3B6ED5EC2AF038
:104F7800200E286E120000016B516C11D8A4C7EFE7
:104F880027F0C9EF27F0DCEF27F0DFC06BF0E0C0B7
:104F98006CF06B516C11D8A4D4EF27F0D6EF27F042
:104FA800DCEF27F0000E6B6F000E6C6F30EF28F00F
:104FB8006BC064F06CC065F06DC066F06EC067F0E1
:104FC8007BEC2CF0000164516B2765516C236BC09E
:104FD800D9FF6CC0DAFFDF50D8A4F5EF27F0F7EF60
:104FE80027F001EF28F0000EDF6F000EE06FDFC042
:104FF8006BF0E0C06CF030EF28F06BC064F06CC070
:1050080065F06DC066F06EC067F0B0EC2CF0000182
:1050180064516B25DF6F65516C21E06FDFC0D9FFEC
:10502800E0C0DAFFDF50D8B41CEF28F01EEF28F0FC
:1050380028EF28F0DFC0D9FFE0C0DAFF000EDF6EEE
:10504800DF4BE02B2CEF28F0000EDF6F000EE06F37
:105058006BC06BF06CC06CF01200000E0001EB6FBF
:10506800E351E411D8B43BEF28F03DEF28F048EFC6
:1050780028F0E3C0D9FFE4C0DAFFDFBE46EF28F02E
:1050880048EF28F08AEF28F020EE01F0E351D92606
:10509800E451DA226D51DE5CD8B055EF28F057EFB5
:1050A80028F05FEF28F020EE01F0E351D926E45113
:1050B800DA22DF506D6F000EEB6F72EF28F0400EB2
:1050C800EB25D96EDA6A050EDA22EB516B25E16E13
:1050D800000E6C21E26EDFCFE7FFEB2B6D51EB5D2D
:1050E800D8A079EF28F07BEF28F063EF28F0000EC6
:1050F800606F400E616F050E626F400E636F020EA7
:1051080033EC20F060C0E3F061C0E4F00001EB5143
:1051180012002D0E216E29C048F0FD0E4816D8A4A5
:1051280098EF28F09AEF28F0DCEF28F029C048F033
:10513800D89048323F0E48164850040D000EF3240C
:10514800176E040EF420186E17C015F018C016F06C
:10515800040E1518156E1650166E17C0D9FF18C014
:10516800DAFFDF30E8320F0B0D0AD8A4BEEF28F0C3
:10517800C0EF28F0D8EF28F0300E2B6E040E2C6EFE
:1051880020EE02F01750D9261850DA22DECF2DF083
:10519800DDCF2EF0000E306E080E2F6E82EC2EF052
:1051A8008EEC2AF0E8EF28F09BEC2BF0E8EF28F0E3
:1051B8002950FD0B040AD8A4E4EF28F0E6EF28F004
:1051C800E8EF28F0D1EC24F012002BEF29F0000EC4
:1051D800ED6F2A0E6B6F010E6C6F200E6D6F31EC48
:1051E80028F00001EE6FEE51D8B4FDEF28F0FFEF84
:1051F80028F041EF29F0010EEC6F41EF29F0290E5C
:10520800EE25D96EDA6A010EDA220A0EDE18D8B453
:1052180010EF29F012EF29F021EF29F0290EEE25E1
:10522800D96EDA6A010EDA220D0EDE18D8A41FEF45
:1052380029F021EF29F041EF29F0000EEC6F010E63
:10524800ED6F41EF29F0000EEC6F41EF29F00001FE
:10525800EC516F6F706B7051000AD8B436EF29F0BB
:1052680027EF29F06F51000AD8B4EBEF28F0010AB4
:10527800D8B403EF29F027EF29F01200000E00013F
:105288006015686F000E6115696F800E62156A6F90
:105298007F0E63156B6F685169116A116B11D8A481
:1052A80058EF29F05AEF29F062EF29F0000E606FED
:1052B800000E616F000E626F000E636F000E6415C2
:1052C800686F000E6515696F800E66156A6F7F0E30
:1052D80067156B6F685169116A116B11D8A477EF64
:1052E80029F079EF29F081EF29F0000E646F000EA4
:1052F800656F000E666F000E676F645160190FE1ED
:10530800655161190CE16651621909E16751631928
:10531800D8B491EF29F093EF29F096EF29F0D890BF
:1053280097EF29F0D8801200000E1D6E000E1C6E3B
:10533800020E2618D8A4A3EF29F0A5EF29F0C5EF8F
:1053480029F020EE01F01550D9261650DA22200E49
:10535800DF6E20EE02F01550D9261650DA22500ED4
:10536800DE6E040EDD6E15C0D9FF16C0DAFF480EDA
:10537800DF6E15C0D9FF16C0DAFF000EDB8EEDEF29
:1053880029F00D500401365D0E503759D8B0CFEFD3
:1053980029F0D1EF29F0D5EF29F036C40DF037C444
:1053A8000EF042EC23F020EE02F00F50D9261050F8
:1053B800DA22500EDE6E040EDD6E0FC0D9FF10C06B
:1053C800DAFF480EDF6E0FC0D9FF10C0DAFF000EFB
:1053D800DB8E1200306E000E316E040E326E2B50D2
:1053E8002C6E2D6AD8902C362D3630502E6E2F6AA2
:1053F800D8902E362F36D8902E362F362C502E2673
:105408002D502F22D8902E362F36D8902E362F3664
:105418002E5031262F50322231C0D9FF32C0DAFF48
:10542800DF9E2B50D8A41BEF2AF01DEF2AF02BEF9C
:105438002AF03050020DC10EF324D96E000EF4206C
:10544800DA6E31C0DEFF32C0DDFF37EF2AF03050B0
:10545800020D0F0EF324D96E000EF420DA6E31C05F
:10546800DEFF32C0DDFF31C0D9FF32C0DAFFDF9C7A
:1054780020EE04F03150D9263250DA22DF8C1200A7
:105488000600E1CF4AF0E2CF4BF0D9CF4CF0DACFAB
:105498004DF0F3CF4EF0F4CF4FF0F6CF50F0F7CFFA
:1054A80051F0F8CF52F0F5CF53F0F2A45EEF2AF0A6
:1054B80060EF2AF076EF2AF0F29483BC66EF2AF0C8
:1054C80069EF2AF0010E6AEF2AF0000E01015F6F02
:1054D80081B271EF2AF074EF2AF0010E75EF2AF00D
:1054E800000E606FFCEC2FF053C0F5FF52C0F8FFC0
:1054F80051C0F7FF50C0F6FF4FC0F4FF4EC0F3FF96
:105508004DC0DAFF4CC0D9FF4BC0E2FF4AC0E1FFF3
:1055180054921100000E276E000E206E000E1D6EB4
:10552800000E1C6E000E226E000E266E0FC0D9FFF4
:1055380010C0DAFF7F0EDF16040E0F180F6E105022
:10554800106E0FC0D9FF10C0DAFF7F0EDF16040EF1
:105558000F180F6E1050106E15C0D9FF16C0DAFF65
:105568007F0EDF16000E0C6E000E0E6E000E0D6E16
:10557800000E046E000E066E000E056EB4EC22F0EE
:10558800000E386E030E376E000E396E000E3A6E3E
:10559800000E3C6E000E3B6ED5EC2AF075EC21F047
:1055A8001200DFEF2AF019EC2DF018EF2BF0D4ECF5
:1055B80025F018EF2BF037C03DF038C03EF03E50D4
:1055C800000AD8B4EEEF2AF07F0AD8B411EF2BF016
:1055D80018EF2BF03D50010AD8B4D7EF2AF0030A90
:1055E800D8B418EF2BF0010AD8B4DBEF2AF0060A7A
:1055F800D8B418EF2BF0770AD8B418EF2BF0010ABB
:10560800D8B418EF2BF0070AD8B418EF2BF0010A1A
:10561800D8B418EF2BF018EF2BF03D50FF0AD8B490
:1056280018EF2BF018EF2BF0120030EF2BF062B1CF
:1056380002D08C9001D08C8050EF2BF062B102D058
:105648008C9201D08C8250EF2BF062B102D08C94F6
:1056580001D08C8450EF2BF0000120EE0CF060514B
:10566800D9266151DA22DF50636F646B6451000AF6
:10567800D8B441EF2BF050EF2BF06351000AD8B4A7
:105688001BEF2BF0010AD8B422EF2BF0030AD8B491
:1056980029EF2BF050EF2BF0000120EE02F06051C3
:1056A800D9266151DA2262C0DFFF120071EF2BF0B8
:1056B80062B102D08B9001D08B8091EF2BF062B158
:1056C80002D08B9201D08B8291EF2BF062B102D085
:1056D800899001D0898091EF2BF0000120EE0CF029
:1056E8006051D9266151DA22DF50636F646B6451CF
:1056F800000AD8B482EF2BF091EF2BF06351000A27
:10570800D8B45CEF2BF0010AD8B463EF2BF0030A8E
:10571800D8B46AEF2BF091EF2BF0000120EE03F0E4
:105728006051D9266151DA2262C0DFFF1200020EF1
:105738002618D8A4A2EF2BF0A4EF2BF0A8EF2BF09B
:10574800D4EC20F0D4EF2BF0000E266E2250D8A413
:10575800B0EF2BF0B2EF2BF0D2EF2BF020EE01F0F0
:105768001550D9261650DA22200EDF6E20EE02F0F0
:105778001550D9261650DA22300EDE6E040EDD6E74
:1057880015C0D9FF16C0DAFF0C0EDF6E15C0D9FFA1
:1057980016C0DAFF000EDB8ED4EF2BF0000E226E5F
:1057A8001200010E0001666FD00E626FFF0E636F6C
:1057B80060C064F061C065F062516427635165237D
:1057C800655109E10A0E645DD8A0EDEF2BF0EFEF0B
:1057D8002BF00AEF2CF09F0E626FFF0E636F200E06
:1057E8006011646F000E6111656F62516427635127
:1057F8006523655109E1060E645DD8A006EF2CF01B
:1058080008EF2CF00AEF2CF0000E666F66C060F00F
:10581800616B12002DEF2CF07C0E606F110E616F22
:10582800150E626F2AEC30F08BA41DEF2CF022EFDE
:105838002CF00001656B652B24EF2CF00001656BE3
:10584800654765478B506519FB0B65198B6E44EFEF
:105858002CF063C065F064C066F000016651000A70
:10586800D8B439EF2CF044EF2CF065510E0AD8B4B7
:1058780010EF2CF0010AD8B444EF2CF044EF2CF0D0
:105888001200000E0001686F000E696F000E6A6F4B
:10589800000E6B6F60A153EF2CF055EF2CF05DEF0D
:1058A8002CF0645168276551692366516A23675152
:1058B8006B23D8906437653766376737D89063337A
:1058C8006233613360336051611162116311D8A48E
:1058D80070EF2CF072EF2CF04EEF2CF068C060F0F7
:1058E80069C061F06AC062F06BC063F01200000E1C
:1058F80000016A6F000E696F86EF2CF0644B652B10
:10590800694B6A2B64C0D9FF65C0DAFFDF50D8B491
:1059180090EF2CF092EF2CF0ABEF2CF066C060F01B
:1059280067C061F064C0D9FF65C0DAFFDF50686FF7
:105938006851626F636B05EC2EF0000160516111D4
:10594800D8A4A9EF2CF0ABEF2CF082EF2CF069C0B3
:1059580064F06AC065F01200000E00016A6F000E64
:10596800696FBBEF2CF0644B652B694B6A2B64C0E5
:10597800D9FF65C0DAFFDF50D8B4C5EF2CF0C7EF08
:105988002CF0E0EF2CF066C060F067C061F064C0F6
:10599800D9FF65C0DAFFDF50686F6851626F636BCB
:1059A80005EC2EF0000160516111D8B4DEEF2CF047
:1059B800E0EF2CF0B7EF2CF069C064F06AC065F036
:1059C800120060C062F061C063F000016351000A18
:1059D800D8B4F1EF2CF018EF2DF06251000AD8B4CA
:1059E80018EF2DF0010AD8B418EF2DF0030AD8B437
:1059F80018EF2DF0010AD8B418EF2DF0070AD8B423
:105A080018EF2DF0010AD8B418EF2DF0030AD8B416
:105A180018EF2DF0010AD8B418EF2DF00F0AD8B4FA
:105A280018EF2DF018EF2DF01200000E0001EF6FA7
:105A38004B0EF06F000EF16F000EF26F000EF36F59
:105A4800000EF46F080EF56F000EEB6F1A0E336E32
:105A5800010EAAEC2EF01E0E336E020EAAEC2EF0EA
:105A6800000E2B6E400E2C6E050E2D6E400E2E6E07
:105A7800020E15EC22F02BC0E3F02CC0E4F0000E6F
:105A88000001E16F000EE26F000E1A6E120057EF70
:105A98002DF0520E606F010E616F010E626F19ECEE
:105AA8002BF07AEF2DF065C067F066C068F0000152
:105AB8006851000AD8B463EF2DF07AEF2DF06751E2
:105AC800090AD8B47AEF2DF0030AD8B47AEF2DF08A
:105AD800010AD8B47AEF2DF0070AD8B44DEF2DF0AB
:105AE800010AD8B47AEF2DF07AEF2DF012009F0E4C
:105AF8000001686FFF0E696F66C06AF067C06BF0DF
:105B080068516A2769516B236B510AE11A0E6A5D65
:105B1800D8A091EF2DF094EF2DF0010E95EF2DF018
:105B2800000E6C6F6D6B6C516D11D8B49EEF2DF03B
:105B3800A0EF2DF0A6EF2DF05F0E6615666F676B70
:105B4800AAEF2DF066C066F067C067F0120070A07B
:105B5800B0EF2DF0B2EF2DF0D9EF2DF017C0D9FF2F
:105B680018C0DAFF800EDE18D8A4BDEF2DF0BFEF05
:105B78002DF0D8EF2DF00FC0D9FF10C0DAFF840E3A
:105B8800DE18D8A4CAEF2DF0CCEF2DF0D8EF2DF009
:105B980017C0D9FF18C0DAFF0C0EDF6E17C0D9FF87
:105BA80018C0DAFF000EDB8E7090689A1200E9ECDC
:105BB80028F00009D8B4E3EF2DF0E5EF2DF0F0EF71
:105BC8002DF02A0E0001BD6F010EBE6FE8EC13F038
:105BD800BDC0E7F0BEC0E8F0E7C060F0E8C061F023
:105BE800E5EC2CF0E7C065F0E8C066F04BEC2DF072
:105BF800E7C063F0E8C064F00EEC2CF04DEC1BF04D
:105C0800120060C0F6FF61C0F7FF0800F550000100
:105C18006219D8A412EF2EF014EF2EF01AEF2EF01E
:105C280060C060F061C061F02EEF2EF060C0F6FF3A
:105C380061C0F7FF604B612B0800F5500009D8A43C
:105C480028EF2EF02AEF2EF005EF2EF0000E606FF1
:105C5800000E616F1200010E0001666F200E6019C0
:105C68006111D8B43AEF2EF03CEF2EF055EF2EF03C
:105C7800F70E626FFF0E636F60C064F061C065F07D
:105C88006251642763516523655109E1050E645D1E
:105C9800D8A051EF2EF053EF2EF055EF2EF0000E56
:105CA800666F66C060F0616B1200F80EF66E600EEB
:105CB800F76E000EF86E01EE52F010EE13F00900C8
:105CC800F5CFEEFFE550E150FAE101EE00F0520E9B
:105CD800EE6AE806FDE100EEC1F0370EEE6AE8066E
:105CE800FDE100EE01F02A0EEE6AE806FDE15490AF
:105CF8005492000EF86E000114EF30F02DC033F00E
:105D08002EC034F02BC031F02CC032F09CEF2EF0B6
:105D180033C0D9FF34C0DAFFDF50356E334A342A36
:105D280031C0D9FF32C0DAFF35C0DFFF314A322A2D
:105D38002F06D8A030062F2806E13028D8A4A7EFD0
:105D48002EF0A9EF2EF08CEF2EF01200366E33A451
:105D5800B0EF2EF0B2EF2EF0B7EF2EF0000E2B6E54
:105D68003650EEEC29F033A2BCEF2EF0BEEF2EF049
:105D7800C3EF2EF0010E2B6E3650EEEC29F0700EAC
:105D88003624346E356A0F0E352234C0D9FF35C03B
:105D9800DAFF33C0DFFF1200000120EE03F0635189
:105DA800D9266451DA22DF50D8A4DDEF2EF0DFEFD8
:105DB8002EF0E9EF2EF0E80E606F100E616F160EF0
:105DC800626F2AEC30F0F1EF2EF0BA0E606F100E11
:105DD800616F180E626F2AEC30F012002850D8A4B8
:105DE800F8EF2EF0FAEF2EF012EF2FF0000E6D6E96
:105DF800000E696E060E6F6E9F0E6B6E7B0E696EDF
:105E0800A28AA08A09EF2FF06D866DA60EEF2FF0FB
:105E180010EF2FF008EF2FF0010E286E1200959664
:105E28008C9695988C98959A8C9A95908C9095923A
:105E38008C9295948C9494908B9094928B9292904F
:105E4800899096908D9096928D9296948D94949434
:105E58008B94958C9382938493809388938A120071
:105E6800000E246E000E386E740E376E000E396EFA
:105E7800000E3A6E000E3C6E000E3B6ED5EC2AF01A
:105E88006D92699449EF2FF0689468B44EEF2FF043
:105E980050EF2FF048EF2FF0000E1B6E12009F0EF0
:105EA8000001626FFF0E636F60C064F061C065F04F
:105EB800625164276351652365510AE11A0E645DD6
:105EC800D8A069EF2FF06CEF2FF0010E6DEF2FF0D7
:105ED800000E606F616B1200D00E0001626FFF0E42
:105EE800636F60C064F061C065F0625164276351FC
:105EF800652365510AE10A0E645DD8A086EF2FF08C
:105F080089EF2FF0010E8AEF2FF0000E606F616BA2
:105F1800120000016051611162116311D8B497EF4A
:105F28002FF099EF2FF0A1EF2FF0000E601B000E5D
:105F3800611B000E621B800E631B60C060F061C0B5
:105F480061F062C062F063C063F012001F0E286443
:105F5800B0EF2FF0B2EF2FF0BFEF2FF06DB2B7EF29
:105F68002FF0B9EF2FF0BFEF2FF0000E0001616F97
:105F78006069C4EF2FF0000E0001616F000E606FC2
:105F880060511200520E0001606F010E616F010E28
:105F9800626F5AEC2BF0520E0001606F010E616FB8
:105FA800000E626F55EC26F0520E0001606F010E74
:105FB800616F010E626F19EC2BF01200010E0001E7
:105FC800CF27000ED023D123D2232450D8A4EFEF1B
:105FD8002FF0F1EF2FF0FBEF2FF01B2A1B50D8A466
:105FE800F8EF2FF0FAEF2FF0FBEF2FF01B681200FD
:105FF800F2AC01EF30F003EF30F013EF30F0A0AA6D
:1060080008EF30F00AEF30F013EF30F0A1AA0FEFED
:1060180030F011EF30F013EF30F05DEC19F01200B2
:1060280013EC2FF0C6EC2FF086EC30F0AAEC2FF032
:106038000009D8B422EF30F024EF30F01AEF30F036
:10604800DBEC2DF01AEF30F007EF08F0A09A1A50A9
:10605800D8A431EF30F033EF30F03EEF30F060C0CD
:10606800D6F061C0D7F062C019F0010E0001EA6FE6
:10607800010E1A6EA08A1200698468986D82010E5A
:10608800246E000E1B6E000E386E750E376E000EF5
:10609800396E000E3A6E000E3C6E000E3B6ED5EC6B
:1060A8002AF01200000160516203F3CF64F0F4CFCC
:1060B80065F060516303F350652761516203F35043
:1060C800652764C060F065C061F01200FF0E000132
:1060D800646FFF0E656FFF0E666F7F0E676F64C09B
:1060E80060F065C061F066C062F067C063F01200DE
:1060F8000000010000000000000000000000000097
:0361080000C8428A
:0E610C00F28EF28C42EC1EF0F2EC2EF012003D
:020000040020DA
:08000000FFFFFFFFFFFFFFFF00
:020000040030CA
:0E000000230E391EFF8381FF0FC00FE00F405B
:00000001FF
