:0410000007EF08F0FE
:1010080055829DED2CF0EEEF30F000B6105E1084A6
:10101800101B1009024300020100C032090400003D
:101028000102020100052400100104240202052423
:101038000600010524010001070581030A000209D1
:10104800040100020A000000070502024000000730
:10105800058202400000260341004C004C00490074
:101068004F004E00450020004A004F00410051004B
:10107800550049004E000000000000002003540005
:1010880065007300740020005500530042002000E2
:1010980044006500760069006300650012010002E3
:1010A80002000020D8040A00000101020001040324
:1010B8000904446972656374696F6E3A20554E433A
:1010C8004C4F434B574953450A00556E7375707022
:1010D8006F7274656420436F6D6D616E642E0A00D3
:1010E800446972656374696F6E3A20434C4F434B91
:1010F800574953450A004732382D636F6D6D616E4D
:101108006420617272697665210A00504F53495410
:10111800494F4E20415252495645210A00484F4DE9
:101128004520415252495645210A00494E46494EEA
:1011380049545900696E66696E697479004E414E6A
:1011480000696E66006E616E002000000001935118
:101158009411D8B4B2EF08F0B4EF08F0C0EF08F07B
:1011680093C0D9FF94C0DAFF91C0DEFF92C0DDFFC3
:10117800C0EF08F0914B922B010EAB6F91C0D9FFD5
:1011880092C0DAFF200EDE18D8B4CDEF08F0D0EF09
:1011980008F0010ED1EF08F0000EB06FB16BB0513E
:1011A800B111D8A4DAEF08F0DCEF08F0FEEF08F090
:1011B800F70E956FFF0E966F91C0D9FF92C0DAFFB8
:1011C800DF50976F9751B06FB16BB0C098F0B1C056
:1011D80099F09551982796519923995109E1050E4F
:1011E800985DD8A0FAEF08F0FCEF08F0FEEF08F0E1
:1011F800000EAB6FABC09BF09C6B9B519C11D8A4AD
:1012080008EF09F00AEF09F0BEEF08F0000EAD6F25
:101218002D0EB019B111D8A414EF09F016EF09F08A
:101228001CEF09F0010EAD6F914B922B28EF09F0DE
:101238002B0EB019B111D8A424EF09F026EF09F04C
:1012480028EF09F018EF09F0000EB66F2DEF09F03E
:10125800B62BB6519125D96E000E9221DA6EDF5069
:10126800D8B439EF09F03BEF09F06BEF09F0B6514C
:101278009125D96E000E9221DA6EDF50956F3C0EE3
:10128800B625F66EF76A110EF7220800F550951983
:10129800D8B451EF09F053EF09F02CEF09F0B6512B
:1012A8009125D96E000E9221DA6EDF50956F330EBC
:1012B800B625F66EF76A110EF7220800F550951953
:1012C800D8B469EF09F06BEF09F02CEF09F0020EC2
:1012D800B66571EF09F073EF09F09FEF09F0000EA2
:1012E800B26F000EB36F800EB46F7F0EB56F93515F
:1012F8009411D8B482EF09F084EF09F045EF11F0AA
:10130800080EB619D8B48BEF09F08DEF09F08FEFFE
:1013180009F0030EB66FB6519125956F000E922114
:10132800966F93C0D9FF94C0DAFF95C0DEFF96C0D0
:10133800DDFF45EF11F0000EB66FA4EF09F0B62BF4
:10134800B6519125D96E000E9221DA6EDF50D8B4CD
:10135800B0EF09F0B2EF09F0E2EF09F0B6519125CC
:10136800D96E000E9221DA6EDF50956F4D0EB625BC
:10137800F66EF76A110EF7220800F5509519D8B4E1
:10138800C8EF09F0CAEF09F0A3EF09F0B6519125AB
:10139800D96E000E9221DA6EDF50956F450EB62594
:1013A800F66EF76A110EF7220800F5509519D8B4B1
:1013B800E0EF09F0E2EF09F0A3EF09F0030EB61928
:1013C800D8A4E9EF09F0EBEF09F05AEF0AF0320E72
:1013D800606F110E616F82EC34F060C0B2F061C0D2
:1013E800B3F062C0B4F063C0B5F00001935194113A
:1013F800D8B401EF0AF003EF0AF045EF11F0B65147
:101408009127000E922391C0D9FF92C0DAFF280ECF
:10141800DE18D8A412EF0AF014EF0AF050EF0AF021
:10142800000EB66F19EF0AF0B62BB6519125D96E9A
:10143800000E9221DA6EDF50D8B425EF0AF027EFBC
:101448000AF036EF0AF0B6519125D96E000E9221B6
:10145800DA6E290EDE18D8A434EF0AF036EF0AF057
:1014680018EF0AF0B6519125D96E000E9221DA6E66
:10147800290EDE18D8A443EF0AF045EF0AF050EF22
:101488000AF0B651956F966B010E9527000E9623BC
:10149800955191279651922393C0D9FF94C0DAFFB2
:1014A80091C0DEFF92C0DDFF45EF11F0000EB16F75
:1014B800000EB06F000EB26F000EB36F000EB46F67
:1014C800000EB56F000EAF6F000EAE6F000EB66F58
:1014D8006FEF0AF0B62BB6519125D96E000E922106
:1014E800DA6E300EDE18D8B47CEF0AF07EEF0AF020
:1014F8006EEF0AF0B651D8B484EF0AF086EF0AF01E
:1015080022EF0EF0B6519125D96E000E9221DA6EB7
:10151800780EDE18D8B493EF0AF095EF0AF0A4EF2E
:101528000AF0B6519125D96E000E9221DA6E580E46
:10153800DE18D8A4A2EF0AF0A4EF0AF022EF0EF00A
:10154800B651956F966B010E9527000E962395510F
:10155800912796519223000EB66FB4EF0AF0B62B7E
:10156800B6519125D96E000E9221DA6E300EDE1832
:10157800D8B4C1EF0AF0C3EF0AF0B3EF0AF0000ED7
:10158800B66FB6519125D96E000E9221DA6E700EA3
:10159800DE18D8B4D2EF0AF0D4EF0AF064EF0CF0FA
:1015A800B6519125D96E000E9221DA6E500EDE18D2
:1015B800D8A4E1EF0AF0E3EF0AF0E5EF0AF064EFF0
:1015C8000CF0B6519125D96E000E9221DA6E2E0ECE
:1015D800DE18D8A4F2EF0AF0F4EF0AF0F8EF0AF0F8
:1015E800AD89B62B64EF0CF0B6519125D96E000E7B
:1015F8009221DA6EDF50956F9551606F616B7FECC9
:1016080030F0000160516111D8B40DEF0BF00FEF0D
:101618000BF08BEF0BF0000EAC6FD00E956FFF0E3A
:10162800966FB6519125D96E000E9221DA6EDF5071
:10163800976F986B955197279651982398510AE17F
:101648000A0E975DD8A02BEF0BF02EEF0BF0010ED2
:101658002FEF0BF0000E9D6F9E6B9D519E11D8B41D
:1016680038EF0BF03AEF0BF045EF0BF0B651912540
:10167800D96E000E9221DA6EDF50D00FAC6F56EFA4
:101688000BF0B6519125D96E000E9221DA6EDF501B
:10169800956F9551666F676BBFEC31F0000166512D
:1016A800C90FAC6FB1BF64EF0BF0B15107E1080E81
:1016B800B05DD8B062EF0BF064EF0BF083EF0BF086
:1016C800B0510708956FD8909537D8909537ACC02A
:1016D80096F0976B986B996B952B78EF0BF0D890E9
:1016E8009637973798379937952F73EF0BF09651B0
:1016F800B2139751B3139851B4139951B513B04B12
:10170800B12B040EAE27000EAF2395EF0BF0000EA1
:10171800916F000E926F000E936F000E946F66EF3C
:1017280011F0B62BC5EF0AF0B6519125D96E000E0F
:101738009221DA6E700EDE18D8B4A5EF0BF0A7EF81
:101748000BF06BEF0CF0B6519125D96E000E92217B
:10175800DA6E500EDE18D8A4B4EF0BF0B6EF0BF02B
:10176800B8EF0BF06BEF0CF0B6519125D96E000E67
:101778009221DA6E300EDE18D8A4C5EF0BF0C7EF51
:101788000BF0D6EF0BF0B051B111D8A4CEEF0BF09F
:10179800D0EF0BF0D6EF0BF0FC0EAE27FF0EAF2309
:1017A80063EF0CF0B6519125D96E000E9221DA6ED6
:1017B800DF50956F9551606F616B7FEC30F00001E1
:1017C80060516111D8B4EBEF0BF0EDEF0BF063EF64
:1017D8000CF0000EAC6FD00E956FFF0E966FB651E1
:1017E8009125D96E000E9221DA6EDF50976F986BB3
:1017F800955197279651982398510AE10A0E975DBB
:10180800D8A009EF0CF00CEF0CF0010E0DEF0CF066
:10181800000E9F6FA06B9F51A011D8B416EF0CF06B
:1018280018EF0CF023EF0CF0B6519125D96E000E8D
:101838009221DA6EDF50D00FAC6F34EF0CF0B65156
:101848009125D96E000E9221DA6EDF50956F955171
:10185800666F676BBFEC31F000016651C90FAC6F62
:10186800B1BF42EF0CF0B15107E1080EB05DD8B03E
:1018780040EF0CF042EF0CF061EF0CF0B0510708AC
:10188800956FD8909537D8909537ACC096F0976BF0
:10189800986B996B952B56EF0CF0D8909637973735
:1018A80098379937952F51EF0CF09651B2139751FD
:1018B800B3139851B4139951B513B04BB12BB62B40
:1018C800ADB969EF0CF06BEF0CF098EF0BF0B65177
:1018D8009125D96E000E9221DA6E700EDE18D8B4FA
:1018E80078EF0CF07AEF0CF093EF0CF0B6519125ED
:1018F800D96E000E9221DA6E500EDE18D8B487EF3A
:101908000CF089EF0CF093EF0CF0000E916F000EC5
:10191800926F000E936F000E946F66EF11F0B62B66
:10192800B6519125D96E000E9221DA6E2B0EDE1873
:10193800D8A4A1EF0CF0A3EF0CF0A6EF0CF0B62B97
:10194800B7EF0CF0B6519125D96E000E9221DA6EE0
:101958002D0EDE18D8A4B3EF0CF0B5EF0CF0B7EFEE
:101968000CF0AD87B62BB6519127000E9223000ECE
:10197800B66FC0EF0CF0B62BB6519125D96E000E9C
:101988009221DA6E300EDE18D8B4CDEF0CF0CFEF1E
:101998000CF0BFEF0CF0000EB16F000EB06F02EF4D
:1019A8000DF0B651D8B4DBEF0CF0DDEF0CF0EBEF37
:1019B8000CF0B0C060F0B1C061F0000E636F0A0EA9
:1019C800626F6EEC34F060C0B0F061C0B1F0D00E60
:1019D8000001956FFF0E966FB6519125D96E000ED6
:1019E8009221DA6EDF50976F986B95519727965131
:1019F80098239751B0279851B123B62BD00E956FE5
:101A0800FF0E966FB6519125D96E000E9221DA6EAF
:101A1800DF50976F986B9551972796519823985157
:101A28000AE10A0E975DD8A01CEF0DF01FEF0DF02C
:101A3800010E20EF0DF0000EA16FA26BA151A211B3
:101A4800D8A429EF0DF02BEF0DF0D5EF0CF0B6511F
:101A5800D8A431EF0DF033EF0DF03DEF0DF0000E8F
:101A6800916F000E926F000E936F000E946F66EFE9
:101A780011F0ADA742EF0DF044EF0DF048EF0DF077
:101A8800B06DB11FD8B0B12BB051AE27B151AF2353
:101A980093519411D8B453EF0DF055EF0DF063EF57
:101AA8000DF0B6519125956F000E9221966F93C057
:101AB800D9FF94C0DAFF95C0DEFF96C0DDFFB251B2
:101AC800B311B411B511D8A46CEF0DF06EEF0DF091
:101AD80078EF0DF0000E916F000E926F000E936F6D
:101AE800000E946F66EF11F0FF0EB215956F000EA1
:101AF800B315966F000EB415976F000EB515986F55
:101B080098519711961109E1810E955DD8A08FEF34
:101B18000DF091EF0DF0A3EF0DF0000EB227010EBE
:101B2800B323000EB423000EB523A3EF0DF0D89015
:101B3800B237B337B437B537AE07D8A0AF07B5AFAC
:101B4800A8EF0DF0AAEF0DF09BEF0DF0AFAFB6EFD9
:101B58000DF0830EAE5DFF0EAF59D8B0B6EF0DF0A5
:101B6800B8EF0DF0C4EF0DF0FF0EAF6F810EAE6F42
:101B7800000EB26F000EB36F000EB46F000EB56F9B
:101B8800810EAE1908E1AF29D8B4CDEF0DF0CFEF33
:101B98000DF0D7EF0DF0D890B237B337B437B5376B
:101BA800AE07D8A0AF07AFBFE3EF0DF0AF5109E123
:101BB800800EAE5DD8A0E3EF0DF0E5EF0DF0F1EF8C
:101BC8000DF0000EB26F000EB36F000EB46F000E72
:101BD800B56F000EAF6F800EAE6F090E956FD8907F
:101BE800B533B433B333B233952FF3EF0DF0FF0EA3
:101BF800B217FF0EB3177F0EB417000EB5177F0E7E
:101C0800AE25956F000EAF21966FFF0E9515976F55
:101C1800986B996B9A6B170ED890973798379937B6
:101C28009A37E82E10EF0EF09751B2139851B3136C
:101C38009951B4139A51B51345EF11F0ADB927EF87
:101C48000EF029EF0EF03BEF0EF091C0D9FF92C0D5
:101C5800DAFF2E0EDE18D8A434EF0EF036EF0EF0B1
:101C68003BEF0EF0AD89914B922B22EF0EF0D00E88
:101C7800956FFF0E966F91C0D9FF92C0DAFFDF50C3
:101C8800976F986B955197279651982398510AE129
:101C98000A0E975DD8A053EF0EF056EF0EF0010E26
:101CA80057EF0EF0000EA36FA46BA351A411D8A494
:101CB80060EF0EF062EF0EF064EF0EF0B3EF0EF08F
:101CC800AD83090EB019B111D8B46DEF0EF06FEFF6
:101CD8000EF0A6EF0EF0ADA974EF0EF076EF0EF051
:101CE80079EF0EF0AE07D8A0AF07B04BB12BB2C05A
:101CF80060F0B3C061F0B4C062F0B5C063F00A0E22
:101D0800646F000E656F000E666F000E676FB8ECAB
:101D180030F060C0B2F061C0B3F062C0B4F063C02C
:101D2800B5F091C0D9FF92C0DAFFDF500001956F7E
:101D3800D00E95279551B227000EB323B423B523AF
:101D4800AFEF0EF0ADB9ABEF0EF0ADEF0EF0AFEFB9
:101D58000EF0AE4BAF2B914B922B22EF0EF0000EF4
:101D6800B16F000EB06F91C0D9FF92C0DAFF650E57
:101D7800DE18D8B4C2EF0EF0C4EF0EF0D1EF0EF0BB
:101D880091C0D9FF92C0DAFF450EDE18D8A4CFEF74
:101D98000EF0D1EF0EF0C2EF0FF0914B922B91C0E5
:101DA800D9FF92C0DAFF2D0EDE18D8A4DEEF0EF0B0
:101DB800E0EF0EF0E5EF0EF0AD87914B922BF4EFCC
:101DC8000EF091C0D9FF92C0DAFF2B0EDE18D8A40E
:101DD800F0EF0EF0F2EF0EF0F4EF0EF0914B922BC5
:101DE80091C0D9FF92C0DAFF300EDE18D8B4FFEFE9
:101DF8000EF001EF0FF0F2EF0EF0D00E956FFF0E20
:101E0800966F91C0D9FF92C0DAFFDF50976F986B39
:101E1800955197279651982398510AE10A0E975D94
:101E2800D8A019EF0FF01CEF0FF0010E1DEF0FF007
:101E3800000EA56FA66BA551A611D8B426EF0FF01A
:101E480028EF0FF0B7EF0FF091C0D9FF92C0DAFF7B
:101E5800DF50956FD00E95279551B06FB16B914BB0
:101E6800922BD00E956FFF0E966F91C0D9FF92C03E
:101E7800DAFFDF50976F986B955197279651982303
:101E880098510AE10A0E975DD8A04DEF0FF050EF78
:101E98000FF0010E51EF0FF0000EA76FA86BA751BE
:101EA800A811D8B45AEF0FF05CEF0FF0B7EF0FF0AE
:101EB80091C0D9FF92C0DAFFDF50956FD00E9527F9
:101EC800B0C060F0B1C061F0000E636F0A0E626FBF
:101ED8006EEC34F0000195516025B06F000E612161
:101EE800B16F914B922BD00E956FFF0E966F91C0EC
:101EF800D9FF92C0DAFFDF50976F986B95519727FB
:101F08009651982398510AE10A0E975DD8A08FEF51
:101F18000FF092EF0FF0010E93EF0FF0000EA96F84
:101F2800AA6BA951AA11D8B49CEF0FF09EEF0FF03D
:101F3800B7EF0FF091C0D9FF92C0DAFFDF50956F6D
:101F4800D00E9527B0C060F0B1C061F0000E636F8D
:101F58000A0E626F6EEC34F0000195516025B06F87
:101F6800000E6121B16FADA7BCEF0FF0BEEF0FF00F
:101F7800C2EF0FF0B06DB11FD8B0B12BB051AE2782
:101F8800B151AF2393519411D8B4CDEF0FF0CFEFE7
:101F98000FF0DEEF0FF0ADA3D4EF0FF0D6EF0FF098
:101FA800DEEF0FF093C0D9FF94C0DAFF91C0DEFFD7
:101FB80092C0DDFFB2C060F0B3C061F0B4C062F09F
:101FC800B5C063F0000E78EC1DF060C0B2F061C0DF
:101FD800B3F062C0B4F063C0B5F0B2C060F0B3C093
:101FE80061F0B4C062F0B5C063F0000E0001646F28
:101FF800000E656F000E666F000E676F8BEC2EF09B
:102008000001D8A00AEF10F00CEF10F016EF10F056
:10201800000E916F000E926F000E936F000E946F7A
:1020280066EF11F0AFBF1DEF10F01BEF10F0AEEF31
:1020380010F0AE6DAF1FD8B0AF2B42EF10F0B2C0AA
:1020480060F0B3C061F0B4C062F0B5C063F0F90EDF
:10205800646F020E656F150E666F500E676FDEECCB
:1020680015F060C0B2F061C0B3F062C0B4F063C0F4
:10207800B5F00001F60EAE27FF0EAF23AFBF50EF4D
:1020880010F0AF5107E10A0EAE5DD8B04EEF10F078
:1020980050EF10F023EF10F070EF10F0B2C060F0C6
:1020A800B3C061F0B4C062F0B5C063F0000E646FF5
:1020B800000E656F200E666F410E676FDEEC15F03F
:1020C80060C0B2F061C0B3F062C0B4F063C0B5F0F4
:1020D8000001AE07D8A0AF07AE51AF11D8A477EF73
:1020E80010F079EF10F052EF10F0B2C060F0B3C00A
:1020F80061F0B4C062F0B5C063F0000E646F000E0A
:10210800656F800E666F000E676F3BEC2AF000016A
:10211800D8B091EF10F093EF10F045EF11F0ADA1AA
:1021280098EF10F09AEF10F0A4EF10F0000E916FF6
:10213800000E926F800E936F800E946F66EF11F011
:10214800000E916F000E926F800E936F000E946FC9
:1021580066EF11F0AFBFB9EF10F0AF5108E1AE056F
:10216800D8A0B9EF10F0BBEF10F045EF11F0DCEF9D
:1021780010F0B2C078F0B3C079F0B4C07AF0B5C04E
:102188007BF0F90E7C6F020E7D6F150E7E6F500E80
:102198007F6FC8EC13F078C0B2F079C0B3F07AC0A2
:1021A800B4F07BC0B5F00001F60EAE27FF0EAF23EA
:1021B800AF5107E10A0EAE5DD8B0E5EF10F0E7EFDA
:1021C80010F0BDEF10F007EF11F0B2C078F0B3C017
:1021D80079F0B4C07AF0B5C07BF0000E7C6F000EC9
:1021E8007D6F200E7E6F410E7F6FC8EC13F078C0B4
:1021F800B2F079C0B3F07AC0B4F07BC0B5F000019A
:10220800AE07D8A0AF07AE51AF11D8A40EEF11F0AA
:1022180010EF11F0E9EF10F0FF0E606FFF0E616F25
:102228007F0E626F7F0E636FB2C064F0B3C065F05B
:10223800B4C066F0B5C067F03BEC2AF00001D8B036
:1022480028EF11F02AEF11F045EF11F0ADA12FEFB3
:1022580011F031EF11F03BEF11F0000E916F000E0D
:10226800926F800E936F800E946F66EF11F0000EE0
:10227800916F000E926F800E936F000E946F66EF51
:1022880011F0ADA14AEF11F04CEF11F05EEF11F033
:10229800B2C060F0B3C061F0B4C062F0B5C063F022
:1022A800A2EC33F060C0B2F061C0B3F062C0B4F029
:1022B80063C0B5F0B2C091F0B3C092F0B4C093F06F
:1022C800B5C094F0120000016351800B6C6F63512C
:1022D80063256E6F62AF73EF11F075EF11F076EF53
:1022E80011F06E816E51D8B47CEF11F07EEF11F0D1
:1022F80093EF11F06E29D8A484EF11F086EF11F056
:102308008EEF11F0000E606F000E616F000E626FAD
:10231800000E636F628F000E636F9BEF11F0000E6B
:10232800606F000E616F000E626F000E636F675181
:10233800800B6D6F6C516D19D8B4A5EF11F0A7EF34
:1023480011F0A8EF11F06C8D675167256D6F66AFBE
:10235800B0EF11F0B2EF11F0B3EF11F06D816D51E4
:10236800D8B4B9EF11F0BBEF11F0D0EF11F06D292F
:10237800D8A4C1EF11F0C3EF11F0CBEF11F0000EAC
:10238800646F000E656F000E666F000E676F668FD4
:10239800000E676FD8EF11F0000E646F000E656FC6
:1023A800000E666F000E676F6E516D5DD8B0DFEF7F
:1023B80011F0E1EF11F008EF12F06CADE6EF11F05B
:1023C800E8EF11F0EAEF11F0800E6C1B6EC06FF0B1
:1023D8006DC06EF06FC06DF060C06FF064C060F0EB
:1023E8006FC064F061C06FF065C061F06FC065F0E8
:1023F80062C06FF066C062F06FC066F063C06FF0D5
:1024080067C063F06FC067F0000E6F6F6E516DC0EC
:1024180068F0696B685F000E695B69BF1DEF12F0B9
:10242800695109E11A0E685DD8A01DEF12F01FEF7F
:1024380012F056EF12F06051611162116311D8A4C5
:1024480028EF12F02BEF12F0010E2CEF12F0000E15
:102458006F6F000E606F000E616F000E626F000EEE
:10246800636F6DC06EF05FEF12F06FA13EEF12F078
:1024780040EF12F046EF12F0D8906F3101096F6FFC
:1024880048EF12F0D8906F3360A14DEF12F04FEF84
:1024980012F050EF12F06F8F63356333623361339C
:1024A80060336E2B6D516E5DD8A05DEF12F05FEF5B
:1024B80012F039EF12F06CBD64EF12F066EF12F013
:1024C800A6EF12F06E51D8A46CEF12F06EEF12F076
:1024D80078EF12F0000E606F000E616F000E626FF1
:1024E800000E636FC7EF13F06451602765516123D5
:1024F800665162236751632363A185EF12F087EF6A
:1025080012F033EF13F06FA18CEF12F08EEF12F090
:1025180094EF12F0D8906F3101096F6F96EF12F0B7
:10252800D8906F3360A19BEF12F09DEF12F09EEFF1
:1025380012F06F8F633563336233613360336E2B10
:1025480033EF13F06451605D65516159665162590A
:102558006351800A686F6751800A6859D8B0B7EF2D
:1025680012F0B9EF12F0E4EF12F06051645D686F99
:1025780061516559696F625166596A6F635167594C
:102588006B6FFF0E6825606FFF0E6921616FFF0E8C
:102598006A21626FFF0E6B21636F800E6C1B6F6D7B
:1025A8006F51D8A4DAEF12F0DCEF12F0ECEF12F072
:1025B800010E6027000E612362236323ECEF12F003
:1025C8006451605F6551615B6651625B6751635B33
:1025D8006051611162116311D8A4F5EF12F0F7EFA1
:1025E80012F02CEF13F06F51D8A4FDEF12F0FFEFAB
:1025F80012F02CEF13F0000E606F000E616F000EEA
:10260800626F000E636FC7EF13F0D89060376137C1
:10261800623763376FAF13EF13F015EF13F016EF50
:1026280013F060816FA11BEF13F01DEF13F021EF82
:1026380013F0D8806F3723EF13F0D8906F376E51AF
:10264800D8B429EF13F02BEF13F02CEF13F06E072B
:1026580062AF31EF13F033EF13F009EF13F0000E10
:102668006D6F6FAF3AEF13F03CEF13F054EF13F0C8
:102678006FC068F07F0E6817D8B445EF13F047EFC6
:1026880013F04BEF13F0010E6D6F54EF13F060A1D0
:1026980050EF13F052EF13F054EF13F047EF13F02D
:1026A8006D51D8B45AEF13F05CEF13F087EF13F0C5
:1026B800010E6027000E61236223632363A167EF85
:1026C80013F069EF13F087EF13F060C068F061C092
:1026D80069F062C06AF063C06BF06B356B336A33C4
:1026E8006933683368C060F069C061F06AC062F03D
:1026F8006BC063F06E29D8B484EF13F086EF13F043
:1027080087EF13F06E2B6E29D8B48DEF13F08FEF8F
:1027180013F097EF13F06E51D8A495EF13F097EFDD
:1027280013F0A9EF13F0000E606F000E616F000E3A
:10273800626F000E636F6E51D8A4A5EF13F0A7EF78
:1027480013F0A9EF13F0000E6C6F6EA1AEEF13F04B
:10275800B0EF13F0B3EF13F0628FB4EF13F0629F92
:10276800D8906E31636F6CAFBCEF13F0BEEF13F00F
:10277800BFEF13F0638F60C060F061C061F062C0AA
:1027880062F063C063F0120000017B51800B846F1C
:102798007B517B258A6F7AAFD4EF13F0D6EF13F015
:1027A800D7EF13F08A818A51D8B4DDEF13F0DFEF49
:1027B80013F0F2EF13F08A29D8A4E5EF13F0E7EF4E
:1027C80013F0EFEF13F0000E786F000E796F000E24
:1027D8007A6F000E7B6F7A8FFAEF13F0000E786F26
:1027E800000E796F000E7A6F000E7B6F7F51800BA1
:1027F800841B7F517F25856F7EAF05EF14F007EFAF
:1028080014F008EF14F085818551D8B40EEF14F058
:1028180010EF14F023EF14F08529D8A416EF14F064
:1028280018EF14F020EF14F0000E7C6F000E7D6F8F
:10283800000E7E6F000E7F6F7E8F2BEF14F0000E60
:102848007C6F000E7D6F000E7E6F000E7F6F8551CE
:10285800D8B431EF14F033EF14F03BEF14F08A5191
:10286800D8A439EF14F03BEF14F045EF14F0000E44
:10287800786F000E796F000E7A6F000E7B6FDDEFB8
:1028880015F07E517803F3CF8FF0F4CF90F08F518D
:10289800866F876B886B896B90518B6F8C6B8D6B98
:1028A8008E6B7D517903F3CF8FF0F4CF90F08F5179
:1028B8008627000E87238823892390518B27000EB3
:1028C8008C238D238E237C517A03F3CF8FF0F4CFA2
:1028D80090F08F518627000E8723882389239051F3
:1028E8008B27000E8C238D238E2388C089F087C008
:1028F80088F086C087F0866B7C517903F3CF8FF020
:10290800F4CF90F08F51862790518723000E8823AB
:10291800000E89237D517803F3CF8FF0F4CF90F028
:102928008F51862790518723000E8823000E892314
:1029380088C089F087C088F086C087F0866B7C5194
:102948007803F3CF8FF0F4CF90F08F518627905112
:102958008723000E8823000E89237E517903F3CF45
:102968008FF0F4CF90F08F518B2790518C23000E6D
:102978008D23000E8E237D517A03F3CF8FF0F4CF91
:1029880090F08F518B2790518C23000E8D23000ED1
:102998008E237E517A03F3CF8FF0F4CF90F08F51CE
:1029A800806F9051816F826B836B82C083F081C08E
:1029B80082F080C081F0806B80518B2781518C23FD
:1029C80082518D2383518E2386C080F087C081F089
:1029D80088C082F089C083F0190EF8EF14F0D890FF
:1029E8008333823381338033E82EF3EF14F0805140
:1029F8008B2781518C2382518D2383518E2388C04C
:102A080089F087C088F086C087F0866B85518AC0B8
:102A180080F0816B8027000E8123820E80258F6FC6
:102A2800FF0E8121906F2EEF15F0D8908B378C37E1
:102A38008D378E3789AF23EF15F025EF15F026EF88
:102A480015F08B81D89086378737883789378F0775
:102A5800D8A090078DAF33EF15F035EF15F019EFCB
:102A680015F0000E856F89AF3CEF15F03EEF15F0BD
:102A780062EF15F0FF0E8615806FFF0E8715816FC8
:102A8800FF0E8815826F7F0E8915836F8051811123
:102A980082118311D8B453EF15F055EF15F059EFA3
:102AA80015F0010E856F62EF15F08BA15EEF15F042
:102AB80060EF15F062EF15F055EF15F08551D8B4B9
:102AC80068EF15F06AEF15F08EEF15F0010E8B2701
:102AD800000E8C238D238E238EA175EF15F077EFD2
:102AE80015F08EEF15F08BC080F08CC081F08DC092
:102AF80082F08EC083F08335833382338133803311
:102B080080C08BF081C08CF082C08DF083C08EF0C5
:102B18008F4B902B90BF99EF15F0905108E18F29BA
:102B2800D8A099EF15F09BEF15F0A5EF15F0000E62
:102B38008B6F000E8C6F800E8D6F7F0E8E6FD3EFB4
:102B480015F090BFB2EF15F0905106E18F05D8B09F
:102B5800B0EF15F0B2EF15F0BEEF15F0000E8B6F69
:102B6800000E8C6F000E8D6F000E8E6F000E846F3E
:102B7800D3EF15F08FC08AF0FF0E8B17FF0E8C175E
:102B88007F0E8D17000E8E178AA1CDEF15F0CFEFAF
:102B980015F0D0EF15F08D8FD8908A318E6F845153
:102BA8008E138BC078F08CC079F08DC07AF08EC00F
:102BB8007BF0120000016351800B706F6351632535
:102BC800776F62AFEAEF15F0ECEF15F0EDEF15F067
:102BD80077817751D8B4F3EF15F0F5EF15F00AEFD8
:102BE80016F07729D8A4FBEF15F0FDEF15F005EFE7
:102BF80016F0000E606F000E616F000E626F000E1F
:102C0800636F628F000E636F12EF16F0000E606F35
:102C1800000E616F000E626F000E636F6751800BCC
:102C2800701B67516725786F66AF1DEF16F01FEFB1
:102C380016F020EF16F078817851D8B426EF16F008
:102C480028EF16F03DEF16F07829D8A42EEF16F0ED
:102C580030EF16F038EF16F0000E646F000E656F57
:102C6800000E666F000E676F668F000E676F45EF88
:102C780016F0000E646F000E656F000E666F000E92
:102C8800676F6451651166116711D8A44EEF16F08D
:102C980050EF16F068EF16F0000E606F000E616FCF
:102CA800000E626F000E636F800E62137F0E631357
:102CB8007051631360C060F061C061F062C062F07F
:102CC80063C063F0ABEF17F07751D8A46EEF16F03E
:102CD80070EF16F07AEF16F0000E606F000E616F5D
:102CE800000E626F000E636FABEF17F0785177C07C
:102CF80068F0696B685F000E695B7F0E6825716F0D
:102D0800000E6921726F60C06CF061C06DF062C026
:102D18006EF063C06FF0000E606F000E616F000E02
:102D2800626F000E636F000E736F000E746F000EFB
:102D3800756F000E766F000E786FDBEF16F0785126
:102D4800D8B4A9EF16F0ABEF16F0C2EF16F0D89092
:102D58006C376D376E376F37D890603761376237A9
:102D6800633776AFBAEF16F0BCEF16F0BDEF16F08A
:102D78006081D890733774377537763764516C5DD6
:102D880065516D5966516E5967516F59D8A0CFEF8B
:102D980016F0D1EF16F0DAEF16F0768D64516C5F0D
:102DA80065516D5B66516E5B67516F5B782B190ED1
:102DB8007865E1EF16F0E3EF16F0A3EF16F06C512B
:102DC8006D116E116F11D8B4ECEF16F0EEEF16F02E
:102DD80006EF17F0738106EF17F0D8906037613768
:102DE8006237633776AFFBEF16F0FDEF16F0FEEFB4
:102DF80016F06081D8907337743775377637710756
:102E0800D8A0720762AF0BEF17F00DEF17F0F1EFD4
:102E180016F0000E786F76AF14EF17F016EF17F074
:102E28003AEF17F0FF0E7315686FFF0E7415696F90
:102E3800FF0E75156A6F7F0E76156B6F68516911F5
:102E48006A116B11D8B42BEF17F02DEF17F031EF93
:102E580017F0010E786F3AEF17F060A136EF17F010
:102E680038EF17F03AEF17F02DEF17F07851D8B484
:102E780040EF17F042EF17F066EF17F0010E6027EA
:102E8800000E61236223632363A14DEF17F04FEF18
:102E980017F066EF17F060C068F061C069F062C0B3
:102EA8006AF063C06BF06B356B336A336933683330
:102EB80068C060F069C061F06AC062F06BC063F01E
:102EC800714B722B72BF71EF17F0725108E17129C3
:102ED800D8A071EF17F073EF17F07EEF17F0000E20
:102EE800726F7169000E606F000E616F000E626F85
:102EF800000E636F72BF8BEF17F0725106E1710518
:102F0800D8B089EF17F08BEF17F099EF17F0000E94
:102F1800726F000E716F000E606F000E616F000E11
:102F2800626F000E636F000E706F71C077F077A14B
:102F3800A0EF17F0A2EF17F0A5EF17F0628FA6EF3A
:102F480017F0629FD8907731636F5CEF16F012002C
:102F5800D5C06BF0D6C06CF0510E00016D6F110E2C
:102F68006E6F2BEC2CF06BC090F16CC091F1000EE1
:102F78000101896F8E698F694BEF19F090C1D9FFF4
:102F880091C1DAFFDF50886F90C1D9FF91C1DAFF94
:102F9800300EDF6E16EF19F08C0E936F010E946FE2
:102FA80090C191F091C192F0AAEC08F091C0B7F0ED
:102FB80092C0B8F093C0B9F094C0BAF00CEC22F00B
:102FC800B7C0CBF0B8C0CCF0B9C0CDF0BAC0CEF025
:102FD800B7EC29F0CBC08AF1CCC08BF145EF18F0E3
:102FE800000E01018F6F000E8E6F3CEF19F0000E7E
:102FF80001018F6F010E8E6F3CEF19F0000E010179
:103008008F6F020E8E6F3CEF19F0000E01018F6F6B
:10301800030E8E6F3CEF19F0000E01018F6F040E46
:103028008E6FFE0E0001606F100E616F150E626FDD
:1030380059EC34F03CEF19F0000E01018F6F050ECA
:103048008E6F3CEF19F0000E01018F6F060E8E6F28
:103058003CEF19F0000E01018F6F070E8E6F3CEFE9
:1030680019F0D20E606F100E616F160E626F59EC78
:1030780034F0010E0101896F01018E698F693CEFFF
:1030880019F08AC1D7F08BC1D8F00001D851000AD5
:10309800D8B451EF18F035EF18F0D751000AD8B46A
:1030A800F4EF17F0010AD8B4FBEF17F0050AD8B40B
:1030B80002EF18F0110AD8B409EF18F0090AD8B4C9
:1030C80010EF18F0460AD8B420EF18F0010AD8B467
:1030D80027EF18F0070AD8B42EEF18F035EF18F0DC
:1030E8008C0E936F010E946F90C191F091C192F084
:1030F800AAEC08F091C0B7F092C0B8F093C0B9F04C
:1031080094C0BAF00CEC22F0B7C0CBF0B8C0CCF049
:10311800B9C0CDF0BAC0CEF0B7EC29F0CBC08AF177
:10312800CCC08BF1BEEF18F0000E01018F6F090EB5
:103138008E6F3CEF19F0000E01018F6F0A0E8E6F33
:103148003CEF19F0000E01018F6F0B0E8E6F3CEFF4
:1031580019F0000E01018F6F0C0E8E6F3CEF19F005
:10316800D20E606F100E616F160E626F59EC34F05C
:103178003DEF18F08AC1D7F08BC1D8F00001D851C3
:10318800000AD8B4CAEF18F0B4EF18F0D751000A03
:10319800D8B498EF18F0010AD8B49FEF18F0030AD2
:1031A800D8B4A6EF18F0560AD8B4ADEF18F0B4EFBB
:1031B80018F090C191F091C192F08C0E936F010EAE
:1031C800946FAAEC08F091C084F192C085F193C085
:1031D80086F194C087F184C179F185C17AF186C1FD
:1031E8007BF187C17CF13CEF19F0000E01018F6F74
:1031F8000E0E8E6F3CEF19F0710E636F010E646F47
:10320800E5EC32F03CEF19F0010E0101896FD20EA6
:103218000001606F100E616F160E626F59EC34F08A
:1032280040EF18F088510001D76FD86BD851000AC9
:10323800D8B421EF19F008EF19F0D751460AD8B4DD
:103248003CEF19F0010AD8B4D0EF17F00A0AD8B445
:1032580074EF18F0150AD8B4DDEF18F0010AD8B4E5
:10326800F9EF18F0030AD8B400EF19F008EF19F0D5
:10327800000E00016B6F000E6C6F510E6D6F110E1A
:103288006E6F2BEC2CF06BC090F16CC091F10101CA
:1032980090519111D8B453EF19F055EF19F05DEF33
:1032A80019F08951D8B45BEF19F05DEF19F0C2EF4E
:1032B80017F08EC1D5F08FC1D6F012000401320587
:1032C800D8A469EF19F06BEF19F087EF19F03051B6
:1032D8001F0B0009D8A473EF19F075EF19F087EFE9
:1032E80019F00001E68F030E04013119D8A47FEF0D
:1032F80019F081EF19F085EF19F0010E446E87EF90
:1033080019F0000E446E3251D8A48DEF19F08FEFEA
:1033180019F00FEF1BF030511F0B020AD8A497EFDA
:1033280019F099EF19F00FEF1BF034510F0B00094A
:10333800D8B4A1EF19F0A3EF19F00FEF1BF0345137
:103348000F0B156E030E1560ACEF19F0AEEF19F008
:103358000FEF1BF0200E4718D8A4B5EF19F0B7EF00
:1033680019F00FEF1BF00001E68F040134BFBFEF27
:1033780019F0C1EF19F0DEEF19F034510F0B156E8B
:103388001550020D2A0EF324D96E010EF420DA6EC0
:10339800DECF1AF0DDCF1BF034510F0B156E166A15
:1033A800EF0E1524D96E000E1620DA6EDF50196E56
:1033B800F9EF19F034510F0B156E1550020DE90E87
:1033C800F324D96E000EF420DA6EDECF1AF0DDCFCA
:1033D8001BF034510F0B156E166AF20E1524D96EB8
:1033E800000E1620DA6EDF50196E19B0FEEF19F0D4
:1033F80000EF1AF008EF1AF0FB0E1A141A6EFF0EFF
:103408001B141B6E0DEF1AF0040E1A101A6E1B50C7
:103418001B6E34BF12EF1AF014EF1AF025EF1AF0F2
:1034280034510F0B156E1550020D2A0EF324D96E68
:10343800010EF420DA6E1AC0DEFF1BC0DDFF34EF88
:103448001AF034510F0B156E1550020DE90EF324C6
:10345800D96E000EF420DA6E1AC0DEFF1BC0DDFF45
:10346800030E3119D8A43BEF1AF03DEF1AF077EFAD
:103478001AF01AC0D9FF1BC0DAFFDFAE46EF1AF008
:1034880048EF1AF069EF1AF034BF4DEF1AF04FEF1A
:103498001AF05DEF1AF034510F0B156E166AEF0E25
:1034A8001524D96E000E1620DA6E0001DF8269EF4E
:1034B8001AF034510F0B156E166AF20E1524D96ED8
:1034C800000E1620DA6E0001DF821AC0D9FF1BC079
:1034D800DAFF000EDB841AC0D9FF1BC0DAFF000E2A
:1034E800DB8E0FEF1BF0040E1A181A6E1B501B6EA2
:1034F8001AC0D9FF1BC0DAFFDFAE85EF1AF087EFDD
:103508001AF0A3EF1AF01AC0D9FF1BC0DAFF7F0E1A
:10351800DF161AC0D9FF1BC0DAFF000EDB8C000EC5
:103528000E6E050E0D6E1AC00FF01BC010F0000EC7
:10353800126E020E116E7FEC2FF0A9EF1AF01AC06E
:10354800D9FF1BC0DAFF000EDB8C040E1A181A6EA6
:103558001B501B6E19B2B3EF1AF0B5EF1AF0C0EF9B
:103568001AF01AC0D9FF1BC0DAFFDFAEBEEF1AF09F
:10357800C0EF1AF0F8EF1AF0040134BFC6EF1AF0E2
:10358800C8EF1AF0D6EF1AF034510F0B156E166A01
:10359800EF0E1524D96E000E1620DA6E0001DF92A8
:1035A800E2EF1AF034510F0B156E166AF20E15245D
:1035B800D96E000E1620DA6E0001DF921AC0D9FF0C
:1035C8001BC0DAFF3B0EDF16000E0E6E050E0D6EE9
:1035D8001AC00FF01BC010F0000E126E020E116E12
:1035E8007FEC2FF0FEEF1AF01AC0D9FF1BC0DAFFEC
:1035F8003B0EDF16040134510F0B156E166A700E60
:103608001524176E0F0E1620186E17C0D9FF18C094
:10361800DAFFFE0EDF1612004CEF1CF0000E4A6EA9
:1036280075C160F076C161F077C162F078C163F06E
:1036380079C164F07AC165F07BC166F07CC167F03E
:103648008BEC2EF00001D8A02CEF1BF02EEF1BF016
:1036580030EF1BF0010E4A6E79C160F07AC161F05B
:103668007BC162F07CC163F075C164F076C165F01E
:1036780077C166F078C167F03BEC2AF00001D8B05A
:1036880048EF1BF04AEF1BF09EEF1BF0710E606FC6
:10369800010E616F010E626FC3EC2FF0040EE82E6D
:1036A800FED7710E0001606F010E616F000E626F30
:1036B80004EC30F0040EE82EFED780C17CF081C106
:1036C8007DF082C17EF083C17FF079C174F07AC148
:1036D80075F07BC176F07CC177F075C170F076C16A
:1036E80071F077C172F078C173F0C1EC32F070C03C
:1036F80078F071C079F072C07AF073C07BF0C8ECD2
:1037080013F078C0CBF079C0CCF07AC0CDF07BC094
:10371800CEF0B7EC29F0CBC071F1CCC072F1710ECC
:103728000001606F010E616F000E626FC3EC2FF035
:10373800010E496E75C160F076C161F077C162F023
:1037480078C163F079C164F07AC165F07BC166F035
:103758007CC167F03BEC2AF00001D8B0B6EF1BF053
:10376800B8EF1BF062EF1CF0710E606F010E616F15
:10377800010E626FC3EC2FF0040EE82EFED7710E17
:103788000001606F010E616F010E626F04EC30F092
:10379800040EE82EFED780C17CF081C17DF082C185
:1037A8007EF083C17FF075C174F076C175F077C182
:1037B80076F078C177F079C170F07AC171F07BC189
:1037C80072F07CC173F0C1EC32F070C078F071C057
:1037D80079F072C07AF073C07BF0C8EC13F078C04F
:1037E800CBF079C0CCF07AC0CDF07BC0CEF0B7EC8E
:1037F80029F0CBC071F1CCC072F1710E0001606F7D
:10380800010E616F000E626FC3EC2FF0010E496E5E
:1038180062EF1CF0010172BF1CEF1CF0725106E14F
:103828007105D8B01AEF1CF01CEF1CF062EF1CF009
:10383800010E4A6E710E0001606F010E616F010E7C
:10384800626FC3EC2FF079C175F17AC176F17BC153
:1038580077F17CC178F18BA434EF1CF039EF1CF0C0
:103868000001D56BD52B3BEF1CF00001D56BD5477C
:10387800D5478B50D519FB0BD5198B6E000E496EA9
:1038880062EF1CF0000E496E000E4A6E62EF1CF0EB
:1038980049500001D56FD66BD651000AD8B457EFFE
:1038A8001CF046EF1CF0D551000AD8B412EF1BF0FB
:1038B800010AD8B40EEF1CF046EF1CF04A50120073
:1038C8004704D8A46AEF1CF06CEF1CF079EF1CF0E9
:1038D8006DBA71EF1CF073EF1CF079EF1CF0000E5D
:1038E800686E69806988020E476E68A47EEF1CF0D6
:1038F80080EF1CF08AEF1CF069A485EF1CF087EFBD
:103908001CF08AEF1CF0689449EC33F06DA28FEF3D
:103918001CF091EF1CF094EF1CF0A19A77EF1DF0CA
:1039280068A099EF1CF09BEF1CF0A8EF1CF069A0B1
:10393800A0EF1CF0A2EF1CF0A8EF1CF057EC23F04E
:10394800A08A040E476E689068A8ADEF1CF0AFEF30
:103958001CF0B8EF1CF069A8B4EF1CF0B6EF1CF02F
:10396800B8EF1CF043EC34F068ACBDEF1CF0BFEFCF
:103978001CF0EAEF1CF069ACC4EF1CF0C6EF1CF0B9
:10398800D4EF1CF0000E0E6E730E0D6E000E0F6E4F
:10399800000E106E000E126E010E116E7FEC2FF0ED
:1039A800689C12EC34F04050D8B4DDEF1CF0DFEF27
:1039B8001CF0E0EF1CF040064050D8A4E6EF1CF0E5
:1039C800E8EF1CF0EAEF1CF03DEC2BF068AAEFEFF3
:1039D8001CF0F1EF1CF0FAEF1CF069AAF6EF1CF0EE
:1039E800F8EF1CF0FAEF1CF0EFEC31F068A2FFEFF3
:1039F8001CF001EF1DF017EF1DF069A206EF1DF096
:103A080008EF1DF017EF1DF07F0E0E6E0D68000E0B
:103A18000F6E000E106E000E126E010E116E7FEC0E
:103A28002FF0000E6A6E040E47601DEF1DF01FEFA9
:103A38001DF022EF1DF0A19A77EF1DF069A627EF80
:103A48001DF029EF1DF076EF1DF0000E1F6E68A621
:103A580030EF1DF032EF1DF076EF1DF06CCF51F016
:103A68005130E832E8320F0B426E689651B43FEF9E
:103A78001DF041EF1DF04BEF1DF0EF0E4224D96E03
:103A8800DA6A000EDA220001DF7053EF1DF0F20E41
:103A98004224D96EDA6A000EDA220001DF70425041
:103AA800D8A459EF1DF05BEF1DF05FEF1DF0D5ECCA
:103AB8002DF06DEF1DF0000E0E6E720E0D6E510E94
:103AC8000F6E000E106E000E126E000E116E7FEC5F
:103AD8002FF01F2A030E1F6474EF1DF076EF1DF000
:103AE8002BEF1DF0A19A12000001686F00016851C8
:103AF800D8B481EF1DF083EF1DF0A5EF1DF063BF73
:103B08008AEF1DF088EF1DF0A5EF1DF060C064F08E
:103B180061C065F062C066F063C067F0641F651F2E
:103B2800661F671F642B000E65236623672364C026
:103B38006AF065C06BF066C06CF067C06DF0ADEF01
:103B48001DF060C06AF061C06BF062C06CF063C0C9
:103B58006DF06051611162116311D8A4B6EF1DF0C8
:103B6800B8EF1DF0C2EF1DF0000E606F000E616F20
:103B7800000E626F000E636F53EF1EF0960E696FB2
:103B8800CCEF1DF0692BD8906D336C336B336A33EF
:103B9800000E6A15646F000E6B15656F000E6C15CC
:103BA800666FFE0E6D15676F6451651166116711BA
:103BB800D8A4E1EF1DF0E3EF1DF0C6EF1DF0F1EF23
:103BC8001DF0692B010E6A27000E6B236C236D23F1
:103BD800D8906D336C336B336A33000E6A15646F9B
:103BE800000E6B15656F000E6C15666FFF0E6D1578
:103BF800676F6451651166116711D8A406EF1EF04E
:103C080008EF1EF0E5EF1DF010EF1EF06907D890E1
:103C18006A376B376C376D376CBF15EF1EF017EFCF
:103C28001EF01FEF1EF0020E69611DEF1EF01FEF60
:103C38001EF00AEF1EF069B124EF1EF026EF1EF009
:103C480027EF1EF06C9FD890693369C064F0656BEC
:103C5800666B676B64C067F0666B656B646B645119
:103C68006A1365516B1366516C1367516D13685174
:103C7800D8B441EF1EF043EF1EF04BEF1EF063BFC8
:103C88004AEF1EF048EF1EF04BEF1EF06D8F6AC032
:103C980060F06BC061F06CC062F06DC063F0120040
:103CA800A09A31503210D8B45CEF1EF05EEF1EF0CF
:103CB8006CEF1EF031C0D9FF32C0DAFFDFAE67EF1C
:103CC8001EF069EF1EF06CEF1EF0A08A29EF1FF0BE
:103CD800030E3918D8A473EF1EF075EF1EF077EFB6
:103CE8001EF0000E396E3950D8A47DEF1EF07FEF1C
:103CF8001EF082EF1EF0A08A29EF1FF0020E39187D
:103D0800D8A489EF1EF08BEF1EF09FEF1EF0010E76
:103D18000001606F000E616F000E626F000E636F2E
:103D2800020E9EEC24F060C031F061C032F0030E48
:103D3800396E28EF1FF03904D8A4A5EF1EF0A7EFBD
:103D48001EF028EF1FF0400E0001F765AEEF1EF0E1
:103D5800B0EF1EF0B4EF1EF0400E6C6FB6EF1EF021
:103D6800F7C06CF06C51F75DF76F000E0101386F0A
:103D7800050E396F6CC06BF03850D8A4C6EF1EF032
:103D8800C8EF1EF0F9EF1EF0DCEF1EF03BC1F6FFA6
:103D98003CC1F7FF38C1D9FF39C1DAFF0800F5CFB8
:103DA800DFFF0101384B392B3B4B3C2B00016B07E4
:103DB80000016B51D8A4E3EF1EF0E5EF1EF0CAEF47
:103DC8001EF002EF1FF03BC1F6FF3CC1F7FF38C100
:103DD800D9FF39C1DAFF0800F5CFDFFF0101384B01
:103DE800392B3B4B3C2B00016B0700016B51D8A4CE
:103DF80000EF1FF002EF1FF0E7EF1EF0F751D8A415
:103E080008EF1FF00AEF1FF019EF1FF0400E6C19B2
:103E1800D8A411EF1FF013EF1FF017EF1FF0020ED9
:103E2800396E19EF1FF0030E396E010E606F000E28
:103E3800616F050E626F6CC063F0020E9EEC24F099
:103E480060C031F061C032F0A08A120060C06AF030
:103E580061C06BF0000164516511D8A436EF1FF002
:103E680038EF1FF03AEF1FF0E5EF1FF06AC0D9FFF7
:103E78006BC0DAFF62C0DFFF64516A25666F655167
:103E88006B21676FFF0E6625D96EFF0E6721DA6E0C
:103E980062C0DFFF655107E1030E645DD8B057EFDC
:103EA8001FF059EF1FF05BEF1FF0E5EF1FF020EE5A
:103EB80001F06A51D9266B51DA2262C0DFFF20EE89
:103EC80002F06A51D9266B51DA2262C0DFFF6451D1
:103ED8006A25666F65516B21676FFE0E6625D96E80
:103EE800FF0E6721DA6E62C0DFFF64516A25666FD4
:103EF80065516B21676FFD0E6625D96EFF0E672130
:103F0800DA6E62C0DFFF655107E1070E645DD8B065
:103F180090EF1FF092EF1FF094EF1FF0E5EF1FF006
:103F280020EE03F06A51D9266B51DA2262C0DFFF16
:103F380064516A25666F65516B21676FFC0E6625B3
:103F4800D96EFF0E6721DA6E62C0DFFF655107E1A7
:103F5800090E645DD8B0B3EF1FF0B5EF1FF0B7EFEF
:103F68001FF0E5EF1FF06AC066F06BC067F0661FD0
:103F7800671F664B672B030E6615686F696B685180
:103F88006A2769516B236851645F6951655BFC0E50
:103F98006417FF0E6517DCEF1FF06AC0D9FF6BC00E
:103FA800DAFF62C0DFFF6407D8A065076A4B6B2B96
:103FB80064516511D8A4E3EF1FF0E5EF1FF0D1EFCE
:103FC8001FF0120001C00BF002C00CF005500610E3
:103FD800D8A4F1EF1FF0F3EF1FF0F5EF1FF0A0EFFB
:103FE80020F00BC0D9FF0CC0DAFF03C0DFFF05507B
:103FF8000B24076E06500C20086EFF0E0724D96E9E
:10400800FF0E0820DA6E03C0DFFF065007E1030E3B
:10401800055CD8B012EF20F014EF20F016EF20F076
:10402800A0EF20F020EE01F00B50D9260C50DA2238
:1040380003C0DFFF20EE02F00B50D9260C50DA2225
:1040480003C0DFFF05500B24076E06500C20086ED6
:10405800FE0E0724D96EFF0E0820DA6E03C0DFFFBC
:1040680005500B24076E06500C20086EFD0E072421
:10407800D96EFF0E0820DA6E03C0DFFF065007E195
:10408800070E055CD8B04BEF20F04DEF20F04FEF56
:1040980020F0A0EF20F020EE03F00B50D9260C50B2
:1040A800DA2203C0DFFF05500B24076E06500C20F0
:1040B800086EFC0E0724D96EFF0E0820DA6E03C0C6
:1040C800DFFF065007E1090E055CD8B06EEF20F05F
:1040D80070EF20F072EF20F0A0EF20F00BC007F097
:1040E8000CC008F0071E081E074A082A030E07140A
:1040F800096E0A6A09500B260A500C220950055EFF
:104108000A50065AFC0E0516FF0E061697EF20F009
:104118000BC0D9FF0CC0DAFF03C0DFFF0506D8A02B
:1041280006060B4A0C2A05500610D8A49EEF20F06C
:10413800A0EF20F08CEF20F01200800E040130195F
:10414800D8A4A9EF20F0ABEF20F05AEF21F0C00E71
:104158000001E66F40EF21F0A40E0001E36F100E9E
:10416800E46F000EE86F120EE76F5AEF21F032513C
:10417800D8A4C1EF20F0C3EF20F004EF21F03251B2
:10418800020D190EF324F66E100EF420F76E0900D6
:10419800F5CFE3F00A00F5CFE4F0020E0001E325C5
:1041A800016E000EE421026E01C0F6FF02C0F7FFA7
:1041B800F86A070EF76403D00800F55005D0F6CF6B
:1041C800E1FFF7CFE2FFE7500001E76F030EE325B9
:1041D800016E000EE421026E01C0F6FF02C0F7FF77
:1041E800F86A070EF76403D00800F55005D0F6CF3B
:1041F800E1FFF7CFE2FFE7500001E86F5AEF21F047
:10420800000E0001E66F5AEF21F0030E32610FEF46
:1042180021F011EF21F036EF21F03251020D130E8B
:10422800F324F66E100EF420F76E0900F5CFE3F0D4
:104238000A00F5CFE4F0E3C0F6FFE4C0F7FFF86A40
:10424800070EF76403D00800F55005D0F6CFE1FF5C
:10425800F7CFE2FFE750016E01500001E76FE86B0E
:104268005AEF21F0000E0001E66F5AEF21F0000E20
:104278000001E66F5AEF21F004013351016E026A22
:104288000250000AD8B44BEF21F03BEF21F0015067
:10429800010AD8B4B0EF20F0030AD8B4BBEF20F07D
:1042A800010AD8B409EF21F03BEF21F01200F0EF3A
:1042B80021F0000E4C6E710E606F010E616F010EE1
:1042C800626FC3EC2FF0040EE82EFED7710E0001CA
:1042D800606F010E616F000E626F04EC30F0040E27
:1042E800E82EFED7710E0001606F010E616F000E9F
:1042F800626FC3EC2FF0010E4B6E0AEF22F0010142
:104308007E51D8A48AEF21F08CEF21F00AEF22F039
:10431800710E0001606F010E616F010E626FC3ECD8
:104328002FF0040EE82EFED7710E0001606F010E0B
:10433800616F010E626F04EC30F0040EE82EFED7B8
:10434800710E0001606F010E616F000E626FC3ECA9
:104358002FF0020E4B6E0AEF22F001017E51D8B405
:10436800B8EF21F0BAEF21F00AEF22F0710E000148
:10437800606F010E616F010E626FC3EC2FF0040EC7
:10438800E82EFED7710E0001606F010E616F000EFE
:10439800626F04EC30F0000E0101756F000E766F4D
:1043A800000E776F000E786F000E796F000E7A6F2F
:1043B800000E7B6F000E7C6F000E726F000E716F27
:1043C800010E4C6E000E4B6E0AEF22F0000E4B6E83
:1043D800000E4C6E0AEF22F04B500001656F666BC1
:1043E8006651000AD8B4FBEF21F0EAEF21F06551DD
:1043F800000AD8B45DEF21F0010AD8B483EF21F0A8
:10440800030AD8B4B1EF21F0EAEF21F04C501200C2
:1044180030C1C7F031C1C8F032C1C9F033C1CAF0E8
:10442800B7C0C7F0B8C0C8F0B9C0C9F0BAC0CAF0C0
:104438008A0E0001BB6FFF0EBC6FC7C0BDF0C8C0BD
:10444800BEF0C9C0BFF0CAC0C0F0180E31EF22F0EC
:10445800D890C033BF33BE33BD33E82E2CEF22F0E3
:10446800BD51BB25C56F000EBC21C66FC6BF46EF48
:1044780022F0C65109E1200EC55DD8A046EF22F012
:1044880048EF22F052EF22F0B7C0B7F0B8C0B8F04A
:10449800B9C0B9F0BAC0BAF0B1EF22F0C6BF60EF48
:1044A80022F0C65107E1090EC55DD8B05EEF22F0D3
:1044B80060EF22F064EF22F0000EC66F010EC56FA8
:1044C800FF0EBB6FFF0EBC6FFF0EBD6FFF0EBE6F02
:1044D800C551E82A75EF22F0D890BE33BD33BC33FE
:1044E800BB33E82E70EF22F0BBC0C1F0BCC0C2F0F5
:1044F800BDC0C3F0BEC0C4F0C151C715BB6FC25127
:10450800C815BC6FC351C915BD6FC451CA15BE6F5C
:10451800BB51BC11BD11BE11D8A495EF22F097EF85
:1045280022F099EF22F048EF22F0C11DBB6FC21DA7
:10453800BC6FC31DBD6FC41DBE6FBB51C717BC5137
:10454800C817BD51C917BE51CA17C7C0B7F0C8C0F0
:10455800B8F0C9C0B9F0CAC0BAF01200A09A000EEB
:104568006A6E000E686E000E706E710E0001606F4C
:104578000F0E616F000E636F000E626F000E656FA5
:10458800020E646F2AEC1FF0060E6F6E9F0E6B6EA4
:104598007B0E696E000E00016C6F6C51040D000EED
:1045A800F324D96E040EF420DA6EDE6ADE6ADE6A5F
:1045B800DD6A6C2B0B0E6C65E4EF22F0E6EF22F05F
:1045C800D1EF22F06D8C000E6E6E6D986D9C689622
:1045D800000EE66F000EDE6F000EE06F000EDF6F5C
:1045E80068B6F9EF22F0FBEF22F0EBEF22F0010EB4
:1045F8003E6E010E3D6E000E3C6E000E3B6E000ED0
:10460800436E000E6C6F6C51020DE90EF324D96EE7
:10461800000EF420DA6E000EDE6E000EDD6E6C51B8
:10462800020D2A0EF324D96E010EF420DA6E000E64
:10463800DE6E000EDD6EF20E6C25D96EDA6A000EA3
:10464800DA22000EDF6EEF0E6C25D96EDA6A000EE4
:10465800DA22000EDF6E6C2B020E6C6536EF23F04B
:1046680038EF23F007EF23F0080EE96F040EEA6F26
:10467800160E706E040E0401036F300E026F200ECA
:10468800016F040E006F008F000E526E000E2B6E2D
:10469800000E2C6E000E2D6E000E2E6E000E3A6E61
:1046A800000E476E1200A09A000E6A6E000E686E29
:1046B800000E706E710E016E0F0E026E000E046E0B
:1046C800000E036E000E066E020E056EE6EC1FF07D
:1046D800060E6F6E9F0E6B6E7B0E696E000E0D6E72
:1046E8000D50040D000EF324D96E040EF420DA6E7A
:1046F800DE6ADE6ADE6ADD6A0D2A0B0E0D6487EF5C
:1047080023F089EF23F074EF23F06D8C000E6E6EAA
:104718006D986D9C6896000E0001E66F000EDE6FC6
:10472800000EE06F000EDF6F68B69DEF23F09FEF7D
:1047380023F08EEF23F0010E3E6E010E3D6E000E4B
:104748003C6E000E3B6E000E436E000E0D6E0D505B
:10475800020DE90EF324D96E000EF420DA6E000E75
:10476800DE6E000EDD6E0D50020D2A0EF324D96E9A
:10477800010EF420DA6E000EDE6E000EDD6EF20E13
:104788000D24D96EDA6A000EDA22000EDF6EEF0E03
:104798000D24D96EDA6A000EDA22000EDF6E0D2AB9
:1047A800020E0D64DAEF23F0DCEF23F0ABEF23F019
:1047B800080E0001E96F040EEA6F160E706E040E03
:1047C8000401036F300E026F200E016F040E006F9C
:1047D800008F000E526E000E2B6E000E2C6E000E17
:1047E8002D6E000E2E6E000E3A6E000E476E1200F1
:1047F80020EE01F03550D9263650DA22DF50026E0D
:1048080002500001DF5D000EE059D8B00EEF24F031
:1048180010EF24F012EF24F0DFC002F00250DF5F47
:10482800000EE05B000E016E29EF24F0500E01240B
:10483800D96EDA6A040EDA22DBC0E1FFDCC0E2FFDF
:10484800DFCFE7FFDB4BDC2B012A0250015CD8A04D
:1048580030EF24F032EF24F01AEF24F0DF51E011AA
:10486800D8B439EF24F03BEF24F074EF24F020EEB5
:1048780001F03350D9263450DA22200EDF6E20EEB4
:1048880002F03350D9263450DA22500EDE6E040E70
:10489800DD6E35C0D9FF36C0DAFFDFBC56EF24F035
:1048A80058EF24F066EF24F033C0D9FF34C0DAFFA4
:1048B800480EDF6E33C0D9FF34C0DAFF000EDB8E3E
:1048C8009DEF24F033C0D9FF34C0DAFF080EDF6E45
:1048D80033C0D9FF34C0DAFF000EDB8E9DEF24F021
:1048E80020EE01F03350D9263450DA22200EDF6E44
:1048F80020EE02F03350D9263450DA22300EDE6E24
:10490800040EDD6E33C0D9FF34C0DAFF040EDF6E4B
:1049180033C0D9FF34C0DAFF000EDB8EDE9F3F5074
:10492800D8A499EF24F09BEF24F09DEF24F03DEC00
:104938002BF012000001686F00016051D8B4A7EF96
:1049480024F0A9EF24F0B7EF24F06851020DE90E26
:10495800F324D96E000EF420DA6EDECF69F0DDCFD5
:104968006AF0C3EF24F06851020D2A0EF324D96EC1
:10497800010EF420DA6EDECF69F0DDCF6AF06951FE
:104988006A11D8A4CAEF24F0CCEF24F0D2EF24F0B7
:10499800000E606F000E616F3EEF25F020EE02F012
:1049A8006951D9266A51DA2261C0DEFF62C0DDFF93
:1049B80020EE01F06951D9266A51DA2263C0DFFF7F
:1049C80069C0D9FF6AC0DAFF400EDF1669C0D9FF97
:1049D8006AC0DAFF000EDB8669C0D9FF6AC0DAFF59
:1049E800000EDB8E6051D8B4FCEF24F0FEEF24F00B
:1049F8001DEF25F06851020DE90EF324D96E000E63
:104A0800F420DA6EDECF64F0DDCF65F0040E6419B1
:104A1800666F6551676F6851020DE90EF324D96E10
:104A2800000EF420DA6E66C0DEFF67C0DDFF3AEFE5
:104A380025F06851020D2A0EF324D96E010EF420D8
:104A4800DA6EDECF64F0DDCF65F0040E6419666FB0
:104A58006551676F6851020D2A0EF324D96E010E55
:104A6800F420DA6E66C0DEFF67C0DDFF69C060F063
:104A78006AC061F012006D980001E6BF46EF25F0AC
:104A880048EF25F08DEF25F0DEAF4DEF25F04FEF25
:104A980025F061EF25F0020E456E3B50D8A457EF84
:104AA80025F059EF25F05BEF25F031EC2EF0000EE4
:104AB8003D6E000E3E6EDFEF25F020EE01F0335024
:104AC800D9263450DA22200EDF6E20EE02F0335061
:104AD800D9263450DA22300EDE6E040EDD6E33C075
:104AE800D9FF34C0DAFF0C0EDF6E33C0D9FF34C0F3
:104AF800DAFF000EDB8EE9C0D9FFEAC0DAFF040E48
:104B0800DF6EE9C0D9FFEAC0DAFF000EDB8EDFEF07
:104B180025F0040130AF93EF25F095EF25F0B1EFC4
:104B280025F0010E456E3C50D8A49DEF25F09FEF6F
:104B380025F0A1EF25F031EC2EF0000E3D6E000EB1
:104B48003E6E3F50D8A4ABEF25F0ADEF25F0DFEF78
:104B580025F03DEC2BF0DFEF25F0020E456E20EE40
:104B680001F03350D9263450DA22200EDF6E20EEC1
:104B780002F03350D9263450DA22300EDE6E040E9D
:104B8800DD6E33C0D9FF34C0DAFF040EDF6E33C0E8
:104B9800D9FF34C0DAFF000EDB8E000E3D6E000E2A
:104BA8003E6E3F50D8A4DBEF25F0DDEF25F0DFEFB8
:104BB80025F0ADEF25F01200096E0150D8B4E7EFEB
:104BC80025F0E9EF25F0F7EF25F00950020DE90E81
:104BD800F324D96E000EF420DA6EDECF0AF0DDCFB2
:104BE8000BF003EF26F00950020D2A0EF324D96EBC
:104BF800010EF420DA6EDECF0AF0DDCF0BF00A509A
:104C08000B10D8A40AEF26F00CEF26F012EF26F0CE
:104C1800000E016E000E026E7EEF26F020EE02F00E
:104C28000A50D9260B50DA2202C0DEFF03C0DDFF8E
:104C380020EE01F00A50D9260B50DA2204C0DFFF1B
:104C48000AC0D9FF0BC0DAFF400EDF160AC0D9FF31
:104C58000BC0DAFF000EDB860AC0D9FF0BC0DAFFF3
:104C6800000EDB8E0150D8B43CEF26F03EEF26F064
:104C78005DEF26F00950020DE90EF324D96E000EFF
:104C8800F420DA6EDECF05F0DDCF06F0040E05184D
:104C9800076E0650086E0950020DE90EF324D96E0E
:104CA800000EF420DA6E07C0DEFF08C0DDFF7AEFE1
:104CB80026F00950020D2A0EF324D96E010EF420B5
:104CC800DA6EDECF05F0DDCF06F0040E0518076EAC
:104CD8000650086E0950020D2A0EF324D96E010EF3
:104CE800F420DA6E07C0DEFF08C0DDFF0AC001F05D
:104CF8000BC002F0120004013039E832030B00093E
:104D0800D8B489EF26F08BEF26F0D8EF26F011EF14
:104D180027F00001E68F080E476E11EF27F0A1EC8F
:104D280020F011EF27F0B6EC2BF011EF27F0520E20
:104D38000001E36F000EE46FE681010EE76FE68F76
:104D480011EF27F025EC28F011EF27F062EC19F0AD
:104D580011EF27F04F0E34250001E36FE46B000ECE
:104D6800E423E681010EE76FE68F11EF27F00001DB
:104D7800E68F4F0E04013425D96EDA6A000EDA2266
:104D880032C4DFFF11EF27F0000E0E6E020E0D6E1B
:104D9800000E0F6E000E106E000E126E000E116ED9
:104DA8007FEC2FF011EF27F031511C6E1D6A1D505A
:104DB800000AD8B4E2EF26F011EF27F01C50000AE1
:104DC800D8B4A6EF26F0010AD8B4AAEF26F0020A52
:104DD800D8B4AAEF26F0060AD8B48DEF26F0030A55
:104DE800D8B493EF26F0010AD8B4C8EF26F00F0A1A
:104DF800D8B49BEF26F0010AD8B497EF26F0030A3F
:104E0800D8B4AEEF26F0010AD8B4BBEF26F0070AF3
:104E1800D8B411EF27F011EF27F01200200E016E21
:104E28000001E85107E1200EE75DD8B01EEF27F03A
:104E380020EF27F038EF27F0E7C001F04650D8A45C
:104E480028EF27F02AEF27F02EEF27F0010E466E05
:104E580038EF27F04604D8A434EF27F036EF27F0D0
:104E680038EF27F0020E466E0150E75F000EE85B50
:104E780020EE01F0E951D926EA51DA2201C0DFFF1C
:104E8800500E01013E6F040E3F6F0001E6B14FEF77
:104E980027F051EF27F095EF27F06FEF27F0E3C0E9
:104EA800F6FFE4C0F7FFF86A3EC1D9FF3FC1DAFF59
:104EB800070EF76403D00800F55005D0F6CFE1FFE0
:104EC800F7CFE2FFE750DF6E0001E34BE42B01016F
:104ED8003E4B3F2B01060150D8A475EF27F077EF22
:104EE80027F053EF27F09DEF27F0E3C0F6FFE4C06B
:104EF800F7FFF86A3EC1D9FF3FC1DAFF070EF76432
:104F080003D00800F55005D0F6CFE1FFF7CFE2FF58
:104F1800E750DF6E0001E34BE42B01013E4B3F2BD2
:104F280001060150D8A49BEF27F09DEF27F079EFF9
:104F380027F0120006EF28F00FEC2DF00009D8B486
:104F4800A8EF27F0AAEF27F024EF28F0010E486E0B
:104F580024EF28F0420ED56F010ED66FACEC17F097
:104F6800D5C040F1D6C041F1040E010140194111EC
:104F7800D8A4C1EF27F0C3EF27F0C7EF27F0020E40
:104F8800486E24EF28F040514111D8A4CEEF27F005
:104F9800D0EF27F0D4EF27F0030E486E24EF28F067
:104FA800000E486E24EF28F05BEC21F00009D8B41D
:104FB800E0EF27F0E2EF27F024EF28F0000E486E2C
:104FC800250E0001606F110E616F0E0E626F59ECB5
:104FD80034F024EF28F010EC1BF00009D8B4F7EFF8
:104FE80027F0F9EF27F024EF28F0000E486E130E93
:104FF8000001606F110E616F120E626F59EC34F090
:1050080024EF28F048500001D96FDA6BDA51000A12
:10501800D8B411EF28F0D4EF27F0D951000AD8B44A
:10502800A0EF27F0010AD8B4AEEF27F0030AD8B4EE
:10503800D8EF27F0010AD8B4EFEF27F0D4EF27F024
:105048001200000E0401506F000E516F82EF28F01D
:105058000001E68F4404D8A434EF28F036EF28F096
:105068009CEF28F0040150839CEF28F00001E68FA4
:105078009CEF28F00001E68F040134BF46EF28F0CA
:1050880048EF28F059EF28F034510F0B016E01500A
:10509800020D2A0EF324D96E010EF420DA6EDECF4B
:1050A80003F0DDCF04F068EF28F034510F0B016EE8
:1050B8000150020DE90EF324D96E000EF420DA6EC9
:1050C800DECF03F0DDCF04F003C0D9FF04C0DAFF60
:1050D800DFAE71EF28F073EF28F09CEF28F003C0E3
:1050E800D9FF04C0DAFFDFA47CEF28F07EEF28F0B8
:1050F8009CEF28F0010E506F9CEF28F030511F0BE9
:10510800016E026A0250000AD8B48DEF28F09CEFB5
:1051180028F00150000AD8B42CEF28F0010AD8B4BE
:105128003AEF28F0030AD8B43EEF28F09CEF28F0B5
:105138000001E6AFA2EF28F0A4EF28F0ABEF28F0CB
:10514800500EE36F040EE46FE681020EE76F120063
:10515800040130511F0BE806D8B4B5EF28F0B7EFBB
:1051680028F0B9EF28F031EF29F03039E832030B95
:10517800E806D8B4C2EF28F0C4EF28F0C6EF28F04C
:1051880031EF29F03451D8B4CCEF28F0CEEF28F025
:1051980010EF29F03405D8B4D4EF28F0D6EF28F072
:1051A80010EF29F031EF29F0620E0001E36F010ED4
:1051B800E46F000EE86F080EE76FE681E68F31EFC7
:1051C80029F0620E0001E36F010EE46FE68F31EF04
:1051D80029F036C4DFF037C4E0F06A0E0001DB6F57
:1051E800010EDC6F000EE16F000EE26FDE8F31EF13
:1051F80029F06A0E0001E36F010EE46F000EE86FFC
:10520800070EE76FC10EE66F31EF29F032C437F0B1
:105218000001E68F31EF29F03151016E026A025028
:10522800000AD8B41AEF29F031EF29F00150000A2A
:10523800D8B4D8EF28F0010AD8B4E5EF28F0210A4D
:10524800D8B4EDEF28F0010AD8B4FDEF28F0030A2E
:10525800D8B40AEF29F031EF29F01200E9C0D9FFDC
:10526800EAC0DAFF0001000EDFBC010E026E040E78
:10527800E919E96FEA51EA6F080E4718D8A447EF11
:1052880029F049EF29F05BEF29F0040132517F0B37
:105298006E6E6E50D8B453EF29F055EF29F059EFE0
:1052A80029F0100E476E5BEF29F0040E476E450497
:1052B800D8A461EF29F063EF29F0ABEF29F00001E2
:1052C80020EE02F0E951D926EA51DA22500EDE6EBC
:1052D800040EDD6E12EC27F0020E4618D8A477EF04
:1052E80029F079EF29F087EF29F0E9C0D9FFEAC062
:1052F800DAFF040EDF6EE9C0D9FFEAC0DAFF000E5C
:10530800DB8EB6EF29F00250D8A48DEF29F08FEF8D
:1053180029F09DEF29F0E9C0D9FFEAC0DAFF480E6D
:10532800DF6EE9C0D9FFEAC0DAFF000EDB8EB6EF08
:1053380029F0E9C0D9FFEAC0DAFF080EDF6EE9C03C
:10534800D9FFEAC0DAFF000EDB8EB6EF29F00001C4
:10535800DEAFB1EF29F0B3EF29F0B4EF29F0DE9F0B
:10536800000E456E12000001CD35CE35D46FD451F4
:10537800D8A4C1EF29F0C3EF29F0CDEF29F0000E32
:10538800CB6F000ECC6F000ECD6F000ECE6F3AEFD4
:105398002AF0CBC0CFF0CCC0D0F0CDC0D1F0CEC079
:1053A800D2F0200EDDEF29F0D890D233D133D033AC
:1053B800CF33E82ED8EF29F0CF51D36FCD8FFF0E22
:1053C800CB17FF0ECC17FF0ECD17000ECE17960E7B
:1053D800D45FD4BFF4EF29F0F2EF29F00AEF2AF0F6
:1053E800D451800A970FD8B0FCEF29F0FEEF29F0CE
:1053F80000EF2AF0C3EF29F0D890CE33CD33CC3369
:10540800CB33D43F00EF2AF022EF2AF01F0ED465E9
:1054180010EF2AF012EF2AF01AEF2AF0C3EF29F062
:10542800D890CB37CC37CD37CE37D407D451D8A482
:1054380020EF2AF022EF2AF014EF2AF0D351D8B443
:1054480028EF2AF02AEF2AF032EF2AF0CE1FCD1FDC
:10545800CC1FCB6D000ECC23CD23CE23CBC0CBF0FD
:10546800CCC0CCF0CDC0CDF0CEC0CEF01200000E36
:1054780000016015686F000E6115696F800E621576
:105488006A6F7F0E63156B6F685169116A116B1132
:10549800D8A451EF2AF053EF2AF05BEF2AF0000E60
:1054A800606F000E616F000E626F000E636F000E7A
:1054B8006415686F000E6515696F800E66156A6F52
:1054C8007F0E67156B6F685169116A116B11D8A44B
:1054D80070EF2AF072EF2AF07AEF2AF0000E646F6C
:1054E800000E656F000E666F000E676F63AF7FEF8B
:1054F8002AF081EF2AF08AEF2AF0606D611FD8B098
:10550800612B621FD8B0622B800E635767AF8FEF95
:105518002AF091EF2AF09AEF2AF0646D651FD8B04F
:10552800652B661FD8B0662B800E6757000E601B70
:10553800000E611B000E621B800E631B000E641BB5
:10554800000E651B000E661B800E671B6451605DB4
:10555800655161596651625967516359D8B0B7EFBF
:105568002AF0B9EF2AF0BCEF2AF0D890BDEF2AF064
:10557800D88012008C968C988C9A1AEF2BF020EE1B
:105588000FF06051D9266151DA22000EDE6E000E4E
:10559800DE6EC80EDE6E420EDD6E3CEF2BF020EEA6
:1055A8000FF06051D9266151DA22000EDE6E000E2E
:1055B800DE6E480EDE6E430EDD6E8C863CEF2BF001
:1055C80020EE0FF06051D9266151DA22000EDE6E0E
:1055D800000EDE6EC80EDE6E430EDD6E8C883CEF6C
:1055E8002BF020EE0FF06051D9266151DA22000E1F
:1055F800DE6E000EDE6E480EDE6E440EDD6E8C86AC
:105608008C883CEF2BF020EE0FF06051D9266151C9
:10561800DA22000EDE6E000EDE6EC80EDE6E440E5E
:10562800DD6E8C868C888C8A3CEF2BF000016251F1
:10563800636F646B6451000AD8B425EF2BF03CEF1C
:105648002BF06351000AD8B4C3EF2AF0010AD8B48A
:10565800D3EF2AF0030AD8B4E4EF2AF0010AD8B449
:10566800F5EF2AF0070AD8B407EF2BF03CEF2BF040
:1056780012003E50D8A443EF2BF045EF2BF0B5EFC6
:105688002BF0010E3E6E3D50D8A44DEF2BF04FEF9E
:105698002BF0B5EF2BF0010E3D6E020E4518D8A485
:1056A80058EF2BF05AEF2BF071EF2BF0000120EEA2
:1056B80001F0E951D926EA51DA22000EDF6EE9C07D
:1056C800D9FFEAC0DAFF480EDF6EE9C0D9FFEAC0A9
:1056D800DAFF000EDB8EB5EF2BF04504D8A477EF88
:1056E8002BF079EF2BF0B5EF2BF0000E416E20EE8A
:1056F80001F03550D9263650DA22200EDF6E20EE22
:1057080002F03550D9263650DA22300EDE6E040EFD
:10571800DD6E35C0D9FF36C0DAFF040EDF6E35C046
:10572800D9FF36C0DAFF000EDB8E010E416E20EE87
:1057380001F03350D9263450DA22200EDF6E20EEE5
:1057480002F03350D9263450DA22300EDE6E040EC1
:10575800DD6E33C0D9FF34C0DAFF800EDF6EB5EFDF
:105768002BF012000001E68F710E016E0F0E026E13
:10577800000E046E000E036E000E066E020E056E1D
:10578800E6EC1FF0000E016E040E026E000E046EB1
:10579800000E036E000E066E300E056EE6EC1FF06E
:1057A8006D8C000E156EF20E1524D96EDA6A000E95
:1057B800DA22000EDF6EEF0E1524D96EDA6A000EBB
:1057C800DA22000EDF6E152A020E1564EEEF2BF0BA
:1057D800F0EF2BF0D7EF2BF04F0E016E000E026E9C
:1057E800000E046E000E036E000E066E020E056EAD
:1057F800E6EC1FF06D9C080E0001E96F040EEA6FDD
:10580800000E356E040E366E35C033F036C034F0F7
:1058180032C452F05250D8A414EF2CF016EF2CF0EA
:105828001AEF2CF0100E476E2AEF2CF0000E0E6EB9
:10583800010E0D6E520E0F6E000E106E000E126EDF
:10584800010E116E7FEC2FF0200E476E1200000142
:105858006B516C11D8A433EF2CF035EF2CF048EFD6
:105868002CF02FC06BF030C06CF06B516C11D8A4C9
:1058780040EF2CF042EF2CF048EF2CF0000E6B6F4D
:10588800000E6C6F9CEF2CF06BC064F06CC065F080
:105898006DC066F06EC067F023EC31F00001645112
:1058A8006B2765516C236BC0D9FF6CC0DAFFDF50E2
:1058B800D8A461EF2CF063EF2CF06DEF2CF0000E04
:1058C8002F6E000E306E2FC06BF030C06CF09CEF66
:1058D8002CF06BC064F06CC065F06DC066F06EC0F3
:1058E80067F058EC31F0000164516B252F6E65515B
:1058F8006C21306E2FC0D9FF30C0DAFFDF50D8B42A
:1059080088EF2CF08AEF2CF094EF2CF02FC0D9FF01
:1059180030C0DAFF000EDF6E2F4A302A98EF2CF0E5
:10592800000E2F6E000E306E6BC06BF06CC06CF00A
:1059380012000600E1CF21F0E2CF22F0D9CF23F008
:10594800DACF24F0F3CF25F0F4CF26F0F6CF27F006
:10595800F7CF28F0F8CF29F0F5CF2AF0F2A4B7EF67
:105968002CF0B9EF2CF0F7EF2CF0F29483BCBFEFDA
:105978002CF0C2EF2CF0010EC3EF2CF0000E010149
:105988007E6F81B2CAEF2CF0CDEF2CF0010ECEEF76
:105998002CF0000E7F6F7351D8A4D5EF2CF0D7EF01
:1059A8002CF0F7EF2CF08DA0DCEF2CF0E0EF2CF0D2
:1059B800206A202AE1EF2CF0206A8D502018FE0B77
:1059C80020188D6E010172BFF2EF2CF0725108E1C0
:1059D8007105D8A0F2EF2CF0F4EF2CF0F7EF2CF0D3
:1059E8007107D8A072072BEC34F02AC0F5FF29C044
:1059F800F8FF28C0F7FF27C0F6FF26C0F4FF25C030
:105A0800F3FF24C0DAFF23C0D9FF22C0E2FF21C080
:105A1800E1FF559211005DEF2DF0000E4E6E000E65
:105A2800F96F010E4D6E77EF2DF0420E6B6F010E80
:105A38006C6F200E6D6F79EC2DF00001F96FF95144
:105A4800D8B429EF2DF02BEF2DF077EF2DF0020EC3
:105A58004D6E77EF2DF0410EF925D96EDA6A010EF9
:105A6800DA220A0EDE18D8B43CEF2DF03EEF2DF006
:105A78004DEF2DF0410EF925D96EDA6A010EDA22C2
:105A88000D0EDE18D8A44BEF2DF04DEF2DF053EF8F
:105A98002DF0000E4D6E010E4E6E77EF2DF0000EBC
:105AA8004D6E77EF2DF0000E4D6E000E4E6E77EFB7
:105AB8002DF04D5000016F6F706B7051000AD8B413
:105AC80068EF2DF057EF2DF06F51000AD8B411EFA1
:105AD8002DF0010AD8B419EF2DF0030AD8B42FEF2E
:105AE8002DF057EF2DF04E501200000E0001F86F08
:105AF800F551F611D8B483EF2DF085EF2DF090EF26
:105B08002DF0F5C0D9FFF6C0DAFFDFBE8EEF2DF01D
:105B180090EF2DF0D2EF2DF020EE01F0F551D926BF
:105B2800F651DA226D51DE5CD8B09DEF2DF09FEF73
:105B38002DF0A7EF2DF020EE01F0F551D926F65102
:105B4800DA22DF506D6F000EF86FBAEF2DF0400EBD
:105B5800F825D96EDA6A050EDA22F8516B25E16E5E
:105B6800000E6C21E26EDFCFE7FFF82B6D51F85D78
:105B7800D8A0C1EF2DF0C3EF2DF0ABEF2DF0000E44
:105B8800606F400E616F050E626F400E636F020E0C
:105B98009EEC24F060C0F5F061C0F6F00001F85109
:105BA80012002D0E406E51C01EF0FD0E1E16D8A418
:105BB800E0EF2DF0E2EF2DF024EF2EF051C01EF0B3
:105BC800D8901E323F0E1E161E50040D000EF324F0
:105BD800356E040EF420366E35C033F036C034F01E
:105BE800040E3318336E3450346E35C0D9FF36C0C6
:105BF800DAFFDF30E8320F0B0D0AD8A406EF2EF0DB
:105C080008EF2EF020EF2EF0300E016E040E026E1B
:105C180020EE02F03550D9263650DA22DECF03F0D6
:105C2800DDCF04F0000E066E080E056E73EC32F040
:105C380037EC2FF030EF2EF045EC30F030EF2EF04F
:105C48005150FD0B040AD8A42CEF2EF02EEF2EF0A5
:105C580030EF2EF032EC29F01200000E3C6E000EF0
:105C68003B6E020E4518D8A43CEF2EF03EEF2EF006
:105C78005EEF2EF020EE01F03350D9263450DA22B0
:105C8800200EDF6E20EE02F03350D9263450DA228F
:105C9800500EDE6E040EDD6E33C0D9FF34C0DAFF5D
:105CA800480EDF6E33C0D9FF34C0DAFF000EDB8E3A
:105CB8008AEF2EF00001E7510401365D0001E8513A
:105CC80004013759D8B06BEF2EF06DEF2EF071EF5D
:105CD8002EF036C4E7F037C4E8F012EC27F00001E4
:105CE80020EE02F0E951D926EA51DA22500EDE6E92
:105CF800040EDD6EE9C0D9FFEAC0DAFF480EDF6E98
:105D0800E9C0D9FFEAC0DAFF000EDB8E1200000EF0
:105D180000016015686F000E6115696F800E6215CD
:105D28006A6F7F0E63156B6F685169116A116B1189
:105D3800D8A4A1EF2EF0A3EF2EF0ABEF2EF0000EBB
:105D4800606F000E616F000E626F000E636F000ED1
:105D58006415686F000E6515696F800E66156A6FA9
:105D68007F0E67156B6F685169116A116B11D8A4A2
:105D7800C0EF2EF0C2EF2EF0CAEF2EF0000E646FC7
:105D8800000E656F000E666F000E676F6451601934
:105D98000FE1655161190CE16651621909E167511A
:105DA8006319D8B4DAEF2EF0DCEF2EF0DFEF2EF027
:105DB800D890E0EF2EF0D8801200066E000E076E25
:105DC800040E086E0150026E036AD890023603363C
:105DD8000650046E056AD89004360536D890043605
:105DE80005360250042603500522D890043605369D
:105DF800D89004360536045007260550082207C0F7
:105E0800D9FF08C0DAFFDF9E0150D8A40EEF2FF0AB
:105E180010EF2FF01EEF2FF00650020D2A0EF3247C
:105E2800D96E010EF420DA6E07C0DEFF08C0DDFF70
:105E38002AEF2FF00650020DE90EF324D96E000E5A
:105E4800F420DA6E07C0DEFF08C0DDFF07C0D9FF07
:105E580008C0DAFFDF9C20EE04F00750D92608506E
:105E6800DA22DF8C1200000E466E000E3F6E000E26
:105E78003C6E000E3B6E000E416E000E456EE9C092
:105E8800D9FFEAC0DAFF7F0EDF16040E0001E91918
:105E9800E96FEA51EA6FE9C0D9FFEAC0DAFF7F0E7D
:105EA800DF16040EE919E96FEA51EA6F33C0D9FF2A
:105EB80034C0DAFF7F0EDF16000EE66F000EE86FC3
:105EC800000EE76F000EDE6F000EE06F000EDF6F52
:105ED8007FEC26F0000E0E6E030E0D6E000E0F6E98
:105EE800000E106E000E126E000E116E7FEC2FF079
:105EF8003FEC25F0120089EF2FF08DEC31F0C2EF66
:105F08002FF0ACEC28F0C2EF2FF00DC013F00EC04C
:105F180014F01450000AD8B498EF2FF07F0AD8B4C0
:105F2800BBEF2FF0C2EF2FF01350010AD8B481EF66
:105F38002FF0030AD8B4C2EF2FF0010AD8B485EFC6
:105F48002FF0060AD8B4C2EF2FF0770AD8B4C2EF00
:105F58002FF0010AD8B4C2EF2FF0070AD8B4C2EF65
:105F68002FF0010AD8B4C2EF2FF0C2EF2FF0135070
:105F7800FF0AD8B4C2EF2FF0C2EF2FF01200DAEF09
:105F88002FF062B102D08C9001D08C80FAEF2FF004
:105F980062B102D08C9201D08C82FAEF2FF062B1FC
:105FA80002D08C9401D08C84FAEF2FF0000120EEFF
:105FB8000CF06051D9266151DA22DF50636F646BAF
:105FC8006451000AD8B4EBEF2FF0FAEF2FF06351C9
:105FD800000AD8B4C5EF2FF0010AD8B4CCEF2FF0DF
:105FE800030AD8B4D3EF2FF0FAEF2FF0000120EE18
:105FF80002F06051D9266151DA2262C0DFFF120037
:106008001BEF30F062B102D08B9001D08B803BEF58
:1060180030F062B102D08B9201D08B823BEF30F02E
:1060280062B102D0899001D089803BEF30F0000145
:1060380020EE0CF06051D9266151DA22DF50636FEF
:10604800646B6451000AD8B42CEF30F03BEF30F0A9
:106058006351000AD8B406EF30F0010AD8B40DEF46
:1060680030F0030AD8B414EF30F03BEF30F0000101
:1060780020EE03F06051D9266151DA2262C0DFFFB9
:106088001200020E4518D8A44CEF30F04EEF30F055
:1060980052EF30F0FCEC23F07EEF30F0000E456E4E
:1060A8004150D8A45AEF30F05CEF30F07CEF30F07C
:1060B80020EE01F03350D9263450DA22200EDF6E5C
:1060C80020EE02F03350D9263450DA22300EDE6E3C
:1060D800040EDD6E33C0D9FF34C0DAFF0C0EDF6E5C
:1060E80033C0D9FF34C0DAFF000EDB8E7EEF30F00C
:1060F800000E416E1200010E0001666FD00E626F35
:10610800FF0E636F60C064F061C065F06251642780
:1061180063516523655109E10A0E645DD8A097EFC4
:1061280030F099EF30F0B4EF30F09F0E626FFF0E51
:10613800636F200E6011646F000E6111656F62510C
:10614800642763516523655109E1060E645DD8A093
:10615800B0EF30F0B2EF30F0B4EF30F0000E666F11
:1061680066C060F0616B1200000E0001686F000EDF
:10617800696F000E6A6F000E6B6F60A1C6EF30F09A
:10618800C8EF30F0D0EF30F06451682765516923CB
:1061980066516A2367516B23D89064376537663731
:1061A8006737D8906333623361336033605161116C
:1061B80062116311D8A4E3EF30F0E5EF30F0C1EFDE
:1061C80030F068C060F069C061F06AC062F06BC00E
:1061D80063F01200480EF66E690EF76E000EF86E48
:1061E80001EE71F010EE13F00900F5CFEEFFE55067
:1061F800E150FAE17E0EF66E690EF76E000EF86E4B
:106208000900F5CF53F00900F5CF54F001EE00F086
:10621800710EEE6AE806FDE100EEDBF01F0EEE6A95
:10622800E806FDE100EE2BF0280EEE6AE806FDE137
:1062380055905592000EF86E0001F7EF33F0000EFE
:1062480000016A6F000E696F2EEF31F0644B652B09
:10625800694B6A2B64C0D9FF65C0DAFFDF50D8B438
:1062680038EF31F03AEF31F053EF31F066C060F0BB
:1062780067C061F064C0D9FF65C0DAFFDF50686F9E
:106288006851626F636B1FEC32F00001605161115D
:10629800D8A451EF31F053EF31F02AEF31F069C053
:1062A80064F06AC065F01200000E00016A6F000E0B
:1062B800696F63EF31F0644B652B694B6A2B64C0DF
:1062C800D9FF65C0DAFFDF50D8B46DEF31F06FEF5A
:1062D80031F088EF31F066C060F067C061F064C0EB
:1062E800D9FF65C0DAFFDF50686F6851626F636B72
:1062F8001FEC32F0000160516111D8B486EF31F023
:1063080088EF31F05FEF31F069C064F06AC065F082
:106318001200000E01016A6F4B0E6B6F000E6C6F5E
:10632800000E6D6F000E6E6F000E6F6F080E706FAF
:10633800000E0001F86F1A0E096E010E9BEC32F088
:106348001E0E096E020E9BEC32F0000E016E400E1E
:10635800026E050E036E400E046E020EE0EC25F090
:1063680001C0F5F002C0F6F0000E316E000E326E7C
:10637800000E396E12009F0E0001686FFF0E696FE4
:1063880066C06AF067C06BF068516A2769516B2371
:106398006B510AE11A0E6A5DD8A0D5EF31F0D8EF3B
:1063A80031F0010ED9EF31F0000E6C6F6D6B6C514E
:1063B8006D11D8B4E2EF31F0E4EF31F0EAEF31F0EB
:1063C8005F0E6615666F676BEEEF31F066C066F0BC
:1063D80067C067F0120070A0F4EF31F0F6EF31F00B
:1063E8001DEF32F035C0D9FF36C0DAFF800EDE1857
:1063F800D8A401EF32F003EF32F01CEF32F0E9C01D
:10640800D9FFEAC0DAFF840EDE18D8A40EEF32F006
:1064180010EF32F01CEF32F035C0D9FF36C0DAFF8A
:106428000C0EDF6E35C0D9FF36C0DAFF000EDB8EEA
:106438007090689A120060C0F6FF61C0F7FF08000C
:10644800F55000016219D8A42CEF32F02EEF32F08B
:1064580034EF32F060C060F061C061F048EF32F0B4
:1064680060C0F6FF61C0F7FF604B612B0800F55074
:106478000009D8A442EF32F044EF32F01FEF32F0B7
:10648800000E606F000E616F1200010E0001666F52
:10649800200E60196111D8B454EF32F056EF32F083
:1064A8006FEF32F0F70E626FFF0E636F60C064F03B
:1064B80061C065F06251642763516523655109E144
:1064C800050E645DD8A06BEF32F06DEF32F06FEF20
:1064D80032F0000E666F66C060F0616B120003C098
:1064E80009F004C00AF001C007F002C008F08DEFFF
:1064F80032F009C0D9FF0AC0DAFFDF500B6E094A33
:106508000A2A07C0D9FF08C0DAFF0BC0DFFF074A15
:10651800082A0506D8A00606052806E10628D8A4F4
:1065280098EF32F09AEF32F07DEF32F012000C6EF5
:1065380009A4A1EF32F0A3EF32F0A8EF32F0000E79
:10654800016E0C50E1EC2EF009A2ADEF32F0AFEF86
:1065580032F0B4EF32F0010E016E0C50E1EC2EF087
:10656800700E0C240A6E0B6A0F0E0B220AC0D9FF9C
:106578000BC0DAFF09C0DFFF1200000E0001741B18
:10658800000E751B000E761B800E771B70C060F026
:1065980071C061F072C062F073C063F074C064F0DF
:1065A80075C065F076C066F077C067F067EC11F0EB
:1065B80060C070F061C071F062C072F063C073F0C7
:1065C8001200000120EE03F06351D9266451DA224B
:1065D800DF50D8A4F2EF32F0F4EF32F0FEEF32F0F1
:1065E800E80E606F100E616F160E626F59EC34F092
:1065F80006EF33F0BA0E606F100E616F180E626FFF
:1066080059EC34F012004750D8A40DEF33F00FEFD7
:1066180033F027EF33F0000E6D6E000E696E060E34
:106628006F6E9F0E6B6E7B0E696EA28AA08A1EEF3C
:1066380033F06D866DA623EF33F025EF33F01DEFB1
:1066480033F0010E476E120095968C9695988C98AB
:10665800959A8C9A95908C9095928C9295948C940E
:1066680094908B9094928B929290899096908D9022
:1066780096928D9296948D9494948B94958C938203
:10668800938493809388938A1200000E436E000EC1
:106698000E6E740E0D6E000E0F6E000E106E000E54
:1066A800126E000E116E7FEC2FF06D9269945EEF02
:1066B80033F0689468B463EF33F065EF33F05DEF5F
:1066C80033F0000E3A6E12009F0E0001626FFF0E4B
:1066D800636F60C064F061C065F062516427635104
:1066E800652365510AE11A0E645DD8A07EEF33F088
:1066F80081EF33F0010E82EF33F0000E606F616BB3
:106708001200D00E0001626FFF0E636F60C064F06C
:1067180061C065F0625164276351652365510AE1E0
:106728000A0E645DD8A09BEF33F09EEF33F0010EA4
:106738009FEF33F0000E606F616B12000001605133
:10674800611162116311D8B4ACEF33F0AEEF33F0DE
:10675800B6EF33F0000E601B000E611B000E621BCB
:10676800800E631B60C060F061C061F062C062F0BF
:1067780063C063F012001F0E4764C5EF33F0C7EF24
:1067880033F0D4EF33F06DB2CCEF33F0CEEF33F01B
:10679800D4EF33F0000E0001616F6069D9EF33F078
:1067A800000E0001616F000E606F60511200710EE3
:1067B8000001606F010E616F010E626F04EC30F032
:1067C800710E0001606F010E616F000E626FBEEC0A
:1067D8002AF0710E0001606F010E616F010E626F89
:1067E800C3EC2FF0120028EC33F0DBEC33F0AEEC06
:1067F80034F094EC34F0FE0EBAEC34F0BFEC33F025
:106808000009D8B40AEF34F00CEF34F002EF34F09A
:10681800B5EC34F002EF34F007EF08F0010E2B2648
:10682800000E2C222D222E224350D8A41EEF34F025
:1068380020EF34F02AEF34F03A2A3A50D8A427EF60
:1068480034F029EF34F02AEF34F03A681200F2AC51
:1068580030EF34F032EF34F042EF34F0A0AA37EFE3
:1068680034F039EF34F042EF34F0A1AA3EEF34F0BF
:1068780040EF34F042EF34F064EC1CF0120069840D
:1068880068986D82010E436E000E3A6E000E0E6E11
:10689800750E0D6E000E0F6E000E106E000E126E4D
:1068A800000E116E7FEC2FF01200A09A3950D8A478
:1068B80060EF34F062EF34F06CEF34F060C03BF11D
:1068C80061C03CF162C0F7F0010E386E010E396EFE
:1068D800A08A1200000160516203F3CF64F0F4CF84
:1068E80065F060516303F350652761516203F3500B
:1068F800652764C060F065C061F01200FF0E0001FA
:10690800646FFF0E656FFF0E666F7F0E676F64C062
:1069180060F065C061F066C062F067C063F01200A5
:10692800D09EF29EF28CF28AF294D59ED58CD59A9E
:10693800D596070ED512D00ED66ED58EF28E1200D1
:10694800000001000000000000000000000000003E
:0369580000C84232
:10695C00F28EF28CB2EC22F007EC33F012009EECCB
:10696C0027F054EC1EF012000001606F60C0D6FFDF
:04697C001200D0D065
:020000040020DA
:08000000FFFFFFFFFFFFFFFF00
:020000040030CA
:0E000000230E391EFF8381FF0FC00FE00F405B
:00000001FF
