:0410000007EF08F0FE
:10100800548294ED2BF030EF2DF000B6105E108472
:10101800101B1009024300020100C032090400003D
:101028000102020100052400100104240202052423
:101038000600010524010001070581030A000209D1
:10104800040100020A000000070502024000000730
:10105800058202400000260341004C004C00490074
:101068004F004E00450020004A004F00410051004B
:10107800550049004E000000000000002003540005
:1010880065007300740020005500530042002000E2
:1010980044006500760069006300650012010002E3
:1010A80002000020D8040A00000101020001040324
:1010B80009044D5320636F6E6669673A2053495897
:1010C800544845454E54482053544550004D5320EC
:1010D800636F6E6669673A2045494748544820530C
:1010E800544550004D5320636F6E6669673A20512E
:1010F8005541544552205354455000556E737570F0
:10110800706F7274656420436F6D6D616E642E0A32
:10111800004D5320636F6E6669673A2048414C461C
:101128002053544550004D5320636F6E6669673AEB
:101138002046554C4C2053544550004739302D63B8
:101148006F6D6D616E6420617272697665210A0047
:101158004732312D636F6D6D616E64206172726903
:101168007665210A004739312D636F6D6D616E64B4
:1011780020617272697665210A004739322D636FE2
:101188006D6D616E6420617272697665210A004D29
:1011980038342D636F6D6D616E642061727269768B
:1011A80065210A004732382D636F6D6D616E6420CA
:1011B800617272697665210A0047302D636F6D6D23
:1011C800616E6420617272697665210A004D302D66
:1011D800636F6D6D616E6420617272697665210A54
:1011E8000047312D636F6D6D616E642061727269A5
:1011F8007665210A004D312D636F6D6D616E642037
:10120800617272697665210A004D322D636F6D6DCA
:10121800616E6420617272697665210A0047342D17
:10122800636F6D6D616E6420617272697665210A03
:1012380000494E46494E49545900696E66696E69BF
:101248007479004572726F720A004E414E00696EE1
:0912580066006E616E00200000CA
:1012620000017B517C11D8B439EF09F03BEF09F052
:1012720047EF09F07BC0D9FF7CC0DAFF79C0DEFFFF
:101282007AC0DDFF47EF09F0794B7A2B010E936F9D
:1012920079C0D9FF7AC0DAFF200EDE18D8B454EF35
:1012A20009F057EF09F0010E58EF09F0000E986FA0
:1012B200996B98519911D8A461EF09F063EF09F085
:1012C20085EF09F0F70E7D6FFF0E7E6F79C0D9FFB3
:1012D2007AC0DAFFDF507F6F7F51986F996B98C0A9
:1012E20080F099C081F07D5180277E518123815108
:1012F20009E1050E805DD8A081EF09F083EF09F0C6
:1013020085EF09F0000E936F93C083F0846B8351D5
:101312008411D8A48FEF09F091EF09F045EF09F09D
:10132200000E956F2D0E98199911D8A49BEF09F014
:101332009DEF09F0A3EF09F0010E956F794B7A2B1F
:10134200AFEF09F02B0E98199911D8A4ABEF09F061
:10135200ADEF09F0AFEF09F09FEF09F0000E9E6FBD
:10136200B4EF09F09E2B9E517925D96E000E7A2199
:10137200DA6EDF50D8B4C0EF09F0C2EF09F0F2EF35
:1013820009F09E517925D96E000E7A21DA6EDF506E
:101392007D6F420E9E25F66EF76A120EF722080046
:1013A200F5507D19D8B4D8EF09F0DAEF09F0B3EFB0
:1013B20009F09E517925D96E000E7A21DA6EDF503E
:1013C2007D6F390E9E25F66EF76A120EF72208001F
:1013D200F5507D19D8B4F0EF09F0F2EF09F0B3EF50
:1013E20009F0020E9E65F8EF09F0FAEF09F026EF18
:1013F2000AF0000E9A6F000E9B6F800E9C6F7F0E9C
:101402009D6F7B517C11D8B409EF0AF00BEF0AF003
:10141200CCEF11F0080E9E19D8B412EF0AF014EFB7
:101422000AF016EF0AF0030E9E6F9E5179257D6F2A
:10143200000E7A217E6F7BC0D9FF7CC0DAFF7DC0AF
:10144200DEFF7EC0DDFFCCEF11F0000E9E6F2BEFB2
:101452000AF09E2B9E517925D96E000E7A21DA6E02
:10146200DF50D8B437EF0AF039EF0AF069EF0AF02B
:101472009E517925D96E000E7A21DA6EDF507D6F8A
:101482005A0E9E25F66EF76A120EF7220800F550E4
:101492007D19D8B44FEF0AF051EF0AF02AEF0AF0A3
:1014A2009E517925D96E000E7A21DA6EDF507D6F5A
:1014B200520E9E25F66EF76A120EF7220800F550BC
:1014C2007D19D8B467EF0AF069EF0AF02AEF0AF043
:1014D200030E9E19D8A470EF0AF072EF0AF0E1EF42
:1014E2000AF0570E606F110E616FCCEC2DF060C0E8
:1014F2009AF061C09BF062C09CF063C09DF0000155
:101502007B517C11D8B488EF0AF08AEF0AF0CCEF55
:1015120011F09E517927000E7A2379C0D9FF7AC043
:10152200DAFF280EDE18D8A499EF0AF09BEF0AF032
:10153200D7EF0AF0000E9E6FA0EF0AF09E2B9E518D
:101542007925D96E000E7A21DA6EDF50D8B4ACEF6D
:101552000AF0AEEF0AF0BDEF0AF09E517925D96E7E
:10156200000E7A21DA6E290EDE18D8A4BBEF0AF03B
:10157200BDEF0AF09FEF0AF09E517925D96E000E59
:101582007A21DA6E290EDE18D8A4CAEF0AF0CCEF5F
:101592000AF0D7EF0AF09E517D6F7E6B010E7D2718
:1015A200000E7E237D5179277E517A237BC0D9FF9D
:1015B2007CC0DAFF79C0DEFF7AC0DDFFCCEF11F02C
:1015C200000E996F000E986F000E9A6F000E9B6FBF
:1015D200000E9C6F000E9D6F000E976F000E966FAF
:1015E200000E9E6FF6EF0AF09E2B9E517925D96E62
:1015F200000E7A21DA6E300EDE18D8B403EF0BF04B
:1016020005EF0BF0F5EF0AF09E51D8B40BEF0BF09B
:101612000DEF0BF0A9EF0EF09E517925D96E000E59
:101622007A21DA6E780EDE18D8B41AEF0BF01CEFBE
:101632000BF02BEF0BF09E517925D96E000E7A211B
:10164200DA6E580EDE18D8A429EF0BF02BEF0BF050
:10165200A9EF0EF09E517D6F7E6B010E7D27000E6D
:101662007E237D5179277E517A23000E9E6F3BEFB8
:101672000BF09E2B9E517925D96E000E7A21DA6EDF
:10168200300EDE18D8B448EF0BF04AEF0BF03AEF09
:101692000BF0000E9E6F9E517925D96E000E7A21B5
:1016A200DA6E700EDE18D8B459EF0BF05BEF0BF068
:1016B200EBEF0CF09E517925D96E000E7A21DA6E8D
:1016C200500EDE18D8A468EF0BF06AEF0BF06CEF47
:1016D2000BF0EBEF0CF09E517925D96E000E7A21BA
:1016E200DA6E2E0EDE18D8A479EF0BF07BEF0BF03A
:1016F2007FEF0BF095899E2BEBEF0CF09E51792535
:10170200D96E000E7A21DA6EDF507D6F7D51606FE7
:10171200616B29EC2AF0000160516111D8B494EF99
:101722000BF096EF0BF012EF0CF0000E946FD00E50
:101732007D6FFF0E7E6F9E517925D96E000E7A2144
:10174200DA6EDF507F6F806B7D517F277E51802361
:1017520080510AE10A0E7F5DD8A0B2EF0BF0B5EF1F
:101762000BF0010EB6EF0BF0000E856F866B855104
:101772008611D8B4BFEF0BF0C1EF0BF0CCEF0BF03A
:101782009E517925D96E000E7A21DA6EDF50D00F84
:10179200946FDDEF0BF09E517925D96E000E7A2100
:1017A200DA6EDF507D6F7D51666F676B34EC2BF024
:1017B20000016651C90F946F99BFEBEF0BF099517D
:1017C20007E1080E985DD8B0E9EF0BF0EBEF0BF0F4
:1017D2000AEF0CF0985107087D6FD8907D37D890AA
:1017E2007D3794C07EF07F6B806B816B7D2BFFEF2A
:1017F2000BF0D8907E377F37803781377D2FFAEF15
:101802000BF07E519A137F519B1380519C1381518F
:101812009D13984B992B040E9627000E97231CEFCD
:101822000CF0000E796F000E7A6F000E7B6F000EC7
:101832007C6FEDEF11F09E2B4CEF0BF09E51792552
:10184200D96E000E7A21DA6E700EDE18D8B42CEF43
:101852000CF02EEF0CF0F2EF0CF09E517925D96EC0
:10186200000E7A21DA6E500EDE18D8A43BEF0CF08F
:101872003DEF0CF03FEF0CF0F2EF0CF09E517925AA
:10188200D96E000E7A21DA6E300EDE18D8A44CEF33
:101892000CF04EEF0CF05DEF0CF098519911D8A4BA
:1018A20055EF0CF057EF0CF05DEF0CF0FC0E9627A5
:1018B200FF0E9723EAEF0CF09E517925D96E000EA8
:1018C2007A21DA6EDF507D6F7D51606F616B29EC9A
:1018D2002AF0000160516111D8B472EF0CF074EF7C
:1018E2000CF0EAEF0CF0000E946FD00E7D6FFF0E3D
:1018F2007E6F9E517925D96E000E7A21DA6EDF5005
:101902007F6F806B7D517F277E51802380510AE15A
:101912000A0E7F5DD8A090EF0CF093EF0CF0010E51
:1019220094EF0CF0000E876F886B87518811D8B442
:101932009DEF0CF09FEF0CF0AAEF0CF09E51792571
:10194200D96E000E7A21DA6EDF50D00F946FBBEFA2
:101952000CF09E517925D96E000E7A21DA6EDF5095
:101962007D6F7D51666F676B34EC2BF00001665121
:10197200C90F946F99BFC9EF0CF0995107E1080E96
:10198200985DD8B0C7EF0CF0C9EF0CF0E8EF0CF09F
:10199200985107087D6FD8907D37D8907D3794C0D5
:1019A2007EF07F6B806B816B7D2BDDEF0CF0D8902E
:1019B2007E377F37803781377D2FD8EF0CF07E510D
:1019C2009A137F519B1380519C1381519D13984B05
:1019D200992B9E2B95B9F0EF0CF0F2EF0CF01FEF64
:1019E2000CF09E517925D96E000E7A21DA6E700EB6
:1019F200DE18D8B4FFEF0CF001EF0DF01AEF0DF086
:101A02009E517925D96E000E7A21DA6E500EDE18BB
:101A1200D8B40EEF0DF010EF0DF01AEF0DF0000E2E
:101A2200796F000E7A6F000E7B6F000E7C6FEDEF08
:101A320011F09E2B9E517925D96E000E7A21DA6E15
:101A42002B0EDE18D8A428EF0DF02AEF0DF02DEFA3
:101A52000DF09E2B3EEF0DF09E517925D96E000EB2
:101A62007A21DA6E2D0EDE18D8A43AEF0DF03CEF93
:101A72000DF03EEF0DF095879E2B9E517927000EBB
:101A82007A23000E9E6F47EF0DF09E2B9E51792513
:101A9200D96E000E7A21DA6E300EDE18D8B454EF09
:101AA2000DF056EF0DF046EF0DF0000E996F000E9F
:101AB200986F89EF0DF09E51D8B462EF0DF064EF8C
:101AC2000DF072EF0DF098C060F099C061F0000E59
:101AD200636F0A0E626FB8EC2DF060C098F061C0BF
:101AE20099F0D00E00017D6FFF0E7E6F9E51792519
:101AF200D96E000E7A21DA6EDF507F6F806B7D51D6
:101B02007F277E5180237F519827805199239E2BD6
:101B1200D00E7D6FFF0E7E6F9E517925D96E000E1D
:101B22007A21DA6EDF507F6F806B7D517F277E5185
:101B3200802380510AE10A0E7F5DD8A0A3EF0DF049
:101B4200A6EF0DF0010EA7EF0DF0000E896F8A6B64
:101B520089518A11D8A4B0EF0DF0B2EF0DF05CEF0D
:101B62000DF09E51D8A4B8EF0DF0BAEF0DF0C4EF0E
:101B72000DF0000E796F000E7A6F000E7B6F000E73
:101B82007C6FEDEF11F095A7C9EF0DF0CBEF0DF0E3
:101B9200CFEF0DF0986D991FD8B0992B98519627D9
:101BA200995197237B517C11D8B4DAEF0DF0DCEF19
:101BB2000DF0EAEF0DF09E5179257D6F000E7A212E
:101BC2007E6F7BC0D9FF7CC0DAFF7DC0DEFF7EC0A6
:101BD200DDFF9A519B119C119D11D8A4F3EF0DF0DA
:101BE200F5EF0DF0FFEF0DF0000E796F000E7A6F3A
:101BF200000E7B6F000E7C6FEDEF11F0FF0E9A1559
:101C02007D6F000E9B157E6F000E9C157F6F000E80
:101C12009D15806F80517F117E1109E1810E7D5DDE
:101C2200D8A016EF0EF018EF0EF02AEF0EF0000E0D
:101C32009A27010E9B23000E9C23000E9D232AEF60
:101C42000EF0D8909A379B379C379D379607D8A0CD
:101C520097079DAF2FEF0EF031EF0EF022EF0EF04F
:101C620097AF3DEF0EF0830E965DFF0E9759D8B0F9
:101C72003DEF0EF03FEF0EF04BEF0EF0FF0E976FC1
:101C8200810E966F000E9A6F000E9B6F000E9C6F76
:101C9200000E9D6F810E961908E19729D8B454EF72
:101CA2000EF056EF0EF05EEF0EF0D8909A379B379B
:101CB2009C379D379607D8A0970797BF6AEF0EF01B
:101CC200975109E1800E965DD8A06AEF0EF06CEF95
:101CD2000EF078EF0EF0000E9A6F000E9B6F000E62
:101CE2009C6F000E9D6F000E976F800E966F090E0F
:101CF2007D6FD8909D339C339B339A337D2F7AEF3F
:101D02000EF0FF0E9A17FF0E9B177F0E9C17000E08
:101D12009D177F0E96257D6F000E97217E6FFF0E19
:101D22007D157F6F806B816B826B170ED8907F372A
:101D3200803781378237E82E97EF0EF07F519A1362
:101D420080519B1381519C1382519D13CCEF11F052
:101D520095B9AEEF0EF0B0EF0EF0C2EF0EF079C013
:101D6200D9FF7AC0DAFF2E0EDE18D8A4BBEF0EF030
:101D7200BDEF0EF0C2EF0EF09589794B7A2BA9EFE9
:101D82000EF0D00E7D6FFF0E7E6F79C0D9FF7AC044
:101D9200DAFFDF507F6F806B7D517F277E5180237A
:101DA20080510AE10A0E7F5DD8A0DAEF0EF0DDEF76
:101DB2000EF0010EDEEF0EF0000E8B6F8C6B8B516E
:101DC2008C11D8A4E7EF0EF0E9EF0EF0EBEF0EF076
:101DD2003AEF0FF09583090E98199911D8B4F4EFE0
:101DE2000EF0F6EF0EF02DEF0FF095A9FBEF0EF0CF
:101DF200FDEF0EF000EF0FF09607D8A09707984B73
:101E0200992B9AC060F09BC061F09CC062F09DC0AB
:101E120063F00A0E646F000E656F000E666F000EAF
:101E2200676F62EC2AF060C09AF061C09BF062C0FA
:101E32009CF063C09DF079C0D9FF7AC0DAFFDF5011
:101E420000017D6FD00E7D277D519A27000E9B23C6
:101E52009C239D2336EF0FF095B932EF0FF034EF4C
:101E62000FF036EF0FF0964B972B794B7A2BA9EFA9
:101E72000EF0000E996F000E986F79C0D9FF7AC0EC
:101E8200DAFF650EDE18D8B449EF0FF04BEF0FF012
:101E920058EF0FF079C0D9FF7AC0DAFF450EDE188D
:101EA200D8A456EF0FF058EF0FF049EF10F0794B2E
:101EB2007A2B79C0D9FF7AC0DAFF2D0EDE18D8A4AA
:101EC20065EF0FF067EF0FF06CEF0FF09587794B2E
:101ED2007A2B7BEF0FF079C0D9FF7AC0DAFF2B0E95
:101EE200DE18D8A477EF0FF079EF0FF07BEF0FF049
:101EF200794B7A2B79C0D9FF7AC0DAFF300EDE181F
:101F0200D8B486EF0FF088EF0FF079EF0FF0D00E14
:101F12007D6FFF0E7E6F79C0D9FF7AC0DAFFDF5086
:101F22007F6F806B7D517F277E51802380510AE134
:101F32000A0E7F5DD8A0A0EF0FF0A3EF0FF0010E05
:101F4200A4EF0FF0000E8D6F8E6B8D518E11D8B4F1
:101F5200ADEF0FF0AFEF0FF03EEF10F079C0D9FF09
:101F62007AC0DAFFDF507D6FD00E7D277D51986FEA
:101F7200996B794B7A2BD00E7D6FFF0E7E6F79C0F5
:101F8200D9FF7AC0DAFFDF507F6F806B7D517F27E8
:101F92007E51802380510AE10A0E7F5DD8A0D4EFE2
:101FA2000FF0D7EF0FF0010ED8EF0FF0000E8F6F8A
:101FB200906B8F519011D8B4E1EF0FF0E3EF0FF077
:101FC2003EEF10F079C0D9FF7AC0DAFFDF507D6FA3
:101FD200D00E7D2798C060F099C061F0000E636F4B
:101FE2000A0E626FB8EC2DF000017D516025986FEA
:101FF200000E6121996F794B7A2BD00E7D6FFF0E07
:102002007E6F79C0D9FF7AC0DAFFDF507F6F806BB5
:102012007D517F277E51802380510AE10A0E7F5D28
:10202200D8A016EF10F019EF10F0010E1AEF10F011
:10203200000E916F926B91519211D8B423EF10F070
:1020420025EF10F03EEF10F079C0D9FF7AC0DAFF29
:10205200DF507D6FD00E7D2798C060F099C061F08F
:10206200000E636F0A0E626FB8EC2DF000017D5115
:102072006025986F000E6121996F95A743EF10F0CC
:1020820045EF10F049EF10F0986D991FD8B0992BD9
:1020920098519627995197237B517C11D8B454EFCC
:1020A20010F056EF10F065EF10F095A35BEF10F013
:1020B2005DEF10F065EF10F07BC0D9FF7CC0DAFF56
:1020C20079C0DEFF7AC0DDFF9AC060F09BC061F08C
:1020D2009CC062F09DC063F0000E2DEC1AF060C04F
:1020E2009AF061C09BF062C09CF063C09DF09AC000
:1020F20060F09BC061F09CC062F09DC063F0000E76
:102102000001646F000E656F000E666F000E676F50
:1021120026EC28F00001D8A091EF10F093EF10F018
:102122009DEF10F0000E796F000E7A6F000E7B6F3C
:10213200000E7C6FEDEF11F097BFA4EF10F0A2EF4D
:1021420010F035EF11F0966D971FD8B0972BC9EFAD
:1021520010F09AC060F09BC061F09CC062F09DC01C
:1021620063F0F90E646F020E656F150E666F500E06
:10217200676F04EC14F060C09AF061C09BF062C01B
:102182009CF063C09DF00001F60E9627FF0E972388
:1021920097BFD7EF10F0975107E10A0E965DD8B0BE
:1021A200D5EF10F0D7EF10F0AAEF10F0F7EF10F024
:1021B2009AC060F09BC061F09CC062F09DC063F069
:1021C200000E646F000E656F200E666F410E676F22
:1021D20004EC14F060C09AF061C09BF062C09CF005
:1021E20063C09DF000019607D8A0970796519711FA
:1021F200D8A4FEEF10F000EF11F0D9EF10F09AC062
:1022020060F09BC061F09CC062F09DC063F0000E64
:10221200646F000E656F800E666F000E676F0AECCA
:1022220024F00001D8B018EF11F01AEF11F0CCEF42
:1022320011F095A11FEF11F021EF11F02BEF11F02A
:10224200000E796F000E7A6F800E7B6F800E7C6FAE
:10225200EDEF11F0000E796F000E7A6F800E7B6F3A
:10226200000E7C6FEDEF11F097BF40EF11F0975128
:1022720008E19605D8A040EF11F042EF11F0CCEF43
:1022820011F063EF11F09AC060F09BC061F09CC046
:1022920062F09DC063F0F90E646F020E656F150E59
:1022A200666F500E676FEEEC11F060C09AF061C07D
:1022B2009BF062C09CF063C09DF00001F60E962771
:1022C200FF0E9723975107E10A0E965DD8B06CEF87
:1022D20011F06EEF11F044EF11F08EEF11F09AC091
:1022E20060F09BC061F09CC062F09DC063F0000E84
:1022F200646F000E656F200E666F410E676FEEEC25
:1023020011F060C09AF061C09BF062C09CF063C0A3
:102312009DF000019607D8A0970796519711D8A46F
:1023220095EF11F097EF11F070EF11F0FF0E606F63
:10233200FF0E616F7F0E626F7F0E636F9AC064F053
:102342009BC065F09CC066F09DC067F00AEC24F06B
:102352000001D8B0AFEF11F0B1EF11F0CCEF11F0F6
:1023620095A1B6EF11F0B8EF11F0C2EF11F0000E27
:10237200796F000E7A6F800E7B6F800E7C6FEDEFAF
:1023820011F0000E796F000E7A6F800E7B6F000ED7
:102392007C6FEDEF11F095A1D1EF11F0D3EF11F0B9
:1023A200E5EF11F09AC060F09BC061F09CC062F052
:1023B2009DC063F0DDEC2CF060C09AF061C09BF030
:1023C20062C09CF063C09DF09AC079F09BC07AF025
:1023D2009CC07BF09DC07CF0120000016351800B19
:1023E2006C6F63516325726F62AFFAEF11F0FCEF0D
:1023F20011F0FDEF11F072817251D8B403EF12F0B7
:1024020005EF12F018EF12F07229D8A40BEF12F0B8
:102412000DEF12F015EF12F0000E606F000E616FFB
:10242200000E626F000E636F628F20EF12F0000EDB
:10243200606F000E616F000E626F000E636F675176
:10244200800B6C1B675167256D6F66AF2BEF12F027
:102452002DEF12F02EEF12F06D816D51D8B434EFE2
:1024620012F036EF12F049EF12F06D29D8A43CEFCA
:1024720012F03EEF12F046EF12F0000E646F000E03
:10248200656F000E666F000E676F668F51EF12F078
:10249200000E646F000E656F000E666F000E676FB0
:1024A2006D51D8B457EF12F059EF12F061EF12F0FC
:1024B2007251D8A45FEF12F061EF12F06BEF12F0DD
:1024C200000E606F000E616F000E626F000E636F90
:1024D20003EF14F066516003F3CF77F0F4CF78F096
:1024E20077516E6F6F6B706B716B7851736F746B2A
:1024F200756B766B65516103F3CF77F0F4CF78F0AB
:1025020077516E27000E6F23702371237851732742
:10251200000E74237523762364516203F3CF77F0A0
:10252200F4CF78F077516E27000E6F23702371235A
:1025320078517327000E74237523762370C071F0CF
:102542006FC070F06EC06FF06E6B64516103F3CFB9
:1025520077F0F4CF78F077516E2778516F23000E21
:102562007023000E712365516003F3CF77F0F4CF2F
:1025720078F077516E2778516F23000E7023000E8A
:10258200712370C071F06FC070F06EC06FF06E6B2F
:1025920064516003F3CF77F0F4CF78F077516E2770
:1025A20078516F23000E7023000E71236651610370
:1025B200F3CF77F0F4CF78F0775173277851742303
:1025C200000E7523000E762365516203F3CF77F078
:1025D200F4CF78F07751732778517423000E752366
:1025E200000E762366516203F3CF77F0F4CF78F0D2
:1025F2007751686F7851696F6A6B6B6B6AC06BF069
:1026020069C06AF068C069F0686B685173276951E4
:1026120074236A5175236B5176236EC068F06FC0C4
:1026220069F070C06AF071C06BF0190E1EEF13F002
:10263200D8906B336A3369336833E82E19EF13F09D
:1026420068517327695174236A5175236B5176233C
:1026520070C071F06FC070F06EC06FF06E6B6D5134
:1026620072C068F0696B6827000E6923820E6825C4
:10267200776FFF0E6921786F54EF13F0D89073379C
:1026820074377537763771AF49EF13F04BEF13F0AC
:102692004CEF13F07381D8906E376F377037713704
:1026A2007707D8A0780775AF59EF13F05BEF13F0F7
:1026B2003FEF13F0000E6D6F71AF62EF13F064EF36
:1026C20013F088EF13F0FF0E6E15686FFF0E6F1593
:1026D200696FFF0E70156A6F7F0E71156B6F68510F
:1026E20069116A116B11D8B479EF13F07BEF13F013
:1026F2007FEF13F0010E6D6F88EF13F073A184EF7B
:1027020013F086EF13F088EF13F07BEF13F06D51A7
:10271200D8B48EEF13F090EF13F0B4EF13F0010E74
:102722007327000E74237523762376A19BEF13F093
:102732009DEF13F0B4EF13F073C068F074C069F04A
:1027420075C06AF076C06BF06B356B336A336933F0
:10275200683368C073F069C074F06AC075F06BC00A
:1027620076F0774B782B78BFBFEF13F0785108E102
:102772007729D8A0BFEF13F0C1EF13F0CBEF13F01E
:10278200000E736F000E746F800E756F7F0E766F82
:10279200F9EF13F078BFD8EF13F0785106E177051F
:1027A200D8B0D6EF13F0D8EF13F0E4EF13F0000E29
:1027B200736F000E746F000E756F000E766F000E51
:1027C2006C6FF9EF13F077C072F0FF0E7317FF0E04
:1027D20074177F0E7517000E761772A1F3EF13F0C0
:1027E200F5EF13F0F6EF13F0758FD8907231766F24
:1027F2006C51761373C060F074C061F075C062F002
:1028020076C063F0120000016351800B706F635158
:102812006325776F62AF10EF14F012EF14F013EF2D
:1028220014F077817751D8B419EF14F01BEF14F03C
:1028320030EF14F07729D8A421EF14F023EF14F02D
:102842002BEF14F0000E606F000E616F000E626FCE
:10285200000E636F628F000E636F38EF14F0000E8C
:10286200606F000E616F000E626F000E636F675142
:10287200800B701B67516725786F66AF43EF14F0CA
:1028820045EF14F046EF14F078817851D8B44CEF4C
:1028920014F04EEF14F063EF14F07829D8A454EF3B
:1028A20014F056EF14F05EEF14F0000E646F000E99
:1028B200656F000E666F000E676F668F000E676FA2
:1028C2006BEF14F0000E646F000E656F000E666F02
:1028D200000E676F6451651166116711D8A474EF19
:1028E20014F076EF14F08EEF14F0000E606F000E0D
:1028F200616F000E626F000E636F800E62137F0EB7
:1029020063137051631360C060F061C061F062C014
:1029120062F063C063F0D1EF15F07751D8A494EF61
:1029220014F096EF14F0A0EF14F0000E606F000E9A
:10293200616F000E626F000E636FD1EF15F0785178
:1029420077C068F0696B685F000E695B7F0E68256F
:10295200716F000E6921726F60C06CF061C06DF022
:1029620062C06EF063C06FF0000E606F000E616FA8
:10297200000E626F000E636F000E736F000E746FB5
:10298200000E756F000E766F000E786F01EF15F076
:102992007851D8B4CFEF14F0D1EF14F0E8EF14F07F
:1029A200D8906C376D376E376F37D8906037613794
:1029B2006237633776AFE0EF14F0E2EF14F0E3EF43
:1029C20014F06081D8907337743775377637645155
:1029D2006C5D65516D5966516E5967516F59D8A03A
:1029E200F5EF14F0F7EF14F000EF15F0768D645167
:1029F2006C5F65516D5B66516E5B67516F5B782BE7
:102A0200190E786507EF15F009EF15F0C9EF14F00C
:102A12006C516D116E116F11D8B412EF15F014EFE5
:102A220015F02CEF15F073812CEF15F0D89060376C
:102A320061376237633776AF21EF15F023EF15F078
:102A420024EF15F06081D890733774377537763775
:102A52007107D8A0720762AF31EF15F033EF15F0AE
:102A620017EF15F0000E786F76AF3AEF15F03CEFE6
:102A720015F060EF15F0FF0E7315686FFF0E7415F9
:102A8200696FFF0E75156A6F7F0E76156B6F685151
:102A920069116A116B11D8B451EF15F053EF15F0AB
:102AA20057EF15F0010E786F60EF15F060A15CEF43
:102AB20015F05EEF15F060EF15F053EF15F0785159
:102AC200D8B466EF15F068EF15F08CEF15F0010E33
:102AD2006027000E61236223632363A173EF15F065
:102AE20075EF15F08CEF15F060C068F061C069F009
:102AF20062C06AF063C06BF06B356B336A33693363
:102B0200683368C060F069C061F06AC062F06BC08F
:102B120063F0714B722B72BF97EF15F0725108E19F
:102B22007129D8A097EF15F099EF15F0A4EF15F0E1
:102B3200000E726F7169000E606F000E616F000E01
:102B4200626F000E636F72BFB1EF15F0725106E152
:102B52007105D8B0AFEF15F0B1EF15F0BFEF15F07A
:102B6200000E726F000E716F000E606F000E616FCB
:102B7200000E626F000E636F000E706F71C077F00F
:102B820077A1C6EF15F0C8EF15F0CBEF15F0628F05
:102B9200CCEF15F0629FD8907731636F82EF14F01B
:102BA200120004013205D8A4D9EF15F0DBEF15F0BD
:102BB200F5EF15F030511F0B0009D8A4E3EF15F023
:102BC200E5EF15F0F5EF15F00C8E030E3119D8A4D0
:102BD200EDEF15F0EFEF15F0F3EF15F0010E256EA6
:102BE200F5EF15F0000E256E3251D8A4FBEF15F06B
:102BF200FDEF15F07BEF17F030511F0B020AD8A43E
:102C020005EF16F007EF16F07BEF17F034510F0BBC
:102C12000009D8B40FEF16F011EF16F07BEF17F0A2
:102C220034510F0B3F6E030E3F601AEF16F01CEF8C
:102C320016F07BEF17F0200E2818D8A423EF16F019
:102C420025EF16F07BEF17F00C8E34BF2BEF16F04A
:102C52002DEF16F04AEF16F034510F0B3F6E3F5036
:102C6200020DC30EF324D96E000EF420DA6EDECF0D
:102C720044F0DDCF45F034510F0B3F6E406ADB0E5E
:102C82003F24D96E000E4020DA6EDF50436E65EFAE
:102C920016F034510F0B3F6E3F50020D0F0EF3240E
:102CA200D96E000EF420DA6EDECF44F0DDCF45F0AF
:102CB20034510F0B3F6E406ADE0E3F24D96E000E78
:102CC2004020DA6EDF50436E43B06AEF16F06CEFCD
:102CD20016F074EF16F0FB0E4414446EFF0E45140A
:102CE200456E79EF16F0040E4410446E4550456E61
:102CF20034BF7EEF16F080EF16F091EF16F03451EC
:102D02000F0B3F6E3F50020DC30EF324D96E000E1F
:102D1200F420DA6E44C0DEFF45C0DDFFA0EF16F0FE
:102D220034510F0B3F6E3F50020D0F0EF324D96E3C
:102D3200000EF420DA6E44C0DEFF45C0DDFF030E54
:102D42003119D8A4A7EF16F0A9EF16F0E3EF16F0A9
:102D520044C0D9FF45C0DAFFDFAEB2EF16F0B4EFE0
:102D620016F0D5EF16F034BFB9EF16F0BBEF16F040
:102D7200C9EF16F034510F0B3F6E406ADB0E3F2451
:102D8200D96E000E4020DA6E0001DF82D5EF16F018
:102D920034510F0B3F6E406ADE0E3F24D96E000E97
:102DA2004020DA6E0001DF8244C0D9FF45C0DAFF5D
:102DB200000EDB8444C0D9FF45C0DAFF000EDB8E73
:102DC2007BEF17F0040E4418446E4550456E44C024
:102DD200D9FF45C0DAFFDFAEF1EF16F0F3EF16F0E0
:102DE2000FEF17F044C0D9FF45C0DAFF7F0EDF16A0
:102DF20044C0D9FF45C0DAFF000EDB8C000E386EEE
:102E0200050E376E44C039F045C03AF0000E3C6EF4
:102E1200020E3B6E6FEC29F015EF17F044C0D9FF9C
:102E220045C0DAFF000EDB8C040E4418446E455098
:102E3200456E43B21FEF17F021EF17F02CEF17F09A
:102E420044C0D9FF45C0DAFFDFAE2AEF17F02CEFFE
:102E520017F064EF17F0040134BF32EF17F034EFCC
:102E620017F042EF17F034510F0B3F6E406ADB0E42
:102E72003F24D96E000E4020DA6E0001DF924EEF41
:102E820017F034510F0B3F6E406ADE0E3F24D96EAD
:102E9200000E4020DA6E0001DF9244C0D9FF45C027
:102EA200DAFF3B0EDF16000E386E050E376E44C099
:102EB20039F045C03AF0000E3C6E020E3B6E6FECEC
:102EC20029F06AEF17F044C0D9FF45C0DAFF3B0E84
:102ED200DF16040134510F0B3F6E406A700E3F241F
:102EE200416E0F0E4020426E41C0D9FF42C0DAFF50
:102EF200FE0EDF161200BDC06BF0BEC06CF05E0E9F
:102F020000016D6F120E6E6FFCEC26F06BC050F17B
:102F12006CC051F1000E01014B6F06EF19F050C168
:102F2200D9FF51C1DAFFDF504A6F50C1D9FF51C1F9
:102F3200DAFF300EDF6ED1EF18F04E0E7B6F010E0E
:102F42007C6F50C179F051C17AF031EC09F079C04F
:102F52009FF07AC0A0F07BC0A1F07CC0A2F0A5ECEB
:102F62001EF09FC0B3F0A0C0B4F0A1C0B5F0A2C0E3
:102F7200B6F086EC23F0B3C04CF1B4C04DF11FEFB4
:102F820018F0C10E606F110E616F140E626F78EC53
:102F92002DF0F7EF18F0E90E606F110E616F140E4D
:102FA200626F78EC2DF0F7EF18F0250E606F120EBD
:102FB200616F140E626F78EC2DF0F7EF18F0580E77
:102FC200606F110E616F150E626F78EC2DF0F7EFE6
:102FD20018F0AC0E606F110E616F150E626F78EC17
:102FE2002DF0F7EF18F0430E606F110E616F150EA2
:102FF200626F78EC2DF0F7EF18F06D0E606F110E26
:10300200616F150E626F78EC2DF0F7EF18F0820EFB
:10301200606F110E616F150E626F78EC2DF0F7EF95
:1030220018F0030E606F110E616F160E626F78EC6E
:103032002DF0010E01014B6FF7EF18F04CC1BFF0FC
:103042004DC1C0F00001C051000AD8B42BEF18F0F6
:1030520012EF18F0BF51000AD8B4C2EF17F0010AFC
:10306200D8B4CCEF17F0050AD8B4D6EF17F0110A8E
:10307200D8B4E0EF17F0090AD8B4EAEF17F0460A1D
:10308200D8B4F4EF17F0010AD8B4FEEF17F0070A2C
:10309200D8B408EF18F012EF18F04E0E7B6F010E45
:1030A2007C6F50C179F051C17AF031EC09F079C0EE
:1030B2009FF07AC0A0F07BC0A1F07CC0A2F0A5EC8A
:1030C2001EF09FC0B3F0A0C0B4F0A1C0B5F0A2C082
:1030D200B6F086EC23F0B3C04CF1B4C04DF1A4EFCE
:1030E20018F0D50E606F110E616F140E626F78ECDE
:1030F2002DF0F7EF18F0FD0E606F110E616F140ED8
:10310200626F78EC2DF0F7EF18F0110E606F120E6F
:10311200616F140E626F78EC2DF0F7EF18F0970ED6
:10312200606F110E616F150E626F78EC2DF0F7EF84
:1031320018F0030E606F110E616F160E626F78EC5D
:103142002DF01AEF18F04CC1BFF04DC1C0F00001D4
:10315200C051000AD8B4B0EF18F09AEF18F0BF517E
:10316200000AD8B472EF18F0010AD8B47CEF18F054
:10317200030AD8B486EF18F0560AD8B490EF18F0C4
:103182009AEF18F0010E01014B6F4B0E0001606FB8
:10319200120E616F070E626F78EC2DF0F7EF18F0E8
:1031A2004A510001BF6FC06BC051000AD8B4DCEFB6
:1031B20018F0C3EF18F0BF51460AD8B4F7EF18F071
:1031C200010AD8B49EEF17F00A0AD8B44EEF18F0ED
:1031D200150AD8B4F7EF18F0010AD8B4F7EF18F0CF
:1031E200030AD8B4F7EF18F0C3EF18F0000E00018D
:1031F2006B6F000E6C6F5E0E6D6F120E6E6FFCECDD
:1032020026F06BC050F16CC051F1010150515111C7
:10321200D8B40EEF19F010EF19F018EF19F04B5166
:10322200D8B416EF19F018EF19F090EF17F012005A
:103232002804D8A41FEF19F021EF19F02EEF19F08E
:103242006DBA26EF19F028EF19F02EEF19F0000EE3
:10325200686E69806988020E286E68A433EF19F0DF
:1032620035EF19F03FEF19F069A43AEF19F03CEF8E
:1032720019F03FEF19F0689484EC2CF06DA244EF42
:1032820019F046EF19F049EF19F0A19A2CEF1AF054
:1032920068A04EEF19F050EF19F05DEF19F069A038
:1032A20055EF19F057EF19F05DEF19F04BEC1FF0E5
:1032B200A08A040E286E689068A862EF19F064EF85
:1032C20019F06DEF19F069A869EF19F06BEF19F0B9
:1032D2006DEF19F08EEC2DF068AC72EF19F074EF0F
:1032E20019F09FEF19F069AC79EF19F07BEF19F043
:1032F20089EF19F0000E386E730E376E000E396EBC
:10330200000E3A6E000E3C6E010E3B6E6FEC29F021
:10331200689C16EC2DF02150D8B492EF19F094EF7E
:1033220019F095EF19F021062150D8A49BEF19F05E
:103332009DEF19F09FEF19F011EC26F068AAA4EFA7
:1033420019F0A6EF19F0AFEF19F069AAABEF19F077
:10335200ADEF19F0AFEF19F064EC2BF068A2B4EF07
:1033620019F0B6EF19F0CCEF19F069A2BBEF19F022
:10337200BDEF19F0CCEF19F07F0E386E3768000EF2
:10338200396E000E3A6E000E3C6E010E3B6E6FEC13
:1033920029F0000E6A6E040E2860D2EF19F0D4EF05
:1033A20019F0D7EF19F0A19A2CEF1AF069A6DCEF09
:1033B20019F0DEEF19F02BEF1AF0000E496E68A635
:1033C200E5EF19F0E7EF19F02BEF1AF06CCF29F0C7
:1033D2002930E832E8320F0B236E689629B4F4EFF5
:1033E20019F0F6EF19F000EF1AF0DB0E2324D96E74
:1033F200DA6A000EDA220001DF7008EF1AF0DE0E40
:103402002324D96EDA6A000EDA220001DF7023501B
:10341200D8A40EEF1AF010EF1AF014EF1AF0CAEC5B
:1034220027F022EF1AF0000E386E720E376E290E58
:10343200396E000E3A6E000E3C6E000E3B6E6FEC63
:1034420029F0492A030E496429EF1AF02BEF1AF0EA
:10345200E0EF19F0A19A12000001686F00016851B3
:10346200D8B436EF1AF038EF1AF05AEF1AF063BFF9
:103472003FEF1AF03DEF1AF05AEF1AF060C064F015
:1034820061C065F062C066F063C067F0641F651FCB
:10349200661F671F642B000E65236623672364C0C3
:1034A2006AF065C06BF066C06CF067C06DF062EFE9
:1034B2001AF060C06AF061C06BF062C06CF063C069
:1034C2006DF06051611162116311D8A46BEF1AF0B3
:1034D2006DEF1AF077EF1AF0000E606F000E616F59
:1034E200000E626F000E636F08EF1BF0960E696F9D
:1034F20081EF1AF0692BD8906D336C336B336A33DA
:10350200000E6A15646F000E6B15656F000E6C1568
:10351200666FFE0E6D15676F645165116611671156
:10352200D8A496EF1AF098EF1AF07BEF1AF0A6EFF4
:103532001AF0692B010E6A27000E6B236C236D2390
:10354200D8906D336C336B336A33000E6A15646F37
:10355200000E6B15656F000E6C15666FFF0E6D1514
:10356200676F6451651166116711D8A4BBEF1AF039
:10357200BDEF1AF09AEF1AF0C5EF1AF06907D8906A
:103582006A376B376C376D376CBFCAEF1AF0CCEF06
:103592001AF0D4EF1AF0020E6961D2EF1AF0D4EFEA
:1035A2001AF0BFEF1AF069B1D9EF1AF0DBEF1AF097
:1035B200DCEF1AF06C9FD890693369C064F0656BD8
:1035C200666B676B64C067F0666B656B646B6451B6
:1035D2006A1365516B1366516C1367516D13685111
:1035E200D8B4F6EF1AF0F8EF1AF000EF1BF063BF51
:1035F200FFEF1AF0FDEF1AF000EF1BF06D8F6AC0BB
:1036020060F06BC061F06CC062F06DC063F01200DC
:10361200A09A0001E351E411D8B412EF1BF014EFA9
:103622001BF022EF1BF0E3C0D9FFE4C0DAFFDFAEEC
:103632001DEF1BF01FEF1BF022EF1BF0A08AD6EF4D
:103642001BF0030E1A18D8A429EF1BF02BEF1BF066
:103652002DEF1BF0000E1A6E1A50D8A433EF1BF098
:1036620035EF1BF038EF1BF0A08AD6EF1BF0020EED
:103672001A18D8A43FEF1BF041EF1BF054EF1BF0D8
:10368200010E606F000E616F000E626F000E636FBD
:10369200020EEFEC1FF060C0E3F061C0E4F0030E35
:1036A2001A6ED5EF1BF01A04D8A45AEF1BF05CEF88
:1036B2001BF0D5EF1BF0400E196462EF1BF064EFB4
:1036C2001BF068EF1BF0400E6C6F6AEF1BF019C025
:1036D2006CF06C51195C196E000ED56F050ED66F29
:1036E2006CC06BF0EA51D8A479EF1BF07BEF1BF0B2
:1036F200A7EF1BF08DEF1BF0D8C0F6FFD9C0F7FF84
:10370200D5C0D9FFD6C0DAFF0800F5CFDFFFD54B11
:10371200D62BD84BD92B6B076B51D8A493EF1BF048
:1037220095EF1BF07DEF1BF0AFEF1BF0D8C0F6FF5B
:10373200D9C0F7FFD5C0D9FFD6C0DAFF0800F5CF50
:10374200DFFFD54BD62BD84BD92B6B076B51D8A4A7
:10375200ADEF1BF0AFEF1BF097EF1BF01950D8A4A1
:10376200B5EF1BF0B7EF1BF0C6EF1BF0400E6C1964
:10377200D8A4BEEF1BF0C0EF1BF0C4EF1BF0020E8B
:103782001A6EC6EF1BF0030E1A6E010E606F000E6A
:10379200616F050E626F6CC063F0020EEFEC1FF0FA
:1037A20060C0E3F061C0E4F0A08A120060C06AF079
:1037B20061C06BF0000164516511D8A4E3EF1BF006
:1037C200E5EF1BF0E7EF1BF092EF1CF06AC0D9FFA8
:1037D2006BC0DAFF62C0DFFF64516A25666F655114
:1037E2006B21676FFF0E6625D96EFF0E6721DA6EB9
:1037F20062C0DFFF655107E1030E645DD8B004EFDC
:103802001CF006EF1CF008EF1CF092EF1CF020EE0B
:1038120001F06A51D9266B51DA2262C0DFFF20EE35
:1038220002F06A51D9266B51DA2262C0DFFF64517D
:103832006A25666F65516B21676FFE0E6625D96E2C
:10384200FF0E6721DA6E62C0DFFF64516A25666F80
:1038520065516B21676FFD0E6625D96EFF0E6721DC
:10386200DA6E62C0DFFF655107E1070E645DD8B012
:103872003DEF1CF03FEF1CF041EF1CF092EF1CF00B
:1038820020EE03F06A51D9266B51DA2262C0DFFFC3
:1038920064516A25666F65516B21676FFC0E662560
:1038A200D96EFF0E6721DA6E62C0DFFF655107E154
:1038B200090E645DD8B060EF1CF062EF1CF064EF9B
:1038C2001CF092EF1CF06AC066F06BC067F0661FD6
:1038D200671F664B672B030E6615686F696B68512D
:1038E2006A2769516B236851645F6951655BFC0EFD
:1038F2006417FF0E651789EF1CF06AC0D9FF6BC011
:10390200DAFF62C0DFFF6407D8A065076A4B6B2B42
:1039120064516511D8A490EF1CF092EF1CF07EEF79
:103922001CF012002BC035F02CC036F02F50301096
:10393200D8A49EEF1CF0A0EF1CF0A2EF1CF04DEFFC
:103942001DF035C0D9FF36C0DAFF2DC0DFFF2F5082
:103952003524316E30503620326EFF0E3124D96E4E
:10396200FF0E3220DA6E2DC0DFFF305007E1030E6A
:103972002F5CD8B0BFEF1CF0C1EF1CF0C3EF1CF0FE
:103982004DEF1DF020EE01F03550D9263650DA22E7
:103992002DC0DFFF20EE02F03550D9263650DA2254
:1039A2002DC0DFFF2F503524316E30503620326E5D
:1039B200FE0E3124D96EFF0E3220DA6E2DC0DFFFEB
:1039C2002F503524316E30503620326EFD0E3124A8
:1039D200D96EFF0E3220DA6E2DC0DFFF305007E1C4
:1039E200070E2F5CD8B0F8EF1CF0FAEF1CF0FCEFDA
:1039F2001CF04DEF1DF020EE03F03550D926365065
:103A0200DA222DC0DFFF2F503524316E30503620A0
:103A1200326EFC0E3124D96EFF0E3220DA6E2DC0CA
:103A2200DFFF305007E1090E2F5CD8B01BEF1DF00D
:103A32001DEF1DF01FEF1DF04DEF1DF035C031F0F1
:103A420036C032F0311E321E314A322A030E311490
:103A5200336E346A335035263450362233502F5E5B
:103A62003450305AFC0E2F16FF0E301644EF1DF064
:103A720035C0D9FF36C0DAFF2DC0DFFF2F06D8A030
:103A82003006354A362A2F503010D8A44BEF1DF09D
:103A92004DEF1DF039EF1DF01200800E04013019B8
:103AA200D8A456EF1DF058EF1DF0FDEF1DF0C00E2B
:103AB2000C6EE4EF1DF0A40E096E100E0A6E000EDD
:103AC2000E6E120E0D6EFDEF1DF03251D8A46CEF8A
:103AD2001DF06EEF1DF0ACEF1DF03251020D190E0C
:103AE200F324F66E100EF420F76E0900F5CF09F0FC
:103AF2000A00F5CF0AF0020E09242B6E000E0A20EE
:103B02002C6E2BC0F6FF2CC0F7FFF86A070EF76485
:103B120003D00800F55005D0F6CFE1FFF7CFE2FF62
:103B2200E7500D6E030E09242B6E000E0A202C6E38
:103B32002BC0F6FF2CC0F7FFF86A070EF76403D01C
:103B42000800F55005D0F6CFE1FFF7CFE2FFE750CE
:103B52000E6EFDEF1DF0000E0C6EFDEF1DF0030E5C
:103B62003261B6EF1DF0B8EF1DF0DCEF1DF03251FF
:103B7200020D130EF324F66E100EF420F76E0900F8
:103B8200F5CF09F00A00F5CF0AF009C0F6FF0AC026
:103B9200F7FFF86A070EF76403D00800F55005D066
:103BA200F6CFE1FFF7CFE2FFE7502B6E2B500D6E01
:103BB2000E6AFDEF1DF0000E0C6EFDEF1DF0000E03
:103BC2000C6EFDEF1DF033512B6E2C6A2C50000A47
:103BD200D8B4EEEF1DF0E0EF1DF02B50010AD8B47F
:103BE2005CEF1DF0030AD8B466EF1DF0010AD8B4E9
:103BF200B0EF1DF0E0EF1DF01200A09A000E6A6E09
:103C0200000E686E000E706E710E0001606F0F0E76
:103C1200616F000E636F000E626F000E656F020E21
:103C2200646FD7EC1BF0060E6F6E9F0E6B6E7B0EF1
:103C3200696E000E00016C6F6C51040D000EF324CE
:103C4200D96E040EF420DA6EDE6ADE6ADE6ADD6A9E
:103C52006C2B0B0E6C6530EF1EF032EF1EF01DEF79
:103C62001EF06D8C000E6E6E6D986D9C6896000E47
:103C72000C6E000E046E000E066E000E056E68B627
:103C820045EF1EF047EF1EF037EF1EF0010E1F6EDC
:103C9200010E1E6E000E1D6E000E1C6E000E246EB6
:103CA200000E00016C6F6C51020D0F0EF324D96EE1
:103CB200000EF420DA6E000EDE6E000EDD6E6C5128
:103CC200020DC30EF324D96E000EF420DA6E000E3C
:103CD200DE6E000EDD6EDE0E6C25D96EDA6A000E27
:103CE200DA22000EDF6EDB0E6C25D96EDA6A000E68
:103CF200DA22000EDF6E6C2B020E6C6583EF1EF073
:103D020085EF1EF054EF1EF0080E0F6E040E106EBB
:103D1200160E706E040E0401036F300E026F200E39
:103D2200016F040E006F008F000E2A6E000E00015C
:103D3200D16F000ED26F000ED36F000ED46F000E43
:103D42001B6E000E286E1200C9C0AFF0CAC0B0F0E0
:103D5200CBC0B1F0CCC0B2F09FC0AFF0A0C0B0F009
:103D6200A1C0B1F0A2C0B2F08A0E0001A36FFF0E93
:103D7200A46FAFC0A5F0B0C0A6F0B1C0A7F0B2C0AA
:103D8200A8F0180ECAEF1EF0D890A833A733A633B6
:103D9200A533E82EC5EF1EF0A551A325AD6F000E89
:103DA200A421AE6FAEBFDFEF1EF0AE5109E1200ECF
:103DB200AD5DD8A0DFEF1EF0E1EF1EF0EBEF1EF0DD
:103DC2009FC09FF0A0C0A0F0A1C0A1F0A2C0A2F02D
:103DD2004AEF1FF0AEBFF9EF1EF0AE5107E1090E38
:103DE200AD5DD8B0F7EF1EF0F9EF1EF0FDEF1EF05B
:103DF200000EAE6F010EAD6FFF0EA36FFF0EA46F2C
:103E0200FF0EA56FFF0EA66FAD51E82A0EEF1FF051
:103E1200D890A633A533A433A333E82E09EF1FF0BD
:103E2200A3C0A9F0A4C0AAF0A5C0ABF0A6C0ACF094
:103E3200A951AF15A36FAA51B015A46FAB51B1151B
:103E4200A56FAC51B215A66FA351A411A511A6116D
:103E5200D8A42EEF1FF030EF1FF032EF1FF0E1EF8A
:103E62001EF0A91DA36FAA1DA46FAB1DA56FAC1DEB
:103E7200A66FA351AF17A451B017A551B117A65100
:103E8200B217AFC09FF0B0C0A0F0B1C0A1F0B2C0F5
:103E9200A2F01200A09A000E6A6E000E686E000E6A
:103EA200706E710E2B6E0F0E2C6E000E2E6E000EAB
:103EB2002D6E000E306E020E2F6E93EC1CF0060E6D
:103EC2006F6E9F0E6B6E7B0E696E000E376E3750F3
:103ED200040D000EF324D96E040EF420DA6EDE6AAD
:103EE200DE6ADE6ADD6A372A0B0E37647BEF1FF06B
:103EF2007DEF1FF068EF1FF06D8C000E6E6E6D98F7
:103F02006D9C6896000E0C6E000E046E000E066E1E
:103F1200000E056E68B690EF1FF092EF1FF082EF71
:103F22001FF0010E1F6E010E1E6E000E1D6E000EA2
:103F32001C6E000E246E000E376E3750020D0F0EEF
:103F4200F324D96E000EF420DA6E000EDE6E000E3F
:103F5200DD6E3750020DC30EF324D96E000EF4202D
:103F6200DA6E000EDE6E000EDD6EDE0E3724D96EC6
:103F7200DA6A000EDA22000EDF6EDB0E3724D96E0B
:103F8200DA6A000EDA22000EDF6E372A020E37647A
:103F9200CDEF1FF0CFEF1FF09EEF1FF0080E0F6E58
:103FA200040E106E160E706E040E0401036F300EB6
:103FB200026F200E016F040E006F008F000E2A6E3A
:103FC200000E0001D16F000ED26F000ED36F000EF3
:103FD200D46F000E1B6E000E286E12000001686F77
:103FE20000016051D8B4F8EF1FF0FAEF1FF008EFAC
:103FF20020F06851020D0F0EF324D96E000EF4204A
:10400200DA6EDECF69F0DDCF6AF014EF20F068518E
:10401200020DC30EF324D96E000EF420DA6EDECF49
:1040220069F0DDCF6AF069516A11D8A41BEF20F064
:104032001DEF20F023EF20F0000E606F000E616F85
:104042008FEF20F020EE02F06951D9266A51DA2270
:1040520061C0DEFF62C0DDFF20EE01F06951D926AA
:104062006A51DA2263C0DFFF69C0D9FF6AC0DAFF92
:10407200400EDF1669C0D9FF6AC0DAFF000EDB8688
:1040820069C0D9FF6AC0DAFF000EDB8E6051D8B476
:104092004DEF20F04FEF20F06EEF20F06851020D4F
:1040A2000F0EF324D96E000EF420DA6EDECF64F028
:1040B200DDCF65F0040E6419666F6551676F685154
:1040C200020D0F0EF324D96E000EF420DA6E66C0D4
:1040D200DEFF67C0DDFF8BEF20F06851020DC30EDB
:1040E200F324D96E000EF420DA6EDECF64F0DDCF59
:1040F20065F0040E6419666F6551676F6851020DB1
:10410200C30EF324D96E000EF420DA6E66C0DEFF11
:1041120067C0DDFF69C060F06AC061F0120020EE86
:1041220001F01750D9261850DA22DF502C6E2C508D
:10413200055C000E0658D8B0A1EF20F0A3EF20F0E6
:10414200A5EF20F005C02CF02C50055E000E065A9B
:10415200000E2B6EBCEF20F0500E2B24D96EDA6AC3
:10416200040EDA2201C0E1FF02C0E2FFDFCFE7FF67
:10417200014A022A2B2A2C502B5CD8A0C3EF20F034
:10418200C5EF20F0ADEF20F005500610D8B4CCEF0B
:1041920020F0CEEF20F007EF21F020EE01F01550D5
:1041A200D9261650DA22200EDF6E20EE02F01550CC
:1041B200D9261650DA22500EDE6E040EDD6E17C0BE
:1041C200D9FF18C0DAFFDFBCE9EF20F0EBEF20F0F7
:1041D200F9EF20F015C0D9FF16C0DAFF480EDF6EE6
:1041E20015C0D9FF16C0DAFF000EDB8E30EF21F0CA
:1041F20015C0D9FF16C0DAFF080EDF6E15C0D9FF51
:1042020016C0DAFF000EDB8E30EF21F020EE01F057
:104212001550D9261650DA22200EDF6E20EE02F05B
:104222001550D9261650DA22300EDE6E040EDD6EDF
:1042320015C0D9FF16C0DAFF040EDF6E15C0D9FF14
:1042420016C0DAFF000EDB8E049E2050D8A42CEF9D
:1042520021F02EEF21F030EF21F011EC26F01200C8
:104262006D980CBE37EF21F039EF21F07EEF21F08F
:1042720004AE3EEF21F040EF21F052EF21F0020EAA
:10428200266E1C50D8A448EF21F04AEF21F04CEFE3
:1042920021F07CEC28F0000E1E6E000E1F6ED0EF97
:1042A20021F020EE01F01550D9261650DA22200E08
:1042B200DF6E20EE02F01550D9261650DA22300EAB
:1042C200DE6E040EDD6E15C0D9FF16C0DAFF0C0ECD
:1042D200DF6E15C0D9FF16C0DAFF000EDB8E0FC0ED
:1042E200D9FF10C0DAFF040EDF6E0FC0D9FF10C075
:1042F200DAFF000EDB8ED0EF21F0040130AF84EF45
:1043020021F086EF21F0A2EF21F0010E266E1D5062
:10431200D8A48EEF21F090EF21F092EF21F07CEC07
:1043220028F0000E1E6E000E1F6E2050D8A49CEFC7
:1043320021F09EEF21F0D0EF21F011EC26F0D0EF2A
:1043420021F0020E266E20EE01F01550D9261650ED
:10435200DA22200EDF6E20EE02F01550D92616501A
:10436200DA22300EDE6E040EDD6E15C0D9FF16C0E5
:10437200DAFF040EDF6E15C0D9FF16C0DAFF000E99
:10438200DB8E000E1E6E000E1F6E2050D8A4CCEFE6
:1043920021F0CEEF21F0D0EF21F09EEF21F01200BC
:1043A200336E2B50D8B4D8EF21F0DAEF21F0E8EFDA
:1043B20021F03350020D0F0EF324D96E000EF420BB
:1043C200DA6EDECF34F0DDCF35F0F4EF21F033508A
:1043D200020DC30EF324D96E000EF420DA6EDECF86
:1043E20034F0DDCF35F034503510D8A4FBEF21F096
:1043F200FDEF21F003EF22F0000E2B6E000E2C6E6B
:104402006FEF22F020EE02F03450D9263550DA2236
:104412002CC0DEFF2DC0DDFF20EE01F03450D92686
:104422003550DA222EC0DFFF34C0D9FF35C0DAFFA3
:10443200400EDF1634C0D9FF35C0DAFF000EDB862E
:1044420034C0D9FF35C0DAFF000EDB8E2B50D8B452
:104452002DEF22F02FEF22F04EEF22F03350020D1B
:104462000F0EF324D96E000EF420DA6EDECF2FF099
:10447200DDCF30F0040E2F18316E3050326E3350D3
:10448200020D0F0EF324D96E000EF420DA6E31C045
:10449200DEFF32C0DDFF6BEF22F03350020DC30EA0
:1044A200F324D96E000EF420DA6EDECF2FF0DDCFCA
:1044B20030F0040E2F18316E3050326E3350020D30
:1044C200C30EF324D96E000EF420DA6E31C0DEFF83
:1044D20032C0DDFF34C02BF035C02CF012000401D5
:1044E2003039E832030B0009D8B47AEF22F07CEFBE
:1044F20022F0C4EF22F0FDEF22F00C8E080E286E9F
:10450200FDEF22F04EEC1DF0FDEF22F089EC26F0DB
:10451200FDEF22F02A0E096E000E0A6E0C80010ECB
:104522000D6E0C8EFDEF22F00FEC25F0FDEF22F068
:10453200D2EC15F0FDEF22F0FB0E3425096E0A6A6B
:10454200000E0A220C80010E0D6E0C8EFDEF22F081
:104552000C8EFB0E3425D96EDA6A000EDA2232C4D2
:10456200DFFFFDEF22F0000E386E020E376E000EF6
:10457200396E000E3A6E000E3C6E000E3B6E6FEC12
:1045820029F0FDEF22F03151466E476A4750000A8A
:10459200D8B4CEEF22F0FDEF22F04650000AD8B494
:1045A20095EF22F0010AD8B499EF22F0020AD8B4AA
:1045B20099EF22F0060AD8B47EEF22F0030AD8B4AB
:1045C20083EF22F0010AD8B4B4EF22F00F0AD8B474
:1045D2008BEF22F0010AD8B487EF22F0030AD8B495
:1045E2009DEF22F0010AD8B4A9EF22F0070AD8B44D
:1045F200FDEF22F0FDEF22F01200200E2B6E0E5086
:1046020007E1200E0D5CD8B009EF23F00BEF23F089
:1046120023EF23F00DC02BF02750D8A413EF23F083
:1046220015EF23F019EF23F0010E276E23EF23F08D
:104632002704D8A41FEF23F021EF23F023EF23F068
:10464200020E276E2B500D5E000E0E5A20EE01F068
:104652000F50D9261050DA222BC0DFFF500E000176
:10466200E76F040EE86F0CB039EF23F03BEF23F055
:104672007DEF23F058EF23F009C0F6FF0AC0F7FFE1
:10468200F86AE7C0D9FFE8C0DAFF070EF76403D083
:104692000800F55005D0F6CFE1FFF7CFE2FFE75073
:1046A200DF6E094A0A2A0001E74BE82B2B062B5042
:1046B200D8A45EEF23F060EF23F03DEF23F085EF07
:1046C20023F009C0F6FF0AC0F7FFF86AE7C0D9FF76
:1046D200E8C0DAFF070EF76403D00800F55005D0F2
:1046E200F6CFE1FFF7CFE2FFE750DF6E094A0A2A71
:1046F2000001E74BE82B2B062B50D8A483EF23F0C5
:1047020085EF23F062EF23F012000001B535B635D4
:10471200BC6FBC51D8A490EF23F092EF23F09CEF32
:1047220023F0000EB36F000EB46F000EB56F000ED3
:10473200B66F09EF24F0B3C0B7F0B4C0B8F0B5C09B
:10474200B9F0B6C0BAF0200EACEF23F0D890BA336D
:10475200B933B833B733E82EA7EF23F0B751BB6FA5
:10476200B58FFF0EB317FF0EB417FF0EB517000E6D
:10477200B617960EBC5FBCBFC3EF23F0C1EF23F0A8
:10478200D9EF23F0BC51800A970FD8B0CBEF23F0BA
:10479200CDEF23F0CFEF23F092EF23F0D890B63392
:1047A200B533B433B333BC3FCFEF23F0F1EF23F093
:1047B2001F0EBC65DFEF23F0E1EF23F0E9EF23F0FA
:1047C20092EF23F0D890B337B437B537B637BC077A
:1047D200BC51D8A4EFEF23F0F1EF23F0E3EF23F085
:1047E200BB51D8B4F7EF23F0F9EF23F001EF24F037
:1047F200B61FB51FB41FB36D000EB423B523B62385
:10480200B3C0B3F0B4C0B4F0B5C0B5F0B6C0B6F042
:104812001200000E00016015686F000E6115696FCD
:10482200800E62156A6F7F0E63156B6F6851691196
:104832006A116B11D8A420EF24F022EF24F02AEFA2
:1048420024F0000E606F000E616F000E626F000EAA
:10485200636F000E6415686F000E6515696F800E38
:1048620066156A6F7F0E67156B6F685169116A1161
:104872006B11D8A43FEF24F041EF24F049EF24F06C
:10488200000E646F000E656F000E666F000E676F9C
:1048920063AF4EEF24F050EF24F059EF24F0606D37
:1048A200611FD8B0612B621FD8B0622B800E635794
:1048B20067AF5EEF24F060EF24F069EF24F0646DDF
:1048C200651FD8B0652B661FD8B0662B800E675760
:1048D200000E601B000E611B000E621B800E631B2C
:1048E200000E641B000E651B000E661B800E671B0C
:1048F2006451605D655161596651625967516359EE
:10490200D8B086EF24F088EF24F08BEF24F0D89013
:104912008CEF24F0D88012000FC0D9FF10C0DAFF4C
:10492200000EDFBC010E2C6E040E0F180F6E10501D
:10493200106E080E2818D8A4A1EF24F0A3EF24F0DB
:10494200B5EF24F0040132517F0B6E6E6E50D8B475
:10495200ADEF24F0AFEF24F0B3EF24F0100E286E89
:10496200B5EF24F0040E286E2604D8A4BBEF24F081
:10497200BDEF24F004EF25F020EE02F00F50D9260F
:104982001050DA22500EDE6E040EDD6EFEEC22F0C6
:10499200020E2718D8A4D0EF24F0D2EF24F0E0EFD3
:1049A20024F00FC0D9FF10C0DAFF040EDF6E0FC073
:1049B200D9FF10C0DAFF000EDB8E0EEF25F02C506F
:1049C200D8A4E6EF24F0E8EF24F0F6EF24F00FC0CD
:1049D200D9FF10C0DAFF480EDF6E0FC0D9FF10C03A
:1049E200DAFF000EDB8E0EEF25F00FC0D9FF10C0EC
:1049F200DAFF080EDF6E0FC0D9FF10C0DAFF000E1B
:104A0200DB8E0EEF25F004AE09EF25F00BEF25F05B
:104A12000CEF25F0049E000E266E1200000E04011B
:104A2200506F000E516F67EF25F00C8E2504D8A44D
:104A32001DEF25F01FEF25F081EF25F0508381EF68
:104A420025F00C8E81EF25F00C8E34BF2BEF25F074
:104A52002DEF25F03EEF25F034510F0B2B6E2B502E
:104A6200020DC30EF324D96E000EF420DA6EDECFEF
:104A72002DF0DDCF2EF04DEF25F034510F0B2B6EC4
:104A82002B50020D0F0EF324D96E000EF420DA6EB5
:104A9200DECF2DF0DDCF2EF02DC0D9FF2EC0DAFFF4
:104AA200DFAE56EF25F058EF25F081EF25F02DC04F
:104AB200D9FF2EC0DAFFDFA461EF25F063EF25F006
:104AC20081EF25F0010E506F81EF25F030511F0B61
:104AD2002B6E2C6A2C50000AD8B472EF25F081EFAD
:104AE20025F02B50000AD8B416EF25F0010AD8B4ED
:104AF20022EF25F0030AD8B425EF25F081EF25F047
:104B02000CAE86EF25F088EF25F08FEF25F0500EE2
:104B1200096E040E0A6E0C80020E0D6E1200040164
:104B220030511F0BE806D8B499EF25F09BEF25F022
:104B32009DEF25F010EF26F03039E832030BE8063E
:104B4200D8B4A6EF25F0A8EF25F0AAEF25F010EFD4
:104B520026F03451D8B4B0EF25F0B2EF25F0EFEFE4
:104B620025F03405D8B4B8EF25F0BAEF25F0EFEF11
:104B720025F010EF26F0EC0E096E000E0A6E000E04
:104B82000E6E080E0D6E0C800C8E10EF26F0EC0EE1
:104B9200096E000E0A6E0C8E10EF26F036C405F078
:104BA20037C406F0F40E016E000E026E000E076EA0
:104BB200000E086E048E10EF26F0F40E096E000E41
:104BC2000A6E000E0E6E070E0D6EC10E0C6E10EF09
:104BD20026F032C4E9F00C8E10EF26F031512B6E24
:104BE2002C6A2C50000AD8B4F9EF25F010EF26F009
:104BF2002B50000AD8B4BCEF25F0010AD8B4C8EF94
:104C020025F0210AD8B4CFEF25F0010AD8B4DEEF9F
:104C120025F0030AD8B4EAEF25F010EF26F01200CF
:104C22001F50D8A417EF26F019EF26F088EF26F0D0
:104C3200010E1F6E1E50D8A421EF26F023EF26F09E
:104C420088EF26F0010E1E6E020E2618D8A42CEF55
:104C520026F02EEF26F044EF26F020EE01F00F5062
:104C6200D9261050DA22000EDF6E0FC0D9FF10C015
:104C7200DAFF480EDF6E0FC0D9FF10C0DAFF000E58
:104C8200DB8E88EF26F02604D8A44AEF26F04CEFFC
:104C920026F088EF26F0000E226E20EE01F017506B
:104CA200D9261850DA22200EDF6E20EE02F01750BD
:104CB200D9261850DA22300EDE6E040EDD6E17C0D1
:104CC200D9FF18C0DAFF040EDF6E17C0D9FF18C073
:104CD200DAFF000EDB8E010E226E20EE01F015507F
:104CE200D9261650DA22200EDF6E20EE02F0155081
:104CF200D9261650DA22300EDE6E040EDD6E15C095
:104D0200D9FF16C0DAFF800EDF6E88EF26F01200A0
:104D12000C8E710E2B6E0F0E2C6E000E2E6E000E70
:104D22002D6E000E306E020E2F6E93EC1CF0000EF4
:104D32002B6E040E2C6E000E2E6E000E2D6E000ECB
:104D4200306E300E2F6E93EC1CF06D8C000E3F6EA9
:104D5200DE0E3F24D96EDA6A000EDA22000EDF6E12
:104D6200DB0E3F24D96EDA6A000EDA22000EDF6E05
:104D72003F2A020E3F64C0EF26F0C2EF26F0A9EFF1
:104D820026F0FB0E2B6E000E2C6E000E2E6E000E09
:104D92002D6E000E306E020E2F6E93EC1CF06D9C89
:104DA200080E0F6E040E106E000E176E040E186EB3
:104DB20017C015F018C016F032C42AF02A50D8A431
:104DC200E5EF26F0E7EF26F0EBEF26F0100E286E67
:104DD200FBEF26F0000E386E010E376E2A0E396E8A
:104DE200000E3A6E000E3C6E010E3B6E6FEC29F027
:104DF200200E286E120000016B516C11D8A404EF32
:104E020027F006EF27F019EF27F0E1C06BF0E2C0C0
:104E12006CF06B516C11D8A411EF27F013EF27F04F
:104E220019EF27F0000E6B6F000E6C6F6DEF27F01D
:104E32006BC064F06CC065F06DC066F06EC067F068
:104E420098EC2AF0000164516B2765516C236BC00A
:104E5200D9FF6CC0DAFFDF50D8A432EF27F034EF6D
:104E620027F03EEF27F0000EE16F000EE26FE1C087
:104E72006BF0E2C06CF06DEF27F06BC064F06CC0B9
:104E820065F06DC066F06EC067F0CDEC2AF00001EF
:104E920064516B25E16F65516C21E26FE1C0D9FF6E
:104EA200E2C0DAFFDF50D8B459EF27F05BEF27F00A
:104EB20065EF27F0E1C0D9FFE2C0DAFF000EDF6E36
:104EC200E14BE22B69EF27F0000EE16F000EE26F7B
:104ED2006BC06BF06CC06CF01200000E0001EB6F47
:104EE200E551E611D8B478EF27F07AEF27F085EF95
:104EF20027F0E5C0D9FFE6C0DAFFDFBE83EF27F077
:104F020085EF27F0C7EF27F020EE01F0E551D92613
:104F1200E651DA226D51DE5CD8B092EF27F094EFC1
:104F220027F09CEF27F020EE01F0E551D926E6515B
:104F3200DA22DF506D6F000EEB6FAFEF27F0400EFD
:104F4200EB25D96EDA6A050EDA22EB516B25E16E9A
:104F5200000E6C21E26EDFCFE7FFEB2B6D51EB5DB4
:104F6200D8A0B6EF27F0B8EF27F0A0EF27F0000E99
:104F7200606F400E616F050E626F400E636F020E2E
:104F8200EFEC1FF060C0E5F061C0E6F00001EB510C
:104F920012002D0E216E29C048F0FD0E4816D8A42D
:104FA200D5EF27F0D7EF27F019EF28F029C048F006
:104FB200D89048323F0E48164850040D000EF32494
:104FC200176E040EF420186E17C015F018C016F0F4
:104FD200040E1518156E1650166E17C0D9FF18C09C
:104FE200DAFFDF30E8320F0B0D0AD8A4FBEF27F00F
:104FF200FDEF27F015EF28F0300E2B6E040E2C6E0D
:1050020020EE02F01750D9261850DA22DECF2DF00A
:10501200DDCF2EF0000E306E080E2F6E15EC2CF048
:1050220028EC29F025EF28F0EFEC29F025EF28F005
:105032002950FD0B040AD8A421EF28F023EF28F011
:1050420025EF28F08DEC24F01200000E000160150F
:10505200686F000E6115696F800E62156A6F7F0EB0
:1050620063156B6F685169116A116B11D8A43CEF1B
:1050720028F03EEF28F046EF28F0000E606F000E99
:10508200616F000E626F000E636F000E6415686F31
:10509200000E6515696F800E66156A6F7F0E6715C3
:1050A2006B6F685169116A116B11D8A45BEF28F01C
:1050B2005DEF28F065EF28F0000E646F000E656F5B
:1050C200000E666F000E676F645160190FE1655143
:1050D20061190CE16651621909E167516319D8B48B
:1050E20075EF28F077EF28F07AEF28F0D8907BEF71
:1050F20028F0D8801200000E1D6E000E1C6E020EEB
:105102002618D8A487EF28F089EF28F0A9EF28F015
:1051120020EE01F01550D9261650DA22200EDF6E4D
:1051220020EE02F01550D9261650DA22500EDE6E0D
:10513200040EDD6E15C0D9FF16C0DAFF480EDF6E11
:1051420015C0D9FF16C0DAFF000EDB8ED1EF28F0B2
:105152000D500401365D0E503759D8B0B3EF28F028
:10516200B5EF28F0B9EF28F036C40DF037C40EF0D1
:10517200FEEC22F020EE02F00F50D9261050DA2277
:10518200500EDE6E040EDD6E0FC0D9FF10C0DAFFC6
:10519200480EDF6E0FC0D9FF10C0DAFF000EDB8EA3
:1051A2001200306E000E316E040E326E2B502C6ED9
:1051B2002D6AD8902C362D3630502E6E2F6AD8900C
:1051C2002E362F36D8902E362F362C502E262D5096
:1051D2002F22D8902E362F36D8902E362F362E509C
:1051E20031262F50322231C0D9FF32C0DAFFDF9E82
:1051F2002B50D8A4FFEF28F001EF29F00FEF29F090
:105202003050020DC30EF324D96E000EF420DA6E74
:1052120031C0DEFF32C0DDFF1BEF29F03050020D3E
:105222000F0EF324D96E000EF420DA6E31C0DEFFC9
:1052320032C0DDFF31C0D9FF32C0DAFFDF9C20EE81
:1052420004F03150D9263250DA22DF8C1200000EDF
:10525200276E000E206E000E1D6E000E1C6E000EDC
:10526200226E000E266E0FC0D9FF10C0DAFF7F0E2D
:10527200DF16040E0F180F6E1050106E0FC0D9FFFC
:1052820010C0DAFF7F0EDF16040E0F180F6E1050DB
:10529200106E15C0D9FF16C0DAFF7F0EDF16000EA2
:1052A2000C6E000E0E6E000E0D6E000E046E000EE1
:1052B200066E000E056E70EC22F0000E386E030EC4
:1052C200376E000E396E000E3A6E000E3C6E000E06
:1052D2003B6E6FEC29F031EC21F0120079EF29F0EE
:1052E20002EC2BF0B2EF29F090EC25F0B2EF29F0AE
:1052F20037C03DF038C03EF03E50000AD8B488EFC7
:1053020029F07F0AD8B4ABEF29F0B2EF29F03D5073
:10531200010AD8B471EF29F0030AD8B4B2EF29F028
:10532200010AD8B475EF29F0060AD8B4B2EF29F011
:10533200770AD8B4B2EF29F0010AD8B4B2EF29F053
:10534200070AD8B4B2EF29F0010AD8B4B2EF29F0B3
:10535200B2EF29F03D50FF0AD8B4B2EF29F0B2EF14
:1053620029F012002A0E00016B6F010E6C6F200EE5
:105372006D6F6EEC27F00001C26FC251D8B4C4EF5A
:1053820029F0C6EF29F0EAEF29F0290EC225D96EDD
:10539200DA6A010EDA220A0EDE18D8B4D3EF29F047
:1053A200D5EF29F0E4EF29F0290EC225D96EDA6A89
:1053B200010EDA220D0EDE18D8A4E2EF29F0E4EF96
:1053C20029F0EAEF29F02A0EBD6F010EBE6F7CECC8
:1053D20017F009EC1BF0B3EF29F01200020E2618A9
:1053E200D8A4F6EF29F0F8EF29F0FCEF29F090ECC1
:1053F20020F028EF2AF0000E266E2250D8A404EFE7
:105402002AF006EF2AF026EF2AF020EE01F01550DE
:10541200D9261650DA22200EDF6E20EE02F0155049
:10542200D9261650DA22300EDE6E040EDD6E15C05D
:10543200D9FF16C0DAFF0C0EDF6E15C0D9FF16C0F9
:10544200DAFF000EDB8E28EF2AF0000E226E120029
:10545200010E0001666FD00E626FFF0E636F60C0B7
:1054620064F061C065F06251642763516523655140
:1054720009E10A0E645DD8A041EF2AF043EF2AF059
:105482005EEF2AF09F0E626FFF0E636F200E6011B7
:10549200646F000E6111656F625164276351652369
:1054A200655109E1060E645DD8A05AEF2AF05CEF5F
:1054B2002AF05EEF2AF0000E666F66C060F0616B44
:1054C2001200000E0001686F000E696F000E6A6F15
:1054D200000E6B6F60A170EF2AF072EF2AF07AEF84
:1054E2002AF0645168276551692366516A2367511E
:1054F2006B23D8906437653766376737D890633344
:105502006233613360336051611162116311D8A457
:105512008DEF2AF08FEF2AF06BEF2AF068C060F06F
:1055220069C061F06AC062F06BC063F01200000EE5
:1055320000016A6F000E696FA3EF2AF0644B652BBE
:10554200694B6A2B64C0D9FF65C0DAFFDF50D8B45B
:10555200ADEF2AF0AFEF2AF0C8EF2AF066C060F094
:1055620067C061F064C0D9FF65C0DAFFDF50686FC1
:105572006851626F636BC1EC2BF0000160516111E5
:10558200D8A4C6EF2AF0C8EF2AF09FEF2AF069C02C
:1055920064F06AC065F01200000E00016A6F000E2E
:1055A200696FD8EF2AF0644B652B694B6A2B64C094
:1055B200D9FF65C0DAFFDF50D8B4E2EF2AF0E4EF9A
:1055C2002AF0FDEF2AF066C060F067C061F064C0A7
:1055D200D9FF65C0DAFFDF50686F6851626F636B95
:1055E200C1EC2BF0000160516111D8B4FBEF2AF03D
:1055F200FDEF2AF0D4EF2AF069C064F06AC065F0CA
:105602001200000E0001F46F4B0EF56F000EF66FE4
:10561200000EF76F000EF86F000EF96F080EFA6FAA
:10562200000EEB6F1A0E336E010E3DEC2CF01E0EC7
:10563200336E020E3DEC2CF0000E2B6E400E2C6EE3
:10564200050E2D6E400E2E6E020ED1EC21F02BC0F7
:10565200E5F02CC0E6F0000E0001E36F000EE46FEF
:10566200000E1A6E12009F0E0001686FFF0E696F26
:1056720066C06AF067C06BF068516A2769516B2394
:105682006B510AE11A0E6A5DD8A04AEF2BF04DEF7A
:105692002BF0010E4EEF2BF0000E6C6F6D6B6C5108
:1056A2006D11D8B457EF2BF059EF2BF05FEF2BF0C1
:1056B2005F0E6615666F676B63EF2BF066C066F070
:1056C20067C067F0120070A069EF2BF06BEF2BF050
:1056D20092EF2BF017C0D9FF18C0DAFF800EDE1848
:1056E200D8A476EF2BF078EF2BF091EF2BF00FC0D0
:1056F200D9FF10C0DAFF840EDE18D8A483EF2BF096
:1057020085EF2BF091EF2BF017C0D9FF18C0DAFF0D
:105712000C0EDF6E17C0D9FF18C0DAFF000EDB8E49
:105722007090689A12000600E1CF4AF0E2CF4BF087
:10573200D9CF4CF0DACF4DF0F3CF4EF0F4CF4FF09B
:10574200F6CF50F0F7CF51F0F8CF52F0F5CF53F03B
:1057520049EC2DF053C0F5FF52C0F8FF51C0F7FFDE
:1057620050C0F6FF4FC0F4FF4EC0F3FF4DC0DAFF4A
:105772004CC0D9FF4BC0E2FF4AC0E1FF5492110076
:1057820060C0F6FF61C0F7FF0800F5500001621922
:10579200D8A4CEEF2BF0D0EF2BF0D6EF2BF060C0D9
:1057A20060F061C061F0EAEF2BF060C0F6FF61C00B
:1057B200F7FF604B612B0800F5500009D8A4E4EF15
:1057C2002BF0E6EF2BF0C1EF2BF0000E606F000E16
:1057D200616F1200010E0001666F200E60196111E7
:1057E200D8B4F6EF2BF0F8EF2BF011EF2CF0F70E08
:1057F200626FFF0E636F60C064F061C065F062515A
:10580200642763516523655109E1050E645DD8A0E3
:105812000DEF2CF00FEF2CF011EF2CF0000E666F55
:1058220066C060F0616B12002DC033F02EC034F000
:105832002BC031F02CC032F02FEF2CF033C0D9FF47
:1058420034C0DAFFDF50356E334A342A31C0D9FF13
:1058520032C0DAFF35C0DFFF314A322A2F06D8A024
:1058620030062F2806E13028D8A43AEF2CF03CEF7E
:105872002CF01FEF2CF01200366E33A443EF2CF005
:1058820045EF2CF04AEF2CF0000E2B6E3650D2EC86
:1058920028F033A24FEF2CF051EF2CF056EF2CF002
:1058A200010E2B6E3650D2EC28F0700E3624346E78
:1058B200356A0F0E352234C0D9FF35C0DAFF33C046
:1058C200DFFF12002850D8A469EF2CF06BEF2CF008
:1058D20083EF2CF0000E6D6E000E696E060E6F6E79
:1058E2009F0E6B6E7B0E696EA28AA08A7AEF2CF0F5
:1058F2006D866DA67FEF2CF081EF2CF079EF2CF006
:10590200010E286E1200000E246E000E386E740E08
:10591200376E000E396E000E3A6E000E3C6E000EAF
:105922003B6E6FEC29F06D92699499EF2CF06894BC
:1059320068B49EEF2CF0A0EF2CF098EF2CF0000E44
:105942001B6E12009F0E0001626FFF0E636F60C03C
:1059520064F061C065F0625164276351652365514B
:105962000AE11A0E645DD8A0B9EF2CF0BCEF2CF05E
:10597200010EBDEF2CF0000E606F616B1200D00EB5
:105982000001626FFF0E636F60C064F061C065F07A
:10599200625164276351652365510AE10A0E645D11
:1059A200D8A0D6EF2CF0D9EF2CF0010EDAEF2CF0C4
:1059B200000E606F616B1200000160516111621193
:1059C2006311D8B4E7EF2CF0E9EF2CF0F1EF2CF0F3
:1059D200000E601B000E611B000E621B800E631B1B
:1059E20060C060F061C061F062C062F063C063F0E9
:1059F20012001F0E286400EF2DF002EF2DF00FEFC2
:105A02002DF06DB207EF2DF009EF2DF00FEF2DF015
:105A1200000E0001616F606914EF2DF0000E0001AD
:105A2200616F000E606F60511200010E0001D127FC
:105A3200000ED223D323D4232450D8A423EF2DF055
:105A420025EF2DF02FEF2DF01B2A1B50D8A42CEFA1
:105A52002DF02EEF2DF02FEF2DF01B68120001EE2E
:105A620000F04A0EEE6AE806FDE100EEC3F03A0EDF
:105A7200EE6AE806FDE100EE01F02A0EEE6AE806A3
:105A8200FDE154905492000EF86E0001A4EF2DF047
:105A9200F2AC4EEF2DF050EF2DF060EF2DF0A0AAFA
:105AA20055EF2DF057EF2DF060EF2DF0A1AA5CEF2E
:105AB2002DF05EEF2DF060EF2DF019EC19F01200D1
:105AC2009490949292909690969296948D908D92B4
:105AD2008D9495909592959495969598959A958C86
:105AE2009382938493809388938A94941200A09AC9
:105AF2001A50D8A47FEF2DF081EF2DF08CEF2DF00E
:105B020060C0D8F061C0D9F062C019F0010E000186
:105B1200EA6F010E1A6EA08A1200698468986D827B
:105B2200010E246E000E1B6E000E386E750E376E5F
:105B3200000E396E000E3A6E000E3C6E000E3B6E89
:105B42006FEC29F0120061EC2DF0DEEC2DF0FAEC96
:105B52002CF00009D8B4B0EF2DF0B2EF2DF0A8EF81
:105B62002DF0B3EC29F0A8EF2DF007EF08F00001BB
:105B720060516203F3CF64F0F4CF65F060516303C8
:105B8200F350652761516203F350652764C060F0EA
:105B920065C061F01200FF0E0001646FFF0E656FB9
:105BA200FF0E666F7F0E676F64C060F065C061F0C4
:105BB20066C062F067C063F01200F28EF28CFEECF7
:085BC2001DF063EC2CF0120051
:020000040020DA
:08000000FFFFFFFFFFFFFFFF00
:020000040030CA
:0E000000230E391EFF8381FF0FC00FE00F405B
:00000001FF
