:0410000007EF08F0FE
:10100800558237ED29F00DEF2DF000B6105E1084F3
:10101800101B1009024300020100C032090400003D
:101028000102020100052400100104240202052423
:101038000600010524010001070581030A000209D1
:10104800040100020A000000070502024000000730
:10105800058202400000260341004C004C00490074
:101068004F004E00450020004A004F00410051004B
:10107800550049004E000000000000002003540005
:1010880065007300740020005500530042002000E2
:1010980044006500760069006300650012010002E3
:1010A80002000020D8040A00000101020001040324
:1010B8000904446972656374696F6E3A20554E433A
:1010C8004C4F434B574953450A00556E7375707022
:1010D8006F7274656420436F6D6D616E642E0A00D3
:1010E800446972656374696F6E3A20434C4F434B91
:1010F800574953450A004732382D636F6D6D616E4D
:101108006420617272697665210A0047302D636F29
:101118006D6D616E6420617272697665210A00489E
:101128004F4D4520415252495645210A00494E46E5
:10113800494E49545900696E66696E697479004E62
:10114800414E00696E66006E616E0020000000016D
:101158007B517C11D8B4B3EF08F0B5EF08F0C1EFBC
:1011680008F07BC0D9FF7CC0DAFF79C0DEFF7AC007
:10117800DDFFC1EF08F0794B7A2B010E936F79C030
:10118800D9FF7AC0DAFF200EDE18D8B4CEEF08F007
:10119800D1EF08F0010ED2EF08F0000E986F996BAE
:1011A80098519911D8A4DBEF08F0DDEF08F0FFEFB4
:1011B80008F0F70E7D6FFF0E7E6F79C0D9FF7AC0F9
:1011C800DAFFDF507F6F7F51986F996B98C080F07E
:1011D80099C081F07D5180277E518123815109E199
:1011E800050E805DD8A0FBEF08F0FDEF08F0FFEFDB
:1011F80008F0000E936F93C083F0846B83518411C1
:10120800D8A409EF09F00BEF09F0BFEF08F0000EC2
:10121800956F2D0E98199911D8A415EF09F017EFAD
:1012280009F01DEF09F0010E956F794B7A2B29EF24
:1012380009F02B0E98199911D8A425EF09F027EF7A
:1012480009F029EF09F019EF09F0000E9E6F2EEF53
:1012580009F09E2B9E517925D96E000E7A21DA6EFF
:10126800DF50D8B43AEF09F03CEF09F06CEF09F021
:101278009E517925D96E000E7A21DA6EDF507D6F86
:101288003E0E9E25F66EF76A110EF7220800F550FD
:101298007D19D8B452EF09F054EF09F02DEF09F099
:1012A8009E517925D96E000E7A21DA6EDF507D6F56
:1012B800350E9E25F66EF76A110EF7220800F550D6
:1012C8007D19D8B46AEF09F06CEF09F02DEF09F039
:1012D800020E9E6572EF09F074EF09F0A0EF09F0B5
:1012E800000E9A6F000E9B6F800E9C6F7F0E9D6F95
:1012F8007B517C11D8B483EF09F085EF09F046EFF4
:1013080011F0080E9E19D8B48CEF09F08EEF09F091
:1013180090EF09F0030E9E6F9E5179257D6F000EA8
:101328007A217E6F7BC0D9FF7CC0DAFF7DC0DEFFEB
:101338007EC0DDFF46EF11F0000E9E6FA5EF09F0AD
:101348009E2B9E517925D96E000E7A21DA6EDF50D8
:10135800D8B4B1EF09F0B3EF09F0E3EF09F09E510B
:101368007925D96E000E7A21DA6EDF507D6F4F0E27
:101378009E25F66EF76A110EF7220800F5507D19C2
:10138800D8B4C9EF09F0CBEF09F0A4EF09F09E51EA
:101398007925D96E000E7A21DA6EDF507D6F470EFF
:1013A8009E25F66EF76A110EF7220800F5507D1992
:1013B800D8B4E1EF09F0E3EF09F0A4EF09F0030E68
:1013C8009E19D8A4EAEF09F0ECEF09F05BEF0AF0F8
:1013D800340E606F110E616F7EEC30F060C09AF0D1
:1013E80061C09BF062C09CF063C09DF000017B511E
:1013F8007C11D8B402EF0AF004EF0AF046EF11F0BE
:101408009E517927000E7A2379C0D9FF7AC0DAFF76
:10141800280EDE18D8A413EF0AF015EF0AF051EFE2
:101428000AF0000E9E6F1AEF0AF09E2B9E51792546
:10143800D96E000E7A21DA6EDF50D8B426EF0AF0A2
:1014480028EF0AF037EF0AF09E517925D96E000E81
:101458007A21DA6E290EDE18D8A435EF0AF037EFB4
:101468000AF019EF0AF09E517925D96E000E7A21FB
:10147800DA6E290EDE18D8A444EF0AF046EF0AF017
:1014880051EF0AF09E517D6F7E6B010E7D27000E95
:101498007E237D5179277E517A237BC0D9FF7CC07A
:1014A800DAFF79C0DEFF7AC0DDFF46EF11F0000EEB
:1014B800996F000E986F000E9A6F000E9B6F000ECA
:1014C8009C6F000E9D6F000E976F000E966F000EBA
:1014D8009E6F70EF0AF09E2B9E517925D96E000EF3
:1014E8007A21DA6E300EDE18D8B47DEF0AF07FEF7D
:1014F8000AF06FEF0AF09E51D8B485EF0AF087EF33
:101508000AF023EF0EF09E517925D96E000E7A214C
:10151800DA6E780EDE18D8B494EF0AF096EF0AF077
:10152800A5EF0AF09E517925D96E000E7A21DA6E60
:10153800580EDE18D8A4A3EF0AF0A5EF0AF023EF9F
:101548000EF09E517D6F7E6B010E7D27000E7E236F
:101558007D5179277E517A23000E9E6FB5EF0AF0F0
:101568009E2B9E517925D96E000E7A21DA6E300EA7
:10157800DE18D8B4C2EF0AF0C4EF0AF0B4EF0AF0EC
:10158800000E9E6F9E517925D96E000E7A21DA6E73
:10159800700EDE18D8B4D3EF0AF0D5EF0AF065EF75
:1015A8000CF09E517925D96E000E7A21DA6E500E14
:1015B800DE18D8A4E2EF0AF0E4EF0AF0E6EF0AF04A
:1015C80065EF0CF09E517925D96E000E7A21DA6EFE
:1015D8002E0EDE18D8A4F3EF0AF0F5EF0AF0F9EFB3
:1015E8000AF095899E2B65EF0CF09E517925D96EEE
:1015F800000E7A21DA6EDF507D6F7D51606F616B6E
:101608009EEC2CF0000160516111D8B40EEF0BF084
:1016180010EF0BF08CEF0BF0000E946FD00E7D6F77
:10162800FF0E7E6F9E517925D96E000E7A21DA6EF3
:10163800DF507F6F806B7D517F277E5180238051E3
:101648000AE10A0E7F5DD8A02CEF0BF02FEF0BF00C
:10165800010E30EF0BF0000E856F866B85518611F9
:10166800D8B439EF0BF03BEF0BF046EF0BF09E517F
:101678007925D96E000E7A21DA6EDF50D00F946F7B
:1016880057EF0BF09E517925D96E000E7A21DA6E4C
:10169800DF507D6F7D51666F676BDEEC2DF00001CA
:1016A8006651C90F946F99BF65EF0BF0995107E127
:1016B800080E985DD8B063EF0BF065EF0BF084EF80
:1016C8000BF0985107087D6FD8907D37D8907D37FB
:1016D80094C07EF07F6B806B816B7D2B79EF0BF074
:1016E800D8907E377F37803781377D2F74EF0BF0A6
:1016F8007E519A137F519B1380519C1381519D13E6
:10170800984B992B040E9627000E972396EF0BF013
:10171800000E796F000E7A6F000E7B6F000E7C6FE3
:1017280067EF11F09E2BC6EF0AF09E517925D96E0E
:10173800000E7A21DA6E700EDE18D8B4A6EF0BF020
:10174800A8EF0BF06CEF0CF09E517925D96E000EC6
:101758007A21DA6E500EDE18D8A4B5EF0BF0B7EF89
:101768000BF0B9EF0BF06CEF0CF09E517925D96EA8
:10177800000E7A21DA6E300EDE18D8A4C6EF0BF010
:10178800C8EF0BF0D7EF0BF098519911D8A4CFEF11
:101798000BF0D1EF0BF0D7EF0BF0FC0E9627FF0EF6
:1017A800972364EF0CF09E517925D96E000E7A21AB
:1017B800DA6EDF507D6F7D51606F616B9EEC2CF0AF
:1017C800000160516111D8B4ECEF0BF0EEEF0BF0B3
:1017D80064EF0CF0000E946FD00E7D6FFF0E7E6FDD
:1017E8009E517925D96E000E7A21DA6EDF507F6F0F
:1017F800806B7D517F277E51802380510AE10A0E3C
:101808007F5DD8A00AEF0CF00DEF0CF0010E0EEF83
:101818000CF0000E876F886B87518811D8B417EFCA
:101828000CF019EF0CF024EF0CF09E517925D96ECD
:10183800000E7A21DA6EDF50D00F946F35EF0CF07E
:101848009E517925D96E000E7A21DA6EDF507D6FB0
:101858007D51666F676BDEEC2DF000016651C90F94
:10186800946F99BF43EF0CF0995107E1080E985D0A
:10187800D8B041EF0CF043EF0CF062EF0CF0985148
:1018880007087D6FD8907D37D8907D3794C07EF05B
:101898007F6B806B816B7D2B57EF0CF0D8907E3778
:1018A8007F37803781377D2F52EF0CF07E519A13A6
:1018B8007F519B1380519C1381519D13984B992BF9
:1018C8009E2B95B96AEF0CF06CEF0CF099EF0BF0CA
:1018D8009E517925D96E000E7A21DA6E700EDE18C7
:1018E800D8B479EF0CF07BEF0CF094EF0CF09E512C
:1018F8007925D96E000E7A21DA6E500EDE18D8B42A
:1019080088EF0CF08AEF0CF094EF0CF0000E796F72
:10191800000E7A6F000E7B6F000E7C6F67EF11F080
:101928009E2B9E517925D96E000E7A21DA6E2B0EE8
:10193800DE18D8A4A2EF0CF0A4EF0CF0A7EF0CF07F
:101948009E2BB8EF0CF09E517925D96E000E7A21A6
:10195800DA6E2D0EDE18D8A4B4EF0CF0B6EF0CF04A
:10196800B8EF0CF095879E2B9E517927000E7A23AD
:10197800000E9E6FC1EF0CF09E2B9E517925D96EFB
:10198800000E7A21DA6E300EDE18D8B4CEEF0CF0E5
:10199800D0EF0CF0C0EF0CF0000E996F000E986FAE
:1019A80003EF0DF09E51D8B4DCEF0CF0DEEF0CF035
:1019B800ECEF0CF098C060F099C061F0000E636F16
:1019C8000A0E626F6AEC30F060C098F061C099F05E
:1019D800D00E00017D6FFF0E7E6F9E517925D96E66
:1019E800000E7A21DA6EDF507F6F806B7D517F2782
:1019F8007E5180237F519827805199239E2BD00EAA
:101A08007D6FFF0E7E6F9E517925D96E000E7A216B
:101A1800DA6EDF507F6F806B7D517F277E51802388
:101A280080510AE10A0E7F5DD8A01DEF0DF020EF6E
:101A38000DF0010E21EF0DF0000E896F8A6B8951B0
:101A48008A11D8A42AEF0DF02CEF0DF0D6EF0CF088
:101A58009E51D8A432EF0DF034EF0DF03EEF0DF0AB
:101A6800000E796F000E7A6F000E7B6F000E7C6F90
:101A780067EF11F095A743EF0DF045EF0DF049EF33
:101A88000DF0986D991FD8B0992B985196279951B8
:101A980097237B517C11D8B454EF0DF056EF0DF01D
:101AA80064EF0DF09E5179257D6F000E7A217E6FCF
:101AB8007BC0D9FF7CC0DAFF7DC0DEFF7EC0DDFFC2
:101AC8009A519B119C119D11D8A46DEF0DF06FEFE9
:101AD8000DF079EF0DF0000E796F000E7A6F000EA1
:101AE8007B6F000E7C6F67EF11F0FF0E9A157D6F0C
:101AF800000E9B157E6F000E9C157F6F000E9D15C6
:101B0800806F80517F117E1109E1810E7D5DD8A023
:101B180090EF0DF092EF0DF0A4EF0DF0000E9A2764
:101B2800010E9B23000E9C23000E9D23A4EF0DF0B5
:101B3800D8909A379B379C379D379607D8A0970738
:101B48009DAFA9EF0DF0ABEF0DF09CEF0DF097AF47
:101B5800B7EF0DF0830E965DFF0E9759D8B0B7EF2B
:101B68000DF0B9EF0DF0C5EF0DF0FF0E976F810E78
:101B7800966F000E9A6F000E9B6F000E9C6F000E02
:101B88009D6F810E961908E19729D8B4CEEF0DF014
:101B9800D0EF0DF0D8EF0DF0D8909A379B379C37DF
:101BA8009D379607D8A0970797BFE4EF0DF0975198
:101BB80009E1800E965DD8A0E4EF0DF0E6EF0DF098
:101BC800F2EF0DF0000E9A6F000E9B6F000E9C6FE7
:101BD800000E9D6F000E976F800E966F090E7D6F39
:101BE800D8909D339C339B339A337D2FF4EF0DF0BF
:101BF800FF0E9A17FF0E9B177F0E9C17000E9D175E
:101C08007F0E96257D6F000E97217E6FFF0E7D1546
:101C18007F6F806B816B826B170ED8907F37803710
:101C280081378237E82E11EF0EF07F519A138051D9
:101C38009B1381519C1382519D1346EF11F095B966
:101C480028EF0EF02AEF0EF03CEF0EF079C0D9FF26
:101C58007AC0DAFF2E0EDE18D8A435EF0EF037EF73
:101C68000EF03CEF0EF09589794B7A2B23EF0EF0AE
:101C7800D00E7D6FFF0E7E6F79C0D9FF7AC0DAFF74
:101C8800DF507F6F806B7D517F277E51802380518D
:101C98000AE10A0E7F5DD8A054EF0EF057EF0EF060
:101CA800010E58EF0EF0000E8B6F8C6B8B518C1160
:101CB800D8A461EF0EF063EF0EF065EF0EF0B4EF0D
:101CC8000EF09583090E98199911D8B46EEF0EF09D
:101CD80070EF0EF0A7EF0EF095A975EF0EF077EF05
:101CE8000EF07AEF0EF09607D8A09707984B992B2D
:101CF8009AC060F09BC061F09CC062F09DC063F028
:101D08000A0E646F000E656F000E666F000E676F37
:101D1800D7EC2CF060C09AF061C09BF062C09CF0D8
:101D280063C09DF079C0D9FF7AC0DAFFDF500001A7
:101D38007D6FD00E7D277D519A27000E9B239C2313
:101D48009D23B0EF0EF095B9ACEF0EF0AEEF0EF0AC
:101D5800B0EF0EF0964B972B794B7A2B23EF0EF0C2
:101D6800000E996F000E986F79C0D9FF7AC0DAFF1C
:101D7800650EDE18D8B4C3EF0EF0C5EF0EF0D2EF43
:101D88000EF079C0D9FF7AC0DAFF450EDE18D8A464
:101D9800D0EF0EF0D2EF0EF0C3EF0FF0794B7A2BA5
:101DA80079C0D9FF7AC0DAFF2D0EDE18D8A4DFEF8C
:101DB8000EF0E1EF0EF0E6EF0EF09587794B7A2BF7
:101DC800F5EF0EF079C0D9FF7AC0DAFF2B0EDE18D6
:101DD800D8A4F1EF0EF0F3EF0EF0F5EF0EF0794B1B
:101DE8007A2B79C0D9FF7AC0DAFF300EDE18D8B462
:101DF80000EF0FF002EF0FF0F3EF0EF0D00E7D6F53
:101E0800FF0E7E6F79C0D9FF7AC0DAFFDF507F6F8F
:101E1800806B7D517F277E51802380510AE10A0E15
:101E28007F5DD8A01AEF0FF01DEF0FF0010E1EEF27
:101E38000FF0000E8D6F8E6B8D518E11D8B427EF79
:101E48000FF029EF0FF0B8EF0FF079C0D9FF7AC083
:101E5800DAFFDF507D6FD00E7D277D51986F996B2B
:101E6800794B7A2BD00E7D6FFF0E7E6F79C0D9FF2C
:101E78007AC0DAFFDF507F6F806B7D517F277E51FC
:101E8800802380510AE10A0E7F5DD8A04EEF0FF043
:101E980051EF0FF0010E52EF0FF0000E8F6F906BA5
:101EA8008F519011D8B45BEF0FF05DEF0FF0B8EFE2
:101EB8000FF079C0D9FF7AC0DAFFDF507D6FD00EFE
:101EC8007D2798C060F099C061F0000E636F0A0E1C
:101ED800626F6AEC30F000017D516025986F000E4A
:101EE8006121996F794B7A2BD00E7D6FFF0E7E6F33
:101EF80079C0D9FF7AC0DAFFDF507F6F806B7D51E0
:101F08007F277E51802380510AE10A0E7F5DD8A089
:101F180090EF0FF093EF0FF0010E94EF0FF0000E1B
:101F2800916F926B91519211D8B49DEF0FF09FEF82
:101F38000FF0B8EF0FF079C0D9FF7AC0DAFFDF50A1
:101F48007D6FD00E7D2798C060F099C061F0000EBB
:101F5800636F0A0E626F6AEC30F000017D516025F4
:101F6800986F000E6121996F95A7BDEF0FF0BFEF35
:101F78000FF0C3EF0FF0986D991FD8B0992B9851B7
:101F88009627995197237B517C11D8B4CEEF0FF047
:101F9800D0EF0FF0DFEF0FF095A3D5EF0FF0D7EFED
:101FA8000FF0DFEF0FF07BC0D9FF7CC0DAFF79C0FC
:101FB800DEFF7AC0DDFF9AC060F09BC061F09CC074
:101FC80062F09DC063F0000ECDEC19F060C09AF08D
:101FD80061C09BF062C09CF063C09DF09AC060F045
:101FE8009BC061F09CC062F09DC063F0000E0001D0
:101FF800646F000E656F000E666F000E676FAAECC7
:102008002AF00001D8A00BEF10F00DEF10F017EF39
:1020180010F0000E796F000E7A6F000E7B6F000EC5
:102028007C6F67EF11F097BF1EEF10F01CEF10F0F8
:10203800AFEF10F0966D971FD8B0972B43EF10F0C5
:102048009AC060F09BC061F09CC062F09DC063F0D4
:10205800F90E646F020E656F150E666F500E676F8E
:102068007EEC13F060C09AF061C09BF062C09CF0F7
:1020780063C09DF00001F60E9627FF0E972397BFC9
:1020880051EF10F0975107E10A0E965DD8B04FEF67
:1020980010F051EF10F024EF10F071EF10F09AC02B
:1020A80060F09BC061F09CC062F09DC063F0000EC0
:1020B800646F000E656F200E666F410E676F7EECD1
:1020C80013F060C09AF061C09BF062C09CF063C0DE
:1020D8009DF000019607D8A0970796519711D8A4AC
:1020E80078EF10F07AEF10F053EF10F09AC060F02C
:1020F8009BC061F09CC062F09DC063F0000E646FED
:10210800000E656F800E666F000E676FFDEC25F0A0
:102118000001D8B092EF10F094EF10F046EF11F0F4
:1021280095A199EF10F09BEF10F0A5EF10F0000EBD
:10213800796F000E7A6F800E7B6F800E7C6F67EF71
:1021480011F0000E796F000E7A6F800E7B6F000E13
:102158007C6F67EF11F097BFBAEF10F0975108E165
:102168009605D8A0BAEF10F0BCEF10F046EF11F0CA
:10217800DDEF10F09AC060F09BC061F09CC062F087
:102188009DC063F0F90E646F020E656F150E666FE1
:10219800500E676F68EC11F060C09AF061C09BF058
:1021A80062C09CF063C09DF00001F60E9627FF0EFA
:1021B8009723975107E10A0E965DD8B0E6EF10F025
:1021C800E8EF10F0BEEF10F008EF11F09AC060F0E1
:1021D8009BC061F09CC062F09DC063F0000E646F0C
:1021E800000E656F200E666F410E676F68EC11F088
:1021F80060C09AF061C09BF062C09CF063C09DF023
:1022080000019607D8A0970796519711D8A40FEF09
:1022180011F011EF11F0EAEF10F0FF0E606FFF0EF2
:10222800616F7F0E626F7F0E636F9AC064F09BC010
:1022380065F09CC066F09DC067F0FDEC25F00001DC
:10224800D8B029EF11F02BEF11F046EF11F095A15E
:1022580030EF11F032EF11F03CEF11F0000E796F12
:10226800000E7A6F800E7B6F800E7C6F67EF11F027
:10227800000E796F000E7A6F800E7B6F000E7C6FF8
:1022880067EF11F095A14BEF11F04DEF11F05FEFF3
:1022980011F09AC060F09BC061F09CC062F09DC0D4
:1022A80063F09DEC2FF060C09AF061C09BF062C0B3
:1022B8009CF063C09DF09AC079F09BC07AF09CC0F6
:1022C8007BF09DC07CF0120000016351800B6C6FA5
:1022D80063516325726F62AF74EF11F076EF11F0FE
:1022E80077EF11F072817251D8B47DEF11F07FEF62
:1022F80011F092EF11F07229D8A485EF11F087EF51
:1023080011F08FEF11F0000E606F000E616F000E7C
:10231800626F000E636F628F9AEF11F0000E606FAC
:10232800000E616F000E626F000E636F6751800BC5
:102338006C1B675167256D6F66AFA5EF11F0A7EFAE
:1023480011F0A8EF11F06D816D51D8B4AEEF11F016
:10235800B0EF11F0C3EF11F06D29D8A4B6EF11F06A
:10236800B8EF11F0C0EF11F0000E646F000E656F4A
:10237800000E666F000E676F668FCBEF11F0000ED0
:10238800646F000E656F000E666F000E676F6D510B
:10239800D8B4D1EF11F0D3EF11F0DBEF11F0725197
:1023A800D8A4D9EF11F0DBEF11F0E5EF11F0000E32
:1023B800606F000E616F000E626F000E636F7DEF3D
:1023C80013F066516003F3CF77F0F4CF78F07751CC
:1023D8006E6F6F6B706B716B7851736F746B756B1D
:1023E800766B65516103F3CF77F0F4CF78F07751CE
:1023F8006E27000E6F237023712378517327000E08
:1024080074237523762364516203F3CF77F0F4CFF6
:1024180078F077516E27000E6F237023712378515F
:102428007327000E74237523762370C071F06FC074
:1024380070F06EC06FF06E6B64516103F3CF77F08C
:10244800F4CF78F077516E2778516F23000E702300
:10245800000E712365516003F3CF77F0F4CF78F065
:1024680077516E2778516F23000E7023000E712369
:1024780070C071F06FC070F06EC06FF06E6B645119
:102488006003F3CF77F0F4CF78F077516E27785167
:102498006F23000E7023000E712366516103F3CF82
:1024A80077F0F4CF78F07751732778517423000EC2
:1024B8007523000E762365516203F3CF77F0F4CFCE
:1024C80078F07751732778517423000E7523000E26
:1024D800762366516203F3CF77F0F4CF78F0775123
:1024E800686F7851696F6A6B6B6B6AC06BF069C013
:1024F8006AF068C069F0686B685173276951742382
:102508006A5175236B5176236EC068F06FC069F00D
:1025180070C06AF071C06BF0190E98EF12F0D89085
:102528006B336A3369336833E82E93EF12F06851DE
:102538007327695174236A5175236B51762370C0D0
:1025480071F06FC070F06EC06FF06E6B6D5172C03D
:1025580068F0696B6827000E6923820E6825776F1B
:10256800FF0E6921786FCEEF12F0D8907337743769
:102578007537763771AFC3EF12F0C5EF12F0C6EFBB
:1025880012F07381D8906E376F37703771377707CD
:10259800D8A0780775AFD3EF12F0D5EF12F0B9EFE6
:1025A80012F0000E6D6F71AFDCEF12F0DEEF12F07B
:1025B80002EF13F0FF0E6E15686FFF0E6F15696F4F
:1025C800FF0E70156A6F7F0E71156B6F6851691178
:1025D8006A116B11D8B4F3EF12F0F5EF12F0F9EFBE
:1025E80012F0010E6D6F02EF13F073A1FEEF12F0FF
:1025F80000EF13F002EF13F0F5EF12F06D51D8B4BD
:1026080008EF13F00AEF13F02EEF13F0010E732703
:10261800000E74237523762376A115EF13F017EFB8
:1026280013F02EEF13F073C068F074C069F075C032
:102638006AF076C06BF06B356B336A336933683395
:1026480068C073F069C074F06AC075F06BC076F04A
:10265800774B782B78BF39EF13F0785108E1772959
:10266800D8A039EF13F03BEF13F045EF13F0000E4D
:10267800736F000E746F800E756F7F0E766F73EF39
:1026880013F078BF52EF13F0785106E17705D8B010
:1026980050EF13F052EF13F05EEF13F0000E736F6C
:1026A800000E746F000E756F000E766F000E6C6F63
:1026B80073EF13F077C072F0FF0E7317FF0E7417E5
:1026C8007F0E7517000E761772A16DEF13F06FEF7E
:1026D80013F070EF13F0758FD8907231766F6C51DC
:1026E800761373C060F074C061F075C062F076C094
:1026F80063F0120000016351800B706F6351632512
:10270800776F62AF8AEF13F08CEF13F08DEF13F051
:1027180077817751D8B493EF13F095EF13F0AAEFC0
:1027280013F07729D8A49BEF13F09DEF13F0A5EFD2
:1027380013F0000E606F000E616F000E626F000EE6
:10274800636F628F000E636FB2EF13F0000E606F5D
:10275800000E616F000E626F000E636F6751800B91
:10276800701B67516725786F66AFBDEF13F0BFEF39
:1027780013F0C0EF13F078817851D8B4C6EF13F096
:10278800C8EF13F0DDEF13F07829D8A4CEEF13F0DB
:10279800D0EF13F0D8EF13F0000E646F000E656FE2
:1027A800000E666F000E676F668F000E676FE5EFAD
:1027B80013F0000E646F000E656F000E666F000E5A
:1027C800676F6451651166116711D8A4EEEF13F0B5
:1027D800F0EF13F008EF14F0000E606F000E616F59
:1027E800000E626F000E636F800E62137F0E63131C
:1027F8007051631360C060F061C061F062C062F044
:1028080063C063F04BEF15F07751D8A40EEF14F0C6
:1028180010EF14F01AEF14F0000E606F000E616FE5
:10282800000E626F000E636F4BEF15F0785177C0A2
:1028380068F0696B685F000E695B7F0E6825716FD1
:10284800000E6921726F60C06CF061C06DF062C0EB
:102858006EF063C06FF0000E606F000E616F000EC7
:10286800626F000E636F000E736F000E746F000EC0
:10287800756F000E766F000E786F7BEF14F078514D
:10288800D8B449EF14F04BEF14F062EF14F0D8907D
:102898006C376D376E376F37D8906037613762376E
:1028A800633776AF5AEF14F05CEF14F05DEF14F075
:1028B8006081D890733774377537763764516C5D9B
:1028C80065516D5966516E5967516F59D8A06FEFB0
:1028D80014F071EF14F07AEF14F0768D64516C5F98
:1028E80065516D5B66516E5B67516F5B782B190E96
:1028F800786581EF14F083EF14F043EF14F06C5116
:102908006D116E116F11D8B48CEF14F08EEF14F0B6
:10291800A6EF14F07381A6EF14F0D89060376137F2
:102928006237633776AF9BEF14F09DEF14F09EEF9C
:1029380014F06081D890733774377537763771071C
:10294800D8A0720762AFABEF14F0ADEF14F091EFBF
:1029580014F0000E786F76AFB4EF14F0B6EF14F001
:10296800DAEF14F0FF0E7315686FFF0E7415696FB8
:10297800FF0E75156A6F7F0E76156B6F68516911BA
:102988006A116B11D8B4CBEF14F0CDEF14F0D1EF7E
:1029980014F0010E786FDAEF14F060A1D6EF14F09E
:1029A800D8EF14F0DAEF14F0CDEF14F07851D8B472
:1029B800E0EF14F0E2EF14F006EF15F0010E6027D7
:1029C800000E61236223632363A1EDEF14F0EFEFA0
:1029D80014F006EF15F060C068F061C069F062C0DD
:1029E8006AF063C06BF06B356B336A3369336833F5
:1029F80068C060F069C061F06AC062F06BC063F0E3
:102A0800714B722B72BF11EF15F0725108E17129E9
:102A1800D8A011EF15F013EF15F01EEF15F0000E0A
:102A2800726F7169000E606F000E616F000E626F49
:102A3800000E636F72BF2BEF15F0725106E171053E
:102A4800D8B029EF15F02BEF15F039EF15F0000E7F
:102A5800726F000E716F000E606F000E616F000ED6
:102A6800626F000E636F000E706F71C077F077A110
:102A780040EF15F042EF15F045EF15F0628F46EF85
:102A880015F0629FD8907731636FFCEF13F0120056
:102A9800BDC06BF0BEC06CF0530E00016D6F110E1F
:102AA8006E6FEDEC27F06BC075F16CC076F1000E1F
:102AB80001016E6F73697469F4EF16F075C1D9FF7F
:102AC80076C1DAFFDF506D6F75C1D9FF76C1DAFFC5
:102AD800300EDF6EBFEF16F0710E7B6F010E7C6F4C
:102AE80075C179F076C17AF0ABEC08F079C09FF047
:102AF8007AC0A0F07BC0A1F07CC0A2F059EC1EF017
:102B08009FC0B3F0A0C0B4F0A1C0B5F0A2C0B6F0A9
:102B180079EC25F0B3C06FF1B4C070F1EEEF15F0A9
:102B2800000E0101746F000E736F130E0001606FC9
:102B3800110E616F140E626F3EEC30F0E5EF16F087
:102B4800000E0101746F010E736FE5EF16F0000EB1
:102B58000101746F020E736FE5EF16F0000E0101AC
:102B6800746F030E736FE5EF16F0000E0101746FBA
:102B7800040E736FFE0E0001606F100E616F150E6C
:102B8800626F3EEC30F0E5EF16F0000E0101746F55
:102B9800050E736FE5EF16F0000E0101746F060E57
:102BA800736FE5EF16F0000E0101746F070E736F77
:102BB800E5EF16F0D20E606F100E616F160E626FA1
:102BC8003EEC30F0010E01016E6F0101736974690A
:102BD800E5EF16F06FC1BFF070C1C0F00001C05141
:102BE800000AD8B4FAEF15F0DEEF15F0BF51000A6D
:102BF800D8B494EF15F0010AD8B4A4EF15F0050A7B
:102C0800D8B4ABEF15F0110AD8B4B2EF15F0090A31
:102C1800D8B4B9EF15F0460AD8B4C9EF15F0010ACF
:102C2800D8B4D0EF15F0070AD8B4D7EF15F0DEEF17
:102C380015F0710E7B6F010E7C6F75C179F076C14E
:102C48007AF0ABEC08F079C09FF07AC0A0F07BC0B6
:102C5800A1F07CC0A2F059EC1EF09FC0B3F0A0C058
:102C6800B4F0A1C0B5F0A2C0B6F079EC25F0B3C0BD
:102C78006FF1B4C070F167EF16F0000E0101746FC8
:102C8800090E736FE5EF16F0000E0101746F0A0E5E
:102C9800736FE5EF16F0000E0101746F0B0E736F82
:102CA800E5EF16F0000E0101746F0C0E736FE5EF7F
:102CB80016F0D20E606F100E616F160E626F3EEC4A
:102CC80030F0E6EF15F06FC1BFF070C1C0F0000141
:102CD800C051000AD8B473EF16F05DEF16F0BF517B
:102CE800000AD8B441EF16F0010AD8B448EF16F03C
:102CF800030AD8B44FEF16F0560AD8B456EF16F0B8
:102D08005DEF16F075C179F076C17AF0710E7B6FC0
:102D1800010E7C6FABEC08F079C069F17AC06AF1FA
:102D28007BC06BF17CC06CF169C15EF16AC15FF177
:102D38006BC160F16CC161F1E5EF16F0000E0101A5
:102D4800746F0E0E736FE5EF16F0560E636F010E7B
:102D5800646FE0EC2EF0E5EF16F0010E01016E6FE6
:102D6800D20E0001606F100E616F160E626F3EEC9E
:102D780030F0E9EF15F06D510001BF6FC06BC05125
:102D8800000AD8B4CAEF16F0B1EF16F0BF51460AE0
:102D9800D8B4E5EF16F0010AD8B470EF15F00A0AB6
:102DA800D8B41DEF16F0150AD8B486EF16F0010A4C
:102DB800D8B4A2EF16F0030AD8B4A9EF16F0B1EF11
:102DC80016F0000E00016B6F000E6C6F530E6D6FE6
:102DD800110E6E6FEDEC27F06BC075F16CC076F1DB
:102DE800010175517611D8B4FCEF16F0FEEF16F01C
:102DF80006EF17F06E51D8B404EF17F006EF17F08E
:102E080062EF15F073C1BDF074C1BEF01200040189
:102E18003205D8A412EF17F014EF17F030EF17F0BF
:102E280030511F0B0009D8A41CEF17F01EEF17F044
:102E380030EF17F00001CE8F030E04013119D8A42A
:102E480028EF17F02AEF17F02EEF17F0010E416E5A
:102E580030EF17F0000E416E3251D8A436EF17F05C
:102E680038EF17F0B8EF18F030511F0B020AD8A44A
:102E780040EF17F042EF17F0B8EF18F034510F0B8E
:102E88000009D8B44AEF17F04CEF17F0B8EF18F074
:102E980034510F0B156E030E156055EF17F057EFF1
:102EA80017F0B8EF18F0200E4418D8A45EEF17F00A
:102EB80060EF17F0B8EF18F00001CE8F040134BFAF
:102EC80068EF17F06AEF17F087EF17F034510F0B20
:102ED800156E1550020DD70EF324D96E000EF4208E
:102EE800DA6EDECF1AF0DDCF1BF034510F0B156E02
:102EF800166AE70E1524D96E000E1620DA6EDF501A
:102F0800196EA2EF17F034510F0B156E1550020D04
:102F1800D10EF324D96E000EF420DA6EDECF1AF04B
:102F2800DDCF1BF034510F0B156E166AEA0E15240F
:102F3800D96E000E1620DA6EDF50196E19B0A7EFA1
:102F480017F0A9EF17F0B1EF17F0FB0E1A141A6E6D
:102F5800FF0E1B141B6EB6EF17F0040E1A101A6E34
:102F68001B501B6E34BFBBEF17F0BDEF17F0CEEF51
:102F780017F034510F0B156E1550020DD70EF324B0
:102F8800D96E000EF420DA6E1AC0DEFF1BC0DDFF1A
:102F9800DDEF17F034510F0B156E1550020DD10EE1
:102FA800F324D96E000EF420DA6E1AC0DEFF1BC0BF
:102FB800DDFF030E3119D8A4E4EF17F0E6EF17F0A0
:102FC80020EF18F01AC0D9FF1BC0DAFFDFAEEFEF11
:102FD80017F0F1EF17F012EF18F034BFF6EF17F013
:102FE800F8EF17F006EF18F034510F0B156E166A4C
:102FF800E70E1524D96E000E1620DA6E0001DF8266
:1030080012EF18F034510F0B156E166AEA0E1524DC
:10301800D96E000E1620DA6E0001DF821AC0D9FFC1
:103028001BC0DAFF000EDB841AC0D9FF1BC0DAFF11
:10303800000EDB8EB8EF18F0040E1A181A6E1B502B
:103048001B6E1AC0D9FF1BC0DAFFDFAE2EEF18F0D7
:1030580030EF18F04CEF18F01AC0D9FF1BC0DAFF98
:103068007F0EDF161AC0D9FF1BC0DAFF000EDB8CFB
:10307800000E0E6E050E0D6E1AC00FF01BC010F07C
:10308800000E126E020E116E9EEC2BF052EF18F02D
:103098001AC0D9FF1BC0DAFF000EDB8C040E1A1809
:1030A8001A6E1B501B6E19B25CEF18F05EEF18F029
:1030B80069EF18F01AC0D9FF1BC0DAFFDFAE67EF5F
:1030C80018F069EF18F0A1EF18F0040134BF6FEFA2
:1030D80018F071EF18F07FEF18F034510F0B156EE0
:1030E800166AE70E1524D96E000E1620DA6E000156
:1030F800DF928BEF18F034510F0B156E166AEA0E3B
:103108001524D96E000E1620DA6E0001DF921AC05F
:10311800D9FF1BC0DAFF3B0EDF16000E0E6E050E40
:103128000D6E1AC00FF01BC010F0000E126E020ECA
:10313800116E9EEC2BF0A7EF18F01AC0D9FF1BC038
:10314800DAFF3B0EDF16040134510F0B156E166AB9
:10315800700E1524176E0F0E1620186E17C0D9FFA3
:1031680018C0DAFFFE0EDF1612004404D8A4BFEF21
:1031780018F0C1EF18F0CEEF18F06DBAC6EF18F0DE
:10318800C8EF18F0CEEF18F0000E686E69806988F5
:10319800020E446E68A4D3EF18F0D5EF18F0DFEFF5
:1031A80018F069A4DAEF18F0DCEF18F0DFEF18F088
:1031B800689444EC2FF06DA2E4EF18F0E6EF18F0F5
:1031C800E9EF18F0A19ACCEF19F068A0EEEF18F02B
:1031D800F0EF18F0FDEF18F069A0F5EF18F0F7EF31
:1031E80018F0FDEF18F0A4EC1FF0A08A040E446E4E
:1031F800689068A802EF19F004EF19F00DEF19F0C4
:1032080069A809EF19F00BEF19F00DEF19F054EC5C
:1032180030F068AC12EF19F014EF19F03FEF19F025
:1032280069AC19EF19F01BEF19F029EF19F0000E2E
:103238000E6E730E0D6E000E0F6E000E106E000EE9
:10324800126E010E116E9EEC2BF0689C0DEC30F0A6
:103258003D50D8B432EF19F034EF19F035EF19F0CA
:103268003D063D50D8A43BEF19F03DEF19F03FEF74
:1032780019F0FFEC26F068AA44EF19F046EF19F0B0
:103288004FEF19F069AA4BEF19F04DEF19F04FEF16
:1032980019F00EEC2EF068A254EF19F056EF19F061
:1032A8006CEF19F069A25BEF19F05DEF19F06CEFA4
:1032B80019F07F0E0E6E0D68000E0F6E000E106E68
:1032C800000E126E010E116E9EEC2BF0000E6A6E4F
:1032D800040E446072EF19F074EF19F077EF19F0EB
:1032E800A19ACCEF19F069A67CEF19F07EEF19F0DE
:1032F800CBEF19F0000E1F6E68A685EF19F087EF67
:1033080019F0CBEF19F06CCF51F05130E832E832B8
:103318000F0B3F6E689651B494EF19F096EF19F0C1
:10332800A0EF19F0E70E3F24D96EDA6A000EDA2210
:103338000001DF70A8EF19F0EA0E3F24D96EDA6AAF
:10334800000EDA220001DF703F50D8A4AEEF19F06A
:10335800B0EF19F0B4EF19F0F4EC29F0C2EF19F05E
:10336800000E0E6E720E0D6E510E0F6E000E106E68
:10337800000E126E000E116E9EEC2BF01F2A030E2B
:103388001F64C9EF19F0CBEF19F080EF19F0A19A7B
:1033980012000001686F00016851D8B4D6EF19F027
:1033A800D8EF19F0FAEF19F063BFDFEF19F0DDEF8E
:1033B80019F0FAEF19F060C064F061C065F062C0FE
:1033C80066F063C067F0641F651F661F671F642B84
:1033D800000E65236623672364C06AF065C06BF03E
:1033E80066C06CF067C06DF002EF1AF060C06AF05A
:1033F80061C06BF062C06CF063C06DF06051611128
:1034080062116311D8A40BEF1AF00DEF1AF017EF41
:103418001AF0000E606F000E616F000E626F000EF2
:10342800636FA8EF1AF0960E696F21EF1AF0692BF7
:10343800D8906D336C336B336A33000E6A15646F42
:10344800000E6B15656F000E6C15666FFE0E6D1520
:10345800676F6451651166116711D8A436EF1AF0C9
:1034680038EF1AF01BEF1AF046EF1AF0692B010E2D
:103478006A27000E6B236C236D23D8906D336C3351
:103488006B336A33000E6A15646F000E6B15656F37
:10349800000E6C15666FFF0E6D15676F6451651130
:1034A80066116711D8A45BEF1AF05DEF1AF03AEFD6
:1034B8001AF065EF1AF06907D8906A376B376C37DE
:1034C8006D376CBF6AEF1AF06CEF1AF074EF1AF0F0
:1034D800020E696172EF1AF074EF1AF05FEF1AF0DA
:1034E80069B179EF1AF07BEF1AF07CEF1AF06C9F54
:1034F800D890693369C064F0656B666B676B64C0AC
:1035080067F0666B656B646B64516A1365516B1386
:1035180066516C1367516D136851D8B496EF1AF061
:1035280098EF1AF0A0EF1AF063BF9FEF1AF09DEF23
:103538001AF0A0EF1AF06D8F6AC060F06BC061F0EE
:103548006CC062F06DC063F01200A09A0001EF51E8
:10355800F011D8B4B2EF1AF0B4EF1AF0C2EF1AF0C3
:10356800EFC0D9FFF0C0DAFFDFAEBDEF1AF0BFEF52
:103578001AF0C2EF1AF0A08A76EF1BF0030E361885
:10358800D8A4C9EF1AF0CBEF1AF0CDEF1AF0000E5D
:10359800366E3650D8A4D3EF1AF0D5EF1AF0D8EF1C
:1035A8001AF0A08A76EF1BF0020E3618D8A4DFEFC7
:1035B8001AF0E1EF1AF0F4EF1AF0010E606F000E46
:1035C800616F000E626F000E636F020EEBEC20F06D
:1035D80060C0EFF061C0F0F0030E366E75EF1BF0BF
:1035E8003604D8A4FAEF1AF0FCEF1AF075EF1BF0C6
:1035F800400EF46502EF1BF004EF1BF008EF1BF020
:10360800400E6C6F0AEF1BF0F4C06CF06C51F45D67
:10361800F46F000EE16F050EE26F6CC06BF0F351B2
:10362800D8A419EF1BF01BEF1BF047EF1BF02DEF91
:103638001BF0E4C0F6FFE5C0F7FFE1C0D9FFE2C028
:10364800DAFF0800F5CFDFFFE14BE22BE44BE52B77
:103658006B076B51D8A433EF1BF035EF1BF01DEF50
:103668001BF04FEF1BF0E4C0F6FFE5C0F7FFE1C029
:10367800D9FFE2C0DAFF0800F5CFDFFFE14BE22B0C
:10368800E44BE52B6B076B51D8A44DEF1BF04FEFC4
:103698001BF037EF1BF0F451D8A455EF1BF057EF90
:1036A8001BF066EF1BF0400E6C19D8A45EEF1BF000
:1036B80060EF1BF064EF1BF0020E366E66EF1BF036
:1036C800030E366E010E606F000E616F050E626F9D
:1036D8006CC063F0020EEBEC20F060C0EFF061C04C
:1036E800F0F0A08A120060C06AF061C06BF00001BF
:1036F80064516511D8A483EF1BF085EF1BF087EFA9
:103708001BF032EF1CF06AC0D9FF6BC0DAFF62C051
:10371800DFFF64516A25666F65516B21676FFF0E85
:103728006625D96EFF0E6721DA6E62C0DFFF65512C
:1037380007E1030E645DD8B0A4EF1BF0A6EF1BF001
:10374800A8EF1BF032EF1CF020EE01F06A51D926E9
:103758006B51DA2262C0DFFF20EE02F06A51D926EF
:103768006B51DA2262C0DFFF64516A25666F6551CA
:103778006B21676FFE0E6625D96EFF0E6721DA6E24
:1037880062C0DFFF64516A25666F65516B21676F00
:10379800FD0E6625D96EFF0E6721DA6E62C0DFFF67
:1037A800655107E1070E645DD8B0DDEF1BF0DFEF70
:1037B8001BF0E1EF1BF032EF1CF020EE03F06A5132
:1037C800D9266B51DA2262C0DFFF64516A25666F21
:1037D80065516B21676FFC0E6625D96EFF0E672158
:1037E800DA6E62C0DFFF655107E1090E645DD8B08B
:1037F80000EF1CF002EF1CF004EF1CF032EF1CF09D
:103808006AC066F06BC067F0661F671F664B672B60
:10381800030E6615686F696B68516A2769516B23D7
:103828006851645F6951655BFC0E6417FF0E65178C
:1038380029EF1CF06AC0D9FF6BC0DAFF62C0DFFF56
:103848006407D8A065076A4B6B2B64516511D8A42F
:1038580030EF1CF032EF1CF01EEF1CF0120001C01C
:103868000BF002C00CF005500610D8A43EEF1CF077
:1038780040EF1CF042EF1CF0EDEF1CF00BC0D9FF3D
:103888000CC0DAFF03C0DFFF05500B24076E06509B
:103898000C20086EFF0E0724D96EFF0E0820DA6E82
:1038A80003C0DFFF065007E1030E055CD8B05FEFE9
:1038B8001CF061EF1CF063EF1CF0EDEF1CF020EE44
:1038C80001F00B50D9260C50DA2203C0DFFF20EE9E
:1038D80002F00B50D9260C50DA2203C0DFFF055046
:1038E8000B24076E06500C20086EFE0E0724D96EB6
:1038F800FF0E0820DA6E03C0DFFF05500B24076EA9
:1039080006500C20086EFD0E0724D96EFF0E082005
:10391800DA6E03C0DFFF065007E1070E055CD8B07A
:1039280098EF1CF09AEF1CF09CEF1CF0EDEF1CF0E8
:1039380020EE03F00B50D9260C50DA2203C0DFFF2B
:1039480005500B24076E06500C20086EFC0E072449
:10395800D96EFF0E0820DA6E03C0DFFF065007E1BC
:10396800090E055CD8B0BBEF1CF0BDEF1CF0BFEF33
:103978001CF0EDEF1CF00BC007F00CC008F0071EA0
:10398800081E074A082A030E0714096E0A6A095016
:103998000B260A500C220950055E0A50065AFC0EE6
:1039A8000516FF0E0616E4EF1CF00BC0D9FF0CC07D
:1039B800DAFF03C0DFFF0506D8A006060B4A0C2A6B
:1039C80005500610D8A4EBEF1CF0EDEF1CF0D9EF72
:1039D8001CF01200800E04013019D8A4F6EF1CF078
:1039E800F8EF1CF0A7EF1DF0C00E0001CE6F8DEFB1
:1039F8001DF0A40E0001CB6F100ECC6F000ED06F1F
:103A0800120ECF6FA7EF1DF03251D8A40EEF1DF0A4
:103A180010EF1DF051EF1DF03251020D190EF32475
:103A2800F66E100EF420F76E0900F5CFCBF00A0001
:103A3800F5CFCCF0020E0001CB25016E000ECC2193
:103A4800026E01C0F6FF02C0F7FFF86A070EF764BE
:103A580003D00800F55005D0F6CFE1FFF7CFE2FF1D
:103A6800E7500001CF6F030ECB25016E000ECC216D
:103A7800026E01C0F6FF02C0F7FFF86A070EF7648E
:103A880003D00800F55005D0F6CFE1FFF7CFE2FFED
:103A9800E7500001D06FA7EF1DF0000E0001CE6FB8
:103AA800A7EF1DF0030E32615CEF1DF05EEF1DF015
:103AB80083EF1DF03251020D130EF324F66E100E33
:103AC800F420F76E0900F5CFCBF00A00F5CFCCF063
:103AD800CBC0F6FFCCC0F7FFF86A070EF76403D037
:103AE8000800F55005D0F6CFE1FFF7CFE2FFE75029
:103AF800016E01500001CF6FD06BA7EF1DF0000ED3
:103B08000001CE6FA7EF1DF0000E0001CE6FA7EFEA
:103B18001DF004013351016E026A0250000AD8B444
:103B280098EF1DF088EF1DF00150010AD8B4FDEFA1
:103B38001CF0030AD8B408EF1DF0010AD8B456EFF8
:103B48001DF088EF1DF012003DEF1EF0000E476ECD
:103B5800560E606F010E616F010E626FE2EC2BF082
:103B6800040EE82EFED7560E0001606F010E616F3D
:103B7800000E626F23EC2CF0040EE82EFED7560ED2
:103B88000001606F010E616F000E626FE2EC2BF0B6
:103B9800010E466E57EF1EF001016351D8A4D7EF0E
:103BA8001DF0D9EF1DF057EF1EF0560E0001606FA3
:103BB800010E616F010E626FE2EC2BF0040EE82E2D
:103BC800FED7560E0001606F010E616F010E626F25
:103BD80023EC2CF0040EE82EFED7560E0001606F81
:103BE800010E616F000E626FE2EC2BF0020E466E62
:103BF80057EF1EF001016351D8B405EF1EF007EF2F
:103C08001EF057EF1EF0560E0001606F010E616F37
:103C1800010E626FE2EC2BF0040EE82EFED7560E72
:103C28000001606F010E616F000E626F23EC2CF0D3
:103C3800000E01015A6F000E5B6F000E5C6F000EE4
:103C48005D6F000E5E6F000E5F6F000E606F000EFE
:103C5800616F000E576F000E566F010E476E000E13
:103C6800466E57EF1EF0000E466E000E476E57EF79
:103C78001EF046500001656F666B6651000AD8B4A5
:103C880048EF1EF037EF1EF06551000AD8B4AAEFCE
:103C98001DF0010AD8B4D0EF1DF0030AD8B4FEEF26
:103CA8001DF037EF1EF047501200DDC0AFF0DEC048
:103CB800B0F0DFC0B1F0E0C0B2F09FC0AFF0A0C07C
:103CC800B0F0A1C0B1F0A2C0B2F08A0E0001A36F9B
:103CD800FF0EA46FAFC0A5F0B0C0A6F0B1C0A7F0AA
:103CE800B2C0A8F0180E7EEF1EF0D890A833A73304
:103CF800A633A533E82E79EF1EF0A551A325AD6FA5
:103D0800000EA421AE6FAEBF93EF1EF0AE5109E1D5
:103D1800200EAD5DD8A093EF1EF095EF1EF09FEF3B
:103D28001EF09FC09FF0A0C0A0F0A1C0A1F0A2C04B
:103D3800A2F0FEEF1EF0AEBFADEF1EF0AE5107E1F0
:103D4800090EAD5DD8B0ABEF1EF0ADEF1EF0B1EFD0
:103D58001EF0000EAE6F010EAD6FFF0EA36FFF0ECB
:103D6800A46FFF0EA56FFF0EA66FAD51E82AC2EF34
:103D78001EF0D890A633A533A433A333E82EBDEFA5
:103D88001EF0A3C0A9F0A4C0AAF0A5C0ABF0A6C0BD
:103D9800ACF0A951AF15A36FAA51B015A46FAB51E0
:103DA800B115A56FAC51B215A66FA351A411A511F9
:103DB800A611D8A4E2EF1EF0E4EF1EF0E6EF1EF025
:103DC80095EF1EF0A91DA36FAA1DA46FAB1DA56FCB
:103DD800AC1DA66FA351AF17A451B017A551B117C9
:103DE800A651B217AFC09FF0B0C0A0F0B1C0A1F00B
:103DF800B2C0A2F01200A09A000E6A6E000E686EA1
:103E0800000E706E710E0001606F0F0E616F000E74
:103E1800636F000E626F000E656F020E646F77ECC1
:103E28001BF0060E6F6E9F0E6B6E7B0E696E000E9A
:103E380000016C6F6C51040D000EF324D96E040E52
:103E4800F420DA6EDE6ADE6ADE6ADD6A6C2B0B0E3F
:103E58006C6531EF1FF033EF1FF01EEF1FF06D8C14
:103E6800000E6E6E6D986D9C6896000ECE6F000EFB
:103E7800C66F000EC86F000EC76F68B646EF1FF01A
:103E880048EF1FF038EF1FF0010E3B6E010E3A6E3F
:103E9800000E396E000E386E000E406E000E6C6F0C
:103EA8006C51020DD10EF324D96E000EF420DA6E97
:103EB800000EDE6E000EDD6E6C51020DD70EF3247F
:103EC800D96E000EF420DA6E000EDE6E000EDD6E86
:103ED800EA0E6C25D96EDA6A000EDA22000EDF6E61
:103EE800E70E6C25D96EDA6A000EDA22000EDF6E54
:103EF8006C2B020E6C6583EF1FF085EF1FF054EFFB
:103F08001FF0080ED16F040ED26F160E706E040EDD
:103F18000401036F300E026F200E016F040E006F54
:103F2800008F000E526E000E2B6E000E2C6E000ECF
:103F38002D6E000E2E6E000E376E000E446E1200AF
:103F4800A09A000E6A6E000E686E000E706E710EFA
:103F5800016E0F0E026E000E046E000E036E000E50
:103F6800066E020E056E33EC1CF0060E6F6E9F0E89
:103F78006B6E7B0E696E000E0D6E0D50040D000EFB
:103F8800F324D96E040EF420DA6EDE6ADE6ADE6A85
:103F9800DD6A0D2A0B0E0D64D4EF1FF0D6EF1FF06B
:103FA800C1EF1FF06D8C000E6E6E6D986D9C68965B
:103FB800000E0001CE6F000EC66F000EC86F000E17
:103FC800C76F68B6EAEF1FF0ECEF1FF0DBEF1FF0EA
:103FD800010E3B6E010E3A6E000E396E000E386E01
:103FE800000E406E000E0D6E0D50020DD10EF32422
:103FF800D96E000EF420DA6E000EDE6E000EDD6E55
:104008000D50020DD70EF324D96E000EF420DA6E8F
:10401800000EDE6E000EDD6EEA0E0D24D96EDA6A31
:10402800000EDA22000EDF6EE70E0D24D96EDA6A72
:10403800000EDA22000EDF6E0D2A020E0D6427EF45
:1040480020F029EF20F0F8EF1FF0080E0001D16FE3
:10405800040ED26F160E706E040E0401036F300E3C
:10406800026F200E016F040E006F008F000E526E5B
:10407800000E2B6E000E2C6E000E2D6E000E2E6E96
:10408800000E376E000E446E120020EE01F0335021
:10409800D9263450DA22DF50026E02500001C75D83
:1040A800000EC859D8B05BEF20F05DEF20F05FEF4D
:1040B80020F0C7C002F00250C75F000EC85B000EB8
:1040C800016E76EF20F0500E0124D96EDA6A040EE4
:1040D800DA22C3C0E1FFC4C0E2FFDFCFE7FFC34B72
:1040E800C42B012A0250015CD8A07DEF20F07FEF9D
:1040F80020F067EF20F0C751C811D8B486EF20F040
:1041080088EF20F0C1EF20F020EE01F03150D926E1
:104118003250DA22200EDF6E20EE02F03150D9261E
:104128003250DA22500EDE6E040EDD6E33C0D9FF37
:1041380034C0DAFFDFBCA3EF20F0A5EF20F0B3EF27
:1041480020F031C0D9FF32C0DAFF480EDF6E31C02F
:10415800D9FF32C0DAFF000EDB8EEAEF20F031C063
:10416800D9FF32C0DAFF080EDF6E31C0D9FF32C086
:10417800DAFF000EDB8EEAEF20F020EE01F031507E
:10418800D9263250DA22200EDF6E20EE02F03150AE
:10419800D9263250DA22300EDE6E040EDD6E31C0C2
:1041A800D9FF32C0DAFF040EDF6E31C0D9FF32C04A
:1041B800DAFF000EDB8EC69F3C50D8A4E6EF20F055
:1041C800E8EF20F0EAEF20F0FFEC26F01200000103
:1041D800686F00016051D8B4F4EF20F0F6EF20F0DA
:1041E80004EF21F06851020DD10EF324D96E000EB0
:1041F800F420DA6EDECF69F0DDCF6AF010EF21F03F
:104208006851020DD70EF324D96E000EF420DA6E31
:10421800DECF69F0DDCF6AF069516A11D8A417EFD3
:1042280021F019EF21F01FEF21F0000E606F000E52
:10423800616F8BEF21F020EE02F06951D9266A51A7
:10424800DA2261C0DEFF62C0DDFF20EE01F06951B5
:10425800D9266A51DA2263C0DFFF69C0D9FF6AC074
:10426800DAFF400EDF1669C0D9FF6AC0DAFF000E18
:10427800DB8669C0D9FF6AC0DAFF000EDB8E6051A9
:10428800D8B449EF21F04BEF21F06AEF21F06851E3
:10429800020DD10EF324D96E000EF420DA6EDECFB3
:1042A80064F0DDCF65F0040E6419666F6551676FC1
:1042B8006851020DD10EF324D96E000EF420DA6E87
:1042C80066C0DEFF67C0DDFF87EF21F06851020D91
:1042D800D70EF324D96E000EF420DA6EDECF64F028
:1042E800DDCF65F0040E6419666F6551676F68511C
:1042F800020DD70EF324D96E000EF420DA6E66C0D4
:10430800DEFF67C0DDFF69C060F06AC061F01200BF
:104318006D980001CEBF93EF21F095EF21F0DAEF11
:1043280021F0C6AF9AEF21F09CEF21F0AEEF21F01B
:10433800020E426E3850D8A4A4EF21F0A6EF21F067
:10434800A8EF21F050EC2AF0000E3A6E000E3B6EFA
:104358002CEF22F020EE01F03150D9263250DA222B
:10436800200EDF6E20EE02F03150D9263250DA22CC
:10437800300EDE6E040EDD6E31C0D9FF32C0DAFFBA
:104388000C0EDF6E31C0D9FF32C0DAFF000EDB8EB3
:10439800D1C0D9FFD2C0DAFF040EDF6ED1C0D9FF79
:1043A800D2C0DAFF000EDB8E2CEF22F0040130AF12
:1043B800E0EF21F0E2EF21F0FEEF21F0010E426E76
:1043C8003950D8A4EAEF21F0ECEF21F0EEEF21F01C
:1043D80050EC2AF0000E3A6E000E3B6E3C50D8A40A
:1043E800F8EF21F0FAEF21F02CEF22F0FFEC26F0A5
:1043F8002CEF22F0020E426E20EE01F03150D92649
:104408003250DA22200EDF6E20EE02F03150D9262B
:104418003250DA22300EDE6E040EDD6E31C0D9FF66
:1044280032C0DAFF040EDF6E31C0D9FF32C0DAFFC6
:10443800000EDB8E000E3A6E000E3B6E3C50D8A488
:1044480028EF22F02AEF22F02CEF22F0FAEF21F0E9
:104458001200096E0150D8B434EF22F036EF22F082
:1044680044EF22F00950020DD10EF324D96E000E4C
:10447800F420DA6EDECF0AF0DDCF0BF050EF22F039
:104488000950020DD70EF324D96E000EF420DA6E0F
:10449800DECF0AF0DDCF0BF00A500B10D8A457EF8F
:1044A80022F059EF22F05FEF22F0000E016E000EAD
:1044B800026ECBEF22F020EE02F00A50D9260B5004
:1044C800DA2202C0DEFF03C0DDFF20EE01F00A5051
:1044D800D9260B50DA2204C0DFFF0AC0D9FF0BC06F
:1044E800DAFF400EDF160AC0D9FF0BC0DAFF000E54
:1044F800DB860AC0D9FF0BC0DAFF000EDB8E015045
:10450800D8B489EF22F08BEF22F0AAEF22F00950FD
:10451800020DD10EF324D96E000EF420DA6EDECF30
:1045280005F0DDCF06F0040E0518076E0650086E7C
:104538000950020DD10EF324D96E000EF420DA6E64
:1045480007C0DEFF08C0DDFFC7EF22F00950020DEB
:10455800D70EF324D96E000EF420DA6EDECF05F004
:10456800DDCF06F0040E0518076E0650086E0950D8
:10457800020DD70EF324D96E000EF420DA6E07C0B0
:10458800DEFF08C0DDFF0AC001F00BC002F0120018
:1045980004013039E832030B0009D8B4D6EF22F011
:1045A800D8EF22F025EF23F05EEF23F00001CE8F45
:1045B800080E446E5EEF23F0EEEC1CF05EEF23F085
:1045C80078EC27F05EEF23F0520E0001CB6F000E5F
:1045D800CC6FCE81010ECF6FCE8F5EEF23F0E7EC6C
:1045E80023F05EEF23F00BEC17F05EEF23F04F0E95
:1045F80034250001CB6FCC6B000ECC23CE81010E8D
:10460800CF6FCE8F5EEF23F00001CE8F4F0E0401E7
:104618003425D96EDA6A000EDA2232C4DFFF5EEF83
:1046280023F0000E0E6E020E0D6E000E0F6E000EC1
:10463800106E000E126E000E116E9EEC2BF05EEFE7
:1046480023F031511C6E1D6A1D50000AD8B42FEF9B
:1046580023F05EEF23F01C50000AD8B4F3EF22F0E9
:10466800010AD8B4F7EF22F0020AD8B4F7EF22F023
:10467800060AD8B4DAEF22F0030AD8B4E0EF22F041
:10468800010AD8B415EF23F00F0AD8B4E8EF22F0E6
:10469800010AD8B4E4EF22F0030AD8B4FBEF22F001
:1046A800010AD8B408EF23F0070AD8B45EEF23F064
:1046B8005EEF23F01200200E016E0001D05107E1D9
:1046C800200ECF5DD8B06BEF23F06DEF23F085EFB0
:1046D80023F0CFC001F04350D8A475EF23F077EF53
:1046E80023F07BEF23F0010E436E85EF23F04304A4
:1046F800D8A481EF23F083EF23F085EF23F0020E97
:10470800436E0150CF5F000ED05B20EE01F0D15117
:10471800D926D251DA2201C0DFFF500E2F6E040EC7
:10472800306ECEB19AEF23F09CEF23F0DEEF23F04A
:10473800B9EF23F0CBC0F6FFCCC0F7FFF86A2FC063
:10474800D9FF30C0DAFF070EF76403D00800F55030
:1047580005D0F6CFE1FFF7CFE2FFE750DF6E0001AB
:10476800CB4BCC2B2F4A302A01060150D8A4BFEFDF
:1047780023F0C1EF23F09EEF23F0E6EF23F0CBC048
:10478800F6FFCCC0F7FFF86A2FC0D9FF30C0DAFFB8
:10479800070EF76403D00800F55005D0F6CFE1FF07
:1047A800F7CFE2FFE750DF6E0001CB4BCC2B2F4A4F
:1047B800302A01060150D8A4E4EF23F0E6EF23F0F5
:1047C800C3EF23F01200000E0401506F000E516F6A
:1047D80044EF24F00001CE8F4104D8A4F6EF23F073
:1047E800F8EF23F05EEF24F0040150835EEF24F02D
:1047F8000001CE8F5EEF24F00001CE8F040134BF9C
:1048080008EF24F00AEF24F01BEF24F034510F0BCB
:10481800016E0150020DD70EF324D96E000EF4205C
:10482800DA6EDECF03F0DDCF04F02AEF24F0345146
:104838000F0B016E0150020DD10EF324D96E000E3C
:10484800F420DA6EDECF03F0DDCF04F003C0D9FF29
:1048580004C0DAFFDFAE33EF24F035EF24F05EEF6B
:1048680024F003C0D9FF04C0DAFFDFA43EEF24F030
:1048780040EF24F05EEF24F0010E506F5EEF24F05D
:1048880030511F0B016E026A0250000AD8B44FEF74
:1048980024F05EEF24F00150000AD8B4EEEF23F0C4
:1048A800010AD8B4FCEF23F0030AD8B400EF24F0CF
:1048B8005EEF24F00001CEAF64EF24F066EF24F041
:1048C8006DEF24F0500ECB6F040ECC6FCE81020E2C
:1048D800CF6F1200040130511F0BE806D8B477EFF0
:1048E80024F079EF24F07BEF24F0F3EF24F0303953
:1048F800E832030BE806D8B484EF24F086EF24F0FE
:1049080088EF24F0F3EF24F03451D8B48EEF24F07C
:1049180090EF24F0D2EF24F03405D8B496EF24F0C9
:1049280098EF24F0D2EF24F0F3EF24F04E0E0001BC
:10493800CB6F010ECC6F000ED06F080ECF6FCE81FB
:10494800CE8FF3EF24F04E0E0001CB6F010ECC6F2B
:10495800CE8FF3EF24F036C4C7F037C4C8F0480E42
:104968000001C36F000EC46F000EC96F000ECA6F3E
:10497800C68FF3EF24F0480E0001CB6F000ECC6F0A
:10498800000ED06F070ECF6FC10ECE6FF3EF24F07D
:1049980032C435F00001CE8FF3EF24F03151016EAF
:1049A800026A0250000AD8B4DCEF24F0F3EF24F0D6
:1049B8000150000AD8B49AEF24F0010AD8B4A7EF3E
:1049C80024F0210AD8B4AFEF24F0010AD8B4BFEF1D
:1049D80024F0030AD8B4CCEF24F0F3EF24F012004B
:1049E800D1C0D9FFD2C0DAFF0001000EDFBC010E32
:1049F800026E040ED119D16FD251D26F080E44182D
:104A0800D8A409EF25F00BEF25F01DEF25F00401E0
:104A180032517F0B6E6E6E50D8B415EF25F017EF3C
:104A280025F01BEF25F0100E446E1DEF25F0040E47
:104A3800446E4204D8A423EF25F025EF25F06DEF4E
:104A480025F0000120EE02F0D151D926D251DA2208
:104A5800500EDE6E040EDD6E5FEC23F0020E43187E
:104A6800D8A439EF25F03BEF25F049EF25F0D1C068
:104A7800D9FFD2C0DAFF040EDF6ED1C0D9FFD2C091
:104A8800DAFF000EDB8E78EF25F00250D8A44FEF46
:104A980025F051EF25F05FEF25F0D1C0D9FFD2C046
:104AA800DAFF480EDF6ED1C0D9FFD2C0DAFF000EA0
:104AB800DB8E78EF25F0D1C0D9FFD2C0DAFF080E1F
:104AC800DF6ED1C0D9FFD2C0DAFF000EDB8E78EFDF
:104AD80025F00001C6AF73EF25F075EF25F076EFEE
:104AE80025F0C69F000E426E12000001B535B6359E
:104AF800BC6FBC51D8A483EF25F085EF25F08FEF6C
:104B080025F0000EB36F000EB46F000EB56F000EE7
:104B1800B66FFCEF25F0B3C0B7F0B4C0B8F0B5C0BD
:104B2800B9F0B6C0BAF0200E9FEF25F0D890BA338E
:104B3800B933B833B733E82E9AEF25F0B751BB6FC6
:104B4800B58FFF0EB317FF0EB417FF0EB517000E83
:104B5800B617960EBC5FBCBFB6EF25F0B4EF25F0D4
:104B6800CCEF25F0BC51800A970FD8B0BEEF25F0E6
:104B7800C0EF25F0C2EF25F085EF25F0D890B633C9
:104B8800B533B433B333BC3FC2EF25F0E4EF25F0BF
:104B98001F0EBC65D2EF25F0D4EF25F0DCEF25F031
:104BA80085EF25F0D890B337B437B537B637BC079B
:104BB800BC51D8A4E2EF25F0E4EF25F0D6EF25F0BC
:104BC800BB51D8B4EAEF25F0ECEF25F0F4EF25F06F
:104BD800B61FB51FB41FB36D000EB423B523B6239B
:104BE800B3C0B3F0B4C0B4F0B5C0B5F0B6C0B6F059
:104BF8001200000E00016015686F000E6115696FE4
:104C0800800E62156A6F7F0E63156B6F68516911AC
:104C18006A116B11D8A413EF26F015EF26F01DEFDB
:104C280026F0000E606F000E616F000E626F000EBE
:104C3800636F000E6415686F000E6515696F800E4E
:104C480066156A6F7F0E67156B6F685169116A1177
:104C58006B11D8A432EF26F034EF26F03CEF26F0A3
:104C6800000E646F000E656F000E666F000E676FB2
:104C780063AF41EF26F043EF26F04CEF26F0606D6E
:104C8800611FD8B0612B621FD8B0622B800E6357AA
:104C980067AF51EF26F053EF26F05CEF26F0646D16
:104CA800651FD8B0652B661FD8B0662B800E675776
:104CB800000E601B000E611B000E621B800E631B42
:104CC800000E641B000E651B000E661B800E671B22
:104CD8006451605D65516159665162596751635904
:104CE800D8B079EF26F07BEF26F07EEF26F0D8904B
:104CF8007FEF26F0D88012008C968C988C9ADCEF87
:104D080026F020EE0FF06051D9266151DA22000E0C
:104D1800DE6E000EDE6EC80EDE6E420EDD6EFEEF3B
:104D280026F020EE0FF06051D9266151DA22000EEC
:104D3800DE6E000EDE6E480EDE6E430EDD6E8C8675
:104D4800FEEF26F020EE0FF06051D9266151DA22ED
:104D5800000EDE6E000EDE6EC80EDE6E430EDD6ED9
:104D68008C88FEEF26F020EE0FF06051D9266151B5
:104D7800DA22000EDE6E000EDE6E480EDE6E440E87
:104D8800DD6E8C868C88FEEF26F020EE0FF06051E9
:104D9800D9266151DA22000EDE6E000EDE6EC80ED4
:104DA800DE6E440EDD6E8C868C888C8AFEEF26F0D3
:104DB80000016251636F646B6451000AD8B4E7EF75
:104DC80026F0FEEF26F06351000AD8B485EF26F0EE
:104DD800010AD8B495EF26F0030AD8B4A6EF26F056
:104DE800010AD8B4B7EF26F0070AD8B4C9EF26F0FD
:104DF800FEEF26F012003B50D8A405EF27F007EF8E
:104E080027F077EF27F0010E3B6E3A50D8A40FEF4A
:104E180027F011EF27F077EF27F0010E3A6E020E18
:104E28004218D8A41AEF27F01CEF27F033EF27F029
:104E3800000120EE01F0D151D926D251DA22000E1C
:104E4800DF6ED1C0D9FFD2C0DAFF480EDF6ED1C005
:104E5800D9FFD2C0DAFF000EDB8E77EF27F04204CD
:104E6800D8A439EF27F03BEF27F077EF27F0000EB3
:104E78003E6E20EE01F03350D9263450DA22200E4F
:104E8800DF6E20EE02F03350D9263450DA22300E8D
:104E9800DE6E040EDD6E33C0D9FF34C0DAFF040EB7
:104EA800DF6E33C0D9FF34C0DAFF000EDB8E010E8F
:104EB8003E6E20EE01F03150D9263250DA22200E13
:104EC800DF6E20EE02F03150D9263250DA22300E51
:104ED800DE6E040EDD6E31C0D9FF32C0DAFF800EFF
:104EE800DF6E77EF27F012000001CE8F710E016E92
:104EF8000F0E026E000E046E000E036E000E066E9C
:104F0800020E056E33EC1CF0000E016E040E026EEC
:104F1800000E046E000E036E000E066E300E056E57
:104F280033EC1CF06D8C000E156EEA0E1524D96E4C
:104F3800DA6A000EDA22000EDF6EE70E1524D96E4B
:104F4800DA6A000EDA22000EDF6E152A020E1564E8
:104F5800B0EF27F0B2EF27F099EF27F04F0E016E70
:104F6800000E026E000E046E000E036E000E066E3A
:104F7800020E056E33EC1CF06D9C080E0001D16F1B
:104F8800040ED26F000E336E040E346E33C031F04F
:104F980034C032F032C452F05250D8A4D6EF27F0C1
:104FA800D8EF27F0DCEF27F0100E446EECEF27F077
:104FB800000E0E6E010E0D6E520E0F6E000E106E6C
:104FC800000E126E010E116E9EEC2BF0200E446E38
:104FD800120000016B516C11D8A4F5EF27F0F7EF20
:104FE80027F00AEF28F0EDC06BF0EEC06CF06B51C3
:104FF8006C11D8A402EF28F004EF28F00AEF28F08B
:10500800000E6B6F000E6C6F5EEF28F06BC064F0E3
:105018006CC065F06DC066F06EC067F042EC2DF0B4
:10502800000164516B2765516C236BC0D9FF6CC0BC
:10503800DAFFDF50D8A423EF28F025EF28F02FEF70
:1050480028F0000EED6F000EEE6FEDC06BF0EEC0B5
:105058006CF05EEF28F06BC064F06CC065F06DC05A
:1050680066F06EC067F077EC2DF0000164516B2597
:10507800ED6F65516C21EE6FEDC0D9FFEEC0DAFF20
:10508800DF50D8B44AEF28F04CEF28F056EF28F05C
:10509800EDC0D9FFEEC0DAFF000EDF6EED4BEE2B50
:1050A8005AEF28F0000EED6F000EEE6F6BC06BF03C
:1050B8006CC06CF01200B2EF28F0CDEC28F00009BB
:1050C800D8B469EF28F06BEF28F0CCEF28F08BA468
:1050D80070EF28F075EF28F00001C16BC12B77EF56
:1050E80028F00001C16BC147C1478B50C119FB0BA8
:1050F800C1198B6E010E456ECCEF28F02E0EBD6FD8
:10510800010EBE6F4CEC15F0040E0001BD19BE1166
:10511800D8A491EF28F093EF28F097EF28F0020E2B
:10512800456ECCEF28F0000E456ECCEF28F0A8ECC9
:105138001DF00009D8B4A3EF28F0A5EF28F0CCEFB4
:1051480028F0000E456E270E0001606F110E616F8A
:105158000E0E626F3EEC30F0CCEF28F045500001A7
:10516800C16FC26BC251000AD8B4BDEF28F097EFE7
:1051780028F0C151000AD8B461EF28F0010AD8B468
:1051880082EF28F0030AD8B49BEF28F097EF28F0B5
:1051980012001BEF29F0000EF76F000EF86F010EDA
:1051A800F66F35EF29F02E0E6B6F010E6C6F200E27
:1051B8006D6F98EC29F00001F86FF851D8B4E7EF5B
:1051C80028F0E9EF28F035EF29F0020EF66F35EFF9
:1051D80029F02D0EF825D96EDA6A010EDA220A0EA8
:1051E800DE18D8B4FAEF28F0FCEF28F00BEF29F01E
:1051F8002D0EF825D96EDA6A010EDA220D0EDE18A8
:10520800D8A409EF29F00BEF29F011EF29F0000ECF
:10521800F66F010EF76F35EF29F0000EF66F35EFD8
:1052280029F0000EF66F000EF76F35EF29F0000138
:10523800F6516F6F706B7051000AD8B426EF29F0E1
:1052480015EF29F06F51000AD8B4CFEF28F0010A02
:10525800D8B4D7EF28F0030AD8B4EDEF28F015EF4B
:1052680029F0F75112000600E1CF21F0E2CF22F039
:10527800D9CF23F0DACF24F0F3CF25F0F4CF26F0FE
:10528800F6CF27F0F7CF28F0F8CF29F0F5CF2AF09E
:10529800F2A451EF29F053EF29F080EF29F0F294AE
:1052A80083BC59EF29F05CEF29F0010E5DEF29F07E
:1052B800000E0101636F81B264EF29F067EF29F0F6
:1052C800010E68EF29F0000E646F5851D8A46FEFF3
:1052D80029F071EF29F080EF29F08DA076EF29F001
:1052E8007AEF29F0206A202A7BEF29F0206A8D5076
:1052F8002018FE0B20188D6E26EC30F02AC0F5FF22
:1053080029C0F8FF28C0F7FF27C0F6FF26C0F4FF22
:1053180025C0F3FF24C0DAFF23C0D9FF22C0E2FF73
:1053280021C0E1FF55921100000E0001F56FF15107
:10533800F211D8B4A2EF29F0A4EF29F0AFEF29F0C9
:10534800F1C0D9FFF2C0DAFFDFBEADEF29F0AFEF51
:1053580029F0F1EF29F020EE01F0F151D926F251B0
:10536800DA226D51DE5CD8B0BCEF29F0BEEF29F02F
:10537800C6EF29F020EE01F0F151D926F251DA22D8
:10538800DF506D6F000EF56FD9EF29F0400EF5254F
:10539800D96EDA6A050EDA22F5516B25E16E000E38
:1053A8006C21E26EDFCFE7FFF52B6D51F55DD8A0DC
:1053B800E0EF29F0E2EF29F0CAEF29F0000E606F64
:1053C800400E616F050E626F400E636F020EEBECCC
:1053D80020F060C0F1F061C0F2F00001F551120058
:1053E8002D0E3D6E51C01EF0FD0E1E16D8A4FFEF07
:1053F80029F001EF2AF043EF2AF051C01EF0D890AF
:105408001E323F0E1E161E50040D000EF324336E7E
:10541800040EF420346E33C031F034C032F0040E80
:105428003118316E3250326E33C0D9FF34C0DAFFD2
:10543800DF30E8320F0B0D0AD8A425EF2AF027EF4A
:105448002AF03FEF2AF0300E016E040E026E20EEB5
:1054580002F03350D9263450DA22DECF03F0DDCF04
:1054680004F0000E066E080E056E92EC2EF056EC57
:105478002BF04FEF2AF064EC2CF04FEF2AF051504C
:10548800FD0B040AD8A44BEF2AF04DEF2AF04FEF9A
:105498002AF0F4EC24F01200000E396E000E386E7B
:1054A800020E4218D8A45BEF2AF05DEF2AF07DEFD8
:1054B8002AF020EE01F03150D9263250DA22200E9F
:1054C800DF6E20EE02F03150D9263250DA22500E2B
:1054D800DE6E040EDD6E31C0D9FF32C0DAFF480E31
:1054E800DF6E31C0D9FF32C0DAFF000EDB8EA9EFC4
:1054F8002AF00001CF510401365D0001D0510401AA
:105508003759D8B08AEF2AF08CEF2AF090EF2AF0BA
:1055180036C4CFF037C4D0F05FEC23F0000120EEA2
:1055280002F0D151D926D251DA22500EDE6E040E85
:10553800DD6ED1C0D9FFD2C0DAFF480EDF6ED1C010
:10554800D9FFD2C0DAFF000EDB8E1200000E000178
:105558006015686F000E6115696F800E62156A6FBD
:105568007F0E63156B6F685169116A116B11D8A4AE
:10557800C0EF2AF0C2EF2AF0CAEF2AF0000E606FDF
:10558800000E616F000E626F000E636F000E6415EF
:10559800686F000E6515696F800E66156A6F7F0E5D
:1055A80067156B6F685169116A116B11D8A4DFEF29
:1055B8002AF0E1EF2AF0E9EF2AF0000E646F000EFE
:1055C800656F000E666F000E676F645160190FE11A
:1055D800655161190CE16651621909E16751631956
:1055E800D8B4F9EF2AF0FBEF2AF0FEEF2AF0D890B2
:1055F800FFEF2AF0D8801200066E000E076E040E28
:10560800086E0150026E036AD890023603360650BF
:10561800046E056AD89004360536D89004360536E7
:105628000250042603500522D89004360536D89037
:1056380004360536045007260550082207C0D9FF4E
:1056480008C0DAFFDF9E0150D8A42DEF2BF02FEF12
:105658002BF03DEF2BF00650020DD70EF324D96E38
:10566800000EF420DA6E07C0DEFF08C0DDFF49EF48
:105678002BF00650020DD10EF324D96E000EF42043
:10568800DA6E07C0DEFF08C0DDFF07C0D9FF08C01B
:10569800DAFFDF9C20EE04F00750D9260850DA2202
:1056A800DF8C1200000E436E000E3C6E000E396E49
:1056B800000E386E000E3E6E000E426ED1C0D9FF4D
:1056C800D2C0DAFF7F0EDF16040E0001D119D16FA8
:1056D800D251D26FD1C0D9FFD2C0DAFF7F0EDF1608
:1056E800040ED119D16FD251D26F31C0D9FF32C057
:1056F800DAFF7F0EDF16000ECE6F000ED06F000EA1
:10570800CF6F000EC66F000EC86F000EC76FCCECCF
:1057180022F0000E0E6E030E0D6E000E0F6E000EC0
:10572800106E000E126E000E116E9EEC2BF08CECBB
:1057380021F01200A8EF2BF0ACEC2DF0E1EF2BF0EC
:105748006EEC24F0E1EF2BF00DC013F00EC014F056
:105758001450000AD8B4B7EF2BF07F0AD8B4DAEFA8
:105768002BF0E1EF2BF01350010AD8B4A0EF2BF087
:10577800030AD8B4E1EF2BF0010AD8B4A4EF2BF058
:10578800060AD8B4E1EF2BF0770AD8B4E1EF2BF092
:10579800010AD8B4E1EF2BF0070AD8B4E1EF2BF0F7
:1057A800010AD8B4E1EF2BF0E1EF2BF01350FF0A18
:1057B800D8B4E1EF2BF0E1EF2BF01200F9EF2BF06A
:1057C80062B102D08C9001D08C8019EF2CF062B1BC
:1057D80002D08C9201D08C8219EF2CF062B102D0E9
:1057E8008C9401D08C8419EF2CF0000120EE0CF081
:1057F8006051D9266151DA22DF50636F646B6451BE
:10580800000AD8B40AEF2CF019EF2CF06351000A03
:10581800D8B4E4EF2BF0010AD8B4EBEF2BF0030A6D
:10582800D8B4F2EF2BF019EF2CF0000120EE02F0C3
:105838006051D9266151DA2262C0DFFF12003AEFC7
:105848002CF062B102D08B9001D08B805AEF2CF0F3
:1058580062B102D08B9201D08B825AEF2CF062B1E8
:1058680002D0899001D089805AEF2CF0000120EEF7
:105878000CF06051D9266151DA22DF50636F646BF6
:105888006451000AD8B44BEF2CF05AEF2CF0635156
:10589800000AD8B425EF2CF0010AD8B42CEF2CF06C
:1058A800030AD8B433EF2CF05AEF2CF0000120EEA5
:1058B80003F06051D9266151DA2262C0DFFF12007D
:1058C800020E4218D8A46BEF2CF06DEF2CF071EF9C
:1058D8002CF049EC20F09DEF2CF0000E426E3E506B
:1058E800D8A479EF2CF07BEF2CF09BEF2CF020EE76
:1058F80001F03150D9263250DA22200EDF6E20EE28
:1059080002F03150D9263250DA22300EDE6E040E03
:10591800DD6E31C0D9FF32C0DAFF0C0EDF6E31C048
:10592800D9FF32C0DAFF000EDB8E9DEF2CF0000E9F
:105938003E6E1200010E0001666FD00E626FFF0E00
:10594800636F60C064F061C065F0625164276351A1
:105958006523655109E10A0E645DD8A0B6EF2CF005
:10596800B8EF2CF0D3EF2CF09F0E626FFF0E636F31
:10597800200E6011646F000E6111656F625164271B
:1059880063516523655109E1060E645DD8A0CFEF28
:105998002CF0D1EF2CF0D3EF2CF0000E666F66C020
:1059A80060F0616B1200000E0001686F000E696FF5
:1059B800000E6A6F000E6B6F60A1E5EF2CF0E7EF49
:1059C8002CF0EFEF2CF0645168276551692366517C
:1059D8006A2367516B23D890643765376637673712
:1059E800D89063336233613360336051611162115F
:1059F8006311D8A402EF2DF004EF2DF0E0EF2CF0A6
:105A080068C060F069C061F06AC062F06BC063F0A2
:105A18001200400EF66E610EF76E000EF86E01EE83
:105A280056F010EE13F00900F5CFEEFFE550E15007
:105A3800FAE1760EF66E610EF76E000EF86E09004A
:105A4800F5CF53F00900F5CF54F001EE00F0560EF3
:105A5800EE6AE806FDE100EEC3F0360EEE6AE806EF
:105A6800FDE100EE2BF0280EEE6AE806FDE1559008
:105A78005592000EF86E0001F2EF2FF0000E0001B3
:105A88006A6F000E696F4DEF2DF0644B652B694B03
:105A98006A2B64C0D9FF65C0DAFFDF50D8B457EF6E
:105AA8002DF059EF2DF072EF2DF066C060F067C051
:105AB80061F064C0D9FF65C0DAFFDF50686F6851D4
:105AC800626F636B3EEC2EF0000160516111D8A447
:105AD80070EF2DF072EF2DF049EF2DF069C064F0F2
:105AE8006AC065F01200000E00016A6F000E696F4F
:105AF80082EF2DF0644B652B694B6A2B64C0D9FF8C
:105B080065C0DAFFDF50D8B48CEF2DF08EEF2DF0A2
:105B1800A7EF2DF066C060F067C061F064C0D9FFE0
:105B280065C0DAFFDF50686F6851626F636B3EECE7
:105B38002EF0000160516111D8B4A5EF2DF0A7EF48
:105B48002DF07EEF2DF069C064F06AC065F0120098
:105B5800000E486E4B0E496E000E4A6E000E4B6EDC
:105B6800000E4C6E000E4D6E080E4E6E000E0001BB
:105B7800F56F1A0E096E010EBAEC2EF01E0E096EA4
:105B8800020EBAEC2EF0000E016E400E026E050EEB
:105B9800036E400E046E020E2DEC22F001C0F1F0EF
:105BA80002C0F2F0000E0001EF6F000EF06F000E61
:105BB800366E12009F0E0001686FFF0E696F66C097
:105BC8006AF067C06BF068516A2769516B236B51A3
:105BD8000AE11A0E6A5DD8A0F4EF2DF0F7EF2DF068
:105BE800010EF8EF2DF0000E6C6F6D6B6C516D119E
:105BF800D8B401EF2EF003EF2EF009EF2EF05F0E70
:105C08006615666F676B0DEF2EF066C066F067C0AD
:105C180067F0120070A013EF2EF015EF2EF03CEF96
:105C28002EF033C0D9FF34C0DAFF800EDE18D8A4B6
:105C380020EF2EF022EF2EF03BEF2EF0D1C0D9FF4F
:105C4800D2C0DAFF840EDE18D8A42DEF2EF02FEF85
:105C58002EF03BEF2EF033C0D9FF34C0DAFF0C0E24
:105C6800DF6E33C0D9FF34C0DAFF000EDB8E7090D0
:105C7800689A120060C0F6FF61C0F7FF0800F5508F
:105C880000016219D8A44BEF2EF04DEF2EF053EF20
:105C98002EF060C060F061C061F067EF2EF060C068
:105CA800F6FF61C0F7FF604B612B0800F550000953
:105CB800D8A461EF2EF063EF2EF03EEF2EF0000E29
:105CC800606F000E616F1200010E0001666F200EFA
:105CD80060196111D8B473EF2EF075EF2EF08EEFC6
:105CE8002EF0F70E626FFF0E636F60C064F061C044
:105CF80065F06251642763516523655109E1050E1A
:105D0800645DD8A08AEF2EF08CEF2EF08EEF2EF087
:105D1800000E666F66C060F0616B120003C009F088
:105D280004C00AF001C007F002C008F0ACEF2EF082
:105D380009C0D9FF0AC0DAFFDF500B6E094A0A2AE8
:105D480007C0D9FF08C0DAFF0BC0DFFF074A082ADF
:105D58000506D8A00606052806E10628D8A4B7EF48
:105D68002EF0B9EF2EF09CEF2EF012000C6E09A465
:105D7800C0EF2EF0C2EF2EF0C7EF2EF0000E016E2E
:105D88000C5000EC2BF009A2CCEF2EF0CEEF2EF049
:105D9800D3EF2EF0010E016E0C5000EC2BF0700EBC
:105DA8000C240A6E0B6A0F0E0B220AC0D9FF0BC017
:105DB800DAFF09C0DFFF1200000120EE03F0635193
:105DC800D9266451DA22DF50D8A4EDEF2EF0EFEF98
:105DD8002EF0F9EF2EF0E80E606F100E616F160EC0
:105DE800626F3EEC30F001EF2FF0BA0E606F100ECC
:105DF800616F180E626F3EEC30F012004450D8A468
:105E080008EF2FF00AEF2FF022EF2FF0000E6D6E43
:105E1800000E696E060E6F6E9F0E6B6E7B0E696EBE
:105E2800A28AA08A19EF2FF06D866DA61EEF2FF0BB
:105E380020EF2FF018EF2FF0010E446E1200959608
:105E48008C9695988C98959A8C9A95908C9095921A
:105E58008C9295948C9494908B9094928B9292902F
:105E6800899096908D9096928D9296948D94949414
:105E78008B94958C9382938493809388938A120051
:105E8800000E406E000E0E6E740E0D6E000E0F6E3C
:105E9800000E106E000E126E000E116E9EEC2BF0AE
:105EA8006D92699459EF2FF0689468B45EEF2FF003
:105EB80060EF2FF058EF2FF0000E376E12009F0E94
:105EC8000001626FFF0E636F60C064F061C065F02F
:105ED800625164276351652365510AE11A0E645DB6
:105EE800D8A079EF2FF07CEF2FF0010E7DEF2FF087
:105EF800000E606F616B1200D00E0001626FFF0E22
:105F0800636F60C064F061C065F0625164276351DB
:105F1800652365510AE10A0E645DD8A096EF2FF05B
:105F280099EF2FF0010E9AEF2FF0000E606F616B62
:105F3800120000016051611162116311D8B4A7EF1A
:105F48002FF0A9EF2FF0B1EF2FF0000E601B000E1D
:105F5800611B000E621B800E631B60C060F061C095
:105F680061F062C062F063C063F012001F0E446407
:105F7800C0EF2FF0C2EF2FF0CFEF2FF06DB2C7EFC9
:105F88002FF0C9EF2FF0CFEF2FF0000E0001616F57
:105F98006069D4EF2FF0000E0001616F000E606F92
:105FA80060511200560E0001606F010E616F010E04
:105FB800626F23EC2CF0560E0001606F010E616FCA
:105FC800000E626F80EC26F0560E0001606F010E25
:105FD800616F010E626FE2EC2BF0120023EC2FF0E0
:105FE800D6EC2FF0AAEC30F090EC30F0D00EB6ECF6
:105FF80030F0BAEC2FF00009D8B405EF30F007EF15
:1060080030F0FDEF2FF0B1EC30F0FDEF2FF007EF9F
:1060180008F0010E2B26000E2C222D222E22405095
:10602800D8A419EF30F01BEF30F025EF30F0372A05
:106038003750D8A422EF30F024EF30F025EF30F0BD
:1060480037681200F2AC2BEF30F02DEF30F03DEF57
:1060580030F0A0AA32EF30F034EF30F03DEF30F0FE
:10606800A1AA39EF30F03BEF30F03DEF30F0B9EC5A
:1060780018F01200A09A3650D8A445EF30F047EF38
:1060880030F052EF30F060C0E4F061C0E5F062C07B
:10609800F4F0010E0001F36F010E366EA08A1200B3
:1060A800698468986D82010E406E000E376E000E8E
:1060B8000E6E750E0D6E000E0F6E000E106E000E39
:1060C800126E000E116E9EEC2BF012000001605152
:1060D8006203F3CF64F0F4CF65F060516303F350CB
:1060E800652761516203F350652764C060F065C09D
:1060F80061F01200FF0E0001646FFF0E656FFF0E66
:10610800666F7F0E676F64C060F065C061F066C03F
:1061180062F067C063F01200D09EF29EF28CF28AA1
:10612800F294D59ED58CD59AD596070ED512D00E59
:10613800D66ED58EF28E120000000100000000001D
:0B614800000000000000000000C84242
:10615400F28EF28CFFEC1EF002EC2FF012005FECDA
:1061640028F0A9EC1AF012000001606F60C0D6FF9D
:046174001200D0D075
:020000040020DA
:08000000FFFFFFFFFFFFFFFF00
:020000040030CA
:0E000000230E391EFF8381FF0FC00FE00F405B
:00000001FF
